{"contracts/test/TestBLS.sol":{"TestBLS":{"abi":[{"inputs":[{"internalType":"bytes","name":"domain","type":"bytes"},{"internalType":"bytes","name":"message","type":"bytes"}],"name":"_expandMsg","outputs":[{"internalType":"bytes","name":"","type":"bytes"}],"stateMutability":"view","type":"function"},{"inputs":[{"internalType":"bytes","name":"domain","type":"bytes"},{"internalType":"bytes","name":"message","type":"bytes"}],"name":"_hashToField","outputs":[{"internalType":"uint256[2]","name":"","type":"uint256[2]"}],"stateMutability":"view","type":"function"},{"inputs":[{"internalType":"bytes","name":"domain","type":"bytes"},{"internalType":"bytes","name":"message","type":"bytes"}],"name":"_hashToPoint","outputs":[{"internalType":"uint256[2]","name":"","type":"uint256[2]"}],"stateMutability":"view","type":"function"},{"inputs":[{"internalType":"uint256","name":"a","type":"uint256"}],"name":"_inverse","outputs":[{"internalType":"uint256","name":"","type":"uint256"}],"stateMutability":"view","type":"function"},{"inputs":[{"internalType":"uint256","name":"a","type":"uint256"}],"name":"_inverseFaster","outputs":[{"internalType":"uint256","name":"","type":"uint256"}],"stateMutability":"view","type":"function"},{"inputs":[{"internalType":"uint256","name":"e","type":"uint256"}],"name":"_isNonResidueFP","outputs":[{"internalType":"bool","name":"","type":"bool"}],"stateMutability":"view","type":"function"},{"inputs":[{"internalType":"uint256[2]","name":"e","type":"uint256[2]"}],"name":"_isNonResidueFP2","outputs":[{"internalType":"bool","name":"","type":"bool"}],"stateMutability":"view","type":"function"},{"inputs":[{"internalType":"uint256[2]","name":"point","type":"uint256[2]"}],"name":"_isOnCurveG1","outputs":[{"internalType":"bool","name":"","type":"bool"}],"stateMutability":"pure","type":"function"},{"inputs":[{"internalType":"uint256","name":"point","type":"uint256"}],"name":"_isOnCurveG1Compressed","outputs":[{"internalType":"bool","name":"","type":"bool"}],"stateMutability":"view","type":"function"},{"inputs":[{"internalType":"uint256[4]","name":"point","type":"uint256[4]"}],"name":"_isOnCurveG2","outputs":[{"internalType":"bool","name":"","type":"bool"}],"stateMutability":"pure","type":"function"},{"inputs":[{"internalType":"uint256[2]","name":"point","type":"uint256[2]"}],"name":"_isOnCurveG2Compressed","outputs":[{"internalType":"bool","name":"","type":"bool"}],"stateMutability":"view","type":"function"},{"inputs":[{"internalType":"uint256[2]","name":"compressed","type":"uint256[2]"}],"name":"_isValidCompressedPublicKey","outputs":[{"internalType":"bool","name":"","type":"bool"}],"stateMutability":"view","type":"function"},{"inputs":[{"internalType":"uint256","name":"compressed","type":"uint256"}],"name":"_isValidCompressedSignature","outputs":[{"internalType":"bool","name":"","type":"bool"}],"stateMutability":"view","type":"function"},{"inputs":[{"internalType":"uint256","name":"e","type":"uint256"}],"name":"_mapToPointFT","outputs":[{"internalType":"uint256[2]","name":"p","type":"uint256[2]"}],"stateMutability":"view","type":"function"},{"inputs":[{"internalType":"bytes32","name":"e","type":"bytes32"}],"name":"_mapToPointTI","outputs":[{"internalType":"uint256[2]","name":"p","type":"uint256[2]"}],"stateMutability":"view","type":"function"},{"inputs":[{"internalType":"uint256[2]","name":"compressed","type":"uint256[2]"},{"internalType":"uint256[2]","name":"y","type":"uint256[2]"}],"name":"_pubkeyToUncompresed","outputs":[{"internalType":"uint256[4]","name":"uncompressed","type":"uint256[4]"}],"stateMutability":"pure","type":"function"},{"inputs":[{"internalType":"uint256","name":"compressed","type":"uint256"},{"internalType":"uint256","name":"y","type":"uint256"}],"name":"_signatureToUncompresed","outputs":[{"internalType":"uint256[2]","name":"uncompressed","type":"uint256[2]"}],"stateMutability":"pure","type":"function"},{"inputs":[{"internalType":"uint256","name":"xx","type":"uint256"}],"name":"_sqrt","outputs":[{"internalType":"uint256","name":"","type":"uint256"},{"internalType":"bool","name":"","type":"bool"}],"stateMutability":"view","type":"function"},{"inputs":[{"internalType":"uint256","name":"xx","type":"uint256"}],"name":"_sqrtFaster","outputs":[{"internalType":"uint256","name":"","type":"uint256"},{"internalType":"bool","name":"","type":"bool"}],"stateMutability":"view","type":"function"},{"inputs":[{"internalType":"uint256[2]","name":"signature","type":"uint256[2]"},{"internalType":"uint256[4][]","name":"pubkeys","type":"uint256[4][]"},{"internalType":"uint256[2][]","name":"messages","type":"uint256[2][]"}],"name":"_verifyMultiple","outputs":[{"internalType":"bool","name":"","type":"bool"}],"stateMutability":"view","type":"function"},{"inputs":[{"internalType":"uint256[2]","name":"signature","type":"uint256[2]"},{"internalType":"uint256[4]","name":"pubkey","type":"uint256[4]"},{"internalType":"uint256[2]","name":"message","type":"uint256[2]"}],"name":"_verifySingle","outputs":[{"internalType":"bool","name":"","type":"bool"}],"stateMutability":"view","type":"function"}],"evm":{"bytecode":{"linkReferences":{},"object":"608060405234801561001057600080fd5b50613736806100206000396000f3fe608060405234801561001057600080fd5b50600436106101775760003560e01c806390baab7f116100d8578063e1fcad4a1161008c578063f73caea811610066578063f73caea814610331578063f8c6c05f14610344578063ffef569c1461035757600080fd5b8063e1fcad4a146102f8578063f45dded61461030b578063f66d032f1461031e57600080fd5b8063ac39a635116100bd578063ac39a635146102bf578063b4a5eaca146102d2578063ca608d01146102e557600080fd5b806390baab7f1461029957806391717524146102ac57600080fd5b80636e000f021161012f57806378d8be241161011457806378d8be241461024557806385a2b168146102585780638cecf66e1461027857600080fd5b80636e000f021461021f57806375e066501461023257600080fd5b80634bfc36e4116101605780634bfc36e4146101c457806350c406f7146101e45780636a263f02146101f757600080fd5b80632758ebce1461017c578063384cd5c4146101a4575b600080fd5b61018f61018a366004613119565b61036a565b60405190151581526020015b60405180910390f35b6101b76101b2366004613159565b610384565b60405161019b91906131ea565b6101d76101d2366004613119565b6103c0565b60405161019b919061321b565b61018f6101f2366004613243565b6103d1565b61020a610205366004613119565b610409565b6040805192835290151560208301520161019b565b61018f61022d366004613243565b61041e565b6101d76102403660046132ec565b61044d565b61018f610253366004613361565b61045f565b61026b6102663660046133f1565b6104d5565b60405161019b919061348d565b61028b610286366004613119565b610553565b60405190815260200161019b565b61018f6102a7366004613505565b61055e565b61018f6102ba366004613119565b61065d565b61018f6102cd366004613119565b610668565b6101d76102e0366004613119565b610673565b6101d76102f33660046135b8565b610684565b61018f6103063660046135da565b610696565b61018f610319366004613243565b6106ca565b61018f61032c366004613243565b6106f9565b6101d761033f3660046133f1565b610728565b61028b610352366004613119565b6107a3565b61020a610365366004613119565b6107ae565b600061037e6001600160ff1b0383166107ba565b92915050565b61038c6130bf565b6040805180820182526103b9918590600290839083908082843760009201919091525085915061086a9050565b9392505050565b6103c86130dd565b61037e8261091e565b6040805180820190915281356001600160ff1b031680825260208084013590830181905260009261040190610d1e565b949350505050565b60008061041583610e99565b91509150915091565b60408051808201825260009161037e919084906002908390839080828437600092019190915250610f6f915050565b6104556130dd565b6103b9838361108c565b604080518082018252600091610401919086906002908390839080828437600092019190915250506040805160808181019092529150869060049083908390808284376000920191909152505060408051808201825291508690600290839083908082843760009201919091525061113c915050565b606061054a85858080601f01602080910402602001604051908101604052809392919081815260200183838082843760009201919091525050604080516020601f8901819004810282018101909252878152925087915086908190840183828082843760009201919091525061132292505050565b95945050505050565b600061037e8261162e565b6040805180820182526000916106539190889060029083908390808284376000920182905250604080516020808c02820181019092528a815293508a92508991829185015b828210156105e457604080516080818101909252908084028701906004908390839080828437600092019190915250505081526001909101906020016105a3565b50505050508585808060200260200160405190810160405280939291908181526020016000905b82821015610649576040805180820182529080840287019060029083908390808284376000920191909152505050815260019091019060200161060b565b50505050506116ec565b9695505050505050565b600061037e82611c5b565b600061037e82611c9f565b61067b6130dd565b61037e82611d87565b61068c6130dd565b6103b98383611e31565b600061037e826004806020026040519081016040528092919082600460200280828437600092019190915250611ed5915050565b60408051808201825260009161037e91908490600290839083908082843760009201919091525061203c915050565b60408051808201825260009161037e9190849060029083908390808284376000920191909152506120c2915050565b6107306130dd565b61054a85858080601f01602080910402602001604051908101604052809392919081815260200183838082843760009201919091525050604080516020601f8901819004810282018101909252878152925087915086908190840183828082843760009201919091525061212192505050565b600061037e8261220f565b6000806104158361221a565b600080826000805160206136e18339815191528182096000805160206136e183398151915282820990506000805160206136e183398151915260038208905060405191506020825260208083015260206040830152806060830152507f183227397098d014dc2822db40c0ac2ecbc0b548b438e5469e10460b6c3e7ea360808201526000805160206136e183398151915260a082015260208160c08360056107d05a03fa50516001149392505050565b6108726130bf565b8251600160ff1b9081169081148061088f57508251600190811614155b6108f45760405162461bcd60e51b815260206004820152602b60248201527f424c533a20626164207920636f6f7264696e61746520666f7220756e636f6d7060448201526a72657373696e67206b657960a81b60648201526084015b60405180910390fd5b5082516001600160ff1b031681526020928301518184015281516040820152910151606082015290565b6109266130dd565b6000805160206136e183398151915282106109a95760405162461bcd60e51b815260206004820152602360248201527f6d6170546f506f696e7446543a20696e76616c6964206669656c6420656c656d60448201527f656e74000000000000000000000000000000000000000000000000000000000060648201526084016108eb565b8160006109b582611c9f565b905060006000805160206136e183398151915283840990506000805160206136e183398151915260048208905060006000805160206136e183398151915277b3c4d79d41a91759a9e4c7e359b6b89eaec68e62effffffd8509905060006000805160206136e18339815191528383099050610a2f8161220f565b90506000805160206136e183398151915282830991506000805160206136e183398151915281830991506000805160206136e183398151915282860991506000805160206136e1833981519152610a94836000805160206136e1833981519152613622565b7759e26bcea0d48bacd4f263f1acdb5c4f5763473177fffffe0894506000805160206136e183398151915285860991506000805160206136e183398151915285830991506000805160206136e18339815191526003830891506000610af88361221a565b90935090508015610b41578415610b2457610b21836000805160206136e1833981519152613622565b92505b505060408051808201909152938452602084015250909392505050565b6000805160206136e183398151915260018708610b6c906000805160206136e1833981519152613622565b95506000805160206136e183398151915286870992506000805160206136e183398151915286840992506000805160206136e1833981519152600384089250610bb48361221a565b90935090508015610bdd578415610b2457610b21836000805160206136e1833981519152613622565b6000805160206136e183398151915284850995506000805160206136e183398151915286870995506000805160206136e183398151915282870995506000805160206136e183398151915282870995506000805160206136e18339815191526001870895506000805160206136e183398151915286870992506000805160206136e183398151915286840992506000805160206136e1833981519152600384089250610c888361221a565b909350905080610d005760405162461bcd60e51b815260206004820152602260248201527f424c533a20626164206674206d617070696e6720696d706c656d656e7461746960448201527f6f6e00000000000000000000000000000000000000000000000000000000000060648201526084016108eb565b8415610b2457610b21836000805160206136e1833981519152613622565b600080600083015160208401516000805160206136e18339815191528283096000805160206136e183398151915282830981828301016000805160206136e183398151915282838401086000805160206136e183398151915286826000805160206136e1833981519152038601099350506000805160206136e183398151915284836000805160206136e1833981519152038301099150507f2b149d40ceb8aaae81be18991be06ac3b5b4c5e559dbefa33267e6dc24a138e5820193507e9713b03af0fed4cd2cafadeed8fdf4a74fa084e52d1852e4a2bd0685c315d28101925050506000805160206136e1833981519152808283096000805160206136e18339815191528485090891505060405160208152602080820152602060408201528160608201527f183227397098d014dc2822db40c0ac2ecbc0b548b438e5469e10460b6c3e7ea360808201526000805160206136e183398151915260a082015260208160c08360056107d05a03fa5051600114949350505050565b600080600060405160208152602080820152602060408201528460608201527f0c19139cb84c680a6e14116da060561765e05aa45a1c72a34f082305b61f3f5260808201526000805160206136e183398151915260a082015260208160c08360056107d05a03fa9051935090506000805160206136e18339815191528380098414915080610f695760405162461bcd60e51b815260206004820152601c60248201527f424c533a2073717274206d6f646578702063616c6c206661696c65640000000060448201526064016108eb565b50915091565b602081015160009081906000805160206136e1833981519152908190800984516000805160206136e1833981519152908009089050600060405160208152602080820152602060408201528260608201527f183227397098d014dc2822db40c0ac2ecbc0b548b438e5469e10460b6c3e7ea360808201526000805160206136e183398151915260a082015260208160c08360056107d05a03fa905160011493509050806110845760405162461bcd60e51b815260206004820152602760248201527f424c533a2069734e6f6e52657369647565465032206d6f646578702063616c6c60448201527f206661696c65640000000000000000000000000000000000000000000000000060648201526084016108eb565b505015919050565b6110946130dd565b60006110a08484612121565b905060006110b482825b602002015161091e565b905060006110c38360016110aa565b90506110cd6130bf565b825181526020808401518282015282516040808401919091529083015160608301526000908460808460066107d05a03fa9050808061110857fe5b50806111305760405162461bcd60e51b815260206004820152600060248201526044016108eb565b50919695505050505050565b6000806040518061018001604052808660006002811061115e5761115e6135f6565b602002015181526020018660016002811061117b5761117b6135f6565b602002015181526020017f198e9393920d483a7260bfb731fb5d25f1aa493335a9e71297e485b7aef312c281526020017f1800deef121f1e76426a00665e5c4479674322d4f75edadd46debd5cd992f6ed81526020017f275dc4a288d1afb3cbb1ac09187524c7db36395df7be3b99e673b13a075a65ec81526020017f1d9befcd05a5323e6da4d435f3b617cdb3af83285c2df711ef39c01571827f9d815260200184600060028110611230576112306135f6565b602002015181526020018460016002811061124d5761124d6135f6565b602002015181526020018560016004811061126a5761126a6135f6565b6020020151815260200185600060048110611287576112876135f6565b60200201518152602001856003600481106112a4576112a46135f6565b60200201518152602001856002600481106112c1576112c16135f6565b6020020151905290506112d26130fb565b60006020826101808560086107d05a03fa905080806112ed57fe5b50806113155760405162461bcd60e51b815260206004820152600060248201526044016108eb565b5051151595945050505050565b815160609061010081106113785760405162461bcd60e51b815260206004820152601a60248201527f424c533a20696e76616c696420646f6d61696e206c656e67746800000000000060448201526064016108eb565b825160006113868284613639565b611391906040613639565b61139c906004613639565b67ffffffffffffffff8111156113b4576113b4613143565b6040519080825280601f01601f1916602001820160405280156113de576020820181803683370190505b5060408051606080825260808201909252919250600091906020820181803683370190505090506060820160005b84811015611426576020818901810151838301520161140c565b5083016000815360010160608153600101600081536001810190506020880151815284810190508481535060006002836040516114639190613651565b602060405180830381855afa158015611480573d6000803e3d6000fd5b5050506040513d601f19601f820116820180604052508101906114a3919061366d565b905060006114b2866022613639565b9450848452816020850152600160408501536020890151604185015285604187018501536002846040516114e69190613651565b602060405180830381855afa158015611503573d6000803e3d6000fd5b5050506040513d601f19601f82011682018060405250810190611526919061366d565b905080602084015280821880602086015250600260408501536020890151604185015285604187018501536002846040516115619190613651565b602060405180830381855afa15801561157e573d6000803e3d6000fd5b5050506040513d601f19601f820116820180604052508101906115a1919061366d565b905080604084015280821880602086015250600360408501536020890151604185015285604187018501536002846040516115dc9190613651565b602060405180830381855afa1580156115f9573d6000803e3d6000fd5b5050506040513d601f19601f8201168201806040525081019061161c919061366d565b60608401525090979650505050505050565b60008060405160208152602080820152602060408201528360608201527f30644e72e131a029b85045b68181585d97816a916871ca8d3c208c16d87cfd4560808201526000805160206136e183398151915260a082015260208160c08360056107d05a03fa905192509050806116e65760405162461bcd60e51b815260206004820152601f60248201527f424c533a20696e7665727365206d6f646578702063616c6c206661696c65640060448201526064016108eb565b50919050565b8151600090806117645760405162461bcd60e51b815260206004820152602160248201527f424c533a206e756d626572206f66207075626c6963206b6579206973207a657260448201527f6f0000000000000000000000000000000000000000000000000000000000000060648201526084016108eb565b825181146117da5760405162461bcd60e51b815260206004820152603560248201527f424c533a206e756d626572206f66207075626c6963206b65797320616e64206d60448201527f65737361676573206d75737420626520657175616c000000000000000000000060648201526084016108eb565b60006117e7826001613639565b6117f2906006613686565b905060008167ffffffffffffffff81111561180f5761180f613143565b604051908082528060200260200182016040528015611838578160200160208202803683370190505b509050866000602002015181600081518110611856576118566135f6565b602090810291909101015286600160200201518160018151811061187c5761187c6135f6565b6020026020010181815250507f198e9393920d483a7260bfb731fb5d25f1aa493335a9e71297e485b7aef312c2816002815181106118bc576118bc6135f6565b6020026020010181815250507f1800deef121f1e76426a00665e5c4479674322d4f75edadd46debd5cd992f6ed816003815181106118fc576118fc6135f6565b6020026020010181815250507f275dc4a288d1afb3cbb1ac09187524c7db36395df7be3b99e673b13a075a65ec8160048151811061193c5761193c6135f6565b6020026020010181815250507f1d9befcd05a5323e6da4d435f3b617cdb3af83285c2df711ef39c01571827f9d8160058151811061197c5761197c6135f6565b60200260200101818152505060005b83811015611bfc578581815181106119a5576119a56135f6565b60200260200101516000600281106119bf576119bf6135f6565b6020020151826119d0836006613686565b6119db906006613639565b815181106119eb576119eb6135f6565b602002602001018181525050858181518110611a0957611a096135f6565b6020026020010151600160028110611a2357611a236135f6565b602002015182611a34836006613686565b611a3f906007613639565b81518110611a4f57611a4f6135f6565b602002602001018181525050868181518110611a6d57611a6d6135f6565b6020026020010151600160048110611a8757611a876135f6565b602002015182611a98836006613686565b611aa3906008613639565b81518110611ab357611ab36135f6565b602002602001018181525050868181518110611ad157611ad16135f6565b6020026020010151600060048110611aeb57611aeb6135f6565b602002015182611afc836006613686565b611b07906009613639565b81518110611b1757611b176135f6565b602002602001018181525050868181518110611b3557611b356135f6565b6020026020010151600360048110611b4f57611b4f6135f6565b602002015182611b60836006613686565b611b6b90600a613639565b81518110611b7b57611b7b6135f6565b602002602001018181525050868181518110611b9957611b996135f6565b6020026020010151600260048110611bb357611bb36135f6565b602002015182611bc4836006613686565b611bcf90600b613639565b81518110611bdf57611bdf6135f6565b602090810291909101015280611bf4816136a5565b91505061198b565b50611c056130fb565b6000602082602086026020860160086107d05a03fa90508080611c2457fe5b5080611c4c5760405162461bcd60e51b815260206004820152600060248201526044016108eb565b50511515979650505050505050565b60006001600160ff1b0382166000805160206136e18339815191528110611c855750600092915050565b80600003611c965750600092915050565b6103b9816107ba565b60008060405160208152602080820152602060408201528360608201527f183227397098d014dc2822db40c0ac2ecbc0b548b438e5469e10460b6c3e7ea360808201526000805160206136e183398151915260a082015260208160c08360056107d05a03fa90516001149250905080611d805760405162461bcd60e51b815260206004820152602660248201527f424c533a2069734e6f6e526573696475654650206d6f646578702063616c6c2060448201527f6661696c6564000000000000000000000000000000000000000000000000000060648201526084016108eb565b5015919050565b611d8f6130dd565b6000611da96000805160206136e1833981519152846136be565b90506000805b6000805160206136e183398151915283840991506000805160206136e183398151915283830991506000805160206136e1833981519152600383089150611df58261221a565b90925090508015611e0f5782845260208401829052611e29565b6000805160206136e1833981519152600184089250611daf565b505050919050565b611e396130dd565b600160ff1b83811690811480611e53575082600116600114155b611eb35760405162461bcd60e51b815260206004820152602b60248201527f424c533a20626164207920636f6f7264696e61746520666f7220756e636f6d7060448201526a72657373696e67206b657960a81b60648201526084016108eb565b5050604080518082019091526001600160ff1b03929092168252602082015290565b6000815160208301516000805160206136e18339815191528283096000805160206136e183398151915282830981828301016000805160206136e183398151915282838401086000805160206136e183398151915286826000805160206136e1833981519152038601099350506000805160206136e183398151915284836000805160206136e18339815191520383010991506000805160206136e18339815191527f2b149d40ceb8aaae81be18991be06ac3b5b4c5e559dbefa33267e6dc24a138e5840894506000805160206136e18339815191527e9713b03af0fed4cd2cafadeed8fdf4a74fa084e52d1852e4a2bd0685c315d28308935060408701519250606087015191506000805160206136e183398151915280836000805160206136e18339815191520385086000805160206136e18339815191528486080990506000805160206136e1833981519152828460011b0994149290931491909116949350505050565b805160208201516000916001600160ff1b0316906000805160206136e18339815191528210158061207b57506000805160206136e18339815191528110155b1561208a575060009392505050565b81158015612096575080155b156120a5575060009392505050565b610401604051806040016040528084815260200183815250610d1e565b6000815160208301516000805160206136e18339815191528283096000805160206136e183398151915283820990506000805160206136e18339815191526003820890506000805160206136e183398151915282830914949350505050565b6121296130dd565b60006121358484611322565b90506000806000806018850177ffffffffffffffffffffffffffffffffffffffffffffffff815116935060308601905077ffffffffffffffffffffffffffffffffffffffffffffffff81511694506000805160206136e1833981519152856000805160206136e1833981519152600160c01b8709086048870151606088015177ffffffffffffffffffffffffffffffffffffffffffffffff908116975016945092506000805160206136e183398151915290508481600160c01b860908604080518082019091529283526020830152509695505050505050565b600061037e82612243565b6000806122268361298a565b9150826000805160206136e1833981519152838409149050915091565b60006000805160206136e18339815191528083840991508083830981838209828283098385830984848309858484098684850997508684840987858409945087898a09985087898a09985087898a09985087898a09985087898a09985087878a09985087898a09985087898a09985087898a099850878a8a09985087898a09985087898a09985087898a09985087898a099850878a8a09985087898a09985087898a09985087898a09985087898a09985087898a09985087848a09985087898a09985087898a09985087898a09985087898a09985087898a09985087848a09985087898a09985087898a09985087898a099850878a8a09985087898a09985087898a09985087898a09985087898a09985087848a09985087898a09985087898a09985087898a09985087898a09985087898a099850878a8a09985087898a09985087898a09985087898a09985087898a09985087878a09985087898a09985087898a09985087898a09985087898a09985087898a09985087898a09985087898a09985087818a09985087898a09985087898a09985087898a09985087898a09985087898a09985087898a09985087898a09985087898a09985087898a09985087898a09985087868a09985087898a09985087898a09985087898a09985087898a09985087878a09985087898a09985087898a09985087898a09985087898a09985087848a09985087898a09985087898a09985087898a09985087898a09985087898a09985087898a09985087898a09985087868a09985087898a09985087898a09985087898a09985087898a09985087898a09985087898a099850878a8a09985087898a09985087898a09985087898a09985087898a09985087898a09985087898a09985087898a09985087828a09985087898a09985087898a09985087898a09985087898a09985087898a09985087818a09985087898a09985087898a09985087898a09985087868a09985087898a09985087898a09985087898a09985087898a09985087898a09985087898a09985087898a09985087898a09985087878a09985087898a09985087898a09985087898a09985087898a09985087898a09985087898a09985087898a09985087898a09985087898a09985087868a09985087898a09985087898a09985087898a09985087878a09985087898a09985087898a09985087898a09985087898a09985087898a09985087898a09985087898a09985087898a09985087828a09985087898a09985087898a09985087898a09985087898a09985087828a09985087898a09985087898a09985087898a09985087898a09985087898a09985087868a09985087898a09985087898a09985087898a09985087848a09985087898a09985087898a09985087898a09985087898a09985087898a09985087898a09985087898a09985087898a09985087898a09985087898a09985087828a09985087898a09985087898a09985087898a09985087898a09985087868a09985087898a09985087898a09985087898a09985087898a09985087898a09985087838a09985087898a09985087898a09985087898a09985087898a09985087898a09985087898a09985087898a09985087828a09985087898a09985087898a099850878a8a09985087898a09985087898a09985087898a09985087898a09985087898a09985087898a09985087898a09985087848a09985087898a09985087898a09985087898a09985087898a09985087898a09985087898a09985087848a09985087898a09985087898a09985087898a09985087898a09985087898a09985087868a09985087898a09985087898a099850878a8a09985087898a09985087898a09985087898a09985087898a09985087898a09985087898a09985087898a09985087818a09985050868889099750868889099750868889099750868889099750868889099750868889099750868489099750868889099750868889099750868889099750868889099750868889099750868989099750868889099750868889099750868889099750868889099750868889099750868889099750868989099750868889099750868889099750868889099750868889099750868889099750868689099750868889099750868889099750868889099750868889099750868889099750868889099750868889099750868889099750868889099750868189099750508587880996508587880996508587880996508585880996508587880996508587880996508587880996508585880996508587880996508587880996508587880996508587880996508587880996508587880996508587880996508587880996508583880996508587880996508587880996508587880996508587880996508581880996505050838586099450838586099450838586099450838586099450838186099450508284850993508284850993508284850993508281850993508284850993508284850993508285850993508284850993508284850993508284850993508284850993508284850993508284850993508281850995945050505050565b60006000805160206136e18339815191528083840991508083830981838209828283098385830984848309858484098684850997508684840987858409945087898a09985087898a09985087898a09985087898a09985087898a09985087878a09985087898a09985087898a09985087898a099850878a8a09985087898a09985087898a09985087898a09985087898a099850878a8a09985087898a09985087898a09985087898a09985087898a09985087898a09985087848a09985087898a09985087898a09985087898a09985087898a09985087898a09985087848a09985087898a09985087898a09985087898a099850878a8a09985087898a09985087898a09985087898a09985087898a09985087848a09985087898a09985087898a09985087898a09985087898a09985087898a099850878a8a09985087898a09985087898a09985087898a09985087898a09985087878a09985087898a09985087898a09985087898a09985087898a09985087898a09985087898a09985087898a09985087818a09985087898a09985087898a09985087898a09985087898a09985087898a09985087898a09985087898a09985087898a09985087898a09985087898a09985087868a09985087898a09985087898a09985087898a09985087898a09985087878a09985087898a09985087898a09985087898a09985087898a09985087848a09985087898a09985087898a09985087898a09985087898a09985087898a09985087898a09985087898a09985087868a09985087898a09985087898a09985087898a09985087898a09985087898a09985087898a099850878a8a09985087898a09985087898a09985087898a09985087898a09985087898a09985087898a09985087898a09985087828a09985087898a09985087898a09985087898a09985087898a09985087898a09985087818a09985087898a09985087898a09985087898a09985087868a09985087898a09985087898a09985087898a09985087898a09985087898a09985087898a09985087898a09985087898a09985087878a09985087898a09985087898a09985087898a09985087898a09985087898a09985087898a09985087898a09985087898a09985087898a09985087868a09985087898a09985087898a09985087898a09985087878a09985087898a09985087898a09985087898a09985087898a09985087898a09985087898a09985087898a09985087898a09985087828a09985087898a09985087898a09985087898a09985087898a09985087828a09985087898a09985087898a09985087898a09985087898a09985087898a09985087868a09985087898a09985087898a09985087898a09985087848a09985087898a09985087898a09985087898a09985087898a09985087898a09985087898a09985087898a09985087898a09985087898a09985087898a09985087828a09985087898a09985087898a09985087898a09985087898a09985087868a09985087898a09985087898a09985087898a09985087898a09985087898a09985087838a09985087898a09985087898a09985087898a09985087898a09985087898a09985087898a09985087898a09985087828a09985087898a09985087898a099850878a8a09985087898a09985087898a09985087898a09985087898a09985087898a09985087898a09985087898a09985087848a09985087898a09985087898a09985087898a09985087898a09985087898a09985087898a09985087848a09985087898a09985087898a09985087898a09985087898a09985087898a09985087868a09985087898a09985087898a099850878a8a09985087898a09985087898a09985087898a09985087898a09985087898a09985087898a09985087898a09985087818a09985050868889099750868889099750868889099750868889099750868889099750868889099750868489099750868889099750868889099750868889099750868889099750868889099750868989099750868889099750868889099750868889099750868889099750868889099750868889099750868989099750868889099750868889099750868889099750868889099750868889099750868689099750868889099750868889099750868889099750868889099750868889099750868889099750868889099750868889099750868889099750868189099750508587880996508587880996508587880996508585880996508587880996508587880996508587880996508585880996508587880996508587880996508587880996508587880996508587880996508587880996508587880996508587880996508583880996508587880996508587880996508587880996508587880996508581880996508587880996508587880996508587880996508587880996508583880996508587880996508587880996508587880996508584880996508587880996508587880996508587880996508587880996508587880996508581880996505050505050808283099392505050565b60405180608001604052806004906020820280368337509192915050565b60405180604001604052806002906020820280368337509192915050565b60405180602001604052806001906020820280368337509192915050565b60006020828403121561312b57600080fd5b5035919050565b806040810183101561037e57600080fd5b634e487b7160e01b600052604160045260246000fd5b6000806080838503121561316c57600080fd5b6131768484613132565b915083605f84011261318757600080fd5b6040516040810181811067ffffffffffffffff821117156131aa576131aa613143565b6040528060808501868111156131bf57600080fd5b604086015b818110156131dc5780358352602092830192016131c4565b505050809150509250929050565b60808101818360005b60048110156132125781518352602092830192909101906001016131f3565b50505092915050565b60408101818360005b6002811015613212578151835260209283019290910190600101613224565b60006040828403121561325557600080fd5b6103b98383613132565b600082601f83011261327057600080fd5b813567ffffffffffffffff8082111561328b5761328b613143565b604051601f8301601f19908116603f011681019082821181831017156132b3576132b3613143565b816040528381528660208588010111156132cc57600080fd5b836020870160208301376000602085830101528094505050505092915050565b600080604083850312156132ff57600080fd5b823567ffffffffffffffff8082111561331757600080fd5b6133238683870161325f565b9350602085013591508082111561333957600080fd5b506133468582860161325f565b9150509250929050565b806080810183101561037e57600080fd5b6000806000610100848603121561337757600080fd5b6133818585613132565b92506133908560408601613350565b915061339f8560c08601613132565b90509250925092565b60008083601f8401126133ba57600080fd5b50813567ffffffffffffffff8111156133d257600080fd5b6020830191508360208285010111156133ea57600080fd5b9250929050565b6000806000806040858703121561340757600080fd5b843567ffffffffffffffff8082111561341f57600080fd5b61342b888389016133a8565b9096509450602087013591508082111561344457600080fd5b50613451878288016133a8565b95989497509550505050565b60005b83811015613478578181015183820152602001613460565b83811115613487576000848401525b50505050565b60208152600082518060208401526134ac81604085016020870161345d565b601f01601f19169190910160400192915050565b60008083601f8401126134d257600080fd5b50813567ffffffffffffffff8111156134ea57600080fd5b6020830191508360208260061b85010111156133ea57600080fd5b60008060008060006080868803121561351d57600080fd5b6135278787613132565b9450604086013567ffffffffffffffff8082111561354457600080fd5b818801915088601f83011261355857600080fd5b81358181111561356757600080fd5b8960208260071b850101111561357c57600080fd5b60208301965080955050606088013591508082111561359a57600080fd5b506135a7888289016134c0565b969995985093965092949392505050565b600080604083850312156135cb57600080fd5b50508035926020909101359150565b6000608082840312156135ec57600080fd5b6103b98383613350565b634e487b7160e01b600052603260045260246000fd5b634e487b7160e01b600052601160045260246000fd5b6000828210156136345761363461360c565b500390565b6000821982111561364c5761364c61360c565b500190565b6000825161366381846020870161345d565b9190910192915050565b60006020828403121561367f57600080fd5b5051919050565b60008160001904831182151516156136a0576136a061360c565b500290565b6000600182016136b7576136b761360c565b5060010190565b6000826136db57634e487b7160e01b600052601260045260246000fd5b50069056fe30644e72e131a029b85045b68181585d97816a916871ca8d3c208c16d87cfd47a26469706673582212206ddf841e084677d0d8f784ff29aba26247f88f1af18fb4f6a112b29c66cb8d6964736f6c634300080f0033","opcodes":"PUSH1 0x80 PUSH1 0x40 MSTORE CALLVALUE DUP1 ISZERO PUSH2 0x10 JUMPI PUSH1 0x0 DUP1 REVERT JUMPDEST POP PUSH2 0x3736 DUP1 PUSH2 0x20 PUSH1 0x0 CODECOPY PUSH1 0x0 RETURN INVALID PUSH1 0x80 PUSH1 0x40 MSTORE CALLVALUE DUP1 ISZERO PUSH2 0x10 JUMPI PUSH1 0x0 DUP1 REVERT JUMPDEST POP PUSH1 0x4 CALLDATASIZE LT PUSH2 0x177 JUMPI PUSH1 0x0 CALLDATALOAD PUSH1 0xE0 SHR DUP1 PUSH4 0x90BAAB7F GT PUSH2 0xD8 JUMPI DUP1 PUSH4 0xE1FCAD4A GT PUSH2 0x8C JUMPI DUP1 PUSH4 0xF73CAEA8 GT PUSH2 0x66 JUMPI DUP1 PUSH4 0xF73CAEA8 EQ PUSH2 0x331 JUMPI DUP1 PUSH4 0xF8C6C05F EQ PUSH2 0x344 JUMPI DUP1 PUSH4 0xFFEF569C EQ PUSH2 0x357 JUMPI PUSH1 0x0 DUP1 REVERT JUMPDEST DUP1 PUSH4 0xE1FCAD4A EQ PUSH2 0x2F8 JUMPI DUP1 PUSH4 0xF45DDED6 EQ PUSH2 0x30B JUMPI DUP1 PUSH4 0xF66D032F EQ PUSH2 0x31E JUMPI PUSH1 0x0 DUP1 REVERT JUMPDEST DUP1 PUSH4 0xAC39A635 GT PUSH2 0xBD JUMPI DUP1 PUSH4 0xAC39A635 EQ PUSH2 0x2BF JUMPI DUP1 PUSH4 0xB4A5EACA EQ PUSH2 0x2D2 JUMPI DUP1 PUSH4 0xCA608D01 EQ PUSH2 0x2E5 JUMPI PUSH1 0x0 DUP1 REVERT JUMPDEST DUP1 PUSH4 0x90BAAB7F EQ PUSH2 0x299 JUMPI DUP1 PUSH4 0x91717524 EQ PUSH2 0x2AC JUMPI PUSH1 0x0 DUP1 REVERT JUMPDEST DUP1 PUSH4 0x6E000F02 GT PUSH2 0x12F JUMPI DUP1 PUSH4 0x78D8BE24 GT PUSH2 0x114 JUMPI DUP1 PUSH4 0x78D8BE24 EQ PUSH2 0x245 JUMPI DUP1 PUSH4 0x85A2B168 EQ PUSH2 0x258 JUMPI DUP1 PUSH4 0x8CECF66E EQ PUSH2 0x278 JUMPI PUSH1 0x0 DUP1 REVERT JUMPDEST DUP1 PUSH4 0x6E000F02 EQ PUSH2 0x21F JUMPI DUP1 PUSH4 0x75E06650 EQ PUSH2 0x232 JUMPI PUSH1 0x0 DUP1 REVERT JUMPDEST DUP1 PUSH4 0x4BFC36E4 GT PUSH2 0x160 JUMPI DUP1 PUSH4 0x4BFC36E4 EQ PUSH2 0x1C4 JUMPI DUP1 PUSH4 0x50C406F7 EQ PUSH2 0x1E4 JUMPI DUP1 PUSH4 0x6A263F02 EQ PUSH2 0x1F7 JUMPI PUSH1 0x0 DUP1 REVERT JUMPDEST DUP1 PUSH4 0x2758EBCE EQ PUSH2 0x17C JUMPI DUP1 PUSH4 0x384CD5C4 EQ PUSH2 0x1A4 JUMPI JUMPDEST PUSH1 0x0 DUP1 REVERT JUMPDEST PUSH2 0x18F PUSH2 0x18A CALLDATASIZE PUSH1 0x4 PUSH2 0x3119 JUMP JUMPDEST PUSH2 0x36A JUMP JUMPDEST PUSH1 0x40 MLOAD SWAP1 ISZERO ISZERO DUP2 MSTORE PUSH1 0x20 ADD JUMPDEST PUSH1 0x40 MLOAD DUP1 SWAP2 SUB SWAP1 RETURN JUMPDEST PUSH2 0x1B7 PUSH2 0x1B2 CALLDATASIZE PUSH1 0x4 PUSH2 0x3159 JUMP JUMPDEST PUSH2 0x384 JUMP JUMPDEST PUSH1 0x40 MLOAD PUSH2 0x19B SWAP2 SWAP1 PUSH2 0x31EA JUMP JUMPDEST PUSH2 0x1D7 PUSH2 0x1D2 CALLDATASIZE PUSH1 0x4 PUSH2 0x3119 JUMP JUMPDEST PUSH2 0x3C0 JUMP JUMPDEST PUSH1 0x40 MLOAD PUSH2 0x19B SWAP2 SWAP1 PUSH2 0x321B JUMP JUMPDEST PUSH2 0x18F PUSH2 0x1F2 CALLDATASIZE PUSH1 0x4 PUSH2 0x3243 JUMP JUMPDEST PUSH2 0x3D1 JUMP JUMPDEST PUSH2 0x20A PUSH2 0x205 CALLDATASIZE PUSH1 0x4 PUSH2 0x3119 JUMP JUMPDEST PUSH2 0x409 JUMP JUMPDEST PUSH1 0x40 DUP1 MLOAD SWAP3 DUP4 MSTORE SWAP1 ISZERO ISZERO PUSH1 0x20 DUP4 ADD MSTORE ADD PUSH2 0x19B JUMP JUMPDEST PUSH2 0x18F PUSH2 0x22D CALLDATASIZE PUSH1 0x4 PUSH2 0x3243 JUMP JUMPDEST PUSH2 0x41E JUMP JUMPDEST PUSH2 0x1D7 PUSH2 0x240 CALLDATASIZE PUSH1 0x4 PUSH2 0x32EC JUMP JUMPDEST PUSH2 0x44D JUMP JUMPDEST PUSH2 0x18F PUSH2 0x253 CALLDATASIZE PUSH1 0x4 PUSH2 0x3361 JUMP JUMPDEST PUSH2 0x45F JUMP JUMPDEST PUSH2 0x26B PUSH2 0x266 CALLDATASIZE PUSH1 0x4 PUSH2 0x33F1 JUMP JUMPDEST PUSH2 0x4D5 JUMP JUMPDEST PUSH1 0x40 MLOAD PUSH2 0x19B SWAP2 SWAP1 PUSH2 0x348D JUMP JUMPDEST PUSH2 0x28B PUSH2 0x286 CALLDATASIZE PUSH1 0x4 PUSH2 0x3119 JUMP JUMPDEST PUSH2 0x553 JUMP JUMPDEST PUSH1 0x40 MLOAD SWAP1 DUP2 MSTORE PUSH1 0x20 ADD PUSH2 0x19B JUMP JUMPDEST PUSH2 0x18F PUSH2 0x2A7 CALLDATASIZE PUSH1 0x4 PUSH2 0x3505 JUMP JUMPDEST PUSH2 0x55E JUMP JUMPDEST PUSH2 0x18F PUSH2 0x2BA CALLDATASIZE PUSH1 0x4 PUSH2 0x3119 JUMP JUMPDEST PUSH2 0x65D JUMP JUMPDEST PUSH2 0x18F PUSH2 0x2CD CALLDATASIZE PUSH1 0x4 PUSH2 0x3119 JUMP JUMPDEST PUSH2 0x668 JUMP JUMPDEST PUSH2 0x1D7 PUSH2 0x2E0 CALLDATASIZE PUSH1 0x4 PUSH2 0x3119 JUMP JUMPDEST PUSH2 0x673 JUMP JUMPDEST PUSH2 0x1D7 PUSH2 0x2F3 CALLDATASIZE PUSH1 0x4 PUSH2 0x35B8 JUMP JUMPDEST PUSH2 0x684 JUMP JUMPDEST PUSH2 0x18F PUSH2 0x306 CALLDATASIZE PUSH1 0x4 PUSH2 0x35DA JUMP JUMPDEST PUSH2 0x696 JUMP JUMPDEST PUSH2 0x18F PUSH2 0x319 CALLDATASIZE PUSH1 0x4 PUSH2 0x3243 JUMP JUMPDEST PUSH2 0x6CA JUMP JUMPDEST PUSH2 0x18F PUSH2 0x32C CALLDATASIZE PUSH1 0x4 PUSH2 0x3243 JUMP JUMPDEST PUSH2 0x6F9 JUMP JUMPDEST PUSH2 0x1D7 PUSH2 0x33F CALLDATASIZE PUSH1 0x4 PUSH2 0x33F1 JUMP JUMPDEST PUSH2 0x728 JUMP JUMPDEST PUSH2 0x28B PUSH2 0x352 CALLDATASIZE PUSH1 0x4 PUSH2 0x3119 JUMP JUMPDEST PUSH2 0x7A3 JUMP JUMPDEST PUSH2 0x20A PUSH2 0x365 CALLDATASIZE PUSH1 0x4 PUSH2 0x3119 JUMP JUMPDEST PUSH2 0x7AE JUMP JUMPDEST PUSH1 0x0 PUSH2 0x37E PUSH1 0x1 PUSH1 0x1 PUSH1 0xFF SHL SUB DUP4 AND PUSH2 0x7BA JUMP JUMPDEST SWAP3 SWAP2 POP POP JUMP JUMPDEST PUSH2 0x38C PUSH2 0x30BF JUMP JUMPDEST PUSH1 0x40 DUP1 MLOAD DUP1 DUP3 ADD DUP3 MSTORE PUSH2 0x3B9 SWAP2 DUP6 SWAP1 PUSH1 0x2 SWAP1 DUP4 SWAP1 DUP4 SWAP1 DUP1 DUP3 DUP5 CALLDATACOPY PUSH1 0x0 SWAP3 ADD SWAP2 SWAP1 SWAP2 MSTORE POP DUP6 SWAP2 POP PUSH2 0x86A SWAP1 POP JUMP JUMPDEST SWAP4 SWAP3 POP POP POP JUMP JUMPDEST PUSH2 0x3C8 PUSH2 0x30DD JUMP JUMPDEST PUSH2 0x37E DUP3 PUSH2 0x91E JUMP JUMPDEST PUSH1 0x40 DUP1 MLOAD DUP1 DUP3 ADD SWAP1 SWAP2 MSTORE DUP2 CALLDATALOAD PUSH1 0x1 PUSH1 0x1 PUSH1 0xFF SHL SUB AND DUP1 DUP3 MSTORE PUSH1 0x20 DUP1 DUP5 ADD CALLDATALOAD SWAP1 DUP4 ADD DUP2 SWAP1 MSTORE PUSH1 0x0 SWAP3 PUSH2 0x401 SWAP1 PUSH2 0xD1E JUMP JUMPDEST SWAP5 SWAP4 POP POP POP POP JUMP JUMPDEST PUSH1 0x0 DUP1 PUSH2 0x415 DUP4 PUSH2 0xE99 JUMP JUMPDEST SWAP2 POP SWAP2 POP SWAP2 POP SWAP2 JUMP JUMPDEST PUSH1 0x40 DUP1 MLOAD DUP1 DUP3 ADD DUP3 MSTORE PUSH1 0x0 SWAP2 PUSH2 0x37E SWAP2 SWAP1 DUP5 SWAP1 PUSH1 0x2 SWAP1 DUP4 SWAP1 DUP4 SWAP1 DUP1 DUP3 DUP5 CALLDATACOPY PUSH1 0x0 SWAP3 ADD SWAP2 SWAP1 SWAP2 MSTORE POP PUSH2 0xF6F SWAP2 POP POP JUMP JUMPDEST PUSH2 0x455 PUSH2 0x30DD JUMP JUMPDEST PUSH2 0x3B9 DUP4 DUP4 PUSH2 0x108C JUMP JUMPDEST PUSH1 0x40 DUP1 MLOAD DUP1 DUP3 ADD DUP3 MSTORE PUSH1 0x0 SWAP2 PUSH2 0x401 SWAP2 SWAP1 DUP7 SWAP1 PUSH1 0x2 SWAP1 DUP4 SWAP1 DUP4 SWAP1 DUP1 DUP3 DUP5 CALLDATACOPY PUSH1 0x0 SWAP3 ADD SWAP2 SWAP1 SWAP2 MSTORE POP POP PUSH1 0x40 DUP1 MLOAD PUSH1 0x80 DUP2 DUP2 ADD SWAP1 SWAP3 MSTORE SWAP2 POP DUP7 SWAP1 PUSH1 0x4 SWAP1 DUP4 SWAP1 DUP4 SWAP1 DUP1 DUP3 DUP5 CALLDATACOPY PUSH1 0x0 SWAP3 ADD SWAP2 SWAP1 SWAP2 MSTORE POP POP PUSH1 0x40 DUP1 MLOAD DUP1 DUP3 ADD DUP3 MSTORE SWAP2 POP DUP7 SWAP1 PUSH1 0x2 SWAP1 DUP4 SWAP1 DUP4 SWAP1 DUP1 DUP3 DUP5 CALLDATACOPY PUSH1 0x0 SWAP3 ADD SWAP2 SWAP1 SWAP2 MSTORE POP PUSH2 0x113C SWAP2 POP POP JUMP JUMPDEST PUSH1 0x60 PUSH2 0x54A DUP6 DUP6 DUP1 DUP1 PUSH1 0x1F ADD PUSH1 0x20 DUP1 SWAP2 DIV MUL PUSH1 0x20 ADD PUSH1 0x40 MLOAD SWAP1 DUP2 ADD PUSH1 0x40 MSTORE DUP1 SWAP4 SWAP3 SWAP2 SWAP1 DUP2 DUP2 MSTORE PUSH1 0x20 ADD DUP4 DUP4 DUP1 DUP3 DUP5 CALLDATACOPY PUSH1 0x0 SWAP3 ADD SWAP2 SWAP1 SWAP2 MSTORE POP POP PUSH1 0x40 DUP1 MLOAD PUSH1 0x20 PUSH1 0x1F DUP10 ADD DUP2 SWAP1 DIV DUP2 MUL DUP3 ADD DUP2 ADD SWAP1 SWAP3 MSTORE DUP8 DUP2 MSTORE SWAP3 POP DUP8 SWAP2 POP DUP7 SWAP1 DUP2 SWAP1 DUP5 ADD DUP4 DUP3 DUP1 DUP3 DUP5 CALLDATACOPY PUSH1 0x0 SWAP3 ADD SWAP2 SWAP1 SWAP2 MSTORE POP PUSH2 0x1322 SWAP3 POP POP POP JUMP JUMPDEST SWAP6 SWAP5 POP POP POP POP POP JUMP JUMPDEST PUSH1 0x0 PUSH2 0x37E DUP3 PUSH2 0x162E JUMP JUMPDEST PUSH1 0x40 DUP1 MLOAD DUP1 DUP3 ADD DUP3 MSTORE PUSH1 0x0 SWAP2 PUSH2 0x653 SWAP2 SWAP1 DUP9 SWAP1 PUSH1 0x2 SWAP1 DUP4 SWAP1 DUP4 SWAP1 DUP1 DUP3 DUP5 CALLDATACOPY PUSH1 0x0 SWAP3 ADD DUP3 SWAP1 MSTORE POP PUSH1 0x40 DUP1 MLOAD PUSH1 0x20 DUP1 DUP13 MUL DUP3 ADD DUP2 ADD SWAP1 SWAP3 MSTORE DUP11 DUP2 MSTORE SWAP4 POP DUP11 SWAP3 POP DUP10 SWAP2 DUP3 SWAP2 DUP6 ADD JUMPDEST DUP3 DUP3 LT ISZERO PUSH2 0x5E4 JUMPI PUSH1 0x40 DUP1 MLOAD PUSH1 0x80 DUP2 DUP2 ADD SWAP1 SWAP3 MSTORE SWAP1 DUP1 DUP5 MUL DUP8 ADD SWAP1 PUSH1 0x4 SWAP1 DUP4 SWAP1 DUP4 SWAP1 DUP1 DUP3 DUP5 CALLDATACOPY PUSH1 0x0 SWAP3 ADD SWAP2 SWAP1 SWAP2 MSTORE POP POP POP DUP2 MSTORE PUSH1 0x1 SWAP1 SWAP2 ADD SWAP1 PUSH1 0x20 ADD PUSH2 0x5A3 JUMP JUMPDEST POP POP POP POP POP DUP6 DUP6 DUP1 DUP1 PUSH1 0x20 MUL PUSH1 0x20 ADD PUSH1 0x40 MLOAD SWAP1 DUP2 ADD PUSH1 0x40 MSTORE DUP1 SWAP4 SWAP3 SWAP2 SWAP1 DUP2 DUP2 MSTORE PUSH1 0x20 ADD PUSH1 0x0 SWAP1 JUMPDEST DUP3 DUP3 LT ISZERO PUSH2 0x649 JUMPI PUSH1 0x40 DUP1 MLOAD DUP1 DUP3 ADD DUP3 MSTORE SWAP1 DUP1 DUP5 MUL DUP8 ADD SWAP1 PUSH1 0x2 SWAP1 DUP4 SWAP1 DUP4 SWAP1 DUP1 DUP3 DUP5 CALLDATACOPY PUSH1 0x0 SWAP3 ADD SWAP2 SWAP1 SWAP2 MSTORE POP POP POP DUP2 MSTORE PUSH1 0x1 SWAP1 SWAP2 ADD SWAP1 PUSH1 0x20 ADD PUSH2 0x60B JUMP JUMPDEST POP POP POP POP POP PUSH2 0x16EC JUMP JUMPDEST SWAP7 SWAP6 POP POP POP POP POP POP JUMP JUMPDEST PUSH1 0x0 PUSH2 0x37E DUP3 PUSH2 0x1C5B JUMP JUMPDEST PUSH1 0x0 PUSH2 0x37E DUP3 PUSH2 0x1C9F JUMP JUMPDEST PUSH2 0x67B PUSH2 0x30DD JUMP JUMPDEST PUSH2 0x37E DUP3 PUSH2 0x1D87 JUMP JUMPDEST PUSH2 0x68C PUSH2 0x30DD JUMP JUMPDEST PUSH2 0x3B9 DUP4 DUP4 PUSH2 0x1E31 JUMP JUMPDEST PUSH1 0x0 PUSH2 0x37E DUP3 PUSH1 0x4 DUP1 PUSH1 0x20 MUL PUSH1 0x40 MLOAD SWAP1 DUP2 ADD PUSH1 0x40 MSTORE DUP1 SWAP3 SWAP2 SWAP1 DUP3 PUSH1 0x4 PUSH1 0x20 MUL DUP1 DUP3 DUP5 CALLDATACOPY PUSH1 0x0 SWAP3 ADD SWAP2 SWAP1 SWAP2 MSTORE POP PUSH2 0x1ED5 SWAP2 POP POP JUMP JUMPDEST PUSH1 0x40 DUP1 MLOAD DUP1 DUP3 ADD DUP3 MSTORE PUSH1 0x0 SWAP2 PUSH2 0x37E SWAP2 SWAP1 DUP5 SWAP1 PUSH1 0x2 SWAP1 DUP4 SWAP1 DUP4 SWAP1 DUP1 DUP3 DUP5 CALLDATACOPY PUSH1 0x0 SWAP3 ADD SWAP2 SWAP1 SWAP2 MSTORE POP PUSH2 0x203C SWAP2 POP POP JUMP JUMPDEST PUSH1 0x40 DUP1 MLOAD DUP1 DUP3 ADD DUP3 MSTORE PUSH1 0x0 SWAP2 PUSH2 0x37E SWAP2 SWAP1 DUP5 SWAP1 PUSH1 0x2 SWAP1 DUP4 SWAP1 DUP4 SWAP1 DUP1 DUP3 DUP5 CALLDATACOPY PUSH1 0x0 SWAP3 ADD SWAP2 SWAP1 SWAP2 MSTORE POP PUSH2 0x20C2 SWAP2 POP POP JUMP JUMPDEST PUSH2 0x730 PUSH2 0x30DD JUMP JUMPDEST PUSH2 0x54A DUP6 DUP6 DUP1 DUP1 PUSH1 0x1F ADD PUSH1 0x20 DUP1 SWAP2 DIV MUL PUSH1 0x20 ADD PUSH1 0x40 MLOAD SWAP1 DUP2 ADD PUSH1 0x40 MSTORE DUP1 SWAP4 SWAP3 SWAP2 SWAP1 DUP2 DUP2 MSTORE PUSH1 0x20 ADD DUP4 DUP4 DUP1 DUP3 DUP5 CALLDATACOPY PUSH1 0x0 SWAP3 ADD SWAP2 SWAP1 SWAP2 MSTORE POP POP PUSH1 0x40 DUP1 MLOAD PUSH1 0x20 PUSH1 0x1F DUP10 ADD DUP2 SWAP1 DIV DUP2 MUL DUP3 ADD DUP2 ADD SWAP1 SWAP3 MSTORE DUP8 DUP2 MSTORE SWAP3 POP DUP8 SWAP2 POP DUP7 SWAP1 DUP2 SWAP1 DUP5 ADD DUP4 DUP3 DUP1 DUP3 DUP5 CALLDATACOPY PUSH1 0x0 SWAP3 ADD SWAP2 SWAP1 SWAP2 MSTORE POP PUSH2 0x2121 SWAP3 POP POP POP JUMP JUMPDEST PUSH1 0x0 PUSH2 0x37E DUP3 PUSH2 0x220F JUMP JUMPDEST PUSH1 0x0 DUP1 PUSH2 0x415 DUP4 PUSH2 0x221A JUMP JUMPDEST PUSH1 0x0 DUP1 DUP3 PUSH1 0x0 DUP1 MLOAD PUSH1 0x20 PUSH2 0x36E1 DUP4 CODECOPY DUP2 MLOAD SWAP2 MSTORE DUP2 DUP3 MULMOD PUSH1 0x0 DUP1 MLOAD PUSH1 0x20 PUSH2 0x36E1 DUP4 CODECOPY DUP2 MLOAD SWAP2 MSTORE DUP3 DUP3 MULMOD SWAP1 POP PUSH1 0x0 DUP1 MLOAD PUSH1 0x20 PUSH2 0x36E1 DUP4 CODECOPY DUP2 MLOAD SWAP2 MSTORE PUSH1 0x3 DUP3 ADDMOD SWAP1 POP PUSH1 0x40 MLOAD SWAP2 POP PUSH1 0x20 DUP3 MSTORE PUSH1 0x20 DUP1 DUP4 ADD MSTORE PUSH1 0x20 PUSH1 0x40 DUP4 ADD MSTORE DUP1 PUSH1 0x60 DUP4 ADD MSTORE POP PUSH32 0x183227397098D014DC2822DB40C0AC2ECBC0B548B438E5469E10460B6C3E7EA3 PUSH1 0x80 DUP3 ADD MSTORE PUSH1 0x0 DUP1 MLOAD PUSH1 0x20 PUSH2 0x36E1 DUP4 CODECOPY DUP2 MLOAD SWAP2 MSTORE PUSH1 0xA0 DUP3 ADD MSTORE PUSH1 0x20 DUP2 PUSH1 0xC0 DUP4 PUSH1 0x5 PUSH2 0x7D0 GAS SUB STATICCALL POP MLOAD PUSH1 0x1 EQ SWAP4 SWAP3 POP POP POP JUMP JUMPDEST PUSH2 0x872 PUSH2 0x30BF JUMP JUMPDEST DUP3 MLOAD PUSH1 0x1 PUSH1 0xFF SHL SWAP1 DUP2 AND SWAP1 DUP2 EQ DUP1 PUSH2 0x88F JUMPI POP DUP3 MLOAD PUSH1 0x1 SWAP1 DUP2 AND EQ ISZERO JUMPDEST PUSH2 0x8F4 JUMPI PUSH1 0x40 MLOAD PUSH3 0x461BCD PUSH1 0xE5 SHL DUP2 MSTORE PUSH1 0x20 PUSH1 0x4 DUP3 ADD MSTORE PUSH1 0x2B PUSH1 0x24 DUP3 ADD MSTORE PUSH32 0x424C533A20626164207920636F6F7264696E61746520666F7220756E636F6D70 PUSH1 0x44 DUP3 ADD MSTORE PUSH11 0x72657373696E67206B6579 PUSH1 0xA8 SHL PUSH1 0x64 DUP3 ADD MSTORE PUSH1 0x84 ADD JUMPDEST PUSH1 0x40 MLOAD DUP1 SWAP2 SUB SWAP1 REVERT JUMPDEST POP DUP3 MLOAD PUSH1 0x1 PUSH1 0x1 PUSH1 0xFF SHL SUB AND DUP2 MSTORE PUSH1 0x20 SWAP3 DUP4 ADD MLOAD DUP2 DUP5 ADD MSTORE DUP2 MLOAD PUSH1 0x40 DUP3 ADD MSTORE SWAP2 ADD MLOAD PUSH1 0x60 DUP3 ADD MSTORE SWAP1 JUMP JUMPDEST PUSH2 0x926 PUSH2 0x30DD JUMP JUMPDEST PUSH1 0x0 DUP1 MLOAD PUSH1 0x20 PUSH2 0x36E1 DUP4 CODECOPY DUP2 MLOAD SWAP2 MSTORE DUP3 LT PUSH2 0x9A9 JUMPI PUSH1 0x40 MLOAD PUSH3 0x461BCD PUSH1 0xE5 SHL DUP2 MSTORE PUSH1 0x20 PUSH1 0x4 DUP3 ADD MSTORE PUSH1 0x23 PUSH1 0x24 DUP3 ADD MSTORE PUSH32 0x6D6170546F506F696E7446543A20696E76616C6964206669656C6420656C656D PUSH1 0x44 DUP3 ADD MSTORE PUSH32 0x656E740000000000000000000000000000000000000000000000000000000000 PUSH1 0x64 DUP3 ADD MSTORE PUSH1 0x84 ADD PUSH2 0x8EB JUMP JUMPDEST DUP2 PUSH1 0x0 PUSH2 0x9B5 DUP3 PUSH2 0x1C9F JUMP JUMPDEST SWAP1 POP PUSH1 0x0 PUSH1 0x0 DUP1 MLOAD PUSH1 0x20 PUSH2 0x36E1 DUP4 CODECOPY DUP2 MLOAD SWAP2 MSTORE DUP4 DUP5 MULMOD SWAP1 POP PUSH1 0x0 DUP1 MLOAD PUSH1 0x20 PUSH2 0x36E1 DUP4 CODECOPY DUP2 MLOAD SWAP2 MSTORE PUSH1 0x4 DUP3 ADDMOD SWAP1 POP PUSH1 0x0 PUSH1 0x0 DUP1 MLOAD PUSH1 0x20 PUSH2 0x36E1 DUP4 CODECOPY DUP2 MLOAD SWAP2 MSTORE PUSH24 0xB3C4D79D41A91759A9E4C7E359B6B89EAEC68E62EFFFFFFD DUP6 MULMOD SWAP1 POP PUSH1 0x0 PUSH1 0x0 DUP1 MLOAD PUSH1 0x20 PUSH2 0x36E1 DUP4 CODECOPY DUP2 MLOAD SWAP2 MSTORE DUP4 DUP4 MULMOD SWAP1 POP PUSH2 0xA2F DUP2 PUSH2 0x220F JUMP JUMPDEST SWAP1 POP PUSH1 0x0 DUP1 MLOAD PUSH1 0x20 PUSH2 0x36E1 DUP4 CODECOPY DUP2 MLOAD SWAP2 MSTORE DUP3 DUP4 MULMOD SWAP2 POP PUSH1 0x0 DUP1 MLOAD PUSH1 0x20 PUSH2 0x36E1 DUP4 CODECOPY DUP2 MLOAD SWAP2 MSTORE DUP2 DUP4 MULMOD SWAP2 POP PUSH1 0x0 DUP1 MLOAD PUSH1 0x20 PUSH2 0x36E1 DUP4 CODECOPY DUP2 MLOAD SWAP2 MSTORE DUP3 DUP7 MULMOD SWAP2 POP PUSH1 0x0 DUP1 MLOAD PUSH1 0x20 PUSH2 0x36E1 DUP4 CODECOPY DUP2 MLOAD SWAP2 MSTORE PUSH2 0xA94 DUP4 PUSH1 0x0 DUP1 MLOAD PUSH1 0x20 PUSH2 0x36E1 DUP4 CODECOPY DUP2 MLOAD SWAP2 MSTORE PUSH2 0x3622 JUMP JUMPDEST PUSH24 0x59E26BCEA0D48BACD4F263F1ACDB5C4F5763473177FFFFFE ADDMOD SWAP5 POP PUSH1 0x0 DUP1 MLOAD PUSH1 0x20 PUSH2 0x36E1 DUP4 CODECOPY DUP2 MLOAD SWAP2 MSTORE DUP6 DUP7 MULMOD SWAP2 POP PUSH1 0x0 DUP1 MLOAD PUSH1 0x20 PUSH2 0x36E1 DUP4 CODECOPY DUP2 MLOAD SWAP2 MSTORE DUP6 DUP4 MULMOD SWAP2 POP PUSH1 0x0 DUP1 MLOAD PUSH1 0x20 PUSH2 0x36E1 DUP4 CODECOPY DUP2 MLOAD SWAP2 MSTORE PUSH1 0x3 DUP4 ADDMOD SWAP2 POP PUSH1 0x0 PUSH2 0xAF8 DUP4 PUSH2 0x221A JUMP JUMPDEST SWAP1 SWAP4 POP SWAP1 POP DUP1 ISZERO PUSH2 0xB41 JUMPI DUP5 ISZERO PUSH2 0xB24 JUMPI PUSH2 0xB21 DUP4 PUSH1 0x0 DUP1 MLOAD PUSH1 0x20 PUSH2 0x36E1 DUP4 CODECOPY DUP2 MLOAD SWAP2 MSTORE PUSH2 0x3622 JUMP JUMPDEST SWAP3 POP JUMPDEST POP POP PUSH1 0x40 DUP1 MLOAD DUP1 DUP3 ADD SWAP1 SWAP2 MSTORE SWAP4 DUP5 MSTORE PUSH1 0x20 DUP5 ADD MSTORE POP SWAP1 SWAP4 SWAP3 POP POP POP JUMP JUMPDEST PUSH1 0x0 DUP1 MLOAD PUSH1 0x20 PUSH2 0x36E1 DUP4 CODECOPY DUP2 MLOAD SWAP2 MSTORE PUSH1 0x1 DUP8 ADDMOD PUSH2 0xB6C SWAP1 PUSH1 0x0 DUP1 MLOAD PUSH1 0x20 PUSH2 0x36E1 DUP4 CODECOPY DUP2 MLOAD SWAP2 MSTORE PUSH2 0x3622 JUMP JUMPDEST SWAP6 POP PUSH1 0x0 DUP1 MLOAD PUSH1 0x20 PUSH2 0x36E1 DUP4 CODECOPY DUP2 MLOAD SWAP2 MSTORE DUP7 DUP8 MULMOD SWAP3 POP PUSH1 0x0 DUP1 MLOAD PUSH1 0x20 PUSH2 0x36E1 DUP4 CODECOPY DUP2 MLOAD SWAP2 MSTORE DUP7 DUP5 MULMOD SWAP3 POP PUSH1 0x0 DUP1 MLOAD PUSH1 0x20 PUSH2 0x36E1 DUP4 CODECOPY DUP2 MLOAD SWAP2 MSTORE PUSH1 0x3 DUP5 ADDMOD SWAP3 POP PUSH2 0xBB4 DUP4 PUSH2 0x221A JUMP JUMPDEST SWAP1 SWAP4 POP SWAP1 POP DUP1 ISZERO PUSH2 0xBDD JUMPI DUP5 ISZERO PUSH2 0xB24 JUMPI PUSH2 0xB21 DUP4 PUSH1 0x0 DUP1 MLOAD PUSH1 0x20 PUSH2 0x36E1 DUP4 CODECOPY DUP2 MLOAD SWAP2 MSTORE PUSH2 0x3622 JUMP JUMPDEST PUSH1 0x0 DUP1 MLOAD PUSH1 0x20 PUSH2 0x36E1 DUP4 CODECOPY DUP2 MLOAD SWAP2 MSTORE DUP5 DUP6 MULMOD SWAP6 POP PUSH1 0x0 DUP1 MLOAD PUSH1 0x20 PUSH2 0x36E1 DUP4 CODECOPY DUP2 MLOAD SWAP2 MSTORE DUP7 DUP8 MULMOD SWAP6 POP PUSH1 0x0 DUP1 MLOAD PUSH1 0x20 PUSH2 0x36E1 DUP4 CODECOPY DUP2 MLOAD SWAP2 MSTORE DUP3 DUP8 MULMOD SWAP6 POP PUSH1 0x0 DUP1 MLOAD PUSH1 0x20 PUSH2 0x36E1 DUP4 CODECOPY DUP2 MLOAD SWAP2 MSTORE DUP3 DUP8 MULMOD SWAP6 POP PUSH1 0x0 DUP1 MLOAD PUSH1 0x20 PUSH2 0x36E1 DUP4 CODECOPY DUP2 MLOAD SWAP2 MSTORE PUSH1 0x1 DUP8 ADDMOD SWAP6 POP PUSH1 0x0 DUP1 MLOAD PUSH1 0x20 PUSH2 0x36E1 DUP4 CODECOPY DUP2 MLOAD SWAP2 MSTORE DUP7 DUP8 MULMOD SWAP3 POP PUSH1 0x0 DUP1 MLOAD PUSH1 0x20 PUSH2 0x36E1 DUP4 CODECOPY DUP2 MLOAD SWAP2 MSTORE DUP7 DUP5 MULMOD SWAP3 POP PUSH1 0x0 DUP1 MLOAD PUSH1 0x20 PUSH2 0x36E1 DUP4 CODECOPY DUP2 MLOAD SWAP2 MSTORE PUSH1 0x3 DUP5 ADDMOD SWAP3 POP PUSH2 0xC88 DUP4 PUSH2 0x221A JUMP JUMPDEST SWAP1 SWAP4 POP SWAP1 POP DUP1 PUSH2 0xD00 JUMPI PUSH1 0x40 MLOAD PUSH3 0x461BCD PUSH1 0xE5 SHL DUP2 MSTORE PUSH1 0x20 PUSH1 0x4 DUP3 ADD MSTORE PUSH1 0x22 PUSH1 0x24 DUP3 ADD MSTORE PUSH32 0x424C533A20626164206674206D617070696E6720696D706C656D656E74617469 PUSH1 0x44 DUP3 ADD MSTORE PUSH32 0x6F6E000000000000000000000000000000000000000000000000000000000000 PUSH1 0x64 DUP3 ADD MSTORE PUSH1 0x84 ADD PUSH2 0x8EB JUMP JUMPDEST DUP5 ISZERO PUSH2 0xB24 JUMPI PUSH2 0xB21 DUP4 PUSH1 0x0 DUP1 MLOAD PUSH1 0x20 PUSH2 0x36E1 DUP4 CODECOPY DUP2 MLOAD SWAP2 MSTORE PUSH2 0x3622 JUMP JUMPDEST PUSH1 0x0 DUP1 PUSH1 0x0 DUP4 ADD MLOAD PUSH1 0x20 DUP5 ADD MLOAD PUSH1 0x0 DUP1 MLOAD PUSH1 0x20 PUSH2 0x36E1 DUP4 CODECOPY DUP2 MLOAD SWAP2 MSTORE DUP3 DUP4 MULMOD PUSH1 0x0 DUP1 MLOAD PUSH1 0x20 PUSH2 0x36E1 DUP4 CODECOPY DUP2 MLOAD SWAP2 MSTORE DUP3 DUP4 MULMOD DUP2 DUP3 DUP4 ADD ADD PUSH1 0x0 DUP1 MLOAD PUSH1 0x20 PUSH2 0x36E1 DUP4 CODECOPY DUP2 MLOAD SWAP2 MSTORE DUP3 DUP4 DUP5 ADD ADDMOD PUSH1 0x0 DUP1 MLOAD PUSH1 0x20 PUSH2 0x36E1 DUP4 CODECOPY DUP2 MLOAD SWAP2 MSTORE DUP7 DUP3 PUSH1 0x0 DUP1 MLOAD PUSH1 0x20 PUSH2 0x36E1 DUP4 CODECOPY DUP2 MLOAD SWAP2 MSTORE SUB DUP7 ADD MULMOD SWAP4 POP POP PUSH1 0x0 DUP1 MLOAD PUSH1 0x20 PUSH2 0x36E1 DUP4 CODECOPY DUP2 MLOAD SWAP2 MSTORE DUP5 DUP4 PUSH1 0x0 DUP1 MLOAD PUSH1 0x20 PUSH2 0x36E1 DUP4 CODECOPY DUP2 MLOAD SWAP2 MSTORE SUB DUP4 ADD MULMOD SWAP2 POP POP PUSH32 0x2B149D40CEB8AAAE81BE18991BE06AC3B5B4C5E559DBEFA33267E6DC24A138E5 DUP3 ADD SWAP4 POP PUSH31 0x9713B03AF0FED4CD2CAFADEED8FDF4A74FA084E52D1852E4A2BD0685C315D2 DUP2 ADD SWAP3 POP POP POP PUSH1 0x0 DUP1 MLOAD PUSH1 0x20 PUSH2 0x36E1 DUP4 CODECOPY DUP2 MLOAD SWAP2 MSTORE DUP1 DUP3 DUP4 MULMOD PUSH1 0x0 DUP1 MLOAD PUSH1 0x20 PUSH2 0x36E1 DUP4 CODECOPY DUP2 MLOAD SWAP2 MSTORE DUP5 DUP6 MULMOD ADDMOD SWAP2 POP POP PUSH1 0x40 MLOAD PUSH1 0x20 DUP2 MSTORE PUSH1 0x20 DUP1 DUP3 ADD MSTORE PUSH1 0x20 PUSH1 0x40 DUP3 ADD MSTORE DUP2 PUSH1 0x60 DUP3 ADD MSTORE PUSH32 0x183227397098D014DC2822DB40C0AC2ECBC0B548B438E5469E10460B6C3E7EA3 PUSH1 0x80 DUP3 ADD MSTORE PUSH1 0x0 DUP1 MLOAD PUSH1 0x20 PUSH2 0x36E1 DUP4 CODECOPY DUP2 MLOAD SWAP2 MSTORE PUSH1 0xA0 DUP3 ADD MSTORE PUSH1 0x20 DUP2 PUSH1 0xC0 DUP4 PUSH1 0x5 PUSH2 0x7D0 GAS SUB STATICCALL POP MLOAD PUSH1 0x1 EQ SWAP5 SWAP4 POP POP POP POP JUMP JUMPDEST PUSH1 0x0 DUP1 PUSH1 0x0 PUSH1 0x40 MLOAD PUSH1 0x20 DUP2 MSTORE PUSH1 0x20 DUP1 DUP3 ADD MSTORE PUSH1 0x20 PUSH1 0x40 DUP3 ADD MSTORE DUP5 PUSH1 0x60 DUP3 ADD MSTORE PUSH32 0xC19139CB84C680A6E14116DA060561765E05AA45A1C72A34F082305B61F3F52 PUSH1 0x80 DUP3 ADD MSTORE PUSH1 0x0 DUP1 MLOAD PUSH1 0x20 PUSH2 0x36E1 DUP4 CODECOPY DUP2 MLOAD SWAP2 MSTORE PUSH1 0xA0 DUP3 ADD MSTORE PUSH1 0x20 DUP2 PUSH1 0xC0 DUP4 PUSH1 0x5 PUSH2 0x7D0 GAS SUB STATICCALL SWAP1 MLOAD SWAP4 POP SWAP1 POP PUSH1 0x0 DUP1 MLOAD PUSH1 0x20 PUSH2 0x36E1 DUP4 CODECOPY DUP2 MLOAD SWAP2 MSTORE DUP4 DUP1 MULMOD DUP5 EQ SWAP2 POP DUP1 PUSH2 0xF69 JUMPI PUSH1 0x40 MLOAD PUSH3 0x461BCD PUSH1 0xE5 SHL DUP2 MSTORE PUSH1 0x20 PUSH1 0x4 DUP3 ADD MSTORE PUSH1 0x1C PUSH1 0x24 DUP3 ADD MSTORE PUSH32 0x424C533A2073717274206D6F646578702063616C6C206661696C656400000000 PUSH1 0x44 DUP3 ADD MSTORE PUSH1 0x64 ADD PUSH2 0x8EB JUMP JUMPDEST POP SWAP2 POP SWAP2 JUMP JUMPDEST PUSH1 0x20 DUP2 ADD MLOAD PUSH1 0x0 SWAP1 DUP2 SWAP1 PUSH1 0x0 DUP1 MLOAD PUSH1 0x20 PUSH2 0x36E1 DUP4 CODECOPY DUP2 MLOAD SWAP2 MSTORE SWAP1 DUP2 SWAP1 DUP1 MULMOD DUP5 MLOAD PUSH1 0x0 DUP1 MLOAD PUSH1 0x20 PUSH2 0x36E1 DUP4 CODECOPY DUP2 MLOAD SWAP2 MSTORE SWAP1 DUP1 MULMOD ADDMOD SWAP1 POP PUSH1 0x0 PUSH1 0x40 MLOAD PUSH1 0x20 DUP2 MSTORE PUSH1 0x20 DUP1 DUP3 ADD MSTORE PUSH1 0x20 PUSH1 0x40 DUP3 ADD MSTORE DUP3 PUSH1 0x60 DUP3 ADD MSTORE PUSH32 0x183227397098D014DC2822DB40C0AC2ECBC0B548B438E5469E10460B6C3E7EA3 PUSH1 0x80 DUP3 ADD MSTORE PUSH1 0x0 DUP1 MLOAD PUSH1 0x20 PUSH2 0x36E1 DUP4 CODECOPY DUP2 MLOAD SWAP2 MSTORE PUSH1 0xA0 DUP3 ADD MSTORE PUSH1 0x20 DUP2 PUSH1 0xC0 DUP4 PUSH1 0x5 PUSH2 0x7D0 GAS SUB STATICCALL SWAP1 MLOAD PUSH1 0x1 EQ SWAP4 POP SWAP1 POP DUP1 PUSH2 0x1084 JUMPI PUSH1 0x40 MLOAD PUSH3 0x461BCD PUSH1 0xE5 SHL DUP2 MSTORE PUSH1 0x20 PUSH1 0x4 DUP3 ADD MSTORE PUSH1 0x27 PUSH1 0x24 DUP3 ADD MSTORE PUSH32 0x424C533A2069734E6F6E52657369647565465032206D6F646578702063616C6C PUSH1 0x44 DUP3 ADD MSTORE PUSH32 0x206661696C656400000000000000000000000000000000000000000000000000 PUSH1 0x64 DUP3 ADD MSTORE PUSH1 0x84 ADD PUSH2 0x8EB JUMP JUMPDEST POP POP ISZERO SWAP2 SWAP1 POP JUMP JUMPDEST PUSH2 0x1094 PUSH2 0x30DD JUMP JUMPDEST PUSH1 0x0 PUSH2 0x10A0 DUP5 DUP5 PUSH2 0x2121 JUMP JUMPDEST SWAP1 POP PUSH1 0x0 PUSH2 0x10B4 DUP3 DUP3 JUMPDEST PUSH1 0x20 MUL ADD MLOAD PUSH2 0x91E JUMP JUMPDEST SWAP1 POP PUSH1 0x0 PUSH2 0x10C3 DUP4 PUSH1 0x1 PUSH2 0x10AA JUMP JUMPDEST SWAP1 POP PUSH2 0x10CD PUSH2 0x30BF JUMP JUMPDEST DUP3 MLOAD DUP2 MSTORE PUSH1 0x20 DUP1 DUP5 ADD MLOAD DUP3 DUP3 ADD MSTORE DUP3 MLOAD PUSH1 0x40 DUP1 DUP5 ADD SWAP2 SWAP1 SWAP2 MSTORE SWAP1 DUP4 ADD MLOAD PUSH1 0x60 DUP4 ADD MSTORE PUSH1 0x0 SWAP1 DUP5 PUSH1 0x80 DUP5 PUSH1 0x6 PUSH2 0x7D0 GAS SUB STATICCALL SWAP1 POP DUP1 DUP1 PUSH2 0x1108 JUMPI INVALID JUMPDEST POP DUP1 PUSH2 0x1130 JUMPI PUSH1 0x40 MLOAD PUSH3 0x461BCD PUSH1 0xE5 SHL DUP2 MSTORE PUSH1 0x20 PUSH1 0x4 DUP3 ADD MSTORE PUSH1 0x0 PUSH1 0x24 DUP3 ADD MSTORE PUSH1 0x44 ADD PUSH2 0x8EB JUMP JUMPDEST POP SWAP2 SWAP7 SWAP6 POP POP POP POP POP POP JUMP JUMPDEST PUSH1 0x0 DUP1 PUSH1 0x40 MLOAD DUP1 PUSH2 0x180 ADD PUSH1 0x40 MSTORE DUP1 DUP7 PUSH1 0x0 PUSH1 0x2 DUP2 LT PUSH2 0x115E JUMPI PUSH2 0x115E PUSH2 0x35F6 JUMP JUMPDEST PUSH1 0x20 MUL ADD MLOAD DUP2 MSTORE PUSH1 0x20 ADD DUP7 PUSH1 0x1 PUSH1 0x2 DUP2 LT PUSH2 0x117B JUMPI PUSH2 0x117B PUSH2 0x35F6 JUMP JUMPDEST PUSH1 0x20 MUL ADD MLOAD DUP2 MSTORE PUSH1 0x20 ADD PUSH32 0x198E9393920D483A7260BFB731FB5D25F1AA493335A9E71297E485B7AEF312C2 DUP2 MSTORE PUSH1 0x20 ADD PUSH32 0x1800DEEF121F1E76426A00665E5C4479674322D4F75EDADD46DEBD5CD992F6ED DUP2 MSTORE PUSH1 0x20 ADD PUSH32 0x275DC4A288D1AFB3CBB1AC09187524C7DB36395DF7BE3B99E673B13A075A65EC DUP2 MSTORE PUSH1 0x20 ADD PUSH32 0x1D9BEFCD05A5323E6DA4D435F3B617CDB3AF83285C2DF711EF39C01571827F9D DUP2 MSTORE PUSH1 0x20 ADD DUP5 PUSH1 0x0 PUSH1 0x2 DUP2 LT PUSH2 0x1230 JUMPI PUSH2 0x1230 PUSH2 0x35F6 JUMP JUMPDEST PUSH1 0x20 MUL ADD MLOAD DUP2 MSTORE PUSH1 0x20 ADD DUP5 PUSH1 0x1 PUSH1 0x2 DUP2 LT PUSH2 0x124D JUMPI PUSH2 0x124D PUSH2 0x35F6 JUMP JUMPDEST PUSH1 0x20 MUL ADD MLOAD DUP2 MSTORE PUSH1 0x20 ADD DUP6 PUSH1 0x1 PUSH1 0x4 DUP2 LT PUSH2 0x126A JUMPI PUSH2 0x126A PUSH2 0x35F6 JUMP JUMPDEST PUSH1 0x20 MUL ADD MLOAD DUP2 MSTORE PUSH1 0x20 ADD DUP6 PUSH1 0x0 PUSH1 0x4 DUP2 LT PUSH2 0x1287 JUMPI PUSH2 0x1287 PUSH2 0x35F6 JUMP JUMPDEST PUSH1 0x20 MUL ADD MLOAD DUP2 MSTORE PUSH1 0x20 ADD DUP6 PUSH1 0x3 PUSH1 0x4 DUP2 LT PUSH2 0x12A4 JUMPI PUSH2 0x12A4 PUSH2 0x35F6 JUMP JUMPDEST PUSH1 0x20 MUL ADD MLOAD DUP2 MSTORE PUSH1 0x20 ADD DUP6 PUSH1 0x2 PUSH1 0x4 DUP2 LT PUSH2 0x12C1 JUMPI PUSH2 0x12C1 PUSH2 0x35F6 JUMP JUMPDEST PUSH1 0x20 MUL ADD MLOAD SWAP1 MSTORE SWAP1 POP PUSH2 0x12D2 PUSH2 0x30FB JUMP JUMPDEST PUSH1 0x0 PUSH1 0x20 DUP3 PUSH2 0x180 DUP6 PUSH1 0x8 PUSH2 0x7D0 GAS SUB STATICCALL SWAP1 POP DUP1 DUP1 PUSH2 0x12ED JUMPI INVALID JUMPDEST POP DUP1 PUSH2 0x1315 JUMPI PUSH1 0x40 MLOAD PUSH3 0x461BCD PUSH1 0xE5 SHL DUP2 MSTORE PUSH1 0x20 PUSH1 0x4 DUP3 ADD MSTORE PUSH1 0x0 PUSH1 0x24 DUP3 ADD MSTORE PUSH1 0x44 ADD PUSH2 0x8EB JUMP JUMPDEST POP MLOAD ISZERO ISZERO SWAP6 SWAP5 POP POP POP POP POP JUMP JUMPDEST DUP2 MLOAD PUSH1 0x60 SWAP1 PUSH2 0x100 DUP2 LT PUSH2 0x1378 JUMPI PUSH1 0x40 MLOAD PUSH3 0x461BCD PUSH1 0xE5 SHL DUP2 MSTORE PUSH1 0x20 PUSH1 0x4 DUP3 ADD MSTORE PUSH1 0x1A PUSH1 0x24 DUP3 ADD MSTORE PUSH32 0x424C533A20696E76616C696420646F6D61696E206C656E677468000000000000 PUSH1 0x44 DUP3 ADD MSTORE PUSH1 0x64 ADD PUSH2 0x8EB JUMP JUMPDEST DUP3 MLOAD PUSH1 0x0 PUSH2 0x1386 DUP3 DUP5 PUSH2 0x3639 JUMP JUMPDEST PUSH2 0x1391 SWAP1 PUSH1 0x40 PUSH2 0x3639 JUMP JUMPDEST PUSH2 0x139C SWAP1 PUSH1 0x4 PUSH2 0x3639 JUMP JUMPDEST PUSH8 0xFFFFFFFFFFFFFFFF DUP2 GT ISZERO PUSH2 0x13B4 JUMPI PUSH2 0x13B4 PUSH2 0x3143 JUMP JUMPDEST PUSH1 0x40 MLOAD SWAP1 DUP1 DUP3 MSTORE DUP1 PUSH1 0x1F ADD PUSH1 0x1F NOT AND PUSH1 0x20 ADD DUP3 ADD PUSH1 0x40 MSTORE DUP1 ISZERO PUSH2 0x13DE JUMPI PUSH1 0x20 DUP3 ADD DUP2 DUP1 CALLDATASIZE DUP4 CALLDATACOPY ADD SWAP1 POP JUMPDEST POP PUSH1 0x40 DUP1 MLOAD PUSH1 0x60 DUP1 DUP3 MSTORE PUSH1 0x80 DUP3 ADD SWAP1 SWAP3 MSTORE SWAP2 SWAP3 POP PUSH1 0x0 SWAP2 SWAP1 PUSH1 0x20 DUP3 ADD DUP2 DUP1 CALLDATASIZE DUP4 CALLDATACOPY ADD SWAP1 POP POP SWAP1 POP PUSH1 0x60 DUP3 ADD PUSH1 0x0 JUMPDEST DUP5 DUP2 LT ISZERO PUSH2 0x1426 JUMPI PUSH1 0x20 DUP2 DUP10 ADD DUP2 ADD MLOAD DUP4 DUP4 ADD MSTORE ADD PUSH2 0x140C JUMP JUMPDEST POP DUP4 ADD PUSH1 0x0 DUP2 MSTORE8 PUSH1 0x1 ADD PUSH1 0x60 DUP2 MSTORE8 PUSH1 0x1 ADD PUSH1 0x0 DUP2 MSTORE8 PUSH1 0x1 DUP2 ADD SWAP1 POP PUSH1 0x20 DUP9 ADD MLOAD DUP2 MSTORE DUP5 DUP2 ADD SWAP1 POP DUP5 DUP2 MSTORE8 POP PUSH1 0x0 PUSH1 0x2 DUP4 PUSH1 0x40 MLOAD PUSH2 0x1463 SWAP2 SWAP1 PUSH2 0x3651 JUMP JUMPDEST PUSH1 0x20 PUSH1 0x40 MLOAD DUP1 DUP4 SUB DUP2 DUP6 GAS STATICCALL ISZERO DUP1 ISZERO PUSH2 0x1480 JUMPI RETURNDATASIZE PUSH1 0x0 DUP1 RETURNDATACOPY RETURNDATASIZE PUSH1 0x0 REVERT JUMPDEST POP POP POP PUSH1 0x40 MLOAD RETURNDATASIZE PUSH1 0x1F NOT PUSH1 0x1F DUP3 ADD AND DUP3 ADD DUP1 PUSH1 0x40 MSTORE POP DUP2 ADD SWAP1 PUSH2 0x14A3 SWAP2 SWAP1 PUSH2 0x366D JUMP JUMPDEST SWAP1 POP PUSH1 0x0 PUSH2 0x14B2 DUP7 PUSH1 0x22 PUSH2 0x3639 JUMP JUMPDEST SWAP5 POP DUP5 DUP5 MSTORE DUP2 PUSH1 0x20 DUP6 ADD MSTORE PUSH1 0x1 PUSH1 0x40 DUP6 ADD MSTORE8 PUSH1 0x20 DUP10 ADD MLOAD PUSH1 0x41 DUP6 ADD MSTORE DUP6 PUSH1 0x41 DUP8 ADD DUP6 ADD MSTORE8 PUSH1 0x2 DUP5 PUSH1 0x40 MLOAD PUSH2 0x14E6 SWAP2 SWAP1 PUSH2 0x3651 JUMP JUMPDEST PUSH1 0x20 PUSH1 0x40 MLOAD DUP1 DUP4 SUB DUP2 DUP6 GAS STATICCALL ISZERO DUP1 ISZERO PUSH2 0x1503 JUMPI RETURNDATASIZE PUSH1 0x0 DUP1 RETURNDATACOPY RETURNDATASIZE PUSH1 0x0 REVERT JUMPDEST POP POP POP PUSH1 0x40 MLOAD RETURNDATASIZE PUSH1 0x1F NOT PUSH1 0x1F DUP3 ADD AND DUP3 ADD DUP1 PUSH1 0x40 MSTORE POP DUP2 ADD SWAP1 PUSH2 0x1526 SWAP2 SWAP1 PUSH2 0x366D JUMP JUMPDEST SWAP1 POP DUP1 PUSH1 0x20 DUP5 ADD MSTORE DUP1 DUP3 XOR DUP1 PUSH1 0x20 DUP7 ADD MSTORE POP PUSH1 0x2 PUSH1 0x40 DUP6 ADD MSTORE8 PUSH1 0x20 DUP10 ADD MLOAD PUSH1 0x41 DUP6 ADD MSTORE DUP6 PUSH1 0x41 DUP8 ADD DUP6 ADD MSTORE8 PUSH1 0x2 DUP5 PUSH1 0x40 MLOAD PUSH2 0x1561 SWAP2 SWAP1 PUSH2 0x3651 JUMP JUMPDEST PUSH1 0x20 PUSH1 0x40 MLOAD DUP1 DUP4 SUB DUP2 DUP6 GAS STATICCALL ISZERO DUP1 ISZERO PUSH2 0x157E JUMPI RETURNDATASIZE PUSH1 0x0 DUP1 RETURNDATACOPY RETURNDATASIZE PUSH1 0x0 REVERT JUMPDEST POP POP POP PUSH1 0x40 MLOAD RETURNDATASIZE PUSH1 0x1F NOT PUSH1 0x1F DUP3 ADD AND DUP3 ADD DUP1 PUSH1 0x40 MSTORE POP DUP2 ADD SWAP1 PUSH2 0x15A1 SWAP2 SWAP1 PUSH2 0x366D JUMP JUMPDEST SWAP1 POP DUP1 PUSH1 0x40 DUP5 ADD MSTORE DUP1 DUP3 XOR DUP1 PUSH1 0x20 DUP7 ADD MSTORE POP PUSH1 0x3 PUSH1 0x40 DUP6 ADD MSTORE8 PUSH1 0x20 DUP10 ADD MLOAD PUSH1 0x41 DUP6 ADD MSTORE DUP6 PUSH1 0x41 DUP8 ADD DUP6 ADD MSTORE8 PUSH1 0x2 DUP5 PUSH1 0x40 MLOAD PUSH2 0x15DC SWAP2 SWAP1 PUSH2 0x3651 JUMP JUMPDEST PUSH1 0x20 PUSH1 0x40 MLOAD DUP1 DUP4 SUB DUP2 DUP6 GAS STATICCALL ISZERO DUP1 ISZERO PUSH2 0x15F9 JUMPI RETURNDATASIZE PUSH1 0x0 DUP1 RETURNDATACOPY RETURNDATASIZE PUSH1 0x0 REVERT JUMPDEST POP POP POP PUSH1 0x40 MLOAD RETURNDATASIZE PUSH1 0x1F NOT PUSH1 0x1F DUP3 ADD AND DUP3 ADD DUP1 PUSH1 0x40 MSTORE POP DUP2 ADD SWAP1 PUSH2 0x161C SWAP2 SWAP1 PUSH2 0x366D JUMP JUMPDEST PUSH1 0x60 DUP5 ADD MSTORE POP SWAP1 SWAP8 SWAP7 POP POP POP POP POP POP POP JUMP JUMPDEST PUSH1 0x0 DUP1 PUSH1 0x40 MLOAD PUSH1 0x20 DUP2 MSTORE PUSH1 0x20 DUP1 DUP3 ADD MSTORE PUSH1 0x20 PUSH1 0x40 DUP3 ADD MSTORE DUP4 PUSH1 0x60 DUP3 ADD MSTORE PUSH32 0x30644E72E131A029B85045B68181585D97816A916871CA8D3C208C16D87CFD45 PUSH1 0x80 DUP3 ADD MSTORE PUSH1 0x0 DUP1 MLOAD PUSH1 0x20 PUSH2 0x36E1 DUP4 CODECOPY DUP2 MLOAD SWAP2 MSTORE PUSH1 0xA0 DUP3 ADD MSTORE PUSH1 0x20 DUP2 PUSH1 0xC0 DUP4 PUSH1 0x5 PUSH2 0x7D0 GAS SUB STATICCALL SWAP1 MLOAD SWAP3 POP SWAP1 POP DUP1 PUSH2 0x16E6 JUMPI PUSH1 0x40 MLOAD PUSH3 0x461BCD PUSH1 0xE5 SHL DUP2 MSTORE PUSH1 0x20 PUSH1 0x4 DUP3 ADD MSTORE PUSH1 0x1F PUSH1 0x24 DUP3 ADD MSTORE PUSH32 0x424C533A20696E7665727365206D6F646578702063616C6C206661696C656400 PUSH1 0x44 DUP3 ADD MSTORE PUSH1 0x64 ADD PUSH2 0x8EB JUMP JUMPDEST POP SWAP2 SWAP1 POP JUMP JUMPDEST DUP2 MLOAD PUSH1 0x0 SWAP1 DUP1 PUSH2 0x1764 JUMPI PUSH1 0x40 MLOAD PUSH3 0x461BCD PUSH1 0xE5 SHL DUP2 MSTORE PUSH1 0x20 PUSH1 0x4 DUP3 ADD MSTORE PUSH1 0x21 PUSH1 0x24 DUP3 ADD MSTORE PUSH32 0x424C533A206E756D626572206F66207075626C6963206B6579206973207A6572 PUSH1 0x44 DUP3 ADD MSTORE PUSH32 0x6F00000000000000000000000000000000000000000000000000000000000000 PUSH1 0x64 DUP3 ADD MSTORE PUSH1 0x84 ADD PUSH2 0x8EB JUMP JUMPDEST DUP3 MLOAD DUP2 EQ PUSH2 0x17DA JUMPI PUSH1 0x40 MLOAD PUSH3 0x461BCD PUSH1 0xE5 SHL DUP2 MSTORE PUSH1 0x20 PUSH1 0x4 DUP3 ADD MSTORE PUSH1 0x35 PUSH1 0x24 DUP3 ADD MSTORE PUSH32 0x424C533A206E756D626572206F66207075626C6963206B65797320616E64206D PUSH1 0x44 DUP3 ADD MSTORE PUSH32 0x65737361676573206D75737420626520657175616C0000000000000000000000 PUSH1 0x64 DUP3 ADD MSTORE PUSH1 0x84 ADD PUSH2 0x8EB JUMP JUMPDEST PUSH1 0x0 PUSH2 0x17E7 DUP3 PUSH1 0x1 PUSH2 0x3639 JUMP JUMPDEST PUSH2 0x17F2 SWAP1 PUSH1 0x6 PUSH2 0x3686 JUMP JUMPDEST SWAP1 POP PUSH1 0x0 DUP2 PUSH8 0xFFFFFFFFFFFFFFFF DUP2 GT ISZERO PUSH2 0x180F JUMPI PUSH2 0x180F PUSH2 0x3143 JUMP JUMPDEST PUSH1 0x40 MLOAD SWAP1 DUP1 DUP3 MSTORE DUP1 PUSH1 0x20 MUL PUSH1 0x20 ADD DUP3 ADD PUSH1 0x40 MSTORE DUP1 ISZERO PUSH2 0x1838 JUMPI DUP2 PUSH1 0x20 ADD PUSH1 0x20 DUP3 MUL DUP1 CALLDATASIZE DUP4 CALLDATACOPY ADD SWAP1 POP JUMPDEST POP SWAP1 POP DUP7 PUSH1 0x0 PUSH1 0x20 MUL ADD MLOAD DUP2 PUSH1 0x0 DUP2 MLOAD DUP2 LT PUSH2 0x1856 JUMPI PUSH2 0x1856 PUSH2 0x35F6 JUMP JUMPDEST PUSH1 0x20 SWAP1 DUP2 MUL SWAP2 SWAP1 SWAP2 ADD ADD MSTORE DUP7 PUSH1 0x1 PUSH1 0x20 MUL ADD MLOAD DUP2 PUSH1 0x1 DUP2 MLOAD DUP2 LT PUSH2 0x187C JUMPI PUSH2 0x187C PUSH2 0x35F6 JUMP JUMPDEST PUSH1 0x20 MUL PUSH1 0x20 ADD ADD DUP2 DUP2 MSTORE POP POP PUSH32 0x198E9393920D483A7260BFB731FB5D25F1AA493335A9E71297E485B7AEF312C2 DUP2 PUSH1 0x2 DUP2 MLOAD DUP2 LT PUSH2 0x18BC JUMPI PUSH2 0x18BC PUSH2 0x35F6 JUMP JUMPDEST PUSH1 0x20 MUL PUSH1 0x20 ADD ADD DUP2 DUP2 MSTORE POP POP PUSH32 0x1800DEEF121F1E76426A00665E5C4479674322D4F75EDADD46DEBD5CD992F6ED DUP2 PUSH1 0x3 DUP2 MLOAD DUP2 LT PUSH2 0x18FC JUMPI PUSH2 0x18FC PUSH2 0x35F6 JUMP JUMPDEST PUSH1 0x20 MUL PUSH1 0x20 ADD ADD DUP2 DUP2 MSTORE POP POP PUSH32 0x275DC4A288D1AFB3CBB1AC09187524C7DB36395DF7BE3B99E673B13A075A65EC DUP2 PUSH1 0x4 DUP2 MLOAD DUP2 LT PUSH2 0x193C JUMPI PUSH2 0x193C PUSH2 0x35F6 JUMP JUMPDEST PUSH1 0x20 MUL PUSH1 0x20 ADD ADD DUP2 DUP2 MSTORE POP POP PUSH32 0x1D9BEFCD05A5323E6DA4D435F3B617CDB3AF83285C2DF711EF39C01571827F9D DUP2 PUSH1 0x5 DUP2 MLOAD DUP2 LT PUSH2 0x197C JUMPI PUSH2 0x197C PUSH2 0x35F6 JUMP JUMPDEST PUSH1 0x20 MUL PUSH1 0x20 ADD ADD DUP2 DUP2 MSTORE POP POP PUSH1 0x0 JUMPDEST DUP4 DUP2 LT ISZERO PUSH2 0x1BFC JUMPI DUP6 DUP2 DUP2 MLOAD DUP2 LT PUSH2 0x19A5 JUMPI PUSH2 0x19A5 PUSH2 0x35F6 JUMP JUMPDEST PUSH1 0x20 MUL PUSH1 0x20 ADD ADD MLOAD PUSH1 0x0 PUSH1 0x2 DUP2 LT PUSH2 0x19BF JUMPI PUSH2 0x19BF PUSH2 0x35F6 JUMP JUMPDEST PUSH1 0x20 MUL ADD MLOAD DUP3 PUSH2 0x19D0 DUP4 PUSH1 0x6 PUSH2 0x3686 JUMP JUMPDEST PUSH2 0x19DB SWAP1 PUSH1 0x6 PUSH2 0x3639 JUMP JUMPDEST DUP2 MLOAD DUP2 LT PUSH2 0x19EB JUMPI PUSH2 0x19EB PUSH2 0x35F6 JUMP JUMPDEST PUSH1 0x20 MUL PUSH1 0x20 ADD ADD DUP2 DUP2 MSTORE POP POP DUP6 DUP2 DUP2 MLOAD DUP2 LT PUSH2 0x1A09 JUMPI PUSH2 0x1A09 PUSH2 0x35F6 JUMP JUMPDEST PUSH1 0x20 MUL PUSH1 0x20 ADD ADD MLOAD PUSH1 0x1 PUSH1 0x2 DUP2 LT PUSH2 0x1A23 JUMPI PUSH2 0x1A23 PUSH2 0x35F6 JUMP JUMPDEST PUSH1 0x20 MUL ADD MLOAD DUP3 PUSH2 0x1A34 DUP4 PUSH1 0x6 PUSH2 0x3686 JUMP JUMPDEST PUSH2 0x1A3F SWAP1 PUSH1 0x7 PUSH2 0x3639 JUMP JUMPDEST DUP2 MLOAD DUP2 LT PUSH2 0x1A4F JUMPI PUSH2 0x1A4F PUSH2 0x35F6 JUMP JUMPDEST PUSH1 0x20 MUL PUSH1 0x20 ADD ADD DUP2 DUP2 MSTORE POP POP DUP7 DUP2 DUP2 MLOAD DUP2 LT PUSH2 0x1A6D JUMPI PUSH2 0x1A6D PUSH2 0x35F6 JUMP JUMPDEST PUSH1 0x20 MUL PUSH1 0x20 ADD ADD MLOAD PUSH1 0x1 PUSH1 0x4 DUP2 LT PUSH2 0x1A87 JUMPI PUSH2 0x1A87 PUSH2 0x35F6 JUMP JUMPDEST PUSH1 0x20 MUL ADD MLOAD DUP3 PUSH2 0x1A98 DUP4 PUSH1 0x6 PUSH2 0x3686 JUMP JUMPDEST PUSH2 0x1AA3 SWAP1 PUSH1 0x8 PUSH2 0x3639 JUMP JUMPDEST DUP2 MLOAD DUP2 LT PUSH2 0x1AB3 JUMPI PUSH2 0x1AB3 PUSH2 0x35F6 JUMP JUMPDEST PUSH1 0x20 MUL PUSH1 0x20 ADD ADD DUP2 DUP2 MSTORE POP POP DUP7 DUP2 DUP2 MLOAD DUP2 LT PUSH2 0x1AD1 JUMPI PUSH2 0x1AD1 PUSH2 0x35F6 JUMP JUMPDEST PUSH1 0x20 MUL PUSH1 0x20 ADD ADD MLOAD PUSH1 0x0 PUSH1 0x4 DUP2 LT PUSH2 0x1AEB JUMPI PUSH2 0x1AEB PUSH2 0x35F6 JUMP JUMPDEST PUSH1 0x20 MUL ADD MLOAD DUP3 PUSH2 0x1AFC DUP4 PUSH1 0x6 PUSH2 0x3686 JUMP JUMPDEST PUSH2 0x1B07 SWAP1 PUSH1 0x9 PUSH2 0x3639 JUMP JUMPDEST DUP2 MLOAD DUP2 LT PUSH2 0x1B17 JUMPI PUSH2 0x1B17 PUSH2 0x35F6 JUMP JUMPDEST PUSH1 0x20 MUL PUSH1 0x20 ADD ADD DUP2 DUP2 MSTORE POP POP DUP7 DUP2 DUP2 MLOAD DUP2 LT PUSH2 0x1B35 JUMPI PUSH2 0x1B35 PUSH2 0x35F6 JUMP JUMPDEST PUSH1 0x20 MUL PUSH1 0x20 ADD ADD MLOAD PUSH1 0x3 PUSH1 0x4 DUP2 LT PUSH2 0x1B4F JUMPI PUSH2 0x1B4F PUSH2 0x35F6 JUMP JUMPDEST PUSH1 0x20 MUL ADD MLOAD DUP3 PUSH2 0x1B60 DUP4 PUSH1 0x6 PUSH2 0x3686 JUMP JUMPDEST PUSH2 0x1B6B SWAP1 PUSH1 0xA PUSH2 0x3639 JUMP JUMPDEST DUP2 MLOAD DUP2 LT PUSH2 0x1B7B JUMPI PUSH2 0x1B7B PUSH2 0x35F6 JUMP JUMPDEST PUSH1 0x20 MUL PUSH1 0x20 ADD ADD DUP2 DUP2 MSTORE POP POP DUP7 DUP2 DUP2 MLOAD DUP2 LT PUSH2 0x1B99 JUMPI PUSH2 0x1B99 PUSH2 0x35F6 JUMP JUMPDEST PUSH1 0x20 MUL PUSH1 0x20 ADD ADD MLOAD PUSH1 0x2 PUSH1 0x4 DUP2 LT PUSH2 0x1BB3 JUMPI PUSH2 0x1BB3 PUSH2 0x35F6 JUMP JUMPDEST PUSH1 0x20 MUL ADD MLOAD DUP3 PUSH2 0x1BC4 DUP4 PUSH1 0x6 PUSH2 0x3686 JUMP JUMPDEST PUSH2 0x1BCF SWAP1 PUSH1 0xB PUSH2 0x3639 JUMP JUMPDEST DUP2 MLOAD DUP2 LT PUSH2 0x1BDF JUMPI PUSH2 0x1BDF PUSH2 0x35F6 JUMP JUMPDEST PUSH1 0x20 SWAP1 DUP2 MUL SWAP2 SWAP1 SWAP2 ADD ADD MSTORE DUP1 PUSH2 0x1BF4 DUP2 PUSH2 0x36A5 JUMP JUMPDEST SWAP2 POP POP PUSH2 0x198B JUMP JUMPDEST POP PUSH2 0x1C05 PUSH2 0x30FB JUMP JUMPDEST PUSH1 0x0 PUSH1 0x20 DUP3 PUSH1 0x20 DUP7 MUL PUSH1 0x20 DUP7 ADD PUSH1 0x8 PUSH2 0x7D0 GAS SUB STATICCALL SWAP1 POP DUP1 DUP1 PUSH2 0x1C24 JUMPI INVALID JUMPDEST POP DUP1 PUSH2 0x1C4C JUMPI PUSH1 0x40 MLOAD PUSH3 0x461BCD PUSH1 0xE5 SHL DUP2 MSTORE PUSH1 0x20 PUSH1 0x4 DUP3 ADD MSTORE PUSH1 0x0 PUSH1 0x24 DUP3 ADD MSTORE PUSH1 0x44 ADD PUSH2 0x8EB JUMP JUMPDEST POP MLOAD ISZERO ISZERO SWAP8 SWAP7 POP POP POP POP POP POP POP JUMP JUMPDEST PUSH1 0x0 PUSH1 0x1 PUSH1 0x1 PUSH1 0xFF SHL SUB DUP3 AND PUSH1 0x0 DUP1 MLOAD PUSH1 0x20 PUSH2 0x36E1 DUP4 CODECOPY DUP2 MLOAD SWAP2 MSTORE DUP2 LT PUSH2 0x1C85 JUMPI POP PUSH1 0x0 SWAP3 SWAP2 POP POP JUMP JUMPDEST DUP1 PUSH1 0x0 SUB PUSH2 0x1C96 JUMPI POP PUSH1 0x0 SWAP3 SWAP2 POP POP JUMP JUMPDEST PUSH2 0x3B9 DUP2 PUSH2 0x7BA JUMP JUMPDEST PUSH1 0x0 DUP1 PUSH1 0x40 MLOAD PUSH1 0x20 DUP2 MSTORE PUSH1 0x20 DUP1 DUP3 ADD MSTORE PUSH1 0x20 PUSH1 0x40 DUP3 ADD MSTORE DUP4 PUSH1 0x60 DUP3 ADD MSTORE PUSH32 0x183227397098D014DC2822DB40C0AC2ECBC0B548B438E5469E10460B6C3E7EA3 PUSH1 0x80 DUP3 ADD MSTORE PUSH1 0x0 DUP1 MLOAD PUSH1 0x20 PUSH2 0x36E1 DUP4 CODECOPY DUP2 MLOAD SWAP2 MSTORE PUSH1 0xA0 DUP3 ADD MSTORE PUSH1 0x20 DUP2 PUSH1 0xC0 DUP4 PUSH1 0x5 PUSH2 0x7D0 GAS SUB STATICCALL SWAP1 MLOAD PUSH1 0x1 EQ SWAP3 POP SWAP1 POP DUP1 PUSH2 0x1D80 JUMPI PUSH1 0x40 MLOAD PUSH3 0x461BCD PUSH1 0xE5 SHL DUP2 MSTORE PUSH1 0x20 PUSH1 0x4 DUP3 ADD MSTORE PUSH1 0x26 PUSH1 0x24 DUP3 ADD MSTORE PUSH32 0x424C533A2069734E6F6E526573696475654650206D6F646578702063616C6C20 PUSH1 0x44 DUP3 ADD MSTORE PUSH32 0x6661696C65640000000000000000000000000000000000000000000000000000 PUSH1 0x64 DUP3 ADD MSTORE PUSH1 0x84 ADD PUSH2 0x8EB JUMP JUMPDEST POP ISZERO SWAP2 SWAP1 POP JUMP JUMPDEST PUSH2 0x1D8F PUSH2 0x30DD JUMP JUMPDEST PUSH1 0x0 PUSH2 0x1DA9 PUSH1 0x0 DUP1 MLOAD PUSH1 0x20 PUSH2 0x36E1 DUP4 CODECOPY DUP2 MLOAD SWAP2 MSTORE DUP5 PUSH2 0x36BE JUMP JUMPDEST SWAP1 POP PUSH1 0x0 DUP1 JUMPDEST PUSH1 0x0 DUP1 MLOAD PUSH1 0x20 PUSH2 0x36E1 DUP4 CODECOPY DUP2 MLOAD SWAP2 MSTORE DUP4 DUP5 MULMOD SWAP2 POP PUSH1 0x0 DUP1 MLOAD PUSH1 0x20 PUSH2 0x36E1 DUP4 CODECOPY DUP2 MLOAD SWAP2 MSTORE DUP4 DUP4 MULMOD SWAP2 POP PUSH1 0x0 DUP1 MLOAD PUSH1 0x20 PUSH2 0x36E1 DUP4 CODECOPY DUP2 MLOAD SWAP2 MSTORE PUSH1 0x3 DUP4 ADDMOD SWAP2 POP PUSH2 0x1DF5 DUP3 PUSH2 0x221A JUMP JUMPDEST SWAP1 SWAP3 POP SWAP1 POP DUP1 ISZERO PUSH2 0x1E0F JUMPI DUP3 DUP5 MSTORE PUSH1 0x20 DUP5 ADD DUP3 SWAP1 MSTORE PUSH2 0x1E29 JUMP JUMPDEST PUSH1 0x0 DUP1 MLOAD PUSH1 0x20 PUSH2 0x36E1 DUP4 CODECOPY DUP2 MLOAD SWAP2 MSTORE PUSH1 0x1 DUP5 ADDMOD SWAP3 POP PUSH2 0x1DAF JUMP JUMPDEST POP POP POP SWAP2 SWAP1 POP JUMP JUMPDEST PUSH2 0x1E39 PUSH2 0x30DD JUMP JUMPDEST PUSH1 0x1 PUSH1 0xFF SHL DUP4 DUP2 AND SWAP1 DUP2 EQ DUP1 PUSH2 0x1E53 JUMPI POP DUP3 PUSH1 0x1 AND PUSH1 0x1 EQ ISZERO JUMPDEST PUSH2 0x1EB3 JUMPI PUSH1 0x40 MLOAD PUSH3 0x461BCD PUSH1 0xE5 SHL DUP2 MSTORE PUSH1 0x20 PUSH1 0x4 DUP3 ADD MSTORE PUSH1 0x2B PUSH1 0x24 DUP3 ADD MSTORE PUSH32 0x424C533A20626164207920636F6F7264696E61746520666F7220756E636F6D70 PUSH1 0x44 DUP3 ADD MSTORE PUSH11 0x72657373696E67206B6579 PUSH1 0xA8 SHL PUSH1 0x64 DUP3 ADD MSTORE PUSH1 0x84 ADD PUSH2 0x8EB JUMP JUMPDEST POP POP PUSH1 0x40 DUP1 MLOAD DUP1 DUP3 ADD SWAP1 SWAP2 MSTORE PUSH1 0x1 PUSH1 0x1 PUSH1 0xFF SHL SUB SWAP3 SWAP1 SWAP3 AND DUP3 MSTORE PUSH1 0x20 DUP3 ADD MSTORE SWAP1 JUMP JUMPDEST PUSH1 0x0 DUP2 MLOAD PUSH1 0x20 DUP4 ADD MLOAD PUSH1 0x0 DUP1 MLOAD PUSH1 0x20 PUSH2 0x36E1 DUP4 CODECOPY DUP2 MLOAD SWAP2 MSTORE DUP3 DUP4 MULMOD PUSH1 0x0 DUP1 MLOAD PUSH1 0x20 PUSH2 0x36E1 DUP4 CODECOPY DUP2 MLOAD SWAP2 MSTORE DUP3 DUP4 MULMOD DUP2 DUP3 DUP4 ADD ADD PUSH1 0x0 DUP1 MLOAD PUSH1 0x20 PUSH2 0x36E1 DUP4 CODECOPY DUP2 MLOAD SWAP2 MSTORE DUP3 DUP4 DUP5 ADD ADDMOD PUSH1 0x0 DUP1 MLOAD PUSH1 0x20 PUSH2 0x36E1 DUP4 CODECOPY DUP2 MLOAD SWAP2 MSTORE DUP7 DUP3 PUSH1 0x0 DUP1 MLOAD PUSH1 0x20 PUSH2 0x36E1 DUP4 CODECOPY DUP2 MLOAD SWAP2 MSTORE SUB DUP7 ADD MULMOD SWAP4 POP POP PUSH1 0x0 DUP1 MLOAD PUSH1 0x20 PUSH2 0x36E1 DUP4 CODECOPY DUP2 MLOAD SWAP2 MSTORE DUP5 DUP4 PUSH1 0x0 DUP1 MLOAD PUSH1 0x20 PUSH2 0x36E1 DUP4 CODECOPY DUP2 MLOAD SWAP2 MSTORE SUB DUP4 ADD MULMOD SWAP2 POP PUSH1 0x0 DUP1 MLOAD PUSH1 0x20 PUSH2 0x36E1 DUP4 CODECOPY DUP2 MLOAD SWAP2 MSTORE PUSH32 0x2B149D40CEB8AAAE81BE18991BE06AC3B5B4C5E559DBEFA33267E6DC24A138E5 DUP5 ADDMOD SWAP5 POP PUSH1 0x0 DUP1 MLOAD PUSH1 0x20 PUSH2 0x36E1 DUP4 CODECOPY DUP2 MLOAD SWAP2 MSTORE PUSH31 0x9713B03AF0FED4CD2CAFADEED8FDF4A74FA084E52D1852E4A2BD0685C315D2 DUP4 ADDMOD SWAP4 POP PUSH1 0x40 DUP8 ADD MLOAD SWAP3 POP PUSH1 0x60 DUP8 ADD MLOAD SWAP2 POP PUSH1 0x0 DUP1 MLOAD PUSH1 0x20 PUSH2 0x36E1 DUP4 CODECOPY DUP2 MLOAD SWAP2 MSTORE DUP1 DUP4 PUSH1 0x0 DUP1 MLOAD PUSH1 0x20 PUSH2 0x36E1 DUP4 CODECOPY DUP2 MLOAD SWAP2 MSTORE SUB DUP6 ADDMOD PUSH1 0x0 DUP1 MLOAD PUSH1 0x20 PUSH2 0x36E1 DUP4 CODECOPY DUP2 MLOAD SWAP2 MSTORE DUP5 DUP7 ADDMOD MULMOD SWAP1 POP PUSH1 0x0 DUP1 MLOAD PUSH1 0x20 PUSH2 0x36E1 DUP4 CODECOPY DUP2 MLOAD SWAP2 MSTORE DUP3 DUP5 PUSH1 0x1 SHL MULMOD SWAP5 EQ SWAP3 SWAP1 SWAP4 EQ SWAP2 SWAP1 SWAP2 AND SWAP5 SWAP4 POP POP POP POP JUMP JUMPDEST DUP1 MLOAD PUSH1 0x20 DUP3 ADD MLOAD PUSH1 0x0 SWAP2 PUSH1 0x1 PUSH1 0x1 PUSH1 0xFF SHL SUB AND SWAP1 PUSH1 0x0 DUP1 MLOAD PUSH1 0x20 PUSH2 0x36E1 DUP4 CODECOPY DUP2 MLOAD SWAP2 MSTORE DUP3 LT ISZERO DUP1 PUSH2 0x207B JUMPI POP PUSH1 0x0 DUP1 MLOAD PUSH1 0x20 PUSH2 0x36E1 DUP4 CODECOPY DUP2 MLOAD SWAP2 MSTORE DUP2 LT ISZERO JUMPDEST ISZERO PUSH2 0x208A JUMPI POP PUSH1 0x0 SWAP4 SWAP3 POP POP POP JUMP JUMPDEST DUP2 ISZERO DUP1 ISZERO PUSH2 0x2096 JUMPI POP DUP1 ISZERO JUMPDEST ISZERO PUSH2 0x20A5 JUMPI POP PUSH1 0x0 SWAP4 SWAP3 POP POP POP JUMP JUMPDEST PUSH2 0x401 PUSH1 0x40 MLOAD DUP1 PUSH1 0x40 ADD PUSH1 0x40 MSTORE DUP1 DUP5 DUP2 MSTORE PUSH1 0x20 ADD DUP4 DUP2 MSTORE POP PUSH2 0xD1E JUMP JUMPDEST PUSH1 0x0 DUP2 MLOAD PUSH1 0x20 DUP4 ADD MLOAD PUSH1 0x0 DUP1 MLOAD PUSH1 0x20 PUSH2 0x36E1 DUP4 CODECOPY DUP2 MLOAD SWAP2 MSTORE DUP3 DUP4 MULMOD PUSH1 0x0 DUP1 MLOAD PUSH1 0x20 PUSH2 0x36E1 DUP4 CODECOPY DUP2 MLOAD SWAP2 MSTORE DUP4 DUP3 MULMOD SWAP1 POP PUSH1 0x0 DUP1 MLOAD PUSH1 0x20 PUSH2 0x36E1 DUP4 CODECOPY DUP2 MLOAD SWAP2 MSTORE PUSH1 0x3 DUP3 ADDMOD SWAP1 POP PUSH1 0x0 DUP1 MLOAD PUSH1 0x20 PUSH2 0x36E1 DUP4 CODECOPY DUP2 MLOAD SWAP2 MSTORE DUP3 DUP4 MULMOD EQ SWAP5 SWAP4 POP POP POP POP JUMP JUMPDEST PUSH2 0x2129 PUSH2 0x30DD JUMP JUMPDEST PUSH1 0x0 PUSH2 0x2135 DUP5 DUP5 PUSH2 0x1322 JUMP JUMPDEST SWAP1 POP PUSH1 0x0 DUP1 PUSH1 0x0 DUP1 PUSH1 0x18 DUP6 ADD PUSH24 0xFFFFFFFFFFFFFFFFFFFFFFFFFFFFFFFFFFFFFFFFFFFFFFFF DUP2 MLOAD AND SWAP4 POP PUSH1 0x30 DUP7 ADD SWAP1 POP PUSH24 0xFFFFFFFFFFFFFFFFFFFFFFFFFFFFFFFFFFFFFFFFFFFFFFFF DUP2 MLOAD AND SWAP5 POP PUSH1 0x0 DUP1 MLOAD PUSH1 0x20 PUSH2 0x36E1 DUP4 CODECOPY DUP2 MLOAD SWAP2 MSTORE DUP6 PUSH1 0x0 DUP1 MLOAD PUSH1 0x20 PUSH2 0x36E1 DUP4 CODECOPY DUP2 MLOAD SWAP2 MSTORE PUSH1 0x1 PUSH1 0xC0 SHL DUP8 MULMOD ADDMOD PUSH1 0x48 DUP8 ADD MLOAD PUSH1 0x60 DUP9 ADD MLOAD PUSH24 0xFFFFFFFFFFFFFFFFFFFFFFFFFFFFFFFFFFFFFFFFFFFFFFFF SWAP1 DUP2 AND SWAP8 POP AND SWAP5 POP SWAP3 POP PUSH1 0x0 DUP1 MLOAD PUSH1 0x20 PUSH2 0x36E1 DUP4 CODECOPY DUP2 MLOAD SWAP2 MSTORE SWAP1 POP DUP5 DUP2 PUSH1 0x1 PUSH1 0xC0 SHL DUP7 MULMOD ADDMOD PUSH1 0x40 DUP1 MLOAD DUP1 DUP3 ADD SWAP1 SWAP2 MSTORE SWAP3 DUP4 MSTORE PUSH1 0x20 DUP4 ADD MSTORE POP SWAP7 SWAP6 POP POP POP POP POP POP JUMP JUMPDEST PUSH1 0x0 PUSH2 0x37E DUP3 PUSH2 0x2243 JUMP JUMPDEST PUSH1 0x0 DUP1 PUSH2 0x2226 DUP4 PUSH2 0x298A JUMP JUMPDEST SWAP2 POP DUP3 PUSH1 0x0 DUP1 MLOAD PUSH1 0x20 PUSH2 0x36E1 DUP4 CODECOPY DUP2 MLOAD SWAP2 MSTORE DUP4 DUP5 MULMOD EQ SWAP1 POP SWAP2 POP SWAP2 JUMP JUMPDEST PUSH1 0x0 PUSH1 0x0 DUP1 MLOAD PUSH1 0x20 PUSH2 0x36E1 DUP4 CODECOPY DUP2 MLOAD SWAP2 MSTORE DUP1 DUP4 DUP5 MULMOD SWAP2 POP DUP1 DUP4 DUP4 MULMOD DUP2 DUP4 DUP3 MULMOD DUP3 DUP3 DUP4 MULMOD DUP4 DUP6 DUP4 MULMOD DUP5 DUP5 DUP4 MULMOD DUP6 DUP5 DUP5 MULMOD DUP7 DUP5 DUP6 MULMOD SWAP8 POP DUP7 DUP5 DUP5 MULMOD DUP8 DUP6 DUP5 MULMOD SWAP5 POP DUP8 DUP10 DUP11 MULMOD SWAP9 POP DUP8 DUP10 DUP11 MULMOD SWAP9 POP DUP8 DUP10 DUP11 MULMOD SWAP9 POP DUP8 DUP10 DUP11 MULMOD SWAP9 POP DUP8 DUP10 DUP11 MULMOD SWAP9 POP DUP8 DUP8 DUP11 MULMOD SWAP9 POP DUP8 DUP10 DUP11 MULMOD SWAP9 POP DUP8 DUP10 DUP11 MULMOD SWAP9 POP DUP8 DUP10 DUP11 MULMOD SWAP9 POP DUP8 DUP11 DUP11 MULMOD SWAP9 POP DUP8 DUP10 DUP11 MULMOD SWAP9 POP DUP8 DUP10 DUP11 MULMOD SWAP9 POP DUP8 DUP10 DUP11 MULMOD SWAP9 POP DUP8 DUP10 DUP11 MULMOD SWAP9 POP DUP8 DUP11 DUP11 MULMOD SWAP9 POP DUP8 DUP10 DUP11 MULMOD SWAP9 POP DUP8 DUP10 DUP11 MULMOD SWAP9 POP DUP8 DUP10 DUP11 MULMOD SWAP9 POP DUP8 DUP10 DUP11 MULMOD SWAP9 POP DUP8 DUP10 DUP11 MULMOD SWAP9 POP DUP8 DUP5 DUP11 MULMOD SWAP9 POP DUP8 DUP10 DUP11 MULMOD SWAP9 POP DUP8 DUP10 DUP11 MULMOD SWAP9 POP DUP8 DUP10 DUP11 MULMOD SWAP9 POP DUP8 DUP10 DUP11 MULMOD SWAP9 POP DUP8 DUP10 DUP11 MULMOD SWAP9 POP DUP8 DUP5 DUP11 MULMOD SWAP9 POP DUP8 DUP10 DUP11 MULMOD SWAP9 POP DUP8 DUP10 DUP11 MULMOD SWAP9 POP DUP8 DUP10 DUP11 MULMOD SWAP9 POP DUP8 DUP11 DUP11 MULMOD SWAP9 POP DUP8 DUP10 DUP11 MULMOD SWAP9 POP DUP8 DUP10 DUP11 MULMOD SWAP9 POP DUP8 DUP10 DUP11 MULMOD SWAP9 POP DUP8 DUP10 DUP11 MULMOD SWAP9 POP DUP8 DUP5 DUP11 MULMOD SWAP9 POP DUP8 DUP10 DUP11 MULMOD SWAP9 POP DUP8 DUP10 DUP11 MULMOD SWAP9 POP DUP8 DUP10 DUP11 MULMOD SWAP9 POP DUP8 DUP10 DUP11 MULMOD SWAP9 POP DUP8 DUP10 DUP11 MULMOD SWAP9 POP DUP8 DUP11 DUP11 MULMOD SWAP9 POP DUP8 DUP10 DUP11 MULMOD SWAP9 POP DUP8 DUP10 DUP11 MULMOD SWAP9 POP DUP8 DUP10 DUP11 MULMOD SWAP9 POP DUP8 DUP10 DUP11 MULMOD SWAP9 POP DUP8 DUP8 DUP11 MULMOD SWAP9 POP DUP8 DUP10 DUP11 MULMOD SWAP9 POP DUP8 DUP10 DUP11 MULMOD SWAP9 POP DUP8 DUP10 DUP11 MULMOD SWAP9 POP DUP8 DUP10 DUP11 MULMOD SWAP9 POP DUP8 DUP10 DUP11 MULMOD SWAP9 POP DUP8 DUP10 DUP11 MULMOD SWAP9 POP DUP8 DUP10 DUP11 MULMOD SWAP9 POP DUP8 DUP2 DUP11 MULMOD SWAP9 POP DUP8 DUP10 DUP11 MULMOD SWAP9 POP DUP8 DUP10 DUP11 MULMOD SWAP9 POP DUP8 DUP10 DUP11 MULMOD SWAP9 POP DUP8 DUP10 DUP11 MULMOD SWAP9 POP DUP8 DUP10 DUP11 MULMOD SWAP9 POP DUP8 DUP10 DUP11 MULMOD SWAP9 POP DUP8 DUP10 DUP11 MULMOD SWAP9 POP DUP8 DUP10 DUP11 MULMOD SWAP9 POP DUP8 DUP10 DUP11 MULMOD SWAP9 POP DUP8 DUP10 DUP11 MULMOD SWAP9 POP DUP8 DUP7 DUP11 MULMOD SWAP9 POP DUP8 DUP10 DUP11 MULMOD SWAP9 POP DUP8 DUP10 DUP11 MULMOD SWAP9 POP DUP8 DUP10 DUP11 MULMOD SWAP9 POP DUP8 DUP10 DUP11 MULMOD SWAP9 POP DUP8 DUP8 DUP11 MULMOD SWAP9 POP DUP8 DUP10 DUP11 MULMOD SWAP9 POP DUP8 DUP10 DUP11 MULMOD SWAP9 POP DUP8 DUP10 DUP11 MULMOD SWAP9 POP DUP8 DUP10 DUP11 MULMOD SWAP9 POP DUP8 DUP5 DUP11 MULMOD SWAP9 POP DUP8 DUP10 DUP11 MULMOD SWAP9 POP DUP8 DUP10 DUP11 MULMOD SWAP9 POP DUP8 DUP10 DUP11 MULMOD SWAP9 POP DUP8 DUP10 DUP11 MULMOD SWAP9 POP DUP8 DUP10 DUP11 MULMOD SWAP9 POP DUP8 DUP10 DUP11 MULMOD SWAP9 POP DUP8 DUP10 DUP11 MULMOD SWAP9 POP DUP8 DUP7 DUP11 MULMOD SWAP9 POP DUP8 DUP10 DUP11 MULMOD SWAP9 POP DUP8 DUP10 DUP11 MULMOD SWAP9 POP DUP8 DUP10 DUP11 MULMOD SWAP9 POP DUP8 DUP10 DUP11 MULMOD SWAP9 POP DUP8 DUP10 DUP11 MULMOD SWAP9 POP DUP8 DUP10 DUP11 MULMOD SWAP9 POP DUP8 DUP11 DUP11 MULMOD SWAP9 POP DUP8 DUP10 DUP11 MULMOD SWAP9 POP DUP8 DUP10 DUP11 MULMOD SWAP9 POP DUP8 DUP10 DUP11 MULMOD SWAP9 POP DUP8 DUP10 DUP11 MULMOD SWAP9 POP DUP8 DUP10 DUP11 MULMOD SWAP9 POP DUP8 DUP10 DUP11 MULMOD SWAP9 POP DUP8 DUP10 DUP11 MULMOD SWAP9 POP DUP8 DUP3 DUP11 MULMOD SWAP9 POP DUP8 DUP10 DUP11 MULMOD SWAP9 POP DUP8 DUP10 DUP11 MULMOD SWAP9 POP DUP8 DUP10 DUP11 MULMOD SWAP9 POP DUP8 DUP10 DUP11 MULMOD SWAP9 POP DUP8 DUP10 DUP11 MULMOD SWAP9 POP DUP8 DUP2 DUP11 MULMOD SWAP9 POP DUP8 DUP10 DUP11 MULMOD SWAP9 POP DUP8 DUP10 DUP11 MULMOD SWAP9 POP DUP8 DUP10 DUP11 MULMOD SWAP9 POP DUP8 DUP7 DUP11 MULMOD SWAP9 POP DUP8 DUP10 DUP11 MULMOD SWAP9 POP DUP8 DUP10 DUP11 MULMOD SWAP9 POP DUP8 DUP10 DUP11 MULMOD SWAP9 POP DUP8 DUP10 DUP11 MULMOD SWAP9 POP DUP8 DUP10 DUP11 MULMOD SWAP9 POP DUP8 DUP10 DUP11 MULMOD SWAP9 POP DUP8 DUP10 DUP11 MULMOD SWAP9 POP DUP8 DUP10 DUP11 MULMOD SWAP9 POP DUP8 DUP8 DUP11 MULMOD SWAP9 POP DUP8 DUP10 DUP11 MULMOD SWAP9 POP DUP8 DUP10 DUP11 MULMOD SWAP9 POP DUP8 DUP10 DUP11 MULMOD SWAP9 POP DUP8 DUP10 DUP11 MULMOD SWAP9 POP DUP8 DUP10 DUP11 MULMOD SWAP9 POP DUP8 DUP10 DUP11 MULMOD SWAP9 POP DUP8 DUP10 DUP11 MULMOD SWAP9 POP DUP8 DUP10 DUP11 MULMOD SWAP9 POP DUP8 DUP10 DUP11 MULMOD SWAP9 POP DUP8 DUP7 DUP11 MULMOD SWAP9 POP DUP8 DUP10 DUP11 MULMOD SWAP9 POP DUP8 DUP10 DUP11 MULMOD SWAP9 POP DUP8 DUP10 DUP11 MULMOD SWAP9 POP DUP8 DUP8 DUP11 MULMOD SWAP9 POP DUP8 DUP10 DUP11 MULMOD SWAP9 POP DUP8 DUP10 DUP11 MULMOD SWAP9 POP DUP8 DUP10 DUP11 MULMOD SWAP9 POP DUP8 DUP10 DUP11 MULMOD SWAP9 POP DUP8 DUP10 DUP11 MULMOD SWAP9 POP DUP8 DUP10 DUP11 MULMOD SWAP9 POP DUP8 DUP10 DUP11 MULMOD SWAP9 POP DUP8 DUP10 DUP11 MULMOD SWAP9 POP DUP8 DUP3 DUP11 MULMOD SWAP9 POP DUP8 DUP10 DUP11 MULMOD SWAP9 POP DUP8 DUP10 DUP11 MULMOD SWAP9 POP DUP8 DUP10 DUP11 MULMOD SWAP9 POP DUP8 DUP10 DUP11 MULMOD SWAP9 POP DUP8 DUP3 DUP11 MULMOD SWAP9 POP DUP8 DUP10 DUP11 MULMOD SWAP9 POP DUP8 DUP10 DUP11 MULMOD SWAP9 POP DUP8 DUP10 DUP11 MULMOD SWAP9 POP DUP8 DUP10 DUP11 MULMOD SWAP9 POP DUP8 DUP10 DUP11 MULMOD SWAP9 POP DUP8 DUP7 DUP11 MULMOD SWAP9 POP DUP8 DUP10 DUP11 MULMOD SWAP9 POP DUP8 DUP10 DUP11 MULMOD SWAP9 POP DUP8 DUP10 DUP11 MULMOD SWAP9 POP DUP8 DUP5 DUP11 MULMOD SWAP9 POP DUP8 DUP10 DUP11 MULMOD SWAP9 POP DUP8 DUP10 DUP11 MULMOD SWAP9 POP DUP8 DUP10 DUP11 MULMOD SWAP9 POP DUP8 DUP10 DUP11 MULMOD SWAP9 POP DUP8 DUP10 DUP11 MULMOD SWAP9 POP DUP8 DUP10 DUP11 MULMOD SWAP9 POP DUP8 DUP10 DUP11 MULMOD SWAP9 POP DUP8 DUP10 DUP11 MULMOD SWAP9 POP DUP8 DUP10 DUP11 MULMOD SWAP9 POP DUP8 DUP10 DUP11 MULMOD SWAP9 POP DUP8 DUP3 DUP11 MULMOD SWAP9 POP DUP8 DUP10 DUP11 MULMOD SWAP9 POP DUP8 DUP10 DUP11 MULMOD SWAP9 POP DUP8 DUP10 DUP11 MULMOD SWAP9 POP DUP8 DUP10 DUP11 MULMOD SWAP9 POP DUP8 DUP7 DUP11 MULMOD SWAP9 POP DUP8 DUP10 DUP11 MULMOD SWAP9 POP DUP8 DUP10 DUP11 MULMOD SWAP9 POP DUP8 DUP10 DUP11 MULMOD SWAP9 POP DUP8 DUP10 DUP11 MULMOD SWAP9 POP DUP8 DUP10 DUP11 MULMOD SWAP9 POP DUP8 DUP4 DUP11 MULMOD SWAP9 POP DUP8 DUP10 DUP11 MULMOD SWAP9 POP DUP8 DUP10 DUP11 MULMOD SWAP9 POP DUP8 DUP10 DUP11 MULMOD SWAP9 POP DUP8 DUP10 DUP11 MULMOD SWAP9 POP DUP8 DUP10 DUP11 MULMOD SWAP9 POP DUP8 DUP10 DUP11 MULMOD SWAP9 POP DUP8 DUP10 DUP11 MULMOD SWAP9 POP DUP8 DUP3 DUP11 MULMOD SWAP9 POP DUP8 DUP10 DUP11 MULMOD SWAP9 POP DUP8 DUP10 DUP11 MULMOD SWAP9 POP DUP8 DUP11 DUP11 MULMOD SWAP9 POP DUP8 DUP10 DUP11 MULMOD SWAP9 POP DUP8 DUP10 DUP11 MULMOD SWAP9 POP DUP8 DUP10 DUP11 MULMOD SWAP9 POP DUP8 DUP10 DUP11 MULMOD SWAP9 POP DUP8 DUP10 DUP11 MULMOD SWAP9 POP DUP8 DUP10 DUP11 MULMOD SWAP9 POP DUP8 DUP10 DUP11 MULMOD SWAP9 POP DUP8 DUP5 DUP11 MULMOD SWAP9 POP DUP8 DUP10 DUP11 MULMOD SWAP9 POP DUP8 DUP10 DUP11 MULMOD SWAP9 POP DUP8 DUP10 DUP11 MULMOD SWAP9 POP DUP8 DUP10 DUP11 MULMOD SWAP9 POP DUP8 DUP10 DUP11 MULMOD SWAP9 POP DUP8 DUP10 DUP11 MULMOD SWAP9 POP DUP8 DUP5 DUP11 MULMOD SWAP9 POP DUP8 DUP10 DUP11 MULMOD SWAP9 POP DUP8 DUP10 DUP11 MULMOD SWAP9 POP DUP8 DUP10 DUP11 MULMOD SWAP9 POP DUP8 DUP10 DUP11 MULMOD SWAP9 POP DUP8 DUP10 DUP11 MULMOD SWAP9 POP DUP8 DUP7 DUP11 MULMOD SWAP9 POP DUP8 DUP10 DUP11 MULMOD SWAP9 POP DUP8 DUP10 DUP11 MULMOD SWAP9 POP DUP8 DUP11 DUP11 MULMOD SWAP9 POP DUP8 DUP10 DUP11 MULMOD SWAP9 POP DUP8 DUP10 DUP11 MULMOD SWAP9 POP DUP8 DUP10 DUP11 MULMOD SWAP9 POP DUP8 DUP10 DUP11 MULMOD SWAP9 POP DUP8 DUP10 DUP11 MULMOD SWAP9 POP DUP8 DUP10 DUP11 MULMOD SWAP9 POP DUP8 DUP10 DUP11 MULMOD SWAP9 POP DUP8 DUP2 DUP11 MULMOD SWAP9 POP POP DUP7 DUP9 DUP10 MULMOD SWAP8 POP DUP7 DUP9 DUP10 MULMOD SWAP8 POP DUP7 DUP9 DUP10 MULMOD SWAP8 POP DUP7 DUP9 DUP10 MULMOD SWAP8 POP DUP7 DUP9 DUP10 MULMOD SWAP8 POP DUP7 DUP9 DUP10 MULMOD SWAP8 POP DUP7 DUP5 DUP10 MULMOD SWAP8 POP DUP7 DUP9 DUP10 MULMOD SWAP8 POP DUP7 DUP9 DUP10 MULMOD SWAP8 POP DUP7 DUP9 DUP10 MULMOD SWAP8 POP DUP7 DUP9 DUP10 MULMOD SWAP8 POP DUP7 DUP9 DUP10 MULMOD SWAP8 POP DUP7 DUP10 DUP10 MULMOD SWAP8 POP DUP7 DUP9 DUP10 MULMOD SWAP8 POP DUP7 DUP9 DUP10 MULMOD SWAP8 POP DUP7 DUP9 DUP10 MULMOD SWAP8 POP DUP7 DUP9 DUP10 MULMOD SWAP8 POP DUP7 DUP9 DUP10 MULMOD SWAP8 POP DUP7 DUP9 DUP10 MULMOD SWAP8 POP DUP7 DUP10 DUP10 MULMOD SWAP8 POP DUP7 DUP9 DUP10 MULMOD SWAP8 POP DUP7 DUP9 DUP10 MULMOD SWAP8 POP DUP7 DUP9 DUP10 MULMOD SWAP8 POP DUP7 DUP9 DUP10 MULMOD SWAP8 POP DUP7 DUP9 DUP10 MULMOD SWAP8 POP DUP7 DUP7 DUP10 MULMOD SWAP8 POP DUP7 DUP9 DUP10 MULMOD SWAP8 POP DUP7 DUP9 DUP10 MULMOD SWAP8 POP DUP7 DUP9 DUP10 MULMOD SWAP8 POP DUP7 DUP9 DUP10 MULMOD SWAP8 POP DUP7 DUP9 DUP10 MULMOD SWAP8 POP DUP7 DUP9 DUP10 MULMOD SWAP8 POP DUP7 DUP9 DUP10 MULMOD SWAP8 POP DUP7 DUP9 DUP10 MULMOD SWAP8 POP DUP7 DUP9 DUP10 MULMOD SWAP8 POP DUP7 DUP2 DUP10 MULMOD SWAP8 POP POP DUP6 DUP8 DUP9 MULMOD SWAP7 POP DUP6 DUP8 DUP9 MULMOD SWAP7 POP DUP6 DUP8 DUP9 MULMOD SWAP7 POP DUP6 DUP6 DUP9 MULMOD SWAP7 POP DUP6 DUP8 DUP9 MULMOD SWAP7 POP DUP6 DUP8 DUP9 MULMOD SWAP7 POP DUP6 DUP8 DUP9 MULMOD SWAP7 POP DUP6 DUP6 DUP9 MULMOD SWAP7 POP DUP6 DUP8 DUP9 MULMOD SWAP7 POP DUP6 DUP8 DUP9 MULMOD SWAP7 POP DUP6 DUP8 DUP9 MULMOD SWAP7 POP DUP6 DUP8 DUP9 MULMOD SWAP7 POP DUP6 DUP8 DUP9 MULMOD SWAP7 POP DUP6 DUP8 DUP9 MULMOD SWAP7 POP DUP6 DUP8 DUP9 MULMOD SWAP7 POP DUP6 DUP8 DUP9 MULMOD SWAP7 POP DUP6 DUP4 DUP9 MULMOD SWAP7 POP DUP6 DUP8 DUP9 MULMOD SWAP7 POP DUP6 DUP8 DUP9 MULMOD SWAP7 POP DUP6 DUP8 DUP9 MULMOD SWAP7 POP DUP6 DUP8 DUP9 MULMOD SWAP7 POP DUP6 DUP2 DUP9 MULMOD SWAP7 POP POP POP DUP4 DUP6 DUP7 MULMOD SWAP5 POP DUP4 DUP6 DUP7 MULMOD SWAP5 POP DUP4 DUP6 DUP7 MULMOD SWAP5 POP DUP4 DUP6 DUP7 MULMOD SWAP5 POP DUP4 DUP2 DUP7 MULMOD SWAP5 POP POP DUP3 DUP5 DUP6 MULMOD SWAP4 POP DUP3 DUP5 DUP6 MULMOD SWAP4 POP DUP3 DUP5 DUP6 MULMOD SWAP4 POP DUP3 DUP2 DUP6 MULMOD SWAP4 POP DUP3 DUP5 DUP6 MULMOD SWAP4 POP DUP3 DUP5 DUP6 MULMOD SWAP4 POP DUP3 DUP6 DUP6 MULMOD SWAP4 POP DUP3 DUP5 DUP6 MULMOD SWAP4 POP DUP3 DUP5 DUP6 MULMOD SWAP4 POP DUP3 DUP5 DUP6 MULMOD SWAP4 POP DUP3 DUP5 DUP6 MULMOD SWAP4 POP DUP3 DUP5 DUP6 MULMOD SWAP4 POP DUP3 DUP5 DUP6 MULMOD SWAP4 POP DUP3 DUP2 DUP6 MULMOD SWAP6 SWAP5 POP POP POP POP POP JUMP JUMPDEST PUSH1 0x0 PUSH1 0x0 DUP1 MLOAD PUSH1 0x20 PUSH2 0x36E1 DUP4 CODECOPY DUP2 MLOAD SWAP2 MSTORE DUP1 DUP4 DUP5 MULMOD SWAP2 POP DUP1 DUP4 DUP4 MULMOD DUP2 DUP4 DUP3 MULMOD DUP3 DUP3 DUP4 MULMOD DUP4 DUP6 DUP4 MULMOD DUP5 DUP5 DUP4 MULMOD DUP6 DUP5 DUP5 MULMOD DUP7 DUP5 DUP6 MULMOD SWAP8 POP DUP7 DUP5 DUP5 MULMOD DUP8 DUP6 DUP5 MULMOD SWAP5 POP DUP8 DUP10 DUP11 MULMOD SWAP9 POP DUP8 DUP10 DUP11 MULMOD SWAP9 POP DUP8 DUP10 DUP11 MULMOD SWAP9 POP DUP8 DUP10 DUP11 MULMOD SWAP9 POP DUP8 DUP10 DUP11 MULMOD SWAP9 POP DUP8 DUP8 DUP11 MULMOD SWAP9 POP DUP8 DUP10 DUP11 MULMOD SWAP9 POP DUP8 DUP10 DUP11 MULMOD SWAP9 POP DUP8 DUP10 DUP11 MULMOD SWAP9 POP DUP8 DUP11 DUP11 MULMOD SWAP9 POP DUP8 DUP10 DUP11 MULMOD SWAP9 POP DUP8 DUP10 DUP11 MULMOD SWAP9 POP DUP8 DUP10 DUP11 MULMOD SWAP9 POP DUP8 DUP10 DUP11 MULMOD SWAP9 POP DUP8 DUP11 DUP11 MULMOD SWAP9 POP DUP8 DUP10 DUP11 MULMOD SWAP9 POP DUP8 DUP10 DUP11 MULMOD SWAP9 POP DUP8 DUP10 DUP11 MULMOD SWAP9 POP DUP8 DUP10 DUP11 MULMOD SWAP9 POP DUP8 DUP10 DUP11 MULMOD SWAP9 POP DUP8 DUP5 DUP11 MULMOD SWAP9 POP DUP8 DUP10 DUP11 MULMOD SWAP9 POP DUP8 DUP10 DUP11 MULMOD SWAP9 POP DUP8 DUP10 DUP11 MULMOD SWAP9 POP DUP8 DUP10 DUP11 MULMOD SWAP9 POP DUP8 DUP10 DUP11 MULMOD SWAP9 POP DUP8 DUP5 DUP11 MULMOD SWAP9 POP DUP8 DUP10 DUP11 MULMOD SWAP9 POP DUP8 DUP10 DUP11 MULMOD SWAP9 POP DUP8 DUP10 DUP11 MULMOD SWAP9 POP DUP8 DUP11 DUP11 MULMOD SWAP9 POP DUP8 DUP10 DUP11 MULMOD SWAP9 POP DUP8 DUP10 DUP11 MULMOD SWAP9 POP DUP8 DUP10 DUP11 MULMOD SWAP9 POP DUP8 DUP10 DUP11 MULMOD SWAP9 POP DUP8 DUP5 DUP11 MULMOD SWAP9 POP DUP8 DUP10 DUP11 MULMOD SWAP9 POP DUP8 DUP10 DUP11 MULMOD SWAP9 POP DUP8 DUP10 DUP11 MULMOD SWAP9 POP DUP8 DUP10 DUP11 MULMOD SWAP9 POP DUP8 DUP10 DUP11 MULMOD SWAP9 POP DUP8 DUP11 DUP11 MULMOD SWAP9 POP DUP8 DUP10 DUP11 MULMOD SWAP9 POP DUP8 DUP10 DUP11 MULMOD SWAP9 POP DUP8 DUP10 DUP11 MULMOD SWAP9 POP DUP8 DUP10 DUP11 MULMOD SWAP9 POP DUP8 DUP8 DUP11 MULMOD SWAP9 POP DUP8 DUP10 DUP11 MULMOD SWAP9 POP DUP8 DUP10 DUP11 MULMOD SWAP9 POP DUP8 DUP10 DUP11 MULMOD SWAP9 POP DUP8 DUP10 DUP11 MULMOD SWAP9 POP DUP8 DUP10 DUP11 MULMOD SWAP9 POP DUP8 DUP10 DUP11 MULMOD SWAP9 POP DUP8 DUP10 DUP11 MULMOD SWAP9 POP DUP8 DUP2 DUP11 MULMOD SWAP9 POP DUP8 DUP10 DUP11 MULMOD SWAP9 POP DUP8 DUP10 DUP11 MULMOD SWAP9 POP DUP8 DUP10 DUP11 MULMOD SWAP9 POP DUP8 DUP10 DUP11 MULMOD SWAP9 POP DUP8 DUP10 DUP11 MULMOD SWAP9 POP DUP8 DUP10 DUP11 MULMOD SWAP9 POP DUP8 DUP10 DUP11 MULMOD SWAP9 POP DUP8 DUP10 DUP11 MULMOD SWAP9 POP DUP8 DUP10 DUP11 MULMOD SWAP9 POP DUP8 DUP10 DUP11 MULMOD SWAP9 POP DUP8 DUP7 DUP11 MULMOD SWAP9 POP DUP8 DUP10 DUP11 MULMOD SWAP9 POP DUP8 DUP10 DUP11 MULMOD SWAP9 POP DUP8 DUP10 DUP11 MULMOD SWAP9 POP DUP8 DUP10 DUP11 MULMOD SWAP9 POP DUP8 DUP8 DUP11 MULMOD SWAP9 POP DUP8 DUP10 DUP11 MULMOD SWAP9 POP DUP8 DUP10 DUP11 MULMOD SWAP9 POP DUP8 DUP10 DUP11 MULMOD SWAP9 POP DUP8 DUP10 DUP11 MULMOD SWAP9 POP DUP8 DUP5 DUP11 MULMOD SWAP9 POP DUP8 DUP10 DUP11 MULMOD SWAP9 POP DUP8 DUP10 DUP11 MULMOD SWAP9 POP DUP8 DUP10 DUP11 MULMOD SWAP9 POP DUP8 DUP10 DUP11 MULMOD SWAP9 POP DUP8 DUP10 DUP11 MULMOD SWAP9 POP DUP8 DUP10 DUP11 MULMOD SWAP9 POP DUP8 DUP10 DUP11 MULMOD SWAP9 POP DUP8 DUP7 DUP11 MULMOD SWAP9 POP DUP8 DUP10 DUP11 MULMOD SWAP9 POP DUP8 DUP10 DUP11 MULMOD SWAP9 POP DUP8 DUP10 DUP11 MULMOD SWAP9 POP DUP8 DUP10 DUP11 MULMOD SWAP9 POP DUP8 DUP10 DUP11 MULMOD SWAP9 POP DUP8 DUP10 DUP11 MULMOD SWAP9 POP DUP8 DUP11 DUP11 MULMOD SWAP9 POP DUP8 DUP10 DUP11 MULMOD SWAP9 POP DUP8 DUP10 DUP11 MULMOD SWAP9 POP DUP8 DUP10 DUP11 MULMOD SWAP9 POP DUP8 DUP10 DUP11 MULMOD SWAP9 POP DUP8 DUP10 DUP11 MULMOD SWAP9 POP DUP8 DUP10 DUP11 MULMOD SWAP9 POP DUP8 DUP10 DUP11 MULMOD SWAP9 POP DUP8 DUP3 DUP11 MULMOD SWAP9 POP DUP8 DUP10 DUP11 MULMOD SWAP9 POP DUP8 DUP10 DUP11 MULMOD SWAP9 POP DUP8 DUP10 DUP11 MULMOD SWAP9 POP DUP8 DUP10 DUP11 MULMOD SWAP9 POP DUP8 DUP10 DUP11 MULMOD SWAP9 POP DUP8 DUP2 DUP11 MULMOD SWAP9 POP DUP8 DUP10 DUP11 MULMOD SWAP9 POP DUP8 DUP10 DUP11 MULMOD SWAP9 POP DUP8 DUP10 DUP11 MULMOD SWAP9 POP DUP8 DUP7 DUP11 MULMOD SWAP9 POP DUP8 DUP10 DUP11 MULMOD SWAP9 POP DUP8 DUP10 DUP11 MULMOD SWAP9 POP DUP8 DUP10 DUP11 MULMOD SWAP9 POP DUP8 DUP10 DUP11 MULMOD SWAP9 POP DUP8 DUP10 DUP11 MULMOD SWAP9 POP DUP8 DUP10 DUP11 MULMOD SWAP9 POP DUP8 DUP10 DUP11 MULMOD SWAP9 POP DUP8 DUP10 DUP11 MULMOD SWAP9 POP DUP8 DUP8 DUP11 MULMOD SWAP9 POP DUP8 DUP10 DUP11 MULMOD SWAP9 POP DUP8 DUP10 DUP11 MULMOD SWAP9 POP DUP8 DUP10 DUP11 MULMOD SWAP9 POP DUP8 DUP10 DUP11 MULMOD SWAP9 POP DUP8 DUP10 DUP11 MULMOD SWAP9 POP DUP8 DUP10 DUP11 MULMOD SWAP9 POP DUP8 DUP10 DUP11 MULMOD SWAP9 POP DUP8 DUP10 DUP11 MULMOD SWAP9 POP DUP8 DUP10 DUP11 MULMOD SWAP9 POP DUP8 DUP7 DUP11 MULMOD SWAP9 POP DUP8 DUP10 DUP11 MULMOD SWAP9 POP DUP8 DUP10 DUP11 MULMOD SWAP9 POP DUP8 DUP10 DUP11 MULMOD SWAP9 POP DUP8 DUP8 DUP11 MULMOD SWAP9 POP DUP8 DUP10 DUP11 MULMOD SWAP9 POP DUP8 DUP10 DUP11 MULMOD SWAP9 POP DUP8 DUP10 DUP11 MULMOD SWAP9 POP DUP8 DUP10 DUP11 MULMOD SWAP9 POP DUP8 DUP10 DUP11 MULMOD SWAP9 POP DUP8 DUP10 DUP11 MULMOD SWAP9 POP DUP8 DUP10 DUP11 MULMOD SWAP9 POP DUP8 DUP10 DUP11 MULMOD SWAP9 POP DUP8 DUP3 DUP11 MULMOD SWAP9 POP DUP8 DUP10 DUP11 MULMOD SWAP9 POP DUP8 DUP10 DUP11 MULMOD SWAP9 POP DUP8 DUP10 DUP11 MULMOD SWAP9 POP DUP8 DUP10 DUP11 MULMOD SWAP9 POP DUP8 DUP3 DUP11 MULMOD SWAP9 POP DUP8 DUP10 DUP11 MULMOD SWAP9 POP DUP8 DUP10 DUP11 MULMOD SWAP9 POP DUP8 DUP10 DUP11 MULMOD SWAP9 POP DUP8 DUP10 DUP11 MULMOD SWAP9 POP DUP8 DUP10 DUP11 MULMOD SWAP9 POP DUP8 DUP7 DUP11 MULMOD SWAP9 POP DUP8 DUP10 DUP11 MULMOD SWAP9 POP DUP8 DUP10 DUP11 MULMOD SWAP9 POP DUP8 DUP10 DUP11 MULMOD SWAP9 POP DUP8 DUP5 DUP11 MULMOD SWAP9 POP DUP8 DUP10 DUP11 MULMOD SWAP9 POP DUP8 DUP10 DUP11 MULMOD SWAP9 POP DUP8 DUP10 DUP11 MULMOD SWAP9 POP DUP8 DUP10 DUP11 MULMOD SWAP9 POP DUP8 DUP10 DUP11 MULMOD SWAP9 POP DUP8 DUP10 DUP11 MULMOD SWAP9 POP DUP8 DUP10 DUP11 MULMOD SWAP9 POP DUP8 DUP10 DUP11 MULMOD SWAP9 POP DUP8 DUP10 DUP11 MULMOD SWAP9 POP DUP8 DUP10 DUP11 MULMOD SWAP9 POP DUP8 DUP3 DUP11 MULMOD SWAP9 POP DUP8 DUP10 DUP11 MULMOD SWAP9 POP DUP8 DUP10 DUP11 MULMOD SWAP9 POP DUP8 DUP10 DUP11 MULMOD SWAP9 POP DUP8 DUP10 DUP11 MULMOD SWAP9 POP DUP8 DUP7 DUP11 MULMOD SWAP9 POP DUP8 DUP10 DUP11 MULMOD SWAP9 POP DUP8 DUP10 DUP11 MULMOD SWAP9 POP DUP8 DUP10 DUP11 MULMOD SWAP9 POP DUP8 DUP10 DUP11 MULMOD SWAP9 POP DUP8 DUP10 DUP11 MULMOD SWAP9 POP DUP8 DUP4 DUP11 MULMOD SWAP9 POP DUP8 DUP10 DUP11 MULMOD SWAP9 POP DUP8 DUP10 DUP11 MULMOD SWAP9 POP DUP8 DUP10 DUP11 MULMOD SWAP9 POP DUP8 DUP10 DUP11 MULMOD SWAP9 POP DUP8 DUP10 DUP11 MULMOD SWAP9 POP DUP8 DUP10 DUP11 MULMOD SWAP9 POP DUP8 DUP10 DUP11 MULMOD SWAP9 POP DUP8 DUP3 DUP11 MULMOD SWAP9 POP DUP8 DUP10 DUP11 MULMOD SWAP9 POP DUP8 DUP10 DUP11 MULMOD SWAP9 POP DUP8 DUP11 DUP11 MULMOD SWAP9 POP DUP8 DUP10 DUP11 MULMOD SWAP9 POP DUP8 DUP10 DUP11 MULMOD SWAP9 POP DUP8 DUP10 DUP11 MULMOD SWAP9 POP DUP8 DUP10 DUP11 MULMOD SWAP9 POP DUP8 DUP10 DUP11 MULMOD SWAP9 POP DUP8 DUP10 DUP11 MULMOD SWAP9 POP DUP8 DUP10 DUP11 MULMOD SWAP9 POP DUP8 DUP5 DUP11 MULMOD SWAP9 POP DUP8 DUP10 DUP11 MULMOD SWAP9 POP DUP8 DUP10 DUP11 MULMOD SWAP9 POP DUP8 DUP10 DUP11 MULMOD SWAP9 POP DUP8 DUP10 DUP11 MULMOD SWAP9 POP DUP8 DUP10 DUP11 MULMOD SWAP9 POP DUP8 DUP10 DUP11 MULMOD SWAP9 POP DUP8 DUP5 DUP11 MULMOD SWAP9 POP DUP8 DUP10 DUP11 MULMOD SWAP9 POP DUP8 DUP10 DUP11 MULMOD SWAP9 POP DUP8 DUP10 DUP11 MULMOD SWAP9 POP DUP8 DUP10 DUP11 MULMOD SWAP9 POP DUP8 DUP10 DUP11 MULMOD SWAP9 POP DUP8 DUP7 DUP11 MULMOD SWAP9 POP DUP8 DUP10 DUP11 MULMOD SWAP9 POP DUP8 DUP10 DUP11 MULMOD SWAP9 POP DUP8 DUP11 DUP11 MULMOD SWAP9 POP DUP8 DUP10 DUP11 MULMOD SWAP9 POP DUP8 DUP10 DUP11 MULMOD SWAP9 POP DUP8 DUP10 DUP11 MULMOD SWAP9 POP DUP8 DUP10 DUP11 MULMOD SWAP9 POP DUP8 DUP10 DUP11 MULMOD SWAP9 POP DUP8 DUP10 DUP11 MULMOD SWAP9 POP DUP8 DUP10 DUP11 MULMOD SWAP9 POP DUP8 DUP2 DUP11 MULMOD SWAP9 POP POP DUP7 DUP9 DUP10 MULMOD SWAP8 POP DUP7 DUP9 DUP10 MULMOD SWAP8 POP DUP7 DUP9 DUP10 MULMOD SWAP8 POP DUP7 DUP9 DUP10 MULMOD SWAP8 POP DUP7 DUP9 DUP10 MULMOD SWAP8 POP DUP7 DUP9 DUP10 MULMOD SWAP8 POP DUP7 DUP5 DUP10 MULMOD SWAP8 POP DUP7 DUP9 DUP10 MULMOD SWAP8 POP DUP7 DUP9 DUP10 MULMOD SWAP8 POP DUP7 DUP9 DUP10 MULMOD SWAP8 POP DUP7 DUP9 DUP10 MULMOD SWAP8 POP DUP7 DUP9 DUP10 MULMOD SWAP8 POP DUP7 DUP10 DUP10 MULMOD SWAP8 POP DUP7 DUP9 DUP10 MULMOD SWAP8 POP DUP7 DUP9 DUP10 MULMOD SWAP8 POP DUP7 DUP9 DUP10 MULMOD SWAP8 POP DUP7 DUP9 DUP10 MULMOD SWAP8 POP DUP7 DUP9 DUP10 MULMOD SWAP8 POP DUP7 DUP9 DUP10 MULMOD SWAP8 POP DUP7 DUP10 DUP10 MULMOD SWAP8 POP DUP7 DUP9 DUP10 MULMOD SWAP8 POP DUP7 DUP9 DUP10 MULMOD SWAP8 POP DUP7 DUP9 DUP10 MULMOD SWAP8 POP DUP7 DUP9 DUP10 MULMOD SWAP8 POP DUP7 DUP9 DUP10 MULMOD SWAP8 POP DUP7 DUP7 DUP10 MULMOD SWAP8 POP DUP7 DUP9 DUP10 MULMOD SWAP8 POP DUP7 DUP9 DUP10 MULMOD SWAP8 POP DUP7 DUP9 DUP10 MULMOD SWAP8 POP DUP7 DUP9 DUP10 MULMOD SWAP8 POP DUP7 DUP9 DUP10 MULMOD SWAP8 POP DUP7 DUP9 DUP10 MULMOD SWAP8 POP DUP7 DUP9 DUP10 MULMOD SWAP8 POP DUP7 DUP9 DUP10 MULMOD SWAP8 POP DUP7 DUP9 DUP10 MULMOD SWAP8 POP DUP7 DUP2 DUP10 MULMOD SWAP8 POP POP DUP6 DUP8 DUP9 MULMOD SWAP7 POP DUP6 DUP8 DUP9 MULMOD SWAP7 POP DUP6 DUP8 DUP9 MULMOD SWAP7 POP DUP6 DUP6 DUP9 MULMOD SWAP7 POP DUP6 DUP8 DUP9 MULMOD SWAP7 POP DUP6 DUP8 DUP9 MULMOD SWAP7 POP DUP6 DUP8 DUP9 MULMOD SWAP7 POP DUP6 DUP6 DUP9 MULMOD SWAP7 POP DUP6 DUP8 DUP9 MULMOD SWAP7 POP DUP6 DUP8 DUP9 MULMOD SWAP7 POP DUP6 DUP8 DUP9 MULMOD SWAP7 POP DUP6 DUP8 DUP9 MULMOD SWAP7 POP DUP6 DUP8 DUP9 MULMOD SWAP7 POP DUP6 DUP8 DUP9 MULMOD SWAP7 POP DUP6 DUP8 DUP9 MULMOD SWAP7 POP DUP6 DUP8 DUP9 MULMOD SWAP7 POP DUP6 DUP4 DUP9 MULMOD SWAP7 POP DUP6 DUP8 DUP9 MULMOD SWAP7 POP DUP6 DUP8 DUP9 MULMOD SWAP7 POP DUP6 DUP8 DUP9 MULMOD SWAP7 POP DUP6 DUP8 DUP9 MULMOD SWAP7 POP DUP6 DUP2 DUP9 MULMOD SWAP7 POP DUP6 DUP8 DUP9 MULMOD SWAP7 POP DUP6 DUP8 DUP9 MULMOD SWAP7 POP DUP6 DUP8 DUP9 MULMOD SWAP7 POP DUP6 DUP8 DUP9 MULMOD SWAP7 POP DUP6 DUP4 DUP9 MULMOD SWAP7 POP DUP6 DUP8 DUP9 MULMOD SWAP7 POP DUP6 DUP8 DUP9 MULMOD SWAP7 POP DUP6 DUP8 DUP9 MULMOD SWAP7 POP DUP6 DUP5 DUP9 MULMOD SWAP7 POP DUP6 DUP8 DUP9 MULMOD SWAP7 POP DUP6 DUP8 DUP9 MULMOD SWAP7 POP DUP6 DUP8 DUP9 MULMOD SWAP7 POP DUP6 DUP8 DUP9 MULMOD SWAP7 POP DUP6 DUP8 DUP9 MULMOD SWAP7 POP DUP6 DUP2 DUP9 MULMOD SWAP7 POP POP POP POP POP POP DUP1 DUP3 DUP4 MULMOD SWAP4 SWAP3 POP POP POP JUMP JUMPDEST PUSH1 0x40 MLOAD DUP1 PUSH1 0x80 ADD PUSH1 0x40 MSTORE DUP1 PUSH1 0x4 SWAP1 PUSH1 0x20 DUP3 MUL DUP1 CALLDATASIZE DUP4 CALLDATACOPY POP SWAP2 SWAP3 SWAP2 POP POP JUMP JUMPDEST PUSH1 0x40 MLOAD DUP1 PUSH1 0x40 ADD PUSH1 0x40 MSTORE DUP1 PUSH1 0x2 SWAP1 PUSH1 0x20 DUP3 MUL DUP1 CALLDATASIZE DUP4 CALLDATACOPY POP SWAP2 SWAP3 SWAP2 POP POP JUMP JUMPDEST PUSH1 0x40 MLOAD DUP1 PUSH1 0x20 ADD PUSH1 0x40 MSTORE DUP1 PUSH1 0x1 SWAP1 PUSH1 0x20 DUP3 MUL DUP1 CALLDATASIZE DUP4 CALLDATACOPY POP SWAP2 SWAP3 SWAP2 POP POP JUMP JUMPDEST PUSH1 0x0 PUSH1 0x20 DUP3 DUP5 SUB SLT ISZERO PUSH2 0x312B JUMPI PUSH1 0x0 DUP1 REVERT JUMPDEST POP CALLDATALOAD SWAP2 SWAP1 POP JUMP JUMPDEST DUP1 PUSH1 0x40 DUP2 ADD DUP4 LT ISZERO PUSH2 0x37E JUMPI PUSH1 0x0 DUP1 REVERT JUMPDEST PUSH4 0x4E487B71 PUSH1 0xE0 SHL PUSH1 0x0 MSTORE PUSH1 0x41 PUSH1 0x4 MSTORE PUSH1 0x24 PUSH1 0x0 REVERT JUMPDEST PUSH1 0x0 DUP1 PUSH1 0x80 DUP4 DUP6 SUB SLT ISZERO PUSH2 0x316C JUMPI PUSH1 0x0 DUP1 REVERT JUMPDEST PUSH2 0x3176 DUP5 DUP5 PUSH2 0x3132 JUMP JUMPDEST SWAP2 POP DUP4 PUSH1 0x5F DUP5 ADD SLT PUSH2 0x3187 JUMPI PUSH1 0x0 DUP1 REVERT JUMPDEST PUSH1 0x40 MLOAD PUSH1 0x40 DUP2 ADD DUP2 DUP2 LT PUSH8 0xFFFFFFFFFFFFFFFF DUP3 GT OR ISZERO PUSH2 0x31AA JUMPI PUSH2 0x31AA PUSH2 0x3143 JUMP JUMPDEST PUSH1 0x40 MSTORE DUP1 PUSH1 0x80 DUP6 ADD DUP7 DUP2 GT ISZERO PUSH2 0x31BF JUMPI PUSH1 0x0 DUP1 REVERT JUMPDEST PUSH1 0x40 DUP7 ADD JUMPDEST DUP2 DUP2 LT ISZERO PUSH2 0x31DC JUMPI DUP1 CALLDATALOAD DUP4 MSTORE PUSH1 0x20 SWAP3 DUP4 ADD SWAP3 ADD PUSH2 0x31C4 JUMP JUMPDEST POP POP POP DUP1 SWAP2 POP POP SWAP3 POP SWAP3 SWAP1 POP JUMP JUMPDEST PUSH1 0x80 DUP2 ADD DUP2 DUP4 PUSH1 0x0 JUMPDEST PUSH1 0x4 DUP2 LT ISZERO PUSH2 0x3212 JUMPI DUP2 MLOAD DUP4 MSTORE PUSH1 0x20 SWAP3 DUP4 ADD SWAP3 SWAP1 SWAP2 ADD SWAP1 PUSH1 0x1 ADD PUSH2 0x31F3 JUMP JUMPDEST POP POP POP SWAP3 SWAP2 POP POP JUMP JUMPDEST PUSH1 0x40 DUP2 ADD DUP2 DUP4 PUSH1 0x0 JUMPDEST PUSH1 0x2 DUP2 LT ISZERO PUSH2 0x3212 JUMPI DUP2 MLOAD DUP4 MSTORE PUSH1 0x20 SWAP3 DUP4 ADD SWAP3 SWAP1 SWAP2 ADD SWAP1 PUSH1 0x1 ADD PUSH2 0x3224 JUMP JUMPDEST PUSH1 0x0 PUSH1 0x40 DUP3 DUP5 SUB SLT ISZERO PUSH2 0x3255 JUMPI PUSH1 0x0 DUP1 REVERT JUMPDEST PUSH2 0x3B9 DUP4 DUP4 PUSH2 0x3132 JUMP JUMPDEST PUSH1 0x0 DUP3 PUSH1 0x1F DUP4 ADD SLT PUSH2 0x3270 JUMPI PUSH1 0x0 DUP1 REVERT JUMPDEST DUP2 CALLDATALOAD PUSH8 0xFFFFFFFFFFFFFFFF DUP1 DUP3 GT ISZERO PUSH2 0x328B JUMPI PUSH2 0x328B PUSH2 0x3143 JUMP JUMPDEST PUSH1 0x40 MLOAD PUSH1 0x1F DUP4 ADD PUSH1 0x1F NOT SWAP1 DUP2 AND PUSH1 0x3F ADD AND DUP2 ADD SWAP1 DUP3 DUP3 GT DUP2 DUP4 LT OR ISZERO PUSH2 0x32B3 JUMPI PUSH2 0x32B3 PUSH2 0x3143 JUMP JUMPDEST DUP2 PUSH1 0x40 MSTORE DUP4 DUP2 MSTORE DUP7 PUSH1 0x20 DUP6 DUP9 ADD ADD GT ISZERO PUSH2 0x32CC JUMPI PUSH1 0x0 DUP1 REVERT JUMPDEST DUP4 PUSH1 0x20 DUP8 ADD PUSH1 0x20 DUP4 ADD CALLDATACOPY PUSH1 0x0 PUSH1 0x20 DUP6 DUP4 ADD ADD MSTORE DUP1 SWAP5 POP POP POP POP POP SWAP3 SWAP2 POP POP JUMP JUMPDEST PUSH1 0x0 DUP1 PUSH1 0x40 DUP4 DUP6 SUB SLT ISZERO PUSH2 0x32FF JUMPI PUSH1 0x0 DUP1 REVERT JUMPDEST DUP3 CALLDATALOAD PUSH8 0xFFFFFFFFFFFFFFFF DUP1 DUP3 GT ISZERO PUSH2 0x3317 JUMPI PUSH1 0x0 DUP1 REVERT JUMPDEST PUSH2 0x3323 DUP7 DUP4 DUP8 ADD PUSH2 0x325F JUMP JUMPDEST SWAP4 POP PUSH1 0x20 DUP6 ADD CALLDATALOAD SWAP2 POP DUP1 DUP3 GT ISZERO PUSH2 0x3339 JUMPI PUSH1 0x0 DUP1 REVERT JUMPDEST POP PUSH2 0x3346 DUP6 DUP3 DUP7 ADD PUSH2 0x325F JUMP JUMPDEST SWAP2 POP POP SWAP3 POP SWAP3 SWAP1 POP JUMP JUMPDEST DUP1 PUSH1 0x80 DUP2 ADD DUP4 LT ISZERO PUSH2 0x37E JUMPI PUSH1 0x0 DUP1 REVERT JUMPDEST PUSH1 0x0 DUP1 PUSH1 0x0 PUSH2 0x100 DUP5 DUP7 SUB SLT ISZERO PUSH2 0x3377 JUMPI PUSH1 0x0 DUP1 REVERT JUMPDEST PUSH2 0x3381 DUP6 DUP6 PUSH2 0x3132 JUMP JUMPDEST SWAP3 POP PUSH2 0x3390 DUP6 PUSH1 0x40 DUP7 ADD PUSH2 0x3350 JUMP JUMPDEST SWAP2 POP PUSH2 0x339F DUP6 PUSH1 0xC0 DUP7 ADD PUSH2 0x3132 JUMP JUMPDEST SWAP1 POP SWAP3 POP SWAP3 POP SWAP3 JUMP JUMPDEST PUSH1 0x0 DUP1 DUP4 PUSH1 0x1F DUP5 ADD SLT PUSH2 0x33BA JUMPI PUSH1 0x0 DUP1 REVERT JUMPDEST POP DUP2 CALLDATALOAD PUSH8 0xFFFFFFFFFFFFFFFF DUP2 GT ISZERO PUSH2 0x33D2 JUMPI PUSH1 0x0 DUP1 REVERT JUMPDEST PUSH1 0x20 DUP4 ADD SWAP2 POP DUP4 PUSH1 0x20 DUP3 DUP6 ADD ADD GT ISZERO PUSH2 0x33EA JUMPI PUSH1 0x0 DUP1 REVERT JUMPDEST SWAP3 POP SWAP3 SWAP1 POP JUMP JUMPDEST PUSH1 0x0 DUP1 PUSH1 0x0 DUP1 PUSH1 0x40 DUP6 DUP8 SUB SLT ISZERO PUSH2 0x3407 JUMPI PUSH1 0x0 DUP1 REVERT JUMPDEST DUP5 CALLDATALOAD PUSH8 0xFFFFFFFFFFFFFFFF DUP1 DUP3 GT ISZERO PUSH2 0x341F JUMPI PUSH1 0x0 DUP1 REVERT JUMPDEST PUSH2 0x342B DUP9 DUP4 DUP10 ADD PUSH2 0x33A8 JUMP JUMPDEST SWAP1 SWAP7 POP SWAP5 POP PUSH1 0x20 DUP8 ADD CALLDATALOAD SWAP2 POP DUP1 DUP3 GT ISZERO PUSH2 0x3444 JUMPI PUSH1 0x0 DUP1 REVERT JUMPDEST POP PUSH2 0x3451 DUP8 DUP3 DUP9 ADD PUSH2 0x33A8 JUMP JUMPDEST SWAP6 SWAP9 SWAP5 SWAP8 POP SWAP6 POP POP POP POP JUMP JUMPDEST PUSH1 0x0 JUMPDEST DUP4 DUP2 LT ISZERO PUSH2 0x3478 JUMPI DUP2 DUP2 ADD MLOAD DUP4 DUP3 ADD MSTORE PUSH1 0x20 ADD PUSH2 0x3460 JUMP JUMPDEST DUP4 DUP2 GT ISZERO PUSH2 0x3487 JUMPI PUSH1 0x0 DUP5 DUP5 ADD MSTORE JUMPDEST POP POP POP POP JUMP JUMPDEST PUSH1 0x20 DUP2 MSTORE PUSH1 0x0 DUP3 MLOAD DUP1 PUSH1 0x20 DUP5 ADD MSTORE PUSH2 0x34AC DUP2 PUSH1 0x40 DUP6 ADD PUSH1 0x20 DUP8 ADD PUSH2 0x345D JUMP JUMPDEST PUSH1 0x1F ADD PUSH1 0x1F NOT AND SWAP2 SWAP1 SWAP2 ADD PUSH1 0x40 ADD SWAP3 SWAP2 POP POP JUMP JUMPDEST PUSH1 0x0 DUP1 DUP4 PUSH1 0x1F DUP5 ADD SLT PUSH2 0x34D2 JUMPI PUSH1 0x0 DUP1 REVERT JUMPDEST POP DUP2 CALLDATALOAD PUSH8 0xFFFFFFFFFFFFFFFF DUP2 GT ISZERO PUSH2 0x34EA JUMPI PUSH1 0x0 DUP1 REVERT JUMPDEST PUSH1 0x20 DUP4 ADD SWAP2 POP DUP4 PUSH1 0x20 DUP3 PUSH1 0x6 SHL DUP6 ADD ADD GT ISZERO PUSH2 0x33EA JUMPI PUSH1 0x0 DUP1 REVERT JUMPDEST PUSH1 0x0 DUP1 PUSH1 0x0 DUP1 PUSH1 0x0 PUSH1 0x80 DUP7 DUP9 SUB SLT ISZERO PUSH2 0x351D JUMPI PUSH1 0x0 DUP1 REVERT JUMPDEST PUSH2 0x3527 DUP8 DUP8 PUSH2 0x3132 JUMP JUMPDEST SWAP5 POP PUSH1 0x40 DUP7 ADD CALLDATALOAD PUSH8 0xFFFFFFFFFFFFFFFF DUP1 DUP3 GT ISZERO PUSH2 0x3544 JUMPI PUSH1 0x0 DUP1 REVERT JUMPDEST DUP2 DUP9 ADD SWAP2 POP DUP9 PUSH1 0x1F DUP4 ADD SLT PUSH2 0x3558 JUMPI PUSH1 0x0 DUP1 REVERT JUMPDEST DUP2 CALLDATALOAD DUP2 DUP2 GT ISZERO PUSH2 0x3567 JUMPI PUSH1 0x0 DUP1 REVERT JUMPDEST DUP10 PUSH1 0x20 DUP3 PUSH1 0x7 SHL DUP6 ADD ADD GT ISZERO PUSH2 0x357C JUMPI PUSH1 0x0 DUP1 REVERT JUMPDEST PUSH1 0x20 DUP4 ADD SWAP7 POP DUP1 SWAP6 POP POP PUSH1 0x60 DUP9 ADD CALLDATALOAD SWAP2 POP DUP1 DUP3 GT ISZERO PUSH2 0x359A JUMPI PUSH1 0x0 DUP1 REVERT JUMPDEST POP PUSH2 0x35A7 DUP9 DUP3 DUP10 ADD PUSH2 0x34C0 JUMP JUMPDEST SWAP7 SWAP10 SWAP6 SWAP9 POP SWAP4 SWAP7 POP SWAP3 SWAP5 SWAP4 SWAP3 POP POP POP JUMP JUMPDEST PUSH1 0x0 DUP1 PUSH1 0x40 DUP4 DUP6 SUB SLT ISZERO PUSH2 0x35CB JUMPI PUSH1 0x0 DUP1 REVERT JUMPDEST POP POP DUP1 CALLDATALOAD SWAP3 PUSH1 0x20 SWAP1 SWAP2 ADD CALLDATALOAD SWAP2 POP JUMP JUMPDEST PUSH1 0x0 PUSH1 0x80 DUP3 DUP5 SUB SLT ISZERO PUSH2 0x35EC JUMPI PUSH1 0x0 DUP1 REVERT JUMPDEST PUSH2 0x3B9 DUP4 DUP4 PUSH2 0x3350 JUMP JUMPDEST PUSH4 0x4E487B71 PUSH1 0xE0 SHL PUSH1 0x0 MSTORE PUSH1 0x32 PUSH1 0x4 MSTORE PUSH1 0x24 PUSH1 0x0 REVERT JUMPDEST PUSH4 0x4E487B71 PUSH1 0xE0 SHL PUSH1 0x0 MSTORE PUSH1 0x11 PUSH1 0x4 MSTORE PUSH1 0x24 PUSH1 0x0 REVERT JUMPDEST PUSH1 0x0 DUP3 DUP3 LT ISZERO PUSH2 0x3634 JUMPI PUSH2 0x3634 PUSH2 0x360C JUMP JUMPDEST POP SUB SWAP1 JUMP JUMPDEST PUSH1 0x0 DUP3 NOT DUP3 GT ISZERO PUSH2 0x364C JUMPI PUSH2 0x364C PUSH2 0x360C JUMP JUMPDEST POP ADD SWAP1 JUMP JUMPDEST PUSH1 0x0 DUP3 MLOAD PUSH2 0x3663 DUP2 DUP5 PUSH1 0x20 DUP8 ADD PUSH2 0x345D JUMP JUMPDEST SWAP2 SWAP1 SWAP2 ADD SWAP3 SWAP2 POP POP JUMP JUMPDEST PUSH1 0x0 PUSH1 0x20 DUP3 DUP5 SUB SLT ISZERO PUSH2 0x367F JUMPI PUSH1 0x0 DUP1 REVERT JUMPDEST POP MLOAD SWAP2 SWAP1 POP JUMP JUMPDEST PUSH1 0x0 DUP2 PUSH1 0x0 NOT DIV DUP4 GT DUP3 ISZERO ISZERO AND ISZERO PUSH2 0x36A0 JUMPI PUSH2 0x36A0 PUSH2 0x360C JUMP JUMPDEST POP MUL SWAP1 JUMP JUMPDEST PUSH1 0x0 PUSH1 0x1 DUP3 ADD PUSH2 0x36B7 JUMPI PUSH2 0x36B7 PUSH2 0x360C JUMP JUMPDEST POP PUSH1 0x1 ADD SWAP1 JUMP JUMPDEST PUSH1 0x0 DUP3 PUSH2 0x36DB JUMPI PUSH4 0x4E487B71 PUSH1 0xE0 SHL PUSH1 0x0 MSTORE PUSH1 0x12 PUSH1 0x4 MSTORE PUSH1 0x24 PUSH1 0x0 REVERT JUMPDEST POP MOD SWAP1 JUMP INVALID ADDRESS PUSH5 0x4E72E131A0 0x29 0xB8 POP GASLIMIT 0xB6 DUP2 DUP2 PC 0x5D SWAP8 DUP2 PUSH11 0x916871CA8D3C208C16D87C REVERT SELFBALANCE LOG2 PUSH5 0x6970667358 0x22 SLT KECCAK256 PUSH14 0xDF841E084677D0D8F784FF29ABA2 PUSH3 0x47F88F BYTE CALL DUP16 0xB4 0xF6 LOG1 SLT 0xB2 SWAP13 PUSH7 0xCB8D6964736F6C PUSH4 0x4300080F STOP CALLER "},"methodIdentifiers":{"_expandMsg(bytes,bytes)":"85a2b168","_hashToField(bytes,bytes)":"f73caea8","_hashToPoint(bytes,bytes)":"75e06650","_inverse(uint256)":"8cecf66e","_inverseFaster(uint256)":"f8c6c05f","_isNonResidueFP(uint256)":"ac39a635","_isNonResidueFP2(uint256[2])":"6e000f02","_isOnCurveG1(uint256[2])":"f66d032f","_isOnCurveG1Compressed(uint256)":"2758ebce","_isOnCurveG2(uint256[4])":"e1fcad4a","_isOnCurveG2Compressed(uint256[2])":"50c406f7","_isValidCompressedPublicKey(uint256[2])":"f45dded6","_isValidCompressedSignature(uint256)":"91717524","_mapToPointFT(uint256)":"4bfc36e4","_mapToPointTI(bytes32)":"b4a5eaca","_pubkeyToUncompresed(uint256[2],uint256[2])":"384cd5c4","_signatureToUncompresed(uint256,uint256)":"ca608d01","_sqrt(uint256)":"6a263f02","_sqrtFaster(uint256)":"ffef569c","_verifyMultiple(uint256[2],uint256[4][],uint256[2][])":"90baab7f","_verifySingle(uint256[2],uint256[4],uint256[2])":"78d8be24"}}}}}