{"contracts/Oracles.sol":{"Oracles":{"abi":[{"inputs":[],"stateMutability":"nonpayable","type":"constructor"},{"anonymous":false,"inputs":[{"indexed":false,"internalType":"string","name":"validationPath","type":"string"},{"indexed":false,"internalType":"string","name":"HEIName","type":"string"}],"name":"AuthenticateHEI","type":"event"},{"anonymous":false,"inputs":[{"indexed":false,"internalType":"string","name":"","type":"string"}],"name":"AuthenticationMessage","type":"event"},{"anonymous":false,"inputs":[{"indexed":false,"internalType":"uint256","name":"clusterID","type":"uint256"},{"indexed":false,"internalType":"address","name":"head","type":"address"}],"name":"NewCluster","type":"event"},{"anonymous":false,"inputs":[{"indexed":false,"internalType":"uint256","name":"Cluster","type":"uint256"},{"indexed":false,"internalType":"string","name":"HEI","type":"string"}],"name":"SurveyTask","type":"event"},{"anonymous":false,"inputs":[{"indexed":false,"internalType":"address","name":"","type":"address"},{"indexed":false,"internalType":"uint256","name":"","type":"uint256"}],"name":"gatherMetrics","type":"event"},{"anonymous":false,"inputs":[{"indexed":false,"internalType":"address","name":"sender","type":"address"},{"indexed":false,"internalType":"uint256","name":"cluster","type":"uint256"},{"indexed":false,"internalType":"string","name":"IPFS","type":"string"},{"indexed":false,"internalType":"uint8","name":"_metricOrder","type":"uint8"}],"name":"newData","type":"event"},{"anonymous":false,"inputs":[{"indexed":false,"internalType":"string","name":"PeerIDNotification","type":"string"}],"name":"shareAccess","type":"event"},{"inputs":[{"internalType":"address","name":"_heiID","type":"address"},{"internalType":"uint8","name":"_result","type":"uint8"},{"internalType":"uint256[2]","name":"_resultBn","type":"uint256[2]"},{"internalType":"uint256[2]","name":"_thresSig","type":"uint256[2]"}],"name":"authenticateHEI","outputs":[],"stateMutability":"nonpayable","type":"function"},{"inputs":[],"name":"clusterCount","outputs":[{"internalType":"uint256","name":"","type":"uint256"}],"stateMutability":"view","type":"function"},{"inputs":[{"internalType":"address","name":"_dataOwner","type":"address"},{"internalType":"address","name":"_heID","type":"address"},{"internalType":"uint256","name":"_metricOrder","type":"uint256"},{"internalType":"uint256","name":"_metricScore","type":"uint256"},{"internalType":"string","name":"_metricData","type":"string"},{"internalType":"uint256[2]","name":"_message","type":"uint256[2]"},{"internalType":"uint256[2]","name":"_thresSig","type":"uint256[2]"}],"name":"commitHEIData","outputs":[],"stateMutability":"nonpayable","type":"function"},{"inputs":[{"internalType":"address","name":"_heiID","type":"address"}],"name":"display","outputs":[{"internalType":"string","name":"","type":"string"},{"internalType":"address","name":"","type":"address"}],"stateMutability":"view","type":"function"},{"inputs":[{"internalType":"string","name":"a","type":"string"},{"internalType":"string","name":"b","type":"string"}],"name":"equals","outputs":[{"internalType":"bool","name":"","type":"bool"}],"stateMutability":"pure","type":"function"},{"inputs":[{"internalType":"uint256","name":"_clusterCount","type":"uint256"}],"name":"getOracleHead","outputs":[{"internalType":"address","name":"","type":"address"},{"internalType":"address","name":"","type":"address"}],"stateMutability":"view","type":"function"},{"inputs":[],"name":"heiID","outputs":[{"internalType":"uint256","name":"","type":"uint256"}],"stateMutability":"view","type":"function"},{"inputs":[{"internalType":"uint256","name":"_clusterID","type":"uint256"},{"internalType":"address","name":"_HEID","type":"address"}],"name":"initiateSurvey","outputs":[],"stateMutability":"nonpayable","type":"function"},{"inputs":[],"name":"maxClusterSize","outputs":[{"internalType":"uint16","name":"","type":"uint16"}],"stateMutability":"view","type":"function"},{"inputs":[],"name":"metricsNumber","outputs":[{"internalType":"uint16","name":"","type":"uint16"}],"stateMutability":"view","type":"function"},{"inputs":[{"internalType":"address","name":"_heiID","type":"address"},{"internalType":"string","name":"_IPFSLink","type":"string"},{"internalType":"uint8","name":"_metricOrder","type":"uint8"}],"name":"newDataSubmission","outputs":[],"stateMutability":"nonpayable","type":"function"},{"inputs":[{"internalType":"string","name":"_HEIName","type":"string"},{"internalType":"string","name":"_validationPath","type":"string"},{"internalType":"string","name":"_IPNS","type":"string"}],"name":"registerHEI","outputs":[],"stateMutability":"nonpayable","type":"function"},{"inputs":[],"name":"registerOracle","outputs":[],"stateMutability":"payable","type":"function"},{"inputs":[{"internalType":"string","name":"_IPNSLink","type":"string"}],"name":"setIPNSLink","outputs":[],"stateMutability":"payable","type":"function"},{"inputs":[{"internalType":"uint256[4]","name":"_pubkey","type":"uint256[4]"}],"name":"submitPubKey","outputs":[],"stateMutability":"nonpayable","type":"function"},{"inputs":[{"internalType":"address","name":"_heID","type":"address"},{"internalType":"string","name":"_surveyResults","type":"string"},{"internalType":"uint256","name":"_aggregatedValues","type":"uint256"},{"internalType":"uint256[2]","name":"signature","type":"uint256[2]"},{"internalType":"uint256[2]","name":"message","type":"uint256[2]"}],"name":"submitSurveyResult","outputs":[],"stateMutability":"nonpayable","type":"function"},{"inputs":[],"name":"withdrawReward","outputs":[],"stateMutability":"nonpayable","type":"function"}],"evm":{"bytecode":{"linkReferences":{},"object":"608060405267016345785d8a00006000908155662386f26fc1000060019081556002556003805461ffff1916600a17905560045560058054620a000463ffffffff1990911617905562093a8060065534801561005a57600080fd5b50612c858061006a6000396000f3fe60806040526004361061010e5760003560e01c806388d8da5f116100a5578063bd71109611610074578063c885bc5811610059578063c885bc5814610325578063d00e59b81461033a578063eb39113f1461035a57600080fd5b8063bd7110961461028e578063be1ddddd146102ae57600080fd5b806388d8da5f14610207578063b109fd8914610237578063b2c8c65214610257578063bd360bac1461027857600080fd5b80636da3fe52116100e15780636da3fe5214610170578063702f45f3146101a3578063766aad87146101c75780637c93ef88146101e757600080fd5b8063314b9b371461011357806332e8e46314610128578063339d2590146101485780635c599e4f14610150575b600080fd5b610126610121366004612328565b610388565b005b34801561013457600080fd5b50610126610143366004612397565b61056c565b610126610665565b34801561015c57600080fd5b5061012661016b3660046123fc565b61087e565b34801561017c57600080fd5b5060035461018b9061ffff1681565b60405161ffff90911681526020015b60405180910390f35b3480156101af57600080fd5b506101b960045481565b60405190815260200161019a565b3480156101d357600080fd5b506101266101e23660046124ae565b610b74565b3480156101f357600080fd5b5061012661020236600461253e565b610eac565b34801561021357600080fd5b50610227610222366004612667565b611258565b604051901515815260200161019a565b34801561024357600080fd5b506101266102523660046126cb565b6112c3565b34801561026357600080fd5b5060055461018b9062010000900461ffff1681565b34801561028457600080fd5b506101b960025481565b34801561029a57600080fd5b506101266102a9366004612753565b6114a4565b3480156102ba57600080fd5b506103056102c936600461277b565b336000908152600d60208181526040808420600201548452600c90915280832082015493835290912001546001600160a01b0391821692911690565b604080516001600160a01b0393841681529290911660208301520161019a565b34801561033157600080fd5b5061012661162b565b34801561034657600080fd5b50610126610355366004612794565b611838565b34801561036657600080fd5b5061037a6103753660046127df565b611cd5565b60405161019a92919061285d565b60005460059061039990829061289e565b34146103ff5760405162461bcd60e51b815260206004820152602a60248201527f526567697374726174696f6e2064656e6965642c20696e76616c6964207374616044820152696b6520616d6f756e742160b01b60648201526084015b60405180910390fd5b336000908152600d602052604081206002015490036104795760405162461bcd60e51b815260206004820152603060248201527f4f7065726174696f6e2064656e6965642c2073686f756c64206265206120726560448201526f6769737465726564206f7261636c652160801b60648201526084016103f6565b6008546001600160a01b0316156104d25760405162461bcd60e51b815260206004820152601a60248201527f4d61696e7461696e657220616c7265616479206578697374732100000000000060448201526064016103f6565b60076104df838583612940565b506008805473ffffffffffffffffffffffffffffffffffffffff1916331790556040517f3744d400f450a34d91a709d1c2475b8944904128368bcad7fd6e9ed6f5f83f9b9061055f906020808252601a908201527f5368617265207065657249442077697468206f7261636c657321000000000000604082015260600190565b60405180910390a1505050565b6001600160a01b038416600090815260096020526040902060020154158015906105a35750336000908152600e6020526040902054155b6105ef5760405162461bcd60e51b815260206004820152601060248201527f496e76616c69642072657175657374210000000000000000000000000000000060448201526064016103f6565b6001600160a01b03841660008181526009602081815260408084206002015433808652600e845282862082905595909452919052517fbeec8e4230f94b9f3103278cb151ecb9bd0865f57a48e38a79a84a457637a1ca92610657929091879087908790612a01565b60405180910390a150505050565b336000908152600d6020526040902060020154156106da5760405162461bcd60e51b815260206004820152602c60248201527f526567697374726174696f6e2064656e6965642c2063616e206f6e6c7920726560448201526b676973746572206f6e63652160a01b60648201526084016103f6565b6000546001906106eb90829061289e565b341461074c5760405162461bcd60e51b815260206004820152602a60248201527f526567697374726174696f6e2064656e6965642c20696e76616c6964207374616044820152696b6520616d6f756e742160b01b60648201526084016103f6565b61077060405180606001604052806000815260200160008152602001600081525090565b600060208281018290526005546004548352600c9091526040909120600101546201000090910461ffff161115806107a85750600454155b156107bb576107b633611d94565b6107e1565b6004546000908152600c602052604081206001018054916107db83612a54565b91905055505b60045460408083018290526000918252600c60205290206001908101546108089190612a6d565b81526004546000908152600c60208190526040909120908101548251909160020190600a811061083a5761083a612a84565b0155336000908152600d60209081526040808320845181558285015160018083019190915594820151600290910155600a9091529020805460ff1916909117905550565b336000908152600d602052604081206002015490036108f85760405162461bcd60e51b815260206004820152603060248201527f4f7065726174696f6e2064656e6965642c2073686f756c64206265206120726560448201526f6769737465726564206f7261636c652160801b60648201526084016103f6565b600554336000908152600d60209081526040808320600201548352600c90915290206001015461ffff90911611156109725760405162461bcd60e51b815260206004820152601360248201527f436c757374657220697320696e76616c6964210000000000000000000000000060448201526064016103f6565b6001600160a01b0381166000908152600960205260409020600201541580156109ac5750336000908152600d602052604090206002015482145b80156109d357506001600160a01b03811660009081526009602052604090206003015460ff165b610a455760405162461bcd60e51b815260206004820152602760248201527f496e76616c69642073757276657920726571756573742c20726576697365207260448201527f657175657374210000000000000000000000000000000000000000000000000060648201526084016103f6565b336000908152600d60209081526040808320600201548352600c9091529020600e01544210610ad05760405162461bcd60e51b815260206004820152603160248201527f4861766520746f207265667265736820746865207075626c6963206b6579206260448201527065666f72652070726f63656564696e672160781b60648201526084016103f6565b6001600160a01b03808216600090815260096020908152604080832060029081018790556008549094168352600d90915281206001018054909190610b16908490612a9a565b90915550506001600160a01b0381166000908152600960205260409081902090517f3fcabd3ea914f0c2ff2f383498584a0305ea5946c22dff1aef9cc806bcba4c0391610b6891859160010190612ab2565b60405180910390a15050565b336000908152600d60205260408120600201549003610bee5760405162461bcd60e51b815260206004820152603060248201527f4f7065726174696f6e2064656e6965642c2073686f756c64206265206120726560448201526f6769737465726564206f7261636c652160801b60648201526084016103f6565b336000908152600d60209081526040808320600201548352600c9091529081902081516080810192839052610c47928592600f019060049082845b815481526020019060010190808311610c2957505050505083611eab565b610c935760405162461bcd60e51b815260206004820152601c60248201527f496e76616c6964207468726573686f6c64207369676e6174757265210000000060448201526064016103f6565b336000908152600d602090815260408083206002908101546001600160a01b038b168552600990935292209091015414610d0f5760405162461bcd60e51b815260206004820152601560248201527f496e76616c6964204845492073656c656374656421000000000000000000000060448201526064016103f6565b610d17612091565b6020808201516001600160a01b038916600052600b9091528490610d3d6001600a612a6d565b600a8110610d4d57610d4d612a84565b60200201818152505085858080601f016020809104026020016040519081016040528093929190818152602001838380828437600092018290525085516001600160a01b038d16909152600b6020529250610dae915060019050600a612a6d565b600a8110610dbe57610dbe612a84565b602090810291909101919091526001600160a01b0388166000908152600b909152604090208151829190610df5908290600a6120be565b506020820151610e0b90600a8084019190612107565b50604091820151601490910155336000908152600d60209081528282206002908101548352600c91829052928220018054909190610e4a908490612a9a565b90915550506001600160a01b038716600081815260096020908152604091829020600201548251938452908301527f44df815358eeaa6e5fbb3ac2dd05fd650e171ea29051666a7afdd28c811284f1910160405180910390a150505050505050565b336000908152600d60205260408120600201549003610f265760405162461bcd60e51b815260206004820152603060248201527f4f7065726174696f6e2064656e6965642c2073686f756c64206265206120726560448201526f6769737465726564206f7261636c652160801b60648201526084016103f6565b6001600160a01b0387166000908152600960205260408120600201549003610f905760405162461bcd60e51b815260206004820152601860248201527f484549206973206e6f74206265696e672072616e6b656421000000000000000060448201526064016103f6565b336000908152600d60209081526040808320600201546001600160a01b038c168452600e909252909120541461102e5760405162461bcd60e51b815260206004820152602560248201527f4e6f20737563682064617461206c696e6b656420746f20676976656e20636c7560448201527f737465722100000000000000000000000000000000000000000000000000000060648201526084016103f6565b336000908152600d60209081526040808320600201548352600c9091529020600e015442106110b95760405162461bcd60e51b815260206004820152603160248201527f4861766520746f207265667265736820746865207075626c6963206b6579206260448201527065666f72652070726f63656564696e672160781b60648201526084016103f6565b60408051808201825261115091839060029083908390808284376000920182905250338152600d60209081526040808320600201548352600c90915290819020815160808101928390529350600f01915060049082845b8154815260200190600101908083116111105750506040805180820182529350889250600291508390839080828437600092019190915250611eab915050565b61119c5760405162461bcd60e51b815260206004820152601260248201527f496e76616c6964207369676e617475726521000000000000000000000000000060448201526064016103f6565b6001600160a01b0387166000908152600b602052604090208590600a90810190889081106111cc576111cc612a84565b01556001600160a01b0387166000908152600b602052604090208490849088600a81106111fb576111fb612a84565b0191611208919083612940565b506001600160a01b0388166000908152600d6020526040812060010180549161123083612a54565b9091555050506001600160a01b039096166000908152600e6020526040812055505050505050565b6000815183511461126b575060006112bd565b8160405160200161127c9190612b45565b60405160208183030381529060405280519060200120836040516020016112a39190612b45565b604051602081830303815290604052805190602001201490505b92915050565b336000908152600d6020526040902060020154156113385760405162461bcd60e51b815260206004820152602c60248201527f526567697374726174696f6e2064656e6965642c2063616e206f6e6c7920726560448201526b676973746572206f6e63652160a01b60648201526084016103f6565b336000908152600960205260409020546001600160a01b0316156113c45760405162461bcd60e51b815260206004820152602d60248201527f526567697374726174696f6e2063616e206f6e6c7920626520646f6e65206f6e60448201527f636520617420612074696d65210000000000000000000000000000000000000060648201526084016103f6565b6040805160a08101825260008183018190526060820181905260208083018781523380855260808501879052835260099091529290208151815473ffffffffffffffffffffffffffffffffffffffff19166001600160a01b0390911617815591519091829160018201906114389082612b61565b5060408201516002820155606082015160038201805460ff19169115159190911790556080820151600482019061146f9082612b61565b509050507f528f90766d7ffd9a9b19173678985fe1321acae03e0d442103e20a8f950cf5b28385604051610657929190612c21565b336000908152600d6020526040812060020154900361151e5760405162461bcd60e51b815260206004820152603060248201527f4f7065726174696f6e2064656e6965642c2073686f756c64206265206120726560448201526f6769737465726564206f7261636c652160801b60648201526084016103f6565b336000818152600d60208181526040808420600201548452600c90915290912001546001600160a01b0316146115bc5760405162461bcd60e51b815260206004820152602760248201527f4f6e6c79206f7261636c6520686561642063616e207375626d6974207075626c60448201527f6963206b6579210000000000000000000000000000000000000000000000000060648201526084016103f6565b336000908152600d602052604081206001018054916115da83612a54565b90915550506006546115ec9042612a9a565b336000908152600d6020908152604080832060020180548452600c909252808320600e01939093555481522061162790600f01826004612141565b5050565b336000908152600d602052604081206002015490036116a55760405162461bcd60e51b815260206004820152603060248201527f4f7065726174696f6e2064656e6965642c2073686f756c64206265206120726560448201526f6769737465726564206f7261636c652160801b60648201526084016103f6565b336000818152600d602081815260408084206002808201548652600c8085529286209283015496909552929091529054910190600a81106116e8576116e8612a84565b0154106117375760405162461bcd60e51b815260206004820152601060248201527f496e76616c696420436c7573746572210000000000000000000000000000000060448201526064016103f6565b336000818152600d602081815260408084206002808201548652600c845291852095855292909152905491920190600a811061177557611775612a84565b0154336000908152600d60209081526040808320600201548352600c9182905290912001546117a49190612a6d565b336000818152600d602081815260408084206002808201548652600c84529185209590945291905290549293508392910190600a81106117e6576117e6612a84565b0160008282546117f69190612a9a565b9091555050600154611808908261289e565b604051909150339082156108fc029083906000818181858888f19350505050158015611627573d6000803e3d6000fd5b336000908152600d602052604081206002015490036118b25760405162461bcd60e51b815260206004820152603060248201527f4f7065726174696f6e2064656e6965642c2073686f756c64206265206120726560448201526f6769737465726564206f7261636c652160801b60648201526084016103f6565b6001600160a01b038085166000818152600960205260409020549091161480156118f857506001600160a01b03841660009081526009602052604090206003015460ff16155b801561192e5750600554336000908152600d60209081526040808320600201548352600c90915290206001015461ffff90911611155b6119a05760405162461bcd60e51b815260206004820152602b60248201527f54686520737065636966696564204845492063616e206e6f742062652061757460448201527f68656e746963617465642100000000000000000000000000000000000000000060648201526084016103f6565b336000908152600d60209081526040808320600201548352600c9091529020600e01544210611a2b5760405162461bcd60e51b815260206004820152603160248201527f4861766520746f207265667265736820746865207075626c6963206b6579206260448201527065666f72652070726f63656564696e672160781b60648201526084016103f6565b604080518082018252611ac191839060029083908390808284376000920182905250338152600d60209081526040808320600201548352600c82529182902082516080810193849052600f82018054825290955093506004929160109091019085018083116111105750506040805180820182529350889250600291508390839080828437600092019190915250611eab915050565b611b335760405162461bcd60e51b815260206004820152602a60248201527f5468652070726f7669646564207369676e61747572652064657461696c73206160448201527f726520696e76616c69640000000000000000000000000000000000000000000060648201526084016103f6565b60ff831615611bcf576001600160a01b03841660009081526009602052604090819020600301805460ff19166001179055517f37bac6bc273ae63a2ffe6ff8f458e41e3101b281ec4b7c1a52b1ee5dfc0dba2490611bc29060208082526016908201527f5468652048454920697320726567697374657265642100000000000000000000604082015260600190565b60405180910390a1611c9d565b6001600160a01b0384166000908152600960205260408120805473ffffffffffffffffffffffffffffffffffffffff1916815590611c10600183018261216f565b60006002830181905560038301805460ff19169055611c3390600484019061216f565b50507f37bac6bc273ae63a2ffe6ff8f458e41e3101b281ec4b7c1a52b1ee5dfc0dba24604051611c94906020808252601a908201527f54686520484549206973206e6f74207265676973746572656421000000000000604082015260600190565b60405180910390a15b336000908152600d60209081526040808320600201548352600c91829052822001805491611cca83612a54565b919050555050505050565b6001600160a01b0380821660009081526009602052604081208054600190910180546060949192909116908290611d0b906128bd565b80601f0160208091040260200160405190810160405280929190818152602001828054611d37906128bd565b8015611d845780601f10611d5957610100808354040283529160200191611d84565b820191906000526020600020905b815481529060010190602001808311611d6757829003601f168201915b5050505050915091509150915091565b60048054906000611da483612a54565b9190505550611db16121ac565b600454808252600160208084018281526000606086018190526001600160a01b0387166080870152938452600c9091526040928390208451815590519181019190915590820151829190611e0b906002830190600a612107565b506060820151600c8201556080820151600d8201805473ffffffffffffffffffffffffffffffffffffffff19166001600160a01b0390921691909117905560a0820151600e82015560c0820151611e6890600f83019060046121fd565b50508151604080519182526001600160a01b03851660208301527f3d7234633c69b8b87e519c47164c3d80fb215fb9c6f203e796476d468ff7a125925001610b68565b60008060405180610180016040528086600060028110611ecd57611ecd612a84565b6020020151815260200186600160028110611eea57611eea612a84565b602002015181526020017f198e9393920d483a7260bfb731fb5d25f1aa493335a9e71297e485b7aef312c281526020017f1800deef121f1e76426a00665e5c4479674322d4f75edadd46debd5cd992f6ed81526020017f275dc4a288d1afb3cbb1ac09187524c7db36395df7be3b99e673b13a075a65ec81526020017f1d9befcd05a5323e6da4d435f3b617cdb3af83285c2df711ef39c01571827f9d815260200184600060028110611f9f57611f9f612a84565b6020020151815260200184600160028110611fbc57611fbc612a84565b6020020151815260200185600160048110611fd957611fd9612a84565b6020020151815260200185600060048110611ff657611ff6612a84565b602002015181526020018560036004811061201357612013612a84565b602002015181526020018560026004811061203057612030612a84565b60200201519052905061204161222a565b60006020826101808560086107d05a03fa9050808061205c57fe5b50806120845760405162461bcd60e51b815260206004820152600060248201526044016103f6565b5051151595945050505050565b60405180606001604052806120a4612248565b81526020016120b1612270565b8152602001600081525090565b82600a81019282156120f7579160200282015b828111156120f757825182906120e79082612b61565b50916020019190600101906120d1565b5061210392915061228f565b5090565b82600a8101928215612135579160200282015b8281111561213557825182559160200191906001019061211a565b506121039291506122ac565b8260048101928215612135579160200282015b82811115612135578235825591602001919060010190612154565b50805461217b906128bd565b6000825580601f1061218b575050565b601f0160209004906000526020600020908101906121a991906122ac565b50565b6040518060e0016040528060008152602001600081526020016121cd612270565b81526020016000815260200160006001600160a01b03168152602001600081526020016121f86122c1565b905290565b8260048101928215612135579160200282018281111561213557825182559160200191906001019061211a565b60405180602001604052806001906020820280368337509192915050565b604051806101400160405280600a905b60608152602001906001900390816122585790505090565b604051806101400160405280600a906020820280368337509192915050565b808211156121035760006122a3828261216f565b5060010161228f565b5b8082111561210357600081556001016122ad565b60405180608001604052806004906020820280368337509192915050565b60008083601f8401126122f157600080fd5b50813567ffffffffffffffff81111561230957600080fd5b60208301915083602082850101111561232157600080fd5b9250929050565b6000806020838503121561233b57600080fd5b823567ffffffffffffffff81111561235257600080fd5b61235e858286016122df565b90969095509350505050565b80356001600160a01b038116811461238157600080fd5b919050565b803560ff8116811461238157600080fd5b600080600080606085870312156123ad57600080fd5b6123b68561236a565b9350602085013567ffffffffffffffff8111156123d257600080fd5b6123de878288016122df565b90945092506123f1905060408601612386565b905092959194509250565b6000806040838503121561240f57600080fd5b8235915061241f6020840161236a565b90509250929050565b634e487b7160e01b600052604160045260246000fd5b600082601f83011261244f57600080fd5b6040516040810181811067ffffffffffffffff8211171561247257612472612428565b806040525080604084018581111561248957600080fd5b845b818110156124a357803583526020928301920161248b565b509195945050505050565b60008060008060008060e087890312156124c757600080fd5b6124d08761236a565b9550602087013567ffffffffffffffff8111156124ec57600080fd5b6124f889828a016122df565b90965094505060408701359250612512886060890161243e565b91506125218860a0890161243e565b90509295509295509295565b80604081018310156112bd57600080fd5b600080600080600080600080610120898b03121561255b57600080fd5b6125648961236a565b975061257260208a0161236a565b96506040890135955060608901359450608089013567ffffffffffffffff81111561259c57600080fd5b6125a88b828c016122df565b90955093506125bc90508a60a08b0161252d565b91506125cb8a60e08b0161252d565b90509295985092959890939650565b600082601f8301126125eb57600080fd5b813567ffffffffffffffff8082111561260657612606612428565b604051601f8301601f19908116603f0116810190828211818310171561262e5761262e612428565b8160405283815286602085880101111561264757600080fd5b836020870160208301376000602085830101528094505050505092915050565b6000806040838503121561267a57600080fd5b823567ffffffffffffffff8082111561269257600080fd5b61269e868387016125da565b935060208501359150808211156126b457600080fd5b506126c1858286016125da565b9150509250929050565b6000806000606084860312156126e057600080fd5b833567ffffffffffffffff808211156126f857600080fd5b612704878388016125da565b9450602086013591508082111561271a57600080fd5b612726878388016125da565b9350604086013591508082111561273c57600080fd5b50612749868287016125da565b9150509250925092565b60006080828403121561276557600080fd5b8260808301111561277557600080fd5b50919050565b60006020828403121561278d57600080fd5b5035919050565b60008060008060c085870312156127aa57600080fd5b6127b38561236a565b93506127c160208601612386565b92506127d0866040870161252d565b91506123f1866080870161252d565b6000602082840312156127f157600080fd5b6127fa8261236a565b9392505050565b60005b8381101561281c578181015183820152602001612804565b8381111561282b576000848401525b50505050565b60008151808452612849816020860160208601612801565b601f01601f19169290920160200192915050565b6040815260006128706040830185612831565b90506001600160a01b03831660208301529392505050565b634e487b7160e01b600052601160045260246000fd5b60008160001904831182151516156128b8576128b8612888565b500290565b600181811c908216806128d157607f821691505b60208210810361277557634e487b7160e01b600052602260045260246000fd5b601f82111561293b57600081815260208120601f850160051c810160208610156129185750805b601f850160051c820191505b8181101561293757828155600101612924565b5050505b505050565b67ffffffffffffffff83111561295857612958612428565b61296c8361296683546128bd565b836128f1565b6000601f8411600181146129a057600085156129885750838201355b600019600387901b1c1916600186901b1783556129fa565b600083815260209020601f19861690835b828110156129d157868501358255602094850194600190920191016129b1565b50868210156129ee5760001960f88860031b161c19848701351681555b505060018560011b0183555b5050505050565b6001600160a01b038616815284602082015260806040820152826080820152828460a0830137600060a08483010152600060a0601f19601f860116830101905060ff831660608301529695505050505050565b600060018201612a6657612a66612888565b5060010190565b600082821015612a7f57612a7f612888565b500390565b634e487b7160e01b600052603260045260246000fd5b60008219821115612aad57612aad612888565b500190565b8281526000602060408184015260008454612acc816128bd565b8060408701526060600180841660008114612aee5760018114612b0857612b36565b60ff1985168984015283151560051b890183019550612b36565b896000528660002060005b85811015612b2e5781548b8201860152908301908801612b13565b8a0184019650505b50939998505050505050505050565b60008251612b57818460208701612801565b9190910192915050565b815167ffffffffffffffff811115612b7b57612b7b612428565b612b8f81612b8984546128bd565b846128f1565b602080601f831160018114612bc45760008415612bac5750858301515b600019600386901b1c1916600185901b178555612937565b600085815260208120601f198616915b82811015612bf357888601518255948401946001909101908401612bd4565b5085821015612c115787850151600019600388901b60f8161c191681555b5050505050600190811b01905550565b604081526000612c346040830185612831565b8281036020840152612c468185612831565b9594505050505056fea26469706673582212204348e7110813dc68193998d62d7844744ff6794105d07cf0395c84fa94197aa864736f6c634300080f0033","opcodes":"PUSH1 0x80 PUSH1 0x40 MSTORE PUSH8 0x16345785D8A0000 PUSH1 0x0 SWAP1 DUP2 SSTORE PUSH7 0x2386F26FC10000 PUSH1 0x1 SWAP1 DUP2 SSTORE PUSH1 0x2 SSTORE PUSH1 0x3 DUP1 SLOAD PUSH2 0xFFFF NOT AND PUSH1 0xA OR SWAP1 SSTORE PUSH1 0x4 SSTORE PUSH1 0x5 DUP1 SLOAD PUSH3 0xA0004 PUSH4 0xFFFFFFFF NOT SWAP1 SWAP2 AND OR SWAP1 SSTORE PUSH3 0x93A80 PUSH1 0x6 SSTORE CALLVALUE DUP1 ISZERO PUSH2 0x5A JUMPI PUSH1 0x0 DUP1 REVERT JUMPDEST POP PUSH2 0x2C85 DUP1 PUSH2 0x6A PUSH1 0x0 CODECOPY PUSH1 0x0 RETURN INVALID PUSH1 0x80 PUSH1 0x40 MSTORE PUSH1 0x4 CALLDATASIZE LT PUSH2 0x10E JUMPI PUSH1 0x0 CALLDATALOAD PUSH1 0xE0 SHR DUP1 PUSH4 0x88D8DA5F GT PUSH2 0xA5 JUMPI DUP1 PUSH4 0xBD711096 GT PUSH2 0x74 JUMPI DUP1 PUSH4 0xC885BC58 GT PUSH2 0x59 JUMPI DUP1 PUSH4 0xC885BC58 EQ PUSH2 0x325 JUMPI DUP1 PUSH4 0xD00E59B8 EQ PUSH2 0x33A JUMPI DUP1 PUSH4 0xEB39113F EQ PUSH2 0x35A JUMPI PUSH1 0x0 DUP1 REVERT JUMPDEST DUP1 PUSH4 0xBD711096 EQ PUSH2 0x28E JUMPI DUP1 PUSH4 0xBE1DDDDD EQ PUSH2 0x2AE JUMPI PUSH1 0x0 DUP1 REVERT JUMPDEST DUP1 PUSH4 0x88D8DA5F EQ PUSH2 0x207 JUMPI DUP1 PUSH4 0xB109FD89 EQ PUSH2 0x237 JUMPI DUP1 PUSH4 0xB2C8C652 EQ PUSH2 0x257 JUMPI DUP1 PUSH4 0xBD360BAC EQ PUSH2 0x278 JUMPI PUSH1 0x0 DUP1 REVERT JUMPDEST DUP1 PUSH4 0x6DA3FE52 GT PUSH2 0xE1 JUMPI DUP1 PUSH4 0x6DA3FE52 EQ PUSH2 0x170 JUMPI DUP1 PUSH4 0x702F45F3 EQ PUSH2 0x1A3 JUMPI DUP1 PUSH4 0x766AAD87 EQ PUSH2 0x1C7 JUMPI DUP1 PUSH4 0x7C93EF88 EQ PUSH2 0x1E7 JUMPI PUSH1 0x0 DUP1 REVERT JUMPDEST DUP1 PUSH4 0x314B9B37 EQ PUSH2 0x113 JUMPI DUP1 PUSH4 0x32E8E463 EQ PUSH2 0x128 JUMPI DUP1 PUSH4 0x339D2590 EQ PUSH2 0x148 JUMPI DUP1 PUSH4 0x5C599E4F EQ PUSH2 0x150 JUMPI JUMPDEST PUSH1 0x0 DUP1 REVERT JUMPDEST PUSH2 0x126 PUSH2 0x121 CALLDATASIZE PUSH1 0x4 PUSH2 0x2328 JUMP JUMPDEST PUSH2 0x388 JUMP JUMPDEST STOP JUMPDEST CALLVALUE DUP1 ISZERO PUSH2 0x134 JUMPI PUSH1 0x0 DUP1 REVERT JUMPDEST POP PUSH2 0x126 PUSH2 0x143 CALLDATASIZE PUSH1 0x4 PUSH2 0x2397 JUMP JUMPDEST PUSH2 0x56C JUMP JUMPDEST PUSH2 0x126 PUSH2 0x665 JUMP JUMPDEST CALLVALUE DUP1 ISZERO PUSH2 0x15C JUMPI PUSH1 0x0 DUP1 REVERT JUMPDEST POP PUSH2 0x126 PUSH2 0x16B CALLDATASIZE PUSH1 0x4 PUSH2 0x23FC JUMP JUMPDEST PUSH2 0x87E JUMP JUMPDEST CALLVALUE DUP1 ISZERO PUSH2 0x17C JUMPI PUSH1 0x0 DUP1 REVERT JUMPDEST POP PUSH1 0x3 SLOAD PUSH2 0x18B SWAP1 PUSH2 0xFFFF AND DUP2 JUMP JUMPDEST PUSH1 0x40 MLOAD PUSH2 0xFFFF SWAP1 SWAP2 AND DUP2 MSTORE PUSH1 0x20 ADD JUMPDEST PUSH1 0x40 MLOAD DUP1 SWAP2 SUB SWAP1 RETURN JUMPDEST CALLVALUE DUP1 ISZERO PUSH2 0x1AF JUMPI PUSH1 0x0 DUP1 REVERT JUMPDEST POP PUSH2 0x1B9 PUSH1 0x4 SLOAD DUP2 JUMP JUMPDEST PUSH1 0x40 MLOAD SWAP1 DUP2 MSTORE PUSH1 0x20 ADD PUSH2 0x19A JUMP JUMPDEST CALLVALUE DUP1 ISZERO PUSH2 0x1D3 JUMPI PUSH1 0x0 DUP1 REVERT JUMPDEST POP PUSH2 0x126 PUSH2 0x1E2 CALLDATASIZE PUSH1 0x4 PUSH2 0x24AE JUMP JUMPDEST PUSH2 0xB74 JUMP JUMPDEST CALLVALUE DUP1 ISZERO PUSH2 0x1F3 JUMPI PUSH1 0x0 DUP1 REVERT JUMPDEST POP PUSH2 0x126 PUSH2 0x202 CALLDATASIZE PUSH1 0x4 PUSH2 0x253E JUMP JUMPDEST PUSH2 0xEAC JUMP JUMPDEST CALLVALUE DUP1 ISZERO PUSH2 0x213 JUMPI PUSH1 0x0 DUP1 REVERT JUMPDEST POP PUSH2 0x227 PUSH2 0x222 CALLDATASIZE PUSH1 0x4 PUSH2 0x2667 JUMP JUMPDEST PUSH2 0x1258 JUMP JUMPDEST PUSH1 0x40 MLOAD SWAP1 ISZERO ISZERO DUP2 MSTORE PUSH1 0x20 ADD PUSH2 0x19A JUMP JUMPDEST CALLVALUE DUP1 ISZERO PUSH2 0x243 JUMPI PUSH1 0x0 DUP1 REVERT JUMPDEST POP PUSH2 0x126 PUSH2 0x252 CALLDATASIZE PUSH1 0x4 PUSH2 0x26CB JUMP JUMPDEST PUSH2 0x12C3 JUMP JUMPDEST CALLVALUE DUP1 ISZERO PUSH2 0x263 JUMPI PUSH1 0x0 DUP1 REVERT JUMPDEST POP PUSH1 0x5 SLOAD PUSH2 0x18B SWAP1 PUSH3 0x10000 SWAP1 DIV PUSH2 0xFFFF AND DUP2 JUMP JUMPDEST CALLVALUE DUP1 ISZERO PUSH2 0x284 JUMPI PUSH1 0x0 DUP1 REVERT JUMPDEST POP PUSH2 0x1B9 PUSH1 0x2 SLOAD DUP2 JUMP JUMPDEST CALLVALUE DUP1 ISZERO PUSH2 0x29A JUMPI PUSH1 0x0 DUP1 REVERT JUMPDEST POP PUSH2 0x126 PUSH2 0x2A9 CALLDATASIZE PUSH1 0x4 PUSH2 0x2753 JUMP JUMPDEST PUSH2 0x14A4 JUMP JUMPDEST CALLVALUE DUP1 ISZERO PUSH2 0x2BA JUMPI PUSH1 0x0 DUP1 REVERT JUMPDEST POP PUSH2 0x305 PUSH2 0x2C9 CALLDATASIZE PUSH1 0x4 PUSH2 0x277B JUMP JUMPDEST CALLER PUSH1 0x0 SWAP1 DUP2 MSTORE PUSH1 0xD PUSH1 0x20 DUP2 DUP2 MSTORE PUSH1 0x40 DUP1 DUP5 KECCAK256 PUSH1 0x2 ADD SLOAD DUP5 MSTORE PUSH1 0xC SWAP1 SWAP2 MSTORE DUP1 DUP4 KECCAK256 DUP3 ADD SLOAD SWAP4 DUP4 MSTORE SWAP1 SWAP2 KECCAK256 ADD SLOAD PUSH1 0x1 PUSH1 0x1 PUSH1 0xA0 SHL SUB SWAP2 DUP3 AND SWAP3 SWAP2 AND SWAP1 JUMP JUMPDEST PUSH1 0x40 DUP1 MLOAD PUSH1 0x1 PUSH1 0x1 PUSH1 0xA0 SHL SUB SWAP4 DUP5 AND DUP2 MSTORE SWAP3 SWAP1 SWAP2 AND PUSH1 0x20 DUP4 ADD MSTORE ADD PUSH2 0x19A JUMP JUMPDEST CALLVALUE DUP1 ISZERO PUSH2 0x331 JUMPI PUSH1 0x0 DUP1 REVERT JUMPDEST POP PUSH2 0x126 PUSH2 0x162B JUMP JUMPDEST CALLVALUE DUP1 ISZERO PUSH2 0x346 JUMPI PUSH1 0x0 DUP1 REVERT JUMPDEST POP PUSH2 0x126 PUSH2 0x355 CALLDATASIZE PUSH1 0x4 PUSH2 0x2794 JUMP JUMPDEST PUSH2 0x1838 JUMP JUMPDEST CALLVALUE DUP1 ISZERO PUSH2 0x366 JUMPI PUSH1 0x0 DUP1 REVERT JUMPDEST POP PUSH2 0x37A PUSH2 0x375 CALLDATASIZE PUSH1 0x4 PUSH2 0x27DF JUMP JUMPDEST PUSH2 0x1CD5 JUMP JUMPDEST PUSH1 0x40 MLOAD PUSH2 0x19A SWAP3 SWAP2 SWAP1 PUSH2 0x285D JUMP JUMPDEST PUSH1 0x0 SLOAD PUSH1 0x5 SWAP1 PUSH2 0x399 SWAP1 DUP3 SWAP1 PUSH2 0x289E JUMP JUMPDEST CALLVALUE EQ PUSH2 0x3FF JUMPI PUSH1 0x40 MLOAD PUSH3 0x461BCD PUSH1 0xE5 SHL DUP2 MSTORE PUSH1 0x20 PUSH1 0x4 DUP3 ADD MSTORE PUSH1 0x2A PUSH1 0x24 DUP3 ADD MSTORE PUSH32 0x526567697374726174696F6E2064656E6965642C20696E76616C696420737461 PUSH1 0x44 DUP3 ADD MSTORE PUSH10 0x6B6520616D6F756E7421 PUSH1 0xB0 SHL PUSH1 0x64 DUP3 ADD MSTORE PUSH1 0x84 ADD JUMPDEST PUSH1 0x40 MLOAD DUP1 SWAP2 SUB SWAP1 REVERT JUMPDEST CALLER PUSH1 0x0 SWAP1 DUP2 MSTORE PUSH1 0xD PUSH1 0x20 MSTORE PUSH1 0x40 DUP2 KECCAK256 PUSH1 0x2 ADD SLOAD SWAP1 SUB PUSH2 0x479 JUMPI PUSH1 0x40 MLOAD PUSH3 0x461BCD PUSH1 0xE5 SHL DUP2 MSTORE PUSH1 0x20 PUSH1 0x4 DUP3 ADD MSTORE PUSH1 0x30 PUSH1 0x24 DUP3 ADD MSTORE PUSH32 0x4F7065726174696F6E2064656E6965642C2073686F756C642062652061207265 PUSH1 0x44 DUP3 ADD MSTORE PUSH16 0x6769737465726564206F7261636C6521 PUSH1 0x80 SHL PUSH1 0x64 DUP3 ADD MSTORE PUSH1 0x84 ADD PUSH2 0x3F6 JUMP JUMPDEST PUSH1 0x8 SLOAD PUSH1 0x1 PUSH1 0x1 PUSH1 0xA0 SHL SUB AND ISZERO PUSH2 0x4D2 JUMPI PUSH1 0x40 MLOAD PUSH3 0x461BCD PUSH1 0xE5 SHL DUP2 MSTORE PUSH1 0x20 PUSH1 0x4 DUP3 ADD MSTORE PUSH1 0x1A PUSH1 0x24 DUP3 ADD MSTORE PUSH32 0x4D61696E7461696E657220616C72656164792065786973747321000000000000 PUSH1 0x44 DUP3 ADD MSTORE PUSH1 0x64 ADD PUSH2 0x3F6 JUMP JUMPDEST PUSH1 0x7 PUSH2 0x4DF DUP4 DUP6 DUP4 PUSH2 0x2940 JUMP JUMPDEST POP PUSH1 0x8 DUP1 SLOAD PUSH20 0xFFFFFFFFFFFFFFFFFFFFFFFFFFFFFFFFFFFFFFFF NOT AND CALLER OR SWAP1 SSTORE PUSH1 0x40 MLOAD PUSH32 0x3744D400F450A34D91A709D1C2475B8944904128368BCAD7FD6E9ED6F5F83F9B SWAP1 PUSH2 0x55F SWAP1 PUSH1 0x20 DUP1 DUP3 MSTORE PUSH1 0x1A SWAP1 DUP3 ADD MSTORE PUSH32 0x5368617265207065657249442077697468206F7261636C657321000000000000 PUSH1 0x40 DUP3 ADD MSTORE PUSH1 0x60 ADD SWAP1 JUMP JUMPDEST PUSH1 0x40 MLOAD DUP1 SWAP2 SUB SWAP1 LOG1 POP POP POP JUMP JUMPDEST PUSH1 0x1 PUSH1 0x1 PUSH1 0xA0 SHL SUB DUP5 AND PUSH1 0x0 SWAP1 DUP2 MSTORE PUSH1 0x9 PUSH1 0x20 MSTORE PUSH1 0x40 SWAP1 KECCAK256 PUSH1 0x2 ADD SLOAD ISZERO DUP1 ISZERO SWAP1 PUSH2 0x5A3 JUMPI POP CALLER PUSH1 0x0 SWAP1 DUP2 MSTORE PUSH1 0xE PUSH1 0x20 MSTORE PUSH1 0x40 SWAP1 KECCAK256 SLOAD ISZERO JUMPDEST PUSH2 0x5EF JUMPI PUSH1 0x40 MLOAD PUSH3 0x461BCD PUSH1 0xE5 SHL DUP2 MSTORE PUSH1 0x20 PUSH1 0x4 DUP3 ADD MSTORE PUSH1 0x10 PUSH1 0x24 DUP3 ADD MSTORE PUSH32 0x496E76616C696420726571756573742100000000000000000000000000000000 PUSH1 0x44 DUP3 ADD MSTORE PUSH1 0x64 ADD PUSH2 0x3F6 JUMP JUMPDEST PUSH1 0x1 PUSH1 0x1 PUSH1 0xA0 SHL SUB DUP5 AND PUSH1 0x0 DUP2 DUP2 MSTORE PUSH1 0x9 PUSH1 0x20 DUP2 DUP2 MSTORE PUSH1 0x40 DUP1 DUP5 KECCAK256 PUSH1 0x2 ADD SLOAD CALLER DUP1 DUP7 MSTORE PUSH1 0xE DUP5 MSTORE DUP3 DUP7 KECCAK256 DUP3 SWAP1 SSTORE SWAP6 SWAP1 SWAP5 MSTORE SWAP2 SWAP1 MSTORE MLOAD PUSH32 0xBEEC8E4230F94B9F3103278CB151ECB9BD0865F57A48E38A79A84A457637A1CA SWAP3 PUSH2 0x657 SWAP3 SWAP1 SWAP2 DUP8 SWAP1 DUP8 SWAP1 DUP8 SWAP1 PUSH2 0x2A01 JUMP JUMPDEST PUSH1 0x40 MLOAD DUP1 SWAP2 SUB SWAP1 LOG1 POP POP POP POP JUMP JUMPDEST CALLER PUSH1 0x0 SWAP1 DUP2 MSTORE PUSH1 0xD PUSH1 0x20 MSTORE PUSH1 0x40 SWAP1 KECCAK256 PUSH1 0x2 ADD SLOAD ISZERO PUSH2 0x6DA JUMPI PUSH1 0x40 MLOAD PUSH3 0x461BCD PUSH1 0xE5 SHL DUP2 MSTORE PUSH1 0x20 PUSH1 0x4 DUP3 ADD MSTORE PUSH1 0x2C PUSH1 0x24 DUP3 ADD MSTORE PUSH32 0x526567697374726174696F6E2064656E6965642C2063616E206F6E6C79207265 PUSH1 0x44 DUP3 ADD MSTORE PUSH12 0x676973746572206F6E636521 PUSH1 0xA0 SHL PUSH1 0x64 DUP3 ADD MSTORE PUSH1 0x84 ADD PUSH2 0x3F6 JUMP JUMPDEST PUSH1 0x0 SLOAD PUSH1 0x1 SWAP1 PUSH2 0x6EB SWAP1 DUP3 SWAP1 PUSH2 0x289E JUMP JUMPDEST CALLVALUE EQ PUSH2 0x74C JUMPI PUSH1 0x40 MLOAD PUSH3 0x461BCD PUSH1 0xE5 SHL DUP2 MSTORE PUSH1 0x20 PUSH1 0x4 DUP3 ADD MSTORE PUSH1 0x2A PUSH1 0x24 DUP3 ADD MSTORE PUSH32 0x526567697374726174696F6E2064656E6965642C20696E76616C696420737461 PUSH1 0x44 DUP3 ADD MSTORE PUSH10 0x6B6520616D6F756E7421 PUSH1 0xB0 SHL PUSH1 0x64 DUP3 ADD MSTORE PUSH1 0x84 ADD PUSH2 0x3F6 JUMP JUMPDEST PUSH2 0x770 PUSH1 0x40 MLOAD DUP1 PUSH1 0x60 ADD PUSH1 0x40 MSTORE DUP1 PUSH1 0x0 DUP2 MSTORE PUSH1 0x20 ADD PUSH1 0x0 DUP2 MSTORE PUSH1 0x20 ADD PUSH1 0x0 DUP2 MSTORE POP SWAP1 JUMP JUMPDEST PUSH1 0x0 PUSH1 0x20 DUP3 DUP2 ADD DUP3 SWAP1 MSTORE PUSH1 0x5 SLOAD PUSH1 0x4 SLOAD DUP4 MSTORE PUSH1 0xC SWAP1 SWAP2 MSTORE PUSH1 0x40 SWAP1 SWAP2 KECCAK256 PUSH1 0x1 ADD SLOAD PUSH3 0x10000 SWAP1 SWAP2 DIV PUSH2 0xFFFF AND GT ISZERO DUP1 PUSH2 0x7A8 JUMPI POP PUSH1 0x4 SLOAD ISZERO JUMPDEST ISZERO PUSH2 0x7BB JUMPI PUSH2 0x7B6 CALLER PUSH2 0x1D94 JUMP JUMPDEST PUSH2 0x7E1 JUMP JUMPDEST PUSH1 0x4 SLOAD PUSH1 0x0 SWAP1 DUP2 MSTORE PUSH1 0xC PUSH1 0x20 MSTORE PUSH1 0x40 DUP2 KECCAK256 PUSH1 0x1 ADD DUP1 SLOAD SWAP2 PUSH2 0x7DB DUP4 PUSH2 0x2A54 JUMP JUMPDEST SWAP2 SWAP1 POP SSTORE POP JUMPDEST PUSH1 0x4 SLOAD PUSH1 0x40 DUP1 DUP4 ADD DUP3 SWAP1 MSTORE PUSH1 0x0 SWAP2 DUP3 MSTORE PUSH1 0xC PUSH1 0x20 MSTORE SWAP1 KECCAK256 PUSH1 0x1 SWAP1 DUP2 ADD SLOAD PUSH2 0x808 SWAP2 SWAP1 PUSH2 0x2A6D JUMP JUMPDEST DUP2 MSTORE PUSH1 0x4 SLOAD PUSH1 0x0 SWAP1 DUP2 MSTORE PUSH1 0xC PUSH1 0x20 DUP2 SWAP1 MSTORE PUSH1 0x40 SWAP1 SWAP2 KECCAK256 SWAP1 DUP2 ADD SLOAD DUP3 MLOAD SWAP1 SWAP2 PUSH1 0x2 ADD SWAP1 PUSH1 0xA DUP2 LT PUSH2 0x83A JUMPI PUSH2 0x83A PUSH2 0x2A84 JUMP JUMPDEST ADD SSTORE CALLER PUSH1 0x0 SWAP1 DUP2 MSTORE PUSH1 0xD PUSH1 0x20 SWAP1 DUP2 MSTORE PUSH1 0x40 DUP1 DUP4 KECCAK256 DUP5 MLOAD DUP2 SSTORE DUP3 DUP6 ADD MLOAD PUSH1 0x1 DUP1 DUP4 ADD SWAP2 SWAP1 SWAP2 SSTORE SWAP5 DUP3 ADD MLOAD PUSH1 0x2 SWAP1 SWAP2 ADD SSTORE PUSH1 0xA SWAP1 SWAP2 MSTORE SWAP1 KECCAK256 DUP1 SLOAD PUSH1 0xFF NOT AND SWAP1 SWAP2 OR SWAP1 SSTORE POP JUMP JUMPDEST CALLER PUSH1 0x0 SWAP1 DUP2 MSTORE PUSH1 0xD PUSH1 0x20 MSTORE PUSH1 0x40 DUP2 KECCAK256 PUSH1 0x2 ADD SLOAD SWAP1 SUB PUSH2 0x8F8 JUMPI PUSH1 0x40 MLOAD PUSH3 0x461BCD PUSH1 0xE5 SHL DUP2 MSTORE PUSH1 0x20 PUSH1 0x4 DUP3 ADD MSTORE PUSH1 0x30 PUSH1 0x24 DUP3 ADD MSTORE PUSH32 0x4F7065726174696F6E2064656E6965642C2073686F756C642062652061207265 PUSH1 0x44 DUP3 ADD MSTORE PUSH16 0x6769737465726564206F7261636C6521 PUSH1 0x80 SHL PUSH1 0x64 DUP3 ADD MSTORE PUSH1 0x84 ADD PUSH2 0x3F6 JUMP JUMPDEST PUSH1 0x5 SLOAD CALLER PUSH1 0x0 SWAP1 DUP2 MSTORE PUSH1 0xD PUSH1 0x20 SWAP1 DUP2 MSTORE PUSH1 0x40 DUP1 DUP4 KECCAK256 PUSH1 0x2 ADD SLOAD DUP4 MSTORE PUSH1 0xC SWAP1 SWAP2 MSTORE SWAP1 KECCAK256 PUSH1 0x1 ADD SLOAD PUSH2 0xFFFF SWAP1 SWAP2 AND GT ISZERO PUSH2 0x972 JUMPI PUSH1 0x40 MLOAD PUSH3 0x461BCD PUSH1 0xE5 SHL DUP2 MSTORE PUSH1 0x20 PUSH1 0x4 DUP3 ADD MSTORE PUSH1 0x13 PUSH1 0x24 DUP3 ADD MSTORE PUSH32 0x436C757374657220697320696E76616C69642100000000000000000000000000 PUSH1 0x44 DUP3 ADD MSTORE PUSH1 0x64 ADD PUSH2 0x3F6 JUMP JUMPDEST PUSH1 0x1 PUSH1 0x1 PUSH1 0xA0 SHL SUB DUP2 AND PUSH1 0x0 SWAP1 DUP2 MSTORE PUSH1 0x9 PUSH1 0x20 MSTORE PUSH1 0x40 SWAP1 KECCAK256 PUSH1 0x2 ADD SLOAD ISZERO DUP1 ISZERO PUSH2 0x9AC JUMPI POP CALLER PUSH1 0x0 SWAP1 DUP2 MSTORE PUSH1 0xD PUSH1 0x20 MSTORE PUSH1 0x40 SWAP1 KECCAK256 PUSH1 0x2 ADD SLOAD DUP3 EQ JUMPDEST DUP1 ISZERO PUSH2 0x9D3 JUMPI POP PUSH1 0x1 PUSH1 0x1 PUSH1 0xA0 SHL SUB DUP2 AND PUSH1 0x0 SWAP1 DUP2 MSTORE PUSH1 0x9 PUSH1 0x20 MSTORE PUSH1 0x40 SWAP1 KECCAK256 PUSH1 0x3 ADD SLOAD PUSH1 0xFF AND JUMPDEST PUSH2 0xA45 JUMPI PUSH1 0x40 MLOAD PUSH3 0x461BCD PUSH1 0xE5 SHL DUP2 MSTORE PUSH1 0x20 PUSH1 0x4 DUP3 ADD MSTORE PUSH1 0x27 PUSH1 0x24 DUP3 ADD MSTORE PUSH32 0x496E76616C69642073757276657920726571756573742C207265766973652072 PUSH1 0x44 DUP3 ADD MSTORE PUSH32 0x6571756573742100000000000000000000000000000000000000000000000000 PUSH1 0x64 DUP3 ADD MSTORE PUSH1 0x84 ADD PUSH2 0x3F6 JUMP JUMPDEST CALLER PUSH1 0x0 SWAP1 DUP2 MSTORE PUSH1 0xD PUSH1 0x20 SWAP1 DUP2 MSTORE PUSH1 0x40 DUP1 DUP4 KECCAK256 PUSH1 0x2 ADD SLOAD DUP4 MSTORE PUSH1 0xC SWAP1 SWAP2 MSTORE SWAP1 KECCAK256 PUSH1 0xE ADD SLOAD TIMESTAMP LT PUSH2 0xAD0 JUMPI PUSH1 0x40 MLOAD PUSH3 0x461BCD PUSH1 0xE5 SHL DUP2 MSTORE PUSH1 0x20 PUSH1 0x4 DUP3 ADD MSTORE PUSH1 0x31 PUSH1 0x24 DUP3 ADD MSTORE PUSH32 0x4861766520746F207265667265736820746865207075626C6963206B65792062 PUSH1 0x44 DUP3 ADD MSTORE PUSH17 0x65666F72652070726F63656564696E6721 PUSH1 0x78 SHL PUSH1 0x64 DUP3 ADD MSTORE PUSH1 0x84 ADD PUSH2 0x3F6 JUMP JUMPDEST PUSH1 0x1 PUSH1 0x1 PUSH1 0xA0 SHL SUB DUP1 DUP3 AND PUSH1 0x0 SWAP1 DUP2 MSTORE PUSH1 0x9 PUSH1 0x20 SWAP1 DUP2 MSTORE PUSH1 0x40 DUP1 DUP4 KECCAK256 PUSH1 0x2 SWAP1 DUP2 ADD DUP8 SWAP1 SSTORE PUSH1 0x8 SLOAD SWAP1 SWAP5 AND DUP4 MSTORE PUSH1 0xD SWAP1 SWAP2 MSTORE DUP2 KECCAK256 PUSH1 0x1 ADD DUP1 SLOAD SWAP1 SWAP2 SWAP1 PUSH2 0xB16 SWAP1 DUP5 SWAP1 PUSH2 0x2A9A JUMP JUMPDEST SWAP1 SWAP2 SSTORE POP POP PUSH1 0x1 PUSH1 0x1 PUSH1 0xA0 SHL SUB DUP2 AND PUSH1 0x0 SWAP1 DUP2 MSTORE PUSH1 0x9 PUSH1 0x20 MSTORE PUSH1 0x40 SWAP1 DUP2 SWAP1 KECCAK256 SWAP1 MLOAD PUSH32 0x3FCABD3EA914F0C2FF2F383498584A0305EA5946C22DFF1AEF9CC806BCBA4C03 SWAP2 PUSH2 0xB68 SWAP2 DUP6 SWAP2 PUSH1 0x1 ADD SWAP1 PUSH2 0x2AB2 JUMP JUMPDEST PUSH1 0x40 MLOAD DUP1 SWAP2 SUB SWAP1 LOG1 POP POP JUMP JUMPDEST CALLER PUSH1 0x0 SWAP1 DUP2 MSTORE PUSH1 0xD PUSH1 0x20 MSTORE PUSH1 0x40 DUP2 KECCAK256 PUSH1 0x2 ADD SLOAD SWAP1 SUB PUSH2 0xBEE JUMPI PUSH1 0x40 MLOAD PUSH3 0x461BCD PUSH1 0xE5 SHL DUP2 MSTORE PUSH1 0x20 PUSH1 0x4 DUP3 ADD MSTORE PUSH1 0x30 PUSH1 0x24 DUP3 ADD MSTORE PUSH32 0x4F7065726174696F6E2064656E6965642C2073686F756C642062652061207265 PUSH1 0x44 DUP3 ADD MSTORE PUSH16 0x6769737465726564206F7261636C6521 PUSH1 0x80 SHL PUSH1 0x64 DUP3 ADD MSTORE PUSH1 0x84 ADD PUSH2 0x3F6 JUMP JUMPDEST CALLER PUSH1 0x0 SWAP1 DUP2 MSTORE PUSH1 0xD PUSH1 0x20 SWAP1 DUP2 MSTORE PUSH1 0x40 DUP1 DUP4 KECCAK256 PUSH1 0x2 ADD SLOAD DUP4 MSTORE PUSH1 0xC SWAP1 SWAP2 MSTORE SWAP1 DUP2 SWAP1 KECCAK256 DUP2 MLOAD PUSH1 0x80 DUP2 ADD SWAP3 DUP4 SWAP1 MSTORE PUSH2 0xC47 SWAP3 DUP6 SWAP3 PUSH1 0xF ADD SWAP1 PUSH1 0x4 SWAP1 DUP3 DUP5 JUMPDEST DUP2 SLOAD DUP2 MSTORE PUSH1 0x20 ADD SWAP1 PUSH1 0x1 ADD SWAP1 DUP1 DUP4 GT PUSH2 0xC29 JUMPI POP POP POP POP POP DUP4 PUSH2 0x1EAB JUMP JUMPDEST PUSH2 0xC93 JUMPI PUSH1 0x40 MLOAD PUSH3 0x461BCD PUSH1 0xE5 SHL DUP2 MSTORE PUSH1 0x20 PUSH1 0x4 DUP3 ADD MSTORE PUSH1 0x1C PUSH1 0x24 DUP3 ADD MSTORE PUSH32 0x496E76616C6964207468726573686F6C64207369676E61747572652100000000 PUSH1 0x44 DUP3 ADD MSTORE PUSH1 0x64 ADD PUSH2 0x3F6 JUMP JUMPDEST CALLER PUSH1 0x0 SWAP1 DUP2 MSTORE PUSH1 0xD PUSH1 0x20 SWAP1 DUP2 MSTORE PUSH1 0x40 DUP1 DUP4 KECCAK256 PUSH1 0x2 SWAP1 DUP2 ADD SLOAD PUSH1 0x1 PUSH1 0x1 PUSH1 0xA0 SHL SUB DUP12 AND DUP6 MSTORE PUSH1 0x9 SWAP1 SWAP4 MSTORE SWAP3 KECCAK256 SWAP1 SWAP2 ADD SLOAD EQ PUSH2 0xD0F JUMPI PUSH1 0x40 MLOAD PUSH3 0x461BCD PUSH1 0xE5 SHL DUP2 MSTORE PUSH1 0x20 PUSH1 0x4 DUP3 ADD MSTORE PUSH1 0x15 PUSH1 0x24 DUP3 ADD MSTORE PUSH32 0x496E76616C6964204845492073656C6563746564210000000000000000000000 PUSH1 0x44 DUP3 ADD MSTORE PUSH1 0x64 ADD PUSH2 0x3F6 JUMP JUMPDEST PUSH2 0xD17 PUSH2 0x2091 JUMP JUMPDEST PUSH1 0x20 DUP1 DUP3 ADD MLOAD PUSH1 0x1 PUSH1 0x1 PUSH1 0xA0 SHL SUB DUP10 AND PUSH1 0x0 MSTORE PUSH1 0xB SWAP1 SWAP2 MSTORE DUP5 SWAP1 PUSH2 0xD3D PUSH1 0x1 PUSH1 0xA PUSH2 0x2A6D JUMP JUMPDEST PUSH1 0xA DUP2 LT PUSH2 0xD4D JUMPI PUSH2 0xD4D PUSH2 0x2A84 JUMP JUMPDEST PUSH1 0x20 MUL ADD DUP2 DUP2 MSTORE POP POP DUP6 DUP6 DUP1 DUP1 PUSH1 0x1F ADD PUSH1 0x20 DUP1 SWAP2 DIV MUL PUSH1 0x20 ADD PUSH1 0x40 MLOAD SWAP1 DUP2 ADD PUSH1 0x40 MSTORE DUP1 SWAP4 SWAP3 SWAP2 SWAP1 DUP2 DUP2 MSTORE PUSH1 0x20 ADD DUP4 DUP4 DUP1 DUP3 DUP5 CALLDATACOPY PUSH1 0x0 SWAP3 ADD DUP3 SWAP1 MSTORE POP DUP6 MLOAD PUSH1 0x1 PUSH1 0x1 PUSH1 0xA0 SHL SUB DUP14 AND SWAP1 SWAP2 MSTORE PUSH1 0xB PUSH1 0x20 MSTORE SWAP3 POP PUSH2 0xDAE SWAP2 POP PUSH1 0x1 SWAP1 POP PUSH1 0xA PUSH2 0x2A6D JUMP JUMPDEST PUSH1 0xA DUP2 LT PUSH2 0xDBE JUMPI PUSH2 0xDBE PUSH2 0x2A84 JUMP JUMPDEST PUSH1 0x20 SWAP1 DUP2 MUL SWAP2 SWAP1 SWAP2 ADD SWAP2 SWAP1 SWAP2 MSTORE PUSH1 0x1 PUSH1 0x1 PUSH1 0xA0 SHL SUB DUP9 AND PUSH1 0x0 SWAP1 DUP2 MSTORE PUSH1 0xB SWAP1 SWAP2 MSTORE PUSH1 0x40 SWAP1 KECCAK256 DUP2 MLOAD DUP3 SWAP2 SWAP1 PUSH2 0xDF5 SWAP1 DUP3 SWAP1 PUSH1 0xA PUSH2 0x20BE JUMP JUMPDEST POP PUSH1 0x20 DUP3 ADD MLOAD PUSH2 0xE0B SWAP1 PUSH1 0xA DUP1 DUP5 ADD SWAP2 SWAP1 PUSH2 0x2107 JUMP JUMPDEST POP PUSH1 0x40 SWAP2 DUP3 ADD MLOAD PUSH1 0x14 SWAP1 SWAP2 ADD SSTORE CALLER PUSH1 0x0 SWAP1 DUP2 MSTORE PUSH1 0xD PUSH1 0x20 SWAP1 DUP2 MSTORE DUP3 DUP3 KECCAK256 PUSH1 0x2 SWAP1 DUP2 ADD SLOAD DUP4 MSTORE PUSH1 0xC SWAP2 DUP3 SWAP1 MSTORE SWAP3 DUP3 KECCAK256 ADD DUP1 SLOAD SWAP1 SWAP2 SWAP1 PUSH2 0xE4A SWAP1 DUP5 SWAP1 PUSH2 0x2A9A JUMP JUMPDEST SWAP1 SWAP2 SSTORE POP POP PUSH1 0x1 PUSH1 0x1 PUSH1 0xA0 SHL SUB DUP8 AND PUSH1 0x0 DUP2 DUP2 MSTORE PUSH1 0x9 PUSH1 0x20 SWAP1 DUP2 MSTORE PUSH1 0x40 SWAP2 DUP3 SWAP1 KECCAK256 PUSH1 0x2 ADD SLOAD DUP3 MLOAD SWAP4 DUP5 MSTORE SWAP1 DUP4 ADD MSTORE PUSH32 0x44DF815358EEAA6E5FBB3AC2DD05FD650E171EA29051666A7AFDD28C811284F1 SWAP2 ADD PUSH1 0x40 MLOAD DUP1 SWAP2 SUB SWAP1 LOG1 POP POP POP POP POP POP POP JUMP JUMPDEST CALLER PUSH1 0x0 SWAP1 DUP2 MSTORE PUSH1 0xD PUSH1 0x20 MSTORE PUSH1 0x40 DUP2 KECCAK256 PUSH1 0x2 ADD SLOAD SWAP1 SUB PUSH2 0xF26 JUMPI PUSH1 0x40 MLOAD PUSH3 0x461BCD PUSH1 0xE5 SHL DUP2 MSTORE PUSH1 0x20 PUSH1 0x4 DUP3 ADD MSTORE PUSH1 0x30 PUSH1 0x24 DUP3 ADD MSTORE PUSH32 0x4F7065726174696F6E2064656E6965642C2073686F756C642062652061207265 PUSH1 0x44 DUP3 ADD MSTORE PUSH16 0x6769737465726564206F7261636C6521 PUSH1 0x80 SHL PUSH1 0x64 DUP3 ADD MSTORE PUSH1 0x84 ADD PUSH2 0x3F6 JUMP JUMPDEST PUSH1 0x1 PUSH1 0x1 PUSH1 0xA0 SHL SUB DUP8 AND PUSH1 0x0 SWAP1 DUP2 MSTORE PUSH1 0x9 PUSH1 0x20 MSTORE PUSH1 0x40 DUP2 KECCAK256 PUSH1 0x2 ADD SLOAD SWAP1 SUB PUSH2 0xF90 JUMPI PUSH1 0x40 MLOAD PUSH3 0x461BCD PUSH1 0xE5 SHL DUP2 MSTORE PUSH1 0x20 PUSH1 0x4 DUP3 ADD MSTORE PUSH1 0x18 PUSH1 0x24 DUP3 ADD MSTORE PUSH32 0x484549206973206E6F74206265696E672072616E6B6564210000000000000000 PUSH1 0x44 DUP3 ADD MSTORE PUSH1 0x64 ADD PUSH2 0x3F6 JUMP JUMPDEST CALLER PUSH1 0x0 SWAP1 DUP2 MSTORE PUSH1 0xD PUSH1 0x20 SWAP1 DUP2 MSTORE PUSH1 0x40 DUP1 DUP4 KECCAK256 PUSH1 0x2 ADD SLOAD PUSH1 0x1 PUSH1 0x1 PUSH1 0xA0 SHL SUB DUP13 AND DUP5 MSTORE PUSH1 0xE SWAP1 SWAP3 MSTORE SWAP1 SWAP2 KECCAK256 SLOAD EQ PUSH2 0x102E JUMPI PUSH1 0x40 MLOAD PUSH3 0x461BCD PUSH1 0xE5 SHL DUP2 MSTORE PUSH1 0x20 PUSH1 0x4 DUP3 ADD MSTORE PUSH1 0x25 PUSH1 0x24 DUP3 ADD MSTORE PUSH32 0x4E6F20737563682064617461206C696E6B656420746F20676976656E20636C75 PUSH1 0x44 DUP3 ADD MSTORE PUSH32 0x7374657221000000000000000000000000000000000000000000000000000000 PUSH1 0x64 DUP3 ADD MSTORE PUSH1 0x84 ADD PUSH2 0x3F6 JUMP JUMPDEST CALLER PUSH1 0x0 SWAP1 DUP2 MSTORE PUSH1 0xD PUSH1 0x20 SWAP1 DUP2 MSTORE PUSH1 0x40 DUP1 DUP4 KECCAK256 PUSH1 0x2 ADD SLOAD DUP4 MSTORE PUSH1 0xC SWAP1 SWAP2 MSTORE SWAP1 KECCAK256 PUSH1 0xE ADD SLOAD TIMESTAMP LT PUSH2 0x10B9 JUMPI PUSH1 0x40 MLOAD PUSH3 0x461BCD PUSH1 0xE5 SHL DUP2 MSTORE PUSH1 0x20 PUSH1 0x4 DUP3 ADD MSTORE PUSH1 0x31 PUSH1 0x24 DUP3 ADD MSTORE PUSH32 0x4861766520746F207265667265736820746865207075626C6963206B65792062 PUSH1 0x44 DUP3 ADD MSTORE PUSH17 0x65666F72652070726F63656564696E6721 PUSH1 0x78 SHL PUSH1 0x64 DUP3 ADD MSTORE PUSH1 0x84 ADD PUSH2 0x3F6 JUMP JUMPDEST PUSH1 0x40 DUP1 MLOAD DUP1 DUP3 ADD DUP3 MSTORE PUSH2 0x1150 SWAP2 DUP4 SWAP1 PUSH1 0x2 SWAP1 DUP4 SWAP1 DUP4 SWAP1 DUP1 DUP3 DUP5 CALLDATACOPY PUSH1 0x0 SWAP3 ADD DUP3 SWAP1 MSTORE POP CALLER DUP2 MSTORE PUSH1 0xD PUSH1 0x20 SWAP1 DUP2 MSTORE PUSH1 0x40 DUP1 DUP4 KECCAK256 PUSH1 0x2 ADD SLOAD DUP4 MSTORE PUSH1 0xC SWAP1 SWAP2 MSTORE SWAP1 DUP2 SWAP1 KECCAK256 DUP2 MLOAD PUSH1 0x80 DUP2 ADD SWAP3 DUP4 SWAP1 MSTORE SWAP4 POP PUSH1 0xF ADD SWAP2 POP PUSH1 0x4 SWAP1 DUP3 DUP5 JUMPDEST DUP2 SLOAD DUP2 MSTORE PUSH1 0x20 ADD SWAP1 PUSH1 0x1 ADD SWAP1 DUP1 DUP4 GT PUSH2 0x1110 JUMPI POP POP PUSH1 0x40 DUP1 MLOAD DUP1 DUP3 ADD DUP3 MSTORE SWAP4 POP DUP9 SWAP3 POP PUSH1 0x2 SWAP2 POP DUP4 SWAP1 DUP4 SWAP1 DUP1 DUP3 DUP5 CALLDATACOPY PUSH1 0x0 SWAP3 ADD SWAP2 SWAP1 SWAP2 MSTORE POP PUSH2 0x1EAB SWAP2 POP POP JUMP JUMPDEST PUSH2 0x119C JUMPI PUSH1 0x40 MLOAD PUSH3 0x461BCD PUSH1 0xE5 SHL DUP2 MSTORE PUSH1 0x20 PUSH1 0x4 DUP3 ADD MSTORE PUSH1 0x12 PUSH1 0x24 DUP3 ADD MSTORE PUSH32 0x496E76616C6964207369676E6174757265210000000000000000000000000000 PUSH1 0x44 DUP3 ADD MSTORE PUSH1 0x64 ADD PUSH2 0x3F6 JUMP JUMPDEST PUSH1 0x1 PUSH1 0x1 PUSH1 0xA0 SHL SUB DUP8 AND PUSH1 0x0 SWAP1 DUP2 MSTORE PUSH1 0xB PUSH1 0x20 MSTORE PUSH1 0x40 SWAP1 KECCAK256 DUP6 SWAP1 PUSH1 0xA SWAP1 DUP2 ADD SWAP1 DUP9 SWAP1 DUP2 LT PUSH2 0x11CC JUMPI PUSH2 0x11CC PUSH2 0x2A84 JUMP JUMPDEST ADD SSTORE PUSH1 0x1 PUSH1 0x1 PUSH1 0xA0 SHL SUB DUP8 AND PUSH1 0x0 SWAP1 DUP2 MSTORE PUSH1 0xB PUSH1 0x20 MSTORE PUSH1 0x40 SWAP1 KECCAK256 DUP5 SWAP1 DUP5 SWAP1 DUP9 PUSH1 0xA DUP2 LT PUSH2 0x11FB JUMPI PUSH2 0x11FB PUSH2 0x2A84 JUMP JUMPDEST ADD SWAP2 PUSH2 0x1208 SWAP2 SWAP1 DUP4 PUSH2 0x2940 JUMP JUMPDEST POP PUSH1 0x1 PUSH1 0x1 PUSH1 0xA0 SHL SUB DUP9 AND PUSH1 0x0 SWAP1 DUP2 MSTORE PUSH1 0xD PUSH1 0x20 MSTORE PUSH1 0x40 DUP2 KECCAK256 PUSH1 0x1 ADD DUP1 SLOAD SWAP2 PUSH2 0x1230 DUP4 PUSH2 0x2A54 JUMP JUMPDEST SWAP1 SWAP2 SSTORE POP POP POP PUSH1 0x1 PUSH1 0x1 PUSH1 0xA0 SHL SUB SWAP1 SWAP7 AND PUSH1 0x0 SWAP1 DUP2 MSTORE PUSH1 0xE PUSH1 0x20 MSTORE PUSH1 0x40 DUP2 KECCAK256 SSTORE POP POP POP POP POP POP JUMP JUMPDEST PUSH1 0x0 DUP2 MLOAD DUP4 MLOAD EQ PUSH2 0x126B JUMPI POP PUSH1 0x0 PUSH2 0x12BD JUMP JUMPDEST DUP2 PUSH1 0x40 MLOAD PUSH1 0x20 ADD PUSH2 0x127C SWAP2 SWAP1 PUSH2 0x2B45 JUMP JUMPDEST PUSH1 0x40 MLOAD PUSH1 0x20 DUP2 DUP4 SUB SUB DUP2 MSTORE SWAP1 PUSH1 0x40 MSTORE DUP1 MLOAD SWAP1 PUSH1 0x20 ADD KECCAK256 DUP4 PUSH1 0x40 MLOAD PUSH1 0x20 ADD PUSH2 0x12A3 SWAP2 SWAP1 PUSH2 0x2B45 JUMP JUMPDEST PUSH1 0x40 MLOAD PUSH1 0x20 DUP2 DUP4 SUB SUB DUP2 MSTORE SWAP1 PUSH1 0x40 MSTORE DUP1 MLOAD SWAP1 PUSH1 0x20 ADD KECCAK256 EQ SWAP1 POP JUMPDEST SWAP3 SWAP2 POP POP JUMP JUMPDEST CALLER PUSH1 0x0 SWAP1 DUP2 MSTORE PUSH1 0xD PUSH1 0x20 MSTORE PUSH1 0x40 SWAP1 KECCAK256 PUSH1 0x2 ADD SLOAD ISZERO PUSH2 0x1338 JUMPI PUSH1 0x40 MLOAD PUSH3 0x461BCD PUSH1 0xE5 SHL DUP2 MSTORE PUSH1 0x20 PUSH1 0x4 DUP3 ADD MSTORE PUSH1 0x2C PUSH1 0x24 DUP3 ADD MSTORE PUSH32 0x526567697374726174696F6E2064656E6965642C2063616E206F6E6C79207265 PUSH1 0x44 DUP3 ADD MSTORE PUSH12 0x676973746572206F6E636521 PUSH1 0xA0 SHL PUSH1 0x64 DUP3 ADD MSTORE PUSH1 0x84 ADD PUSH2 0x3F6 JUMP JUMPDEST CALLER PUSH1 0x0 SWAP1 DUP2 MSTORE PUSH1 0x9 PUSH1 0x20 MSTORE PUSH1 0x40 SWAP1 KECCAK256 SLOAD PUSH1 0x1 PUSH1 0x1 PUSH1 0xA0 SHL SUB AND ISZERO PUSH2 0x13C4 JUMPI PUSH1 0x40 MLOAD PUSH3 0x461BCD PUSH1 0xE5 SHL DUP2 MSTORE PUSH1 0x20 PUSH1 0x4 DUP3 ADD MSTORE PUSH1 0x2D PUSH1 0x24 DUP3 ADD MSTORE PUSH32 0x526567697374726174696F6E2063616E206F6E6C7920626520646F6E65206F6E PUSH1 0x44 DUP3 ADD MSTORE PUSH32 0x636520617420612074696D652100000000000000000000000000000000000000 PUSH1 0x64 DUP3 ADD MSTORE PUSH1 0x84 ADD PUSH2 0x3F6 JUMP JUMPDEST PUSH1 0x40 DUP1 MLOAD PUSH1 0xA0 DUP2 ADD DUP3 MSTORE PUSH1 0x0 DUP2 DUP4 ADD DUP2 SWAP1 MSTORE PUSH1 0x60 DUP3 ADD DUP2 SWAP1 MSTORE PUSH1 0x20 DUP1 DUP4 ADD DUP8 DUP2 MSTORE CALLER DUP1 DUP6 MSTORE PUSH1 0x80 DUP6 ADD DUP8 SWAP1 MSTORE DUP4 MSTORE PUSH1 0x9 SWAP1 SWAP2 MSTORE SWAP3 SWAP1 KECCAK256 DUP2 MLOAD DUP2 SLOAD PUSH20 0xFFFFFFFFFFFFFFFFFFFFFFFFFFFFFFFFFFFFFFFF NOT AND PUSH1 0x1 PUSH1 0x1 PUSH1 0xA0 SHL SUB SWAP1 SWAP2 AND OR DUP2 SSTORE SWAP2 MLOAD SWAP1 SWAP2 DUP3 SWAP2 PUSH1 0x1 DUP3 ADD SWAP1 PUSH2 0x1438 SWAP1 DUP3 PUSH2 0x2B61 JUMP JUMPDEST POP PUSH1 0x40 DUP3 ADD MLOAD PUSH1 0x2 DUP3 ADD SSTORE PUSH1 0x60 DUP3 ADD MLOAD PUSH1 0x3 DUP3 ADD DUP1 SLOAD PUSH1 0xFF NOT AND SWAP2 ISZERO ISZERO SWAP2 SWAP1 SWAP2 OR SWAP1 SSTORE PUSH1 0x80 DUP3 ADD MLOAD PUSH1 0x4 DUP3 ADD SWAP1 PUSH2 0x146F SWAP1 DUP3 PUSH2 0x2B61 JUMP JUMPDEST POP SWAP1 POP POP PUSH32 0x528F90766D7FFD9A9B19173678985FE1321ACAE03E0D442103E20A8F950CF5B2 DUP4 DUP6 PUSH1 0x40 MLOAD PUSH2 0x657 SWAP3 SWAP2 SWAP1 PUSH2 0x2C21 JUMP JUMPDEST CALLER PUSH1 0x0 SWAP1 DUP2 MSTORE PUSH1 0xD PUSH1 0x20 MSTORE PUSH1 0x40 DUP2 KECCAK256 PUSH1 0x2 ADD SLOAD SWAP1 SUB PUSH2 0x151E JUMPI PUSH1 0x40 MLOAD PUSH3 0x461BCD PUSH1 0xE5 SHL DUP2 MSTORE PUSH1 0x20 PUSH1 0x4 DUP3 ADD MSTORE PUSH1 0x30 PUSH1 0x24 DUP3 ADD MSTORE PUSH32 0x4F7065726174696F6E2064656E6965642C2073686F756C642062652061207265 PUSH1 0x44 DUP3 ADD MSTORE PUSH16 0x6769737465726564206F7261636C6521 PUSH1 0x80 SHL PUSH1 0x64 DUP3 ADD MSTORE PUSH1 0x84 ADD PUSH2 0x3F6 JUMP JUMPDEST CALLER PUSH1 0x0 DUP2 DUP2 MSTORE PUSH1 0xD PUSH1 0x20 DUP2 DUP2 MSTORE PUSH1 0x40 DUP1 DUP5 KECCAK256 PUSH1 0x2 ADD SLOAD DUP5 MSTORE PUSH1 0xC SWAP1 SWAP2 MSTORE SWAP1 SWAP2 KECCAK256 ADD SLOAD PUSH1 0x1 PUSH1 0x1 PUSH1 0xA0 SHL SUB AND EQ PUSH2 0x15BC JUMPI PUSH1 0x40 MLOAD PUSH3 0x461BCD PUSH1 0xE5 SHL DUP2 MSTORE PUSH1 0x20 PUSH1 0x4 DUP3 ADD MSTORE PUSH1 0x27 PUSH1 0x24 DUP3 ADD MSTORE PUSH32 0x4F6E6C79206F7261636C6520686561642063616E207375626D6974207075626C PUSH1 0x44 DUP3 ADD MSTORE PUSH32 0x6963206B65792100000000000000000000000000000000000000000000000000 PUSH1 0x64 DUP3 ADD MSTORE PUSH1 0x84 ADD PUSH2 0x3F6 JUMP JUMPDEST CALLER PUSH1 0x0 SWAP1 DUP2 MSTORE PUSH1 0xD PUSH1 0x20 MSTORE PUSH1 0x40 DUP2 KECCAK256 PUSH1 0x1 ADD DUP1 SLOAD SWAP2 PUSH2 0x15DA DUP4 PUSH2 0x2A54 JUMP JUMPDEST SWAP1 SWAP2 SSTORE POP POP PUSH1 0x6 SLOAD PUSH2 0x15EC SWAP1 TIMESTAMP PUSH2 0x2A9A JUMP JUMPDEST CALLER PUSH1 0x0 SWAP1 DUP2 MSTORE PUSH1 0xD PUSH1 0x20 SWAP1 DUP2 MSTORE PUSH1 0x40 DUP1 DUP4 KECCAK256 PUSH1 0x2 ADD DUP1 SLOAD DUP5 MSTORE PUSH1 0xC SWAP1 SWAP3 MSTORE DUP1 DUP4 KECCAK256 PUSH1 0xE ADD SWAP4 SWAP1 SWAP4 SSTORE SLOAD DUP2 MSTORE KECCAK256 PUSH2 0x1627 SWAP1 PUSH1 0xF ADD DUP3 PUSH1 0x4 PUSH2 0x2141 JUMP JUMPDEST POP POP JUMP JUMPDEST CALLER PUSH1 0x0 SWAP1 DUP2 MSTORE PUSH1 0xD PUSH1 0x20 MSTORE PUSH1 0x40 DUP2 KECCAK256 PUSH1 0x2 ADD SLOAD SWAP1 SUB PUSH2 0x16A5 JUMPI PUSH1 0x40 MLOAD PUSH3 0x461BCD PUSH1 0xE5 SHL DUP2 MSTORE PUSH1 0x20 PUSH1 0x4 DUP3 ADD MSTORE PUSH1 0x30 PUSH1 0x24 DUP3 ADD MSTORE PUSH32 0x4F7065726174696F6E2064656E6965642C2073686F756C642062652061207265 PUSH1 0x44 DUP3 ADD MSTORE PUSH16 0x6769737465726564206F7261636C6521 PUSH1 0x80 SHL PUSH1 0x64 DUP3 ADD MSTORE PUSH1 0x84 ADD PUSH2 0x3F6 JUMP JUMPDEST CALLER PUSH1 0x0 DUP2 DUP2 MSTORE PUSH1 0xD PUSH1 0x20 DUP2 DUP2 MSTORE PUSH1 0x40 DUP1 DUP5 KECCAK256 PUSH1 0x2 DUP1 DUP3 ADD SLOAD DUP7 MSTORE PUSH1 0xC DUP1 DUP6 MSTORE SWAP3 DUP7 KECCAK256 SWAP3 DUP4 ADD SLOAD SWAP7 SWAP1 SWAP6 MSTORE SWAP3 SWAP1 SWAP2 MSTORE SWAP1 SLOAD SWAP2 ADD SWAP1 PUSH1 0xA DUP2 LT PUSH2 0x16E8 JUMPI PUSH2 0x16E8 PUSH2 0x2A84 JUMP JUMPDEST ADD SLOAD LT PUSH2 0x1737 JUMPI PUSH1 0x40 MLOAD PUSH3 0x461BCD PUSH1 0xE5 SHL DUP2 MSTORE PUSH1 0x20 PUSH1 0x4 DUP3 ADD MSTORE PUSH1 0x10 PUSH1 0x24 DUP3 ADD MSTORE PUSH32 0x496E76616C696420436C75737465722100000000000000000000000000000000 PUSH1 0x44 DUP3 ADD MSTORE PUSH1 0x64 ADD PUSH2 0x3F6 JUMP JUMPDEST CALLER PUSH1 0x0 DUP2 DUP2 MSTORE PUSH1 0xD PUSH1 0x20 DUP2 DUP2 MSTORE PUSH1 0x40 DUP1 DUP5 KECCAK256 PUSH1 0x2 DUP1 DUP3 ADD SLOAD DUP7 MSTORE PUSH1 0xC DUP5 MSTORE SWAP2 DUP6 KECCAK256 SWAP6 DUP6 MSTORE SWAP3 SWAP1 SWAP2 MSTORE SWAP1 SLOAD SWAP2 SWAP3 ADD SWAP1 PUSH1 0xA DUP2 LT PUSH2 0x1775 JUMPI PUSH2 0x1775 PUSH2 0x2A84 JUMP JUMPDEST ADD SLOAD CALLER PUSH1 0x0 SWAP1 DUP2 MSTORE PUSH1 0xD PUSH1 0x20 SWAP1 DUP2 MSTORE PUSH1 0x40 DUP1 DUP4 KECCAK256 PUSH1 0x2 ADD SLOAD DUP4 MSTORE PUSH1 0xC SWAP2 DUP3 SWAP1 MSTORE SWAP1 SWAP2 KECCAK256 ADD SLOAD PUSH2 0x17A4 SWAP2 SWAP1 PUSH2 0x2A6D JUMP JUMPDEST CALLER PUSH1 0x0 DUP2 DUP2 MSTORE PUSH1 0xD PUSH1 0x20 DUP2 DUP2 MSTORE PUSH1 0x40 DUP1 DUP5 KECCAK256 PUSH1 0x2 DUP1 DUP3 ADD SLOAD DUP7 MSTORE PUSH1 0xC DUP5 MSTORE SWAP2 DUP6 KECCAK256 SWAP6 SWAP1 SWAP5 MSTORE SWAP2 SWAP1 MSTORE SWAP1 SLOAD SWAP3 SWAP4 POP DUP4 SWAP3 SWAP2 ADD SWAP1 PUSH1 0xA DUP2 LT PUSH2 0x17E6 JUMPI PUSH2 0x17E6 PUSH2 0x2A84 JUMP JUMPDEST ADD PUSH1 0x0 DUP3 DUP3 SLOAD PUSH2 0x17F6 SWAP2 SWAP1 PUSH2 0x2A9A JUMP JUMPDEST SWAP1 SWAP2 SSTORE POP POP PUSH1 0x1 SLOAD PUSH2 0x1808 SWAP1 DUP3 PUSH2 0x289E JUMP JUMPDEST PUSH1 0x40 MLOAD SWAP1 SWAP2 POP CALLER SWAP1 DUP3 ISZERO PUSH2 0x8FC MUL SWAP1 DUP4 SWAP1 PUSH1 0x0 DUP2 DUP2 DUP2 DUP6 DUP9 DUP9 CALL SWAP4 POP POP POP POP ISZERO DUP1 ISZERO PUSH2 0x1627 JUMPI RETURNDATASIZE PUSH1 0x0 DUP1 RETURNDATACOPY RETURNDATASIZE PUSH1 0x0 REVERT JUMPDEST CALLER PUSH1 0x0 SWAP1 DUP2 MSTORE PUSH1 0xD PUSH1 0x20 MSTORE PUSH1 0x40 DUP2 KECCAK256 PUSH1 0x2 ADD SLOAD SWAP1 SUB PUSH2 0x18B2 JUMPI PUSH1 0x40 MLOAD PUSH3 0x461BCD PUSH1 0xE5 SHL DUP2 MSTORE PUSH1 0x20 PUSH1 0x4 DUP3 ADD MSTORE PUSH1 0x30 PUSH1 0x24 DUP3 ADD MSTORE PUSH32 0x4F7065726174696F6E2064656E6965642C2073686F756C642062652061207265 PUSH1 0x44 DUP3 ADD MSTORE PUSH16 0x6769737465726564206F7261636C6521 PUSH1 0x80 SHL PUSH1 0x64 DUP3 ADD MSTORE PUSH1 0x84 ADD PUSH2 0x3F6 JUMP JUMPDEST PUSH1 0x1 PUSH1 0x1 PUSH1 0xA0 SHL SUB DUP1 DUP6 AND PUSH1 0x0 DUP2 DUP2 MSTORE PUSH1 0x9 PUSH1 0x20 MSTORE PUSH1 0x40 SWAP1 KECCAK256 SLOAD SWAP1 SWAP2 AND EQ DUP1 ISZERO PUSH2 0x18F8 JUMPI POP PUSH1 0x1 PUSH1 0x1 PUSH1 0xA0 SHL SUB DUP5 AND PUSH1 0x0 SWAP1 DUP2 MSTORE PUSH1 0x9 PUSH1 0x20 MSTORE PUSH1 0x40 SWAP1 KECCAK256 PUSH1 0x3 ADD SLOAD PUSH1 0xFF AND ISZERO JUMPDEST DUP1 ISZERO PUSH2 0x192E JUMPI POP PUSH1 0x5 SLOAD CALLER PUSH1 0x0 SWAP1 DUP2 MSTORE PUSH1 0xD PUSH1 0x20 SWAP1 DUP2 MSTORE PUSH1 0x40 DUP1 DUP4 KECCAK256 PUSH1 0x2 ADD SLOAD DUP4 MSTORE PUSH1 0xC SWAP1 SWAP2 MSTORE SWAP1 KECCAK256 PUSH1 0x1 ADD SLOAD PUSH2 0xFFFF SWAP1 SWAP2 AND GT ISZERO JUMPDEST PUSH2 0x19A0 JUMPI PUSH1 0x40 MLOAD PUSH3 0x461BCD PUSH1 0xE5 SHL DUP2 MSTORE PUSH1 0x20 PUSH1 0x4 DUP3 ADD MSTORE PUSH1 0x2B PUSH1 0x24 DUP3 ADD MSTORE PUSH32 0x54686520737065636966696564204845492063616E206E6F7420626520617574 PUSH1 0x44 DUP3 ADD MSTORE PUSH32 0x68656E7469636174656421000000000000000000000000000000000000000000 PUSH1 0x64 DUP3 ADD MSTORE PUSH1 0x84 ADD PUSH2 0x3F6 JUMP JUMPDEST CALLER PUSH1 0x0 SWAP1 DUP2 MSTORE PUSH1 0xD PUSH1 0x20 SWAP1 DUP2 MSTORE PUSH1 0x40 DUP1 DUP4 KECCAK256 PUSH1 0x2 ADD SLOAD DUP4 MSTORE PUSH1 0xC SWAP1 SWAP2 MSTORE SWAP1 KECCAK256 PUSH1 0xE ADD SLOAD TIMESTAMP LT PUSH2 0x1A2B JUMPI PUSH1 0x40 MLOAD PUSH3 0x461BCD PUSH1 0xE5 SHL DUP2 MSTORE PUSH1 0x20 PUSH1 0x4 DUP3 ADD MSTORE PUSH1 0x31 PUSH1 0x24 DUP3 ADD MSTORE PUSH32 0x4861766520746F207265667265736820746865207075626C6963206B65792062 PUSH1 0x44 DUP3 ADD MSTORE PUSH17 0x65666F72652070726F63656564696E6721 PUSH1 0x78 SHL PUSH1 0x64 DUP3 ADD MSTORE PUSH1 0x84 ADD PUSH2 0x3F6 JUMP JUMPDEST PUSH1 0x40 DUP1 MLOAD DUP1 DUP3 ADD DUP3 MSTORE PUSH2 0x1AC1 SWAP2 DUP4 SWAP1 PUSH1 0x2 SWAP1 DUP4 SWAP1 DUP4 SWAP1 DUP1 DUP3 DUP5 CALLDATACOPY PUSH1 0x0 SWAP3 ADD DUP3 SWAP1 MSTORE POP CALLER DUP2 MSTORE PUSH1 0xD PUSH1 0x20 SWAP1 DUP2 MSTORE PUSH1 0x40 DUP1 DUP4 KECCAK256 PUSH1 0x2 ADD SLOAD DUP4 MSTORE PUSH1 0xC DUP3 MSTORE SWAP2 DUP3 SWAP1 KECCAK256 DUP3 MLOAD PUSH1 0x80 DUP2 ADD SWAP4 DUP5 SWAP1 MSTORE PUSH1 0xF DUP3 ADD DUP1 SLOAD DUP3 MSTORE SWAP1 SWAP6 POP SWAP4 POP PUSH1 0x4 SWAP3 SWAP2 PUSH1 0x10 SWAP1 SWAP2 ADD SWAP1 DUP6 ADD DUP1 DUP4 GT PUSH2 0x1110 JUMPI POP POP PUSH1 0x40 DUP1 MLOAD DUP1 DUP3 ADD DUP3 MSTORE SWAP4 POP DUP9 SWAP3 POP PUSH1 0x2 SWAP2 POP DUP4 SWAP1 DUP4 SWAP1 DUP1 DUP3 DUP5 CALLDATACOPY PUSH1 0x0 SWAP3 ADD SWAP2 SWAP1 SWAP2 MSTORE POP PUSH2 0x1EAB SWAP2 POP POP JUMP JUMPDEST PUSH2 0x1B33 JUMPI PUSH1 0x40 MLOAD PUSH3 0x461BCD PUSH1 0xE5 SHL DUP2 MSTORE PUSH1 0x20 PUSH1 0x4 DUP3 ADD MSTORE PUSH1 0x2A PUSH1 0x24 DUP3 ADD MSTORE PUSH32 0x5468652070726F7669646564207369676E61747572652064657461696C732061 PUSH1 0x44 DUP3 ADD MSTORE PUSH32 0x726520696E76616C696400000000000000000000000000000000000000000000 PUSH1 0x64 DUP3 ADD MSTORE PUSH1 0x84 ADD PUSH2 0x3F6 JUMP JUMPDEST PUSH1 0xFF DUP4 AND ISZERO PUSH2 0x1BCF JUMPI PUSH1 0x1 PUSH1 0x1 PUSH1 0xA0 SHL SUB DUP5 AND PUSH1 0x0 SWAP1 DUP2 MSTORE PUSH1 0x9 PUSH1 0x20 MSTORE PUSH1 0x40 SWAP1 DUP2 SWAP1 KECCAK256 PUSH1 0x3 ADD DUP1 SLOAD PUSH1 0xFF NOT AND PUSH1 0x1 OR SWAP1 SSTORE MLOAD PUSH32 0x37BAC6BC273AE63A2FFE6FF8F458E41E3101B281EC4B7C1A52B1EE5DFC0DBA24 SWAP1 PUSH2 0x1BC2 SWAP1 PUSH1 0x20 DUP1 DUP3 MSTORE PUSH1 0x16 SWAP1 DUP3 ADD MSTORE PUSH32 0x5468652048454920697320726567697374657265642100000000000000000000 PUSH1 0x40 DUP3 ADD MSTORE PUSH1 0x60 ADD SWAP1 JUMP JUMPDEST PUSH1 0x40 MLOAD DUP1 SWAP2 SUB SWAP1 LOG1 PUSH2 0x1C9D JUMP JUMPDEST PUSH1 0x1 PUSH1 0x1 PUSH1 0xA0 SHL SUB DUP5 AND PUSH1 0x0 SWAP1 DUP2 MSTORE PUSH1 0x9 PUSH1 0x20 MSTORE PUSH1 0x40 DUP2 KECCAK256 DUP1 SLOAD PUSH20 0xFFFFFFFFFFFFFFFFFFFFFFFFFFFFFFFFFFFFFFFF NOT AND DUP2 SSTORE SWAP1 PUSH2 0x1C10 PUSH1 0x1 DUP4 ADD DUP3 PUSH2 0x216F JUMP JUMPDEST PUSH1 0x0 PUSH1 0x2 DUP4 ADD DUP2 SWAP1 SSTORE PUSH1 0x3 DUP4 ADD DUP1 SLOAD PUSH1 0xFF NOT AND SWAP1 SSTORE PUSH2 0x1C33 SWAP1 PUSH1 0x4 DUP5 ADD SWAP1 PUSH2 0x216F JUMP JUMPDEST POP POP PUSH32 0x37BAC6BC273AE63A2FFE6FF8F458E41E3101B281EC4B7C1A52B1EE5DFC0DBA24 PUSH1 0x40 MLOAD PUSH2 0x1C94 SWAP1 PUSH1 0x20 DUP1 DUP3 MSTORE PUSH1 0x1A SWAP1 DUP3 ADD MSTORE PUSH32 0x54686520484549206973206E6F74207265676973746572656421000000000000 PUSH1 0x40 DUP3 ADD MSTORE PUSH1 0x60 ADD SWAP1 JUMP JUMPDEST PUSH1 0x40 MLOAD DUP1 SWAP2 SUB SWAP1 LOG1 JUMPDEST CALLER PUSH1 0x0 SWAP1 DUP2 MSTORE PUSH1 0xD PUSH1 0x20 SWAP1 DUP2 MSTORE PUSH1 0x40 DUP1 DUP4 KECCAK256 PUSH1 0x2 ADD SLOAD DUP4 MSTORE PUSH1 0xC SWAP2 DUP3 SWAP1 MSTORE DUP3 KECCAK256 ADD DUP1 SLOAD SWAP2 PUSH2 0x1CCA DUP4 PUSH2 0x2A54 JUMP JUMPDEST SWAP2 SWAP1 POP SSTORE POP POP POP POP POP JUMP JUMPDEST PUSH1 0x1 PUSH1 0x1 PUSH1 0xA0 SHL SUB DUP1 DUP3 AND PUSH1 0x0 SWAP1 DUP2 MSTORE PUSH1 0x9 PUSH1 0x20 MSTORE PUSH1 0x40 DUP2 KECCAK256 DUP1 SLOAD PUSH1 0x1 SWAP1 SWAP2 ADD DUP1 SLOAD PUSH1 0x60 SWAP5 SWAP2 SWAP3 SWAP1 SWAP2 AND SWAP1 DUP3 SWAP1 PUSH2 0x1D0B SWAP1 PUSH2 0x28BD JUMP JUMPDEST DUP1 PUSH1 0x1F ADD PUSH1 0x20 DUP1 SWAP2 DIV MUL PUSH1 0x20 ADD PUSH1 0x40 MLOAD SWAP1 DUP2 ADD PUSH1 0x40 MSTORE DUP1 SWAP3 SWAP2 SWAP1 DUP2 DUP2 MSTORE PUSH1 0x20 ADD DUP3 DUP1 SLOAD PUSH2 0x1D37 SWAP1 PUSH2 0x28BD JUMP JUMPDEST DUP1 ISZERO PUSH2 0x1D84 JUMPI DUP1 PUSH1 0x1F LT PUSH2 0x1D59 JUMPI PUSH2 0x100 DUP1 DUP4 SLOAD DIV MUL DUP4 MSTORE SWAP2 PUSH1 0x20 ADD SWAP2 PUSH2 0x1D84 JUMP JUMPDEST DUP3 ADD SWAP2 SWAP1 PUSH1 0x0 MSTORE PUSH1 0x20 PUSH1 0x0 KECCAK256 SWAP1 JUMPDEST DUP2 SLOAD DUP2 MSTORE SWAP1 PUSH1 0x1 ADD SWAP1 PUSH1 0x20 ADD DUP1 DUP4 GT PUSH2 0x1D67 JUMPI DUP3 SWAP1 SUB PUSH1 0x1F AND DUP3 ADD SWAP2 JUMPDEST POP POP POP POP POP SWAP2 POP SWAP2 POP SWAP2 POP SWAP2 POP SWAP2 JUMP JUMPDEST PUSH1 0x4 DUP1 SLOAD SWAP1 PUSH1 0x0 PUSH2 0x1DA4 DUP4 PUSH2 0x2A54 JUMP JUMPDEST SWAP2 SWAP1 POP SSTORE POP PUSH2 0x1DB1 PUSH2 0x21AC JUMP JUMPDEST PUSH1 0x4 SLOAD DUP1 DUP3 MSTORE PUSH1 0x1 PUSH1 0x20 DUP1 DUP5 ADD DUP3 DUP2 MSTORE PUSH1 0x0 PUSH1 0x60 DUP7 ADD DUP2 SWAP1 MSTORE PUSH1 0x1 PUSH1 0x1 PUSH1 0xA0 SHL SUB DUP8 AND PUSH1 0x80 DUP8 ADD MSTORE SWAP4 DUP5 MSTORE PUSH1 0xC SWAP1 SWAP2 MSTORE PUSH1 0x40 SWAP3 DUP4 SWAP1 KECCAK256 DUP5 MLOAD DUP2 SSTORE SWAP1 MLOAD SWAP2 DUP2 ADD SWAP2 SWAP1 SWAP2 SSTORE SWAP1 DUP3 ADD MLOAD DUP3 SWAP2 SWAP1 PUSH2 0x1E0B SWAP1 PUSH1 0x2 DUP4 ADD SWAP1 PUSH1 0xA PUSH2 0x2107 JUMP JUMPDEST POP PUSH1 0x60 DUP3 ADD MLOAD PUSH1 0xC DUP3 ADD SSTORE PUSH1 0x80 DUP3 ADD MLOAD PUSH1 0xD DUP3 ADD DUP1 SLOAD PUSH20 0xFFFFFFFFFFFFFFFFFFFFFFFFFFFFFFFFFFFFFFFF NOT AND PUSH1 0x1 PUSH1 0x1 PUSH1 0xA0 SHL SUB SWAP1 SWAP3 AND SWAP2 SWAP1 SWAP2 OR SWAP1 SSTORE PUSH1 0xA0 DUP3 ADD MLOAD PUSH1 0xE DUP3 ADD SSTORE PUSH1 0xC0 DUP3 ADD MLOAD PUSH2 0x1E68 SWAP1 PUSH1 0xF DUP4 ADD SWAP1 PUSH1 0x4 PUSH2 0x21FD JUMP JUMPDEST POP POP DUP2 MLOAD PUSH1 0x40 DUP1 MLOAD SWAP2 DUP3 MSTORE PUSH1 0x1 PUSH1 0x1 PUSH1 0xA0 SHL SUB DUP6 AND PUSH1 0x20 DUP4 ADD MSTORE PUSH32 0x3D7234633C69B8B87E519C47164C3D80FB215FB9C6F203E796476D468FF7A125 SWAP3 POP ADD PUSH2 0xB68 JUMP JUMPDEST PUSH1 0x0 DUP1 PUSH1 0x40 MLOAD DUP1 PUSH2 0x180 ADD PUSH1 0x40 MSTORE DUP1 DUP7 PUSH1 0x0 PUSH1 0x2 DUP2 LT PUSH2 0x1ECD JUMPI PUSH2 0x1ECD PUSH2 0x2A84 JUMP JUMPDEST PUSH1 0x20 MUL ADD MLOAD DUP2 MSTORE PUSH1 0x20 ADD DUP7 PUSH1 0x1 PUSH1 0x2 DUP2 LT PUSH2 0x1EEA JUMPI PUSH2 0x1EEA PUSH2 0x2A84 JUMP JUMPDEST PUSH1 0x20 MUL ADD MLOAD DUP2 MSTORE PUSH1 0x20 ADD PUSH32 0x198E9393920D483A7260BFB731FB5D25F1AA493335A9E71297E485B7AEF312C2 DUP2 MSTORE PUSH1 0x20 ADD PUSH32 0x1800DEEF121F1E76426A00665E5C4479674322D4F75EDADD46DEBD5CD992F6ED DUP2 MSTORE PUSH1 0x20 ADD PUSH32 0x275DC4A288D1AFB3CBB1AC09187524C7DB36395DF7BE3B99E673B13A075A65EC DUP2 MSTORE PUSH1 0x20 ADD PUSH32 0x1D9BEFCD05A5323E6DA4D435F3B617CDB3AF83285C2DF711EF39C01571827F9D DUP2 MSTORE PUSH1 0x20 ADD DUP5 PUSH1 0x0 PUSH1 0x2 DUP2 LT PUSH2 0x1F9F JUMPI PUSH2 0x1F9F PUSH2 0x2A84 JUMP JUMPDEST PUSH1 0x20 MUL ADD MLOAD DUP2 MSTORE PUSH1 0x20 ADD DUP5 PUSH1 0x1 PUSH1 0x2 DUP2 LT PUSH2 0x1FBC JUMPI PUSH2 0x1FBC PUSH2 0x2A84 JUMP JUMPDEST PUSH1 0x20 MUL ADD MLOAD DUP2 MSTORE PUSH1 0x20 ADD DUP6 PUSH1 0x1 PUSH1 0x4 DUP2 LT PUSH2 0x1FD9 JUMPI PUSH2 0x1FD9 PUSH2 0x2A84 JUMP JUMPDEST PUSH1 0x20 MUL ADD MLOAD DUP2 MSTORE PUSH1 0x20 ADD DUP6 PUSH1 0x0 PUSH1 0x4 DUP2 LT PUSH2 0x1FF6 JUMPI PUSH2 0x1FF6 PUSH2 0x2A84 JUMP JUMPDEST PUSH1 0x20 MUL ADD MLOAD DUP2 MSTORE PUSH1 0x20 ADD DUP6 PUSH1 0x3 PUSH1 0x4 DUP2 LT PUSH2 0x2013 JUMPI PUSH2 0x2013 PUSH2 0x2A84 JUMP JUMPDEST PUSH1 0x20 MUL ADD MLOAD DUP2 MSTORE PUSH1 0x20 ADD DUP6 PUSH1 0x2 PUSH1 0x4 DUP2 LT PUSH2 0x2030 JUMPI PUSH2 0x2030 PUSH2 0x2A84 JUMP JUMPDEST PUSH1 0x20 MUL ADD MLOAD SWAP1 MSTORE SWAP1 POP PUSH2 0x2041 PUSH2 0x222A JUMP JUMPDEST PUSH1 0x0 PUSH1 0x20 DUP3 PUSH2 0x180 DUP6 PUSH1 0x8 PUSH2 0x7D0 GAS SUB STATICCALL SWAP1 POP DUP1 DUP1 PUSH2 0x205C JUMPI INVALID JUMPDEST POP DUP1 PUSH2 0x2084 JUMPI PUSH1 0x40 MLOAD PUSH3 0x461BCD PUSH1 0xE5 SHL DUP2 MSTORE PUSH1 0x20 PUSH1 0x4 DUP3 ADD MSTORE PUSH1 0x0 PUSH1 0x24 DUP3 ADD MSTORE PUSH1 0x44 ADD PUSH2 0x3F6 JUMP JUMPDEST POP MLOAD ISZERO ISZERO SWAP6 SWAP5 POP POP POP POP POP JUMP JUMPDEST PUSH1 0x40 MLOAD DUP1 PUSH1 0x60 ADD PUSH1 0x40 MSTORE DUP1 PUSH2 0x20A4 PUSH2 0x2248 JUMP JUMPDEST DUP2 MSTORE PUSH1 0x20 ADD PUSH2 0x20B1 PUSH2 0x2270 JUMP JUMPDEST DUP2 MSTORE PUSH1 0x20 ADD PUSH1 0x0 DUP2 MSTORE POP SWAP1 JUMP JUMPDEST DUP3 PUSH1 0xA DUP2 ADD SWAP3 DUP3 ISZERO PUSH2 0x20F7 JUMPI SWAP2 PUSH1 0x20 MUL DUP3 ADD JUMPDEST DUP3 DUP2 GT ISZERO PUSH2 0x20F7 JUMPI DUP3 MLOAD DUP3 SWAP1 PUSH2 0x20E7 SWAP1 DUP3 PUSH2 0x2B61 JUMP JUMPDEST POP SWAP2 PUSH1 0x20 ADD SWAP2 SWAP1 PUSH1 0x1 ADD SWAP1 PUSH2 0x20D1 JUMP JUMPDEST POP PUSH2 0x2103 SWAP3 SWAP2 POP PUSH2 0x228F JUMP JUMPDEST POP SWAP1 JUMP JUMPDEST DUP3 PUSH1 0xA DUP2 ADD SWAP3 DUP3 ISZERO PUSH2 0x2135 JUMPI SWAP2 PUSH1 0x20 MUL DUP3 ADD JUMPDEST DUP3 DUP2 GT ISZERO PUSH2 0x2135 JUMPI DUP3 MLOAD DUP3 SSTORE SWAP2 PUSH1 0x20 ADD SWAP2 SWAP1 PUSH1 0x1 ADD SWAP1 PUSH2 0x211A JUMP JUMPDEST POP PUSH2 0x2103 SWAP3 SWAP2 POP PUSH2 0x22AC JUMP JUMPDEST DUP3 PUSH1 0x4 DUP2 ADD SWAP3 DUP3 ISZERO PUSH2 0x2135 JUMPI SWAP2 PUSH1 0x20 MUL DUP3 ADD JUMPDEST DUP3 DUP2 GT ISZERO PUSH2 0x2135 JUMPI DUP3 CALLDATALOAD DUP3 SSTORE SWAP2 PUSH1 0x20 ADD SWAP2 SWAP1 PUSH1 0x1 ADD SWAP1 PUSH2 0x2154 JUMP JUMPDEST POP DUP1 SLOAD PUSH2 0x217B SWAP1 PUSH2 0x28BD JUMP JUMPDEST PUSH1 0x0 DUP3 SSTORE DUP1 PUSH1 0x1F LT PUSH2 0x218B JUMPI POP POP JUMP JUMPDEST PUSH1 0x1F ADD PUSH1 0x20 SWAP1 DIV SWAP1 PUSH1 0x0 MSTORE PUSH1 0x20 PUSH1 0x0 KECCAK256 SWAP1 DUP2 ADD SWAP1 PUSH2 0x21A9 SWAP2 SWAP1 PUSH2 0x22AC JUMP JUMPDEST POP JUMP JUMPDEST PUSH1 0x40 MLOAD DUP1 PUSH1 0xE0 ADD PUSH1 0x40 MSTORE DUP1 PUSH1 0x0 DUP2 MSTORE PUSH1 0x20 ADD PUSH1 0x0 DUP2 MSTORE PUSH1 0x20 ADD PUSH2 0x21CD PUSH2 0x2270 JUMP JUMPDEST DUP2 MSTORE PUSH1 0x20 ADD PUSH1 0x0 DUP2 MSTORE PUSH1 0x20 ADD PUSH1 0x0 PUSH1 0x1 PUSH1 0x1 PUSH1 0xA0 SHL SUB AND DUP2 MSTORE PUSH1 0x20 ADD PUSH1 0x0 DUP2 MSTORE PUSH1 0x20 ADD PUSH2 0x21F8 PUSH2 0x22C1 JUMP JUMPDEST SWAP1 MSTORE SWAP1 JUMP JUMPDEST DUP3 PUSH1 0x4 DUP2 ADD SWAP3 DUP3 ISZERO PUSH2 0x2135 JUMPI SWAP2 PUSH1 0x20 MUL DUP3 ADD DUP3 DUP2 GT ISZERO PUSH2 0x2135 JUMPI DUP3 MLOAD DUP3 SSTORE SWAP2 PUSH1 0x20 ADD SWAP2 SWAP1 PUSH1 0x1 ADD SWAP1 PUSH2 0x211A JUMP JUMPDEST PUSH1 0x40 MLOAD DUP1 PUSH1 0x20 ADD PUSH1 0x40 MSTORE DUP1 PUSH1 0x1 SWAP1 PUSH1 0x20 DUP3 MUL DUP1 CALLDATASIZE DUP4 CALLDATACOPY POP SWAP2 SWAP3 SWAP2 POP POP JUMP JUMPDEST PUSH1 0x40 MLOAD DUP1 PUSH2 0x140 ADD PUSH1 0x40 MSTORE DUP1 PUSH1 0xA SWAP1 JUMPDEST PUSH1 0x60 DUP2 MSTORE PUSH1 0x20 ADD SWAP1 PUSH1 0x1 SWAP1 SUB SWAP1 DUP2 PUSH2 0x2258 JUMPI SWAP1 POP POP SWAP1 JUMP JUMPDEST PUSH1 0x40 MLOAD DUP1 PUSH2 0x140 ADD PUSH1 0x40 MSTORE DUP1 PUSH1 0xA SWAP1 PUSH1 0x20 DUP3 MUL DUP1 CALLDATASIZE DUP4 CALLDATACOPY POP SWAP2 SWAP3 SWAP2 POP POP JUMP JUMPDEST DUP1 DUP3 GT ISZERO PUSH2 0x2103 JUMPI PUSH1 0x0 PUSH2 0x22A3 DUP3 DUP3 PUSH2 0x216F JUMP JUMPDEST POP PUSH1 0x1 ADD PUSH2 0x228F JUMP JUMPDEST JUMPDEST DUP1 DUP3 GT ISZERO PUSH2 0x2103 JUMPI PUSH1 0x0 DUP2 SSTORE PUSH1 0x1 ADD PUSH2 0x22AD JUMP JUMPDEST PUSH1 0x40 MLOAD DUP1 PUSH1 0x80 ADD PUSH1 0x40 MSTORE DUP1 PUSH1 0x4 SWAP1 PUSH1 0x20 DUP3 MUL DUP1 CALLDATASIZE DUP4 CALLDATACOPY POP SWAP2 SWAP3 SWAP2 POP POP JUMP JUMPDEST PUSH1 0x0 DUP1 DUP4 PUSH1 0x1F DUP5 ADD SLT PUSH2 0x22F1 JUMPI PUSH1 0x0 DUP1 REVERT JUMPDEST POP DUP2 CALLDATALOAD PUSH8 0xFFFFFFFFFFFFFFFF DUP2 GT ISZERO PUSH2 0x2309 JUMPI PUSH1 0x0 DUP1 REVERT JUMPDEST PUSH1 0x20 DUP4 ADD SWAP2 POP DUP4 PUSH1 0x20 DUP3 DUP6 ADD ADD GT ISZERO PUSH2 0x2321 JUMPI PUSH1 0x0 DUP1 REVERT JUMPDEST SWAP3 POP SWAP3 SWAP1 POP JUMP JUMPDEST PUSH1 0x0 DUP1 PUSH1 0x20 DUP4 DUP6 SUB SLT ISZERO PUSH2 0x233B JUMPI PUSH1 0x0 DUP1 REVERT JUMPDEST DUP3 CALLDATALOAD PUSH8 0xFFFFFFFFFFFFFFFF DUP2 GT ISZERO PUSH2 0x2352 JUMPI PUSH1 0x0 DUP1 REVERT JUMPDEST PUSH2 0x235E DUP6 DUP3 DUP7 ADD PUSH2 0x22DF JUMP JUMPDEST SWAP1 SWAP7 SWAP1 SWAP6 POP SWAP4 POP POP POP POP JUMP JUMPDEST DUP1 CALLDATALOAD PUSH1 0x1 PUSH1 0x1 PUSH1 0xA0 SHL SUB DUP2 AND DUP2 EQ PUSH2 0x2381 JUMPI PUSH1 0x0 DUP1 REVERT JUMPDEST SWAP2 SWAP1 POP JUMP JUMPDEST DUP1 CALLDATALOAD PUSH1 0xFF DUP2 AND DUP2 EQ PUSH2 0x2381 JUMPI PUSH1 0x0 DUP1 REVERT JUMPDEST PUSH1 0x0 DUP1 PUSH1 0x0 DUP1 PUSH1 0x60 DUP6 DUP8 SUB SLT ISZERO PUSH2 0x23AD JUMPI PUSH1 0x0 DUP1 REVERT JUMPDEST PUSH2 0x23B6 DUP6 PUSH2 0x236A JUMP JUMPDEST SWAP4 POP PUSH1 0x20 DUP6 ADD CALLDATALOAD PUSH8 0xFFFFFFFFFFFFFFFF DUP2 GT ISZERO PUSH2 0x23D2 JUMPI PUSH1 0x0 DUP1 REVERT JUMPDEST PUSH2 0x23DE DUP8 DUP3 DUP9 ADD PUSH2 0x22DF JUMP JUMPDEST SWAP1 SWAP5 POP SWAP3 POP PUSH2 0x23F1 SWAP1 POP PUSH1 0x40 DUP7 ADD PUSH2 0x2386 JUMP JUMPDEST SWAP1 POP SWAP3 SWAP6 SWAP2 SWAP5 POP SWAP3 POP JUMP JUMPDEST PUSH1 0x0 DUP1 PUSH1 0x40 DUP4 DUP6 SUB SLT ISZERO PUSH2 0x240F JUMPI PUSH1 0x0 DUP1 REVERT JUMPDEST DUP3 CALLDATALOAD SWAP2 POP PUSH2 0x241F PUSH1 0x20 DUP5 ADD PUSH2 0x236A JUMP JUMPDEST SWAP1 POP SWAP3 POP SWAP3 SWAP1 POP JUMP JUMPDEST PUSH4 0x4E487B71 PUSH1 0xE0 SHL PUSH1 0x0 MSTORE PUSH1 0x41 PUSH1 0x4 MSTORE PUSH1 0x24 PUSH1 0x0 REVERT JUMPDEST PUSH1 0x0 DUP3 PUSH1 0x1F DUP4 ADD SLT PUSH2 0x244F JUMPI PUSH1 0x0 DUP1 REVERT JUMPDEST PUSH1 0x40 MLOAD PUSH1 0x40 DUP2 ADD DUP2 DUP2 LT PUSH8 0xFFFFFFFFFFFFFFFF DUP3 GT OR ISZERO PUSH2 0x2472 JUMPI PUSH2 0x2472 PUSH2 0x2428 JUMP JUMPDEST DUP1 PUSH1 0x40 MSTORE POP DUP1 PUSH1 0x40 DUP5 ADD DUP6 DUP2 GT ISZERO PUSH2 0x2489 JUMPI PUSH1 0x0 DUP1 REVERT JUMPDEST DUP5 JUMPDEST DUP2 DUP2 LT ISZERO PUSH2 0x24A3 JUMPI DUP1 CALLDATALOAD DUP4 MSTORE PUSH1 0x20 SWAP3 DUP4 ADD SWAP3 ADD PUSH2 0x248B JUMP JUMPDEST POP SWAP2 SWAP6 SWAP5 POP POP POP POP POP JUMP JUMPDEST PUSH1 0x0 DUP1 PUSH1 0x0 DUP1 PUSH1 0x0 DUP1 PUSH1 0xE0 DUP8 DUP10 SUB SLT ISZERO PUSH2 0x24C7 JUMPI PUSH1 0x0 DUP1 REVERT JUMPDEST PUSH2 0x24D0 DUP8 PUSH2 0x236A JUMP JUMPDEST SWAP6 POP PUSH1 0x20 DUP8 ADD CALLDATALOAD PUSH8 0xFFFFFFFFFFFFFFFF DUP2 GT ISZERO PUSH2 0x24EC JUMPI PUSH1 0x0 DUP1 REVERT JUMPDEST PUSH2 0x24F8 DUP10 DUP3 DUP11 ADD PUSH2 0x22DF JUMP JUMPDEST SWAP1 SWAP7 POP SWAP5 POP POP PUSH1 0x40 DUP8 ADD CALLDATALOAD SWAP3 POP PUSH2 0x2512 DUP9 PUSH1 0x60 DUP10 ADD PUSH2 0x243E JUMP JUMPDEST SWAP2 POP PUSH2 0x2521 DUP9 PUSH1 0xA0 DUP10 ADD PUSH2 0x243E JUMP JUMPDEST SWAP1 POP SWAP3 SWAP6 POP SWAP3 SWAP6 POP SWAP3 SWAP6 JUMP JUMPDEST DUP1 PUSH1 0x40 DUP2 ADD DUP4 LT ISZERO PUSH2 0x12BD JUMPI PUSH1 0x0 DUP1 REVERT JUMPDEST PUSH1 0x0 DUP1 PUSH1 0x0 DUP1 PUSH1 0x0 DUP1 PUSH1 0x0 DUP1 PUSH2 0x120 DUP10 DUP12 SUB SLT ISZERO PUSH2 0x255B JUMPI PUSH1 0x0 DUP1 REVERT JUMPDEST PUSH2 0x2564 DUP10 PUSH2 0x236A JUMP JUMPDEST SWAP8 POP PUSH2 0x2572 PUSH1 0x20 DUP11 ADD PUSH2 0x236A JUMP JUMPDEST SWAP7 POP PUSH1 0x40 DUP10 ADD CALLDATALOAD SWAP6 POP PUSH1 0x60 DUP10 ADD CALLDATALOAD SWAP5 POP PUSH1 0x80 DUP10 ADD CALLDATALOAD PUSH8 0xFFFFFFFFFFFFFFFF DUP2 GT ISZERO PUSH2 0x259C JUMPI PUSH1 0x0 DUP1 REVERT JUMPDEST PUSH2 0x25A8 DUP12 DUP3 DUP13 ADD PUSH2 0x22DF JUMP JUMPDEST SWAP1 SWAP6 POP SWAP4 POP PUSH2 0x25BC SWAP1 POP DUP11 PUSH1 0xA0 DUP12 ADD PUSH2 0x252D JUMP JUMPDEST SWAP2 POP PUSH2 0x25CB DUP11 PUSH1 0xE0 DUP12 ADD PUSH2 0x252D JUMP JUMPDEST SWAP1 POP SWAP3 SWAP6 SWAP9 POP SWAP3 SWAP6 SWAP9 SWAP1 SWAP4 SWAP7 POP JUMP JUMPDEST PUSH1 0x0 DUP3 PUSH1 0x1F DUP4 ADD SLT PUSH2 0x25EB JUMPI PUSH1 0x0 DUP1 REVERT JUMPDEST DUP2 CALLDATALOAD PUSH8 0xFFFFFFFFFFFFFFFF DUP1 DUP3 GT ISZERO PUSH2 0x2606 JUMPI PUSH2 0x2606 PUSH2 0x2428 JUMP JUMPDEST PUSH1 0x40 MLOAD PUSH1 0x1F DUP4 ADD PUSH1 0x1F NOT SWAP1 DUP2 AND PUSH1 0x3F ADD AND DUP2 ADD SWAP1 DUP3 DUP3 GT DUP2 DUP4 LT OR ISZERO PUSH2 0x262E JUMPI PUSH2 0x262E PUSH2 0x2428 JUMP JUMPDEST DUP2 PUSH1 0x40 MSTORE DUP4 DUP2 MSTORE DUP7 PUSH1 0x20 DUP6 DUP9 ADD ADD GT ISZERO PUSH2 0x2647 JUMPI PUSH1 0x0 DUP1 REVERT JUMPDEST DUP4 PUSH1 0x20 DUP8 ADD PUSH1 0x20 DUP4 ADD CALLDATACOPY PUSH1 0x0 PUSH1 0x20 DUP6 DUP4 ADD ADD MSTORE DUP1 SWAP5 POP POP POP POP POP SWAP3 SWAP2 POP POP JUMP JUMPDEST PUSH1 0x0 DUP1 PUSH1 0x40 DUP4 DUP6 SUB SLT ISZERO PUSH2 0x267A JUMPI PUSH1 0x0 DUP1 REVERT JUMPDEST DUP3 CALLDATALOAD PUSH8 0xFFFFFFFFFFFFFFFF DUP1 DUP3 GT ISZERO PUSH2 0x2692 JUMPI PUSH1 0x0 DUP1 REVERT JUMPDEST PUSH2 0x269E DUP7 DUP4 DUP8 ADD PUSH2 0x25DA JUMP JUMPDEST SWAP4 POP PUSH1 0x20 DUP6 ADD CALLDATALOAD SWAP2 POP DUP1 DUP3 GT ISZERO PUSH2 0x26B4 JUMPI PUSH1 0x0 DUP1 REVERT JUMPDEST POP PUSH2 0x26C1 DUP6 DUP3 DUP7 ADD PUSH2 0x25DA JUMP JUMPDEST SWAP2 POP POP SWAP3 POP SWAP3 SWAP1 POP JUMP JUMPDEST PUSH1 0x0 DUP1 PUSH1 0x0 PUSH1 0x60 DUP5 DUP7 SUB SLT ISZERO PUSH2 0x26E0 JUMPI PUSH1 0x0 DUP1 REVERT JUMPDEST DUP4 CALLDATALOAD PUSH8 0xFFFFFFFFFFFFFFFF DUP1 DUP3 GT ISZERO PUSH2 0x26F8 JUMPI PUSH1 0x0 DUP1 REVERT JUMPDEST PUSH2 0x2704 DUP8 DUP4 DUP9 ADD PUSH2 0x25DA JUMP JUMPDEST SWAP5 POP PUSH1 0x20 DUP7 ADD CALLDATALOAD SWAP2 POP DUP1 DUP3 GT ISZERO PUSH2 0x271A JUMPI PUSH1 0x0 DUP1 REVERT JUMPDEST PUSH2 0x2726 DUP8 DUP4 DUP9 ADD PUSH2 0x25DA JUMP JUMPDEST SWAP4 POP PUSH1 0x40 DUP7 ADD CALLDATALOAD SWAP2 POP DUP1 DUP3 GT ISZERO PUSH2 0x273C JUMPI PUSH1 0x0 DUP1 REVERT JUMPDEST POP PUSH2 0x2749 DUP7 DUP3 DUP8 ADD PUSH2 0x25DA JUMP JUMPDEST SWAP2 POP POP SWAP3 POP SWAP3 POP SWAP3 JUMP JUMPDEST PUSH1 0x0 PUSH1 0x80 DUP3 DUP5 SUB SLT ISZERO PUSH2 0x2765 JUMPI PUSH1 0x0 DUP1 REVERT JUMPDEST DUP3 PUSH1 0x80 DUP4 ADD GT ISZERO PUSH2 0x2775 JUMPI PUSH1 0x0 DUP1 REVERT JUMPDEST POP SWAP2 SWAP1 POP JUMP JUMPDEST PUSH1 0x0 PUSH1 0x20 DUP3 DUP5 SUB SLT ISZERO PUSH2 0x278D JUMPI PUSH1 0x0 DUP1 REVERT JUMPDEST POP CALLDATALOAD SWAP2 SWAP1 POP JUMP JUMPDEST PUSH1 0x0 DUP1 PUSH1 0x0 DUP1 PUSH1 0xC0 DUP6 DUP8 SUB SLT ISZERO PUSH2 0x27AA JUMPI PUSH1 0x0 DUP1 REVERT JUMPDEST PUSH2 0x27B3 DUP6 PUSH2 0x236A JUMP JUMPDEST SWAP4 POP PUSH2 0x27C1 PUSH1 0x20 DUP7 ADD PUSH2 0x2386 JUMP JUMPDEST SWAP3 POP PUSH2 0x27D0 DUP7 PUSH1 0x40 DUP8 ADD PUSH2 0x252D JUMP JUMPDEST SWAP2 POP PUSH2 0x23F1 DUP7 PUSH1 0x80 DUP8 ADD PUSH2 0x252D JUMP JUMPDEST PUSH1 0x0 PUSH1 0x20 DUP3 DUP5 SUB SLT ISZERO PUSH2 0x27F1 JUMPI PUSH1 0x0 DUP1 REVERT JUMPDEST PUSH2 0x27FA DUP3 PUSH2 0x236A JUMP JUMPDEST SWAP4 SWAP3 POP POP POP JUMP JUMPDEST PUSH1 0x0 JUMPDEST DUP4 DUP2 LT ISZERO PUSH2 0x281C JUMPI DUP2 DUP2 ADD MLOAD DUP4 DUP3 ADD MSTORE PUSH1 0x20 ADD PUSH2 0x2804 JUMP JUMPDEST DUP4 DUP2 GT ISZERO PUSH2 0x282B JUMPI PUSH1 0x0 DUP5 DUP5 ADD MSTORE JUMPDEST POP POP POP POP JUMP JUMPDEST PUSH1 0x0 DUP2 MLOAD DUP1 DUP5 MSTORE PUSH2 0x2849 DUP2 PUSH1 0x20 DUP7 ADD PUSH1 0x20 DUP7 ADD PUSH2 0x2801 JUMP JUMPDEST PUSH1 0x1F ADD PUSH1 0x1F NOT AND SWAP3 SWAP1 SWAP3 ADD PUSH1 0x20 ADD SWAP3 SWAP2 POP POP JUMP JUMPDEST PUSH1 0x40 DUP2 MSTORE PUSH1 0x0 PUSH2 0x2870 PUSH1 0x40 DUP4 ADD DUP6 PUSH2 0x2831 JUMP JUMPDEST SWAP1 POP PUSH1 0x1 PUSH1 0x1 PUSH1 0xA0 SHL SUB DUP4 AND PUSH1 0x20 DUP4 ADD MSTORE SWAP4 SWAP3 POP POP POP JUMP JUMPDEST PUSH4 0x4E487B71 PUSH1 0xE0 SHL PUSH1 0x0 MSTORE PUSH1 0x11 PUSH1 0x4 MSTORE PUSH1 0x24 PUSH1 0x0 REVERT JUMPDEST PUSH1 0x0 DUP2 PUSH1 0x0 NOT DIV DUP4 GT DUP3 ISZERO ISZERO AND ISZERO PUSH2 0x28B8 JUMPI PUSH2 0x28B8 PUSH2 0x2888 JUMP JUMPDEST POP MUL SWAP1 JUMP JUMPDEST PUSH1 0x1 DUP2 DUP2 SHR SWAP1 DUP3 AND DUP1 PUSH2 0x28D1 JUMPI PUSH1 0x7F DUP3 AND SWAP2 POP JUMPDEST PUSH1 0x20 DUP3 LT DUP2 SUB PUSH2 0x2775 JUMPI PUSH4 0x4E487B71 PUSH1 0xE0 SHL PUSH1 0x0 MSTORE PUSH1 0x22 PUSH1 0x4 MSTORE PUSH1 0x24 PUSH1 0x0 REVERT JUMPDEST PUSH1 0x1F DUP3 GT ISZERO PUSH2 0x293B JUMPI PUSH1 0x0 DUP2 DUP2 MSTORE PUSH1 0x20 DUP2 KECCAK256 PUSH1 0x1F DUP6 ADD PUSH1 0x5 SHR DUP2 ADD PUSH1 0x20 DUP7 LT ISZERO PUSH2 0x2918 JUMPI POP DUP1 JUMPDEST PUSH1 0x1F DUP6 ADD PUSH1 0x5 SHR DUP3 ADD SWAP2 POP JUMPDEST DUP2 DUP2 LT ISZERO PUSH2 0x2937 JUMPI DUP3 DUP2 SSTORE PUSH1 0x1 ADD PUSH2 0x2924 JUMP JUMPDEST POP POP POP JUMPDEST POP POP POP JUMP JUMPDEST PUSH8 0xFFFFFFFFFFFFFFFF DUP4 GT ISZERO PUSH2 0x2958 JUMPI PUSH2 0x2958 PUSH2 0x2428 JUMP JUMPDEST PUSH2 0x296C DUP4 PUSH2 0x2966 DUP4 SLOAD PUSH2 0x28BD JUMP JUMPDEST DUP4 PUSH2 0x28F1 JUMP JUMPDEST PUSH1 0x0 PUSH1 0x1F DUP5 GT PUSH1 0x1 DUP2 EQ PUSH2 0x29A0 JUMPI PUSH1 0x0 DUP6 ISZERO PUSH2 0x2988 JUMPI POP DUP4 DUP3 ADD CALLDATALOAD JUMPDEST PUSH1 0x0 NOT PUSH1 0x3 DUP8 SWAP1 SHL SHR NOT AND PUSH1 0x1 DUP7 SWAP1 SHL OR DUP4 SSTORE PUSH2 0x29FA JUMP JUMPDEST PUSH1 0x0 DUP4 DUP2 MSTORE PUSH1 0x20 SWAP1 KECCAK256 PUSH1 0x1F NOT DUP7 AND SWAP1 DUP4 JUMPDEST DUP3 DUP2 LT ISZERO PUSH2 0x29D1 JUMPI DUP7 DUP6 ADD CALLDATALOAD DUP3 SSTORE PUSH1 0x20 SWAP5 DUP6 ADD SWAP5 PUSH1 0x1 SWAP1 SWAP3 ADD SWAP2 ADD PUSH2 0x29B1 JUMP JUMPDEST POP DUP7 DUP3 LT ISZERO PUSH2 0x29EE JUMPI PUSH1 0x0 NOT PUSH1 0xF8 DUP9 PUSH1 0x3 SHL AND SHR NOT DUP5 DUP8 ADD CALLDATALOAD AND DUP2 SSTORE JUMPDEST POP POP PUSH1 0x1 DUP6 PUSH1 0x1 SHL ADD DUP4 SSTORE JUMPDEST POP POP POP POP POP JUMP JUMPDEST PUSH1 0x1 PUSH1 0x1 PUSH1 0xA0 SHL SUB DUP7 AND DUP2 MSTORE DUP5 PUSH1 0x20 DUP3 ADD MSTORE PUSH1 0x80 PUSH1 0x40 DUP3 ADD MSTORE DUP3 PUSH1 0x80 DUP3 ADD MSTORE DUP3 DUP5 PUSH1 0xA0 DUP4 ADD CALLDATACOPY PUSH1 0x0 PUSH1 0xA0 DUP5 DUP4 ADD ADD MSTORE PUSH1 0x0 PUSH1 0xA0 PUSH1 0x1F NOT PUSH1 0x1F DUP7 ADD AND DUP4 ADD ADD SWAP1 POP PUSH1 0xFF DUP4 AND PUSH1 0x60 DUP4 ADD MSTORE SWAP7 SWAP6 POP POP POP POP POP POP JUMP JUMPDEST PUSH1 0x0 PUSH1 0x1 DUP3 ADD PUSH2 0x2A66 JUMPI PUSH2 0x2A66 PUSH2 0x2888 JUMP JUMPDEST POP PUSH1 0x1 ADD SWAP1 JUMP JUMPDEST PUSH1 0x0 DUP3 DUP3 LT ISZERO PUSH2 0x2A7F JUMPI PUSH2 0x2A7F PUSH2 0x2888 JUMP JUMPDEST POP SUB SWAP1 JUMP JUMPDEST PUSH4 0x4E487B71 PUSH1 0xE0 SHL PUSH1 0x0 MSTORE PUSH1 0x32 PUSH1 0x4 MSTORE PUSH1 0x24 PUSH1 0x0 REVERT JUMPDEST PUSH1 0x0 DUP3 NOT DUP3 GT ISZERO PUSH2 0x2AAD JUMPI PUSH2 0x2AAD PUSH2 0x2888 JUMP JUMPDEST POP ADD SWAP1 JUMP JUMPDEST DUP3 DUP2 MSTORE PUSH1 0x0 PUSH1 0x20 PUSH1 0x40 DUP2 DUP5 ADD MSTORE PUSH1 0x0 DUP5 SLOAD PUSH2 0x2ACC DUP2 PUSH2 0x28BD JUMP JUMPDEST DUP1 PUSH1 0x40 DUP8 ADD MSTORE PUSH1 0x60 PUSH1 0x1 DUP1 DUP5 AND PUSH1 0x0 DUP2 EQ PUSH2 0x2AEE JUMPI PUSH1 0x1 DUP2 EQ PUSH2 0x2B08 JUMPI PUSH2 0x2B36 JUMP JUMPDEST PUSH1 0xFF NOT DUP6 AND DUP10 DUP5 ADD MSTORE DUP4 ISZERO ISZERO PUSH1 0x5 SHL DUP10 ADD DUP4 ADD SWAP6 POP PUSH2 0x2B36 JUMP JUMPDEST DUP10 PUSH1 0x0 MSTORE DUP7 PUSH1 0x0 KECCAK256 PUSH1 0x0 JUMPDEST DUP6 DUP2 LT ISZERO PUSH2 0x2B2E JUMPI DUP2 SLOAD DUP12 DUP3 ADD DUP7 ADD MSTORE SWAP1 DUP4 ADD SWAP1 DUP9 ADD PUSH2 0x2B13 JUMP JUMPDEST DUP11 ADD DUP5 ADD SWAP7 POP POP JUMPDEST POP SWAP4 SWAP10 SWAP9 POP POP POP POP POP POP POP POP POP JUMP JUMPDEST PUSH1 0x0 DUP3 MLOAD PUSH2 0x2B57 DUP2 DUP5 PUSH1 0x20 DUP8 ADD PUSH2 0x2801 JUMP JUMPDEST SWAP2 SWAP1 SWAP2 ADD SWAP3 SWAP2 POP POP JUMP JUMPDEST DUP2 MLOAD PUSH8 0xFFFFFFFFFFFFFFFF DUP2 GT ISZERO PUSH2 0x2B7B JUMPI PUSH2 0x2B7B PUSH2 0x2428 JUMP JUMPDEST PUSH2 0x2B8F DUP2 PUSH2 0x2B89 DUP5 SLOAD PUSH2 0x28BD JUMP JUMPDEST DUP5 PUSH2 0x28F1 JUMP JUMPDEST PUSH1 0x20 DUP1 PUSH1 0x1F DUP4 GT PUSH1 0x1 DUP2 EQ PUSH2 0x2BC4 JUMPI PUSH1 0x0 DUP5 ISZERO PUSH2 0x2BAC JUMPI POP DUP6 DUP4 ADD MLOAD JUMPDEST PUSH1 0x0 NOT PUSH1 0x3 DUP7 SWAP1 SHL SHR NOT AND PUSH1 0x1 DUP6 SWAP1 SHL OR DUP6 SSTORE PUSH2 0x2937 JUMP JUMPDEST PUSH1 0x0 DUP6 DUP2 MSTORE PUSH1 0x20 DUP2 KECCAK256 PUSH1 0x1F NOT DUP7 AND SWAP2 JUMPDEST DUP3 DUP2 LT ISZERO PUSH2 0x2BF3 JUMPI DUP9 DUP7 ADD MLOAD DUP3 SSTORE SWAP5 DUP5 ADD SWAP5 PUSH1 0x1 SWAP1 SWAP2 ADD SWAP1 DUP5 ADD PUSH2 0x2BD4 JUMP JUMPDEST POP DUP6 DUP3 LT ISZERO PUSH2 0x2C11 JUMPI DUP8 DUP6 ADD MLOAD PUSH1 0x0 NOT PUSH1 0x3 DUP9 SWAP1 SHL PUSH1 0xF8 AND SHR NOT AND DUP2 SSTORE JUMPDEST POP POP POP POP POP PUSH1 0x1 SWAP1 DUP2 SHL ADD SWAP1 SSTORE POP JUMP JUMPDEST PUSH1 0x40 DUP2 MSTORE PUSH1 0x0 PUSH2 0x2C34 PUSH1 0x40 DUP4 ADD DUP6 PUSH2 0x2831 JUMP JUMPDEST DUP3 DUP2 SUB PUSH1 0x20 DUP5 ADD MSTORE PUSH2 0x2C46 DUP2 DUP6 PUSH2 0x2831 JUMP JUMPDEST SWAP6 SWAP5 POP POP POP POP POP JUMP INVALID LOG2 PUSH5 0x6970667358 0x22 SLT KECCAK256 NUMBER BASEFEE 0xE7 GT ADDMOD SGT 0xDC PUSH9 0x193998D62D7844744F 0xF6 PUSH26 0x4105D07CF0395C84FA94197AA864736F6C634300080F00330000 "},"methodIdentifiers":{"authenticateHEI(address,uint8,uint256[2],uint256[2])":"d00e59b8","clusterCount()":"702f45f3","commitHEIData(address,address,uint256,uint256,string,uint256[2],uint256[2])":"7c93ef88","display(address)":"eb39113f","equals(string,string)":"88d8da5f","getOracleHead(uint256)":"be1ddddd","heiID()":"bd360bac","initiateSurvey(uint256,address)":"5c599e4f","maxClusterSize()":"b2c8c652","metricsNumber()":"6da3fe52","newDataSubmission(address,string,uint8)":"32e8e463","registerHEI(string,string,string)":"b109fd89","registerOracle()":"339d2590","setIPNSLink(string)":"314b9b37","submitPubKey(uint256[4])":"bd711096","submitSurveyResult(address,string,uint256,uint256[2],uint256[2])":"766aad87","withdrawReward()":"c885bc58"}}}}}