{"contracts/Oracles.sol":{"Oracles":{"abi":[{"inputs":[],"stateMutability":"nonpayable","type":"constructor"},{"anonymous":false,"inputs":[{"indexed":false,"internalType":"string","name":"validationPath","type":"string"},{"indexed":false,"internalType":"string","name":"heiName","type":"string"}],"name":"AuthenticateHEI","type":"event"},{"anonymous":false,"inputs":[{"indexed":false,"internalType":"string","name":"heiResult","type":"string"}],"name":"AuthenticationMessage","type":"event"},{"anonymous":false,"inputs":[{"indexed":false,"internalType":"uint256","name":"clusterID","type":"uint256"},{"indexed":false,"internalType":"address","name":"head","type":"address"}],"name":"NewCluster","type":"event"},{"anonymous":false,"inputs":[{"indexed":false,"internalType":"uint256","name":"cluster","type":"uint256"},{"indexed":false,"internalType":"string","name":"hei","type":"string"}],"name":"SurveyTask","type":"event"},{"anonymous":false,"inputs":[{"indexed":false,"internalType":"address","name":"hei","type":"address"},{"indexed":false,"internalType":"uint256","name":"cluster","type":"uint256"}],"name":"gatherMetrics","type":"event"},{"anonymous":false,"inputs":[{"indexed":false,"internalType":"address","name":"sender","type":"address"},{"indexed":false,"internalType":"uint256","name":"cluster","type":"uint256"},{"indexed":false,"internalType":"string","name":"IPFS","type":"string"},{"indexed":false,"internalType":"uint8","name":"_metricOrder","type":"uint8"}],"name":"newData","type":"event"},{"anonymous":false,"inputs":[{"indexed":false,"internalType":"string","name":"peerIDNotification","type":"string"}],"name":"shareAccess","type":"event"},{"inputs":[{"internalType":"address","name":"_heiID","type":"address"},{"internalType":"uint256","name":"_result","type":"uint256"},{"internalType":"uint256[2]","name":"_resultBn","type":"uint256[2]"},{"internalType":"uint256[2]","name":"_thresSig","type":"uint256[2]"}],"name":"authenticateHEI","outputs":[],"stateMutability":"nonpayable","type":"function"},{"inputs":[],"name":"clusterCount","outputs":[{"internalType":"uint256","name":"","type":"uint256"}],"stateMutability":"view","type":"function"},{"inputs":[{"internalType":"address","name":"_dataOwner","type":"address"},{"internalType":"address","name":"_heID","type":"address"},{"internalType":"uint256","name":"_metricOrder","type":"uint256"},{"internalType":"uint256","name":"_metricScore","type":"uint256"},{"internalType":"string","name":"_metricData","type":"string"},{"internalType":"uint256[2]","name":"_message","type":"uint256[2]"},{"internalType":"uint256[2]","name":"_thresSig","type":"uint256[2]"}],"name":"commitHEIData","outputs":[],"stateMutability":"nonpayable","type":"function"},{"inputs":[{"internalType":"address","name":"_heiID","type":"address"}],"name":"display","outputs":[{"internalType":"string","name":"","type":"string"},{"internalType":"address","name":"","type":"address"}],"stateMutability":"view","type":"function"},{"inputs":[{"internalType":"string","name":"a","type":"string"},{"internalType":"string","name":"b","type":"string"}],"name":"equals","outputs":[{"internalType":"bool","name":"","type":"bool"}],"stateMutability":"pure","type":"function"},{"inputs":[{"internalType":"uint256","name":"_clusterCount","type":"uint256"}],"name":"getOracleHead","outputs":[{"internalType":"address","name":"","type":"address"},{"internalType":"address","name":"","type":"address"}],"stateMutability":"view","type":"function"},{"inputs":[],"name":"heiID","outputs":[{"internalType":"uint256","name":"","type":"uint256"}],"stateMutability":"view","type":"function"},{"inputs":[{"internalType":"uint256","name":"_clusterID","type":"uint256"},{"internalType":"address","name":"_HEID","type":"address"}],"name":"initiateSurvey","outputs":[],"stateMutability":"nonpayable","type":"function"},{"inputs":[],"name":"maxClusterSize","outputs":[{"internalType":"uint16","name":"","type":"uint16"}],"stateMutability":"view","type":"function"},{"inputs":[{"internalType":"address","name":"_heiID","type":"address"},{"internalType":"string","name":"_IPFSLink","type":"string"},{"internalType":"uint8","name":"_metricOrder","type":"uint8"}],"name":"newDataSubmission","outputs":[],"stateMutability":"nonpayable","type":"function"},{"inputs":[{"internalType":"string","name":"_HEIName","type":"string"},{"internalType":"string","name":"_validationPath","type":"string"},{"internalType":"string","name":"_IPNS","type":"string"}],"name":"registerHEI","outputs":[],"stateMutability":"nonpayable","type":"function"},{"inputs":[],"name":"registerOracle","outputs":[],"stateMutability":"payable","type":"function"},{"inputs":[{"internalType":"string","name":"_IPNSLink","type":"string"}],"name":"setIPNSLink","outputs":[],"stateMutability":"payable","type":"function"},{"inputs":[{"internalType":"uint256[4]","name":"_pubkey","type":"uint256[4]"}],"name":"submitPubKey","outputs":[],"stateMutability":"nonpayable","type":"function"},{"inputs":[{"internalType":"address","name":"_heID","type":"address"},{"internalType":"string","name":"_surveyResults","type":"string"},{"internalType":"uint256","name":"_aggregatedValues","type":"uint256"},{"internalType":"uint256[2]","name":"signature","type":"uint256[2]"},{"internalType":"uint256[2]","name":"message","type":"uint256[2]"}],"name":"submitSurveyResult","outputs":[],"stateMutability":"nonpayable","type":"function"},{"inputs":[],"name":"withdrawReward","outputs":[],"stateMutability":"nonpayable","type":"function"}],"evm":{"bytecode":{"linkReferences":{},"object":"608060405267016345785d8a00006000908155662386f26fc1000060019081556002556003556004805463ffffffff1916620a000417905562093a8060055534801561004a57600080fd5b50612c418061005a6000396000f3fe6080604052600436106100f35760003560e01c806388d8da5f1161008a578063bd71109611610059578063bd71109614610278578063be1ddddd14610298578063c885bc5814610311578063eb39113f1461032657600080fd5b806388d8da5f146101de578063b109fd891461020e578063b2c8c6521461022e578063bd360bac1461026257600080fd5b80635c599e4f116100c65780635c599e4f14610155578063702f45f314610175578063766aad871461019e5780637c93ef88146101be57600080fd5b8063314b9b37146100f857806332e8e4631461010d578063339d25901461012d578063342961c014610135575b600080fd5b61010b6101063660046122ea565b610354565b005b34801561011957600080fd5b5061010b610128366004612348565b610538565b61010b610631565b34801561014157600080fd5b5061010b6101503660046123c5565b610835565b34801561016157600080fd5b5061010b610170366004612414565b610cd1565b34801561018157600080fd5b5061018b60035481565b6040519081526020015b60405180910390f35b3480156101aa57600080fd5b5061010b6101b93660046124c6565b610fc7565b3480156101ca57600080fd5b5061010b6101d9366004612545565b611300565b3480156101ea57600080fd5b506101fe6101f936600461266e565b6116ab565b6040519015158152602001610195565b34801561021a57600080fd5b5061010b6102293660046126d2565b611716565b34801561023a57600080fd5b5060045461024f9062010000900461ffff1681565b60405161ffff9091168152602001610195565b34801561026e57600080fd5b5061018b60025481565b34801561028457600080fd5b5061010b61029336600461275a565b6118f7565b3480156102a457600080fd5b506102f16102b3366004612782565b336000908152600b60209081526040808320600201548352600a909152808220600d90810154938352912001546001600160a01b0391821692911690565b604080516001600160a01b03938416815292909116602083015201610195565b34801561031d57600080fd5b5061010b611a7f565b34801561033257600080fd5b5061034661034136600461279b565b611c99565b604051610195929190612819565b60005460059061036590829061285a565b34146103cb5760405162461bcd60e51b815260206004820152602a60248201527f526567697374726174696f6e2064656e6965642c20696e76616c6964207374616044820152696b6520616d6f756e742160b01b60648201526084015b60405180910390fd5b336000908152600b602052604081206002015490036104455760405162461bcd60e51b815260206004820152603060248201527f4f7065726174696f6e2064656e6965642c2073686f756c64206265206120726560448201526f6769737465726564206f7261636c652160801b60648201526084016103c2565b6007546001600160a01b03161561049e5760405162461bcd60e51b815260206004820152601a60248201527f4d61696e7461696e657220616c7265616479206578697374732100000000000060448201526064016103c2565b60066104ab8385836128fc565b506007805473ffffffffffffffffffffffffffffffffffffffff1916331790556040517f3744d400f450a34d91a709d1c2475b8944904128368bcad7fd6e9ed6f5f83f9b9061052b906020808252601a908201527f5368617265207065657249442077697468206f7261636c657321000000000000604082015260600190565b60405180910390a1505050565b6001600160a01b0384166000908152600860205260409020600201541580159061056f5750336000908152600c6020526040902054155b6105bb5760405162461bcd60e51b815260206004820152601060248201527f496e76616c69642072657175657374210000000000000000000000000000000060448201526064016103c2565b6001600160a01b03841660008181526008602081815260408084206002015433808652600c845282862082905595909452919052517fbeec8e4230f94b9f3103278cb151ecb9bd0865f57a48e38a79a84a457637a1ca926106239290918790879087906129bd565b60405180910390a150505050565b60005460019061064290829061285a565b34146106a35760405162461bcd60e51b815260206004820152602a60248201527f526567697374726174696f6e2064656e6965642c20696e76616c6964207374616044820152696b6520616d6f756e742160b01b60648201526084016103c2565b336000908152600b6020526040902060020154156107185760405162461bcd60e51b815260206004820152602c60248201527f526567697374726174696f6e2064656e6965642c2063616e206f6e6c7920726560448201526b676973746572206f6e63652160a01b60648201526084016103c2565b61073c60405180606001604052806000815260200160008152602001600081525090565b600060208281018290526004546003548352600a9091526040909120600101546201000090910461ffff161115806107745750600354155b156107875761078233611d58565b6107ad565b6003546000908152600a602052604081206001018054916107a783612a10565b91905055505b60035460408083018290526000918252600a60205290206001908101546107d49190612a29565b81526003546000908152600a60208190526040909120600c81015483519092600290920191811061080757610807612a40565b0155336000908152600b60209081526040918290208351815590830151600182015591015160029091015550565b336000908152600b602052604081206002015490036108af5760405162461bcd60e51b815260206004820152603060248201527f4f7065726174696f6e2064656e6965642c2073686f756c64206265206120726560448201526f6769737465726564206f7261636c652160801b60648201526084016103c2565b6001600160a01b038085166000818152600860205260409020549091161480156108f557506001600160a01b03841660009081526008602052604090206003015460ff16155b801561092b5750600454336000908152600b60209081526040808320600201548352600a90915290206001015461ffff90911611155b61099d5760405162461bcd60e51b815260206004820152602b60248201527f54686520737065636966696564204845492063616e206e6f742062652061757460448201527f68656e746963617465642100000000000000000000000000000000000000000060648201526084016103c2565b336000908152600b60209081526040808320600201548352600a9091529020600e01544210610a285760405162461bcd60e51b815260206004820152603160248201527f4861766520746f207265667265736820746865207075626c6963206b6579206260448201527065666f72652070726f63656564696e672160781b60648201526084016103c2565b604080518082018252610abf91839060029083908390808284376000920182905250338152600b60209081526040808320600201548352600a90915290819020815160808101928390529350600f01915060049082845b815481526020019060010190808311610a7f5750506040805180820182529350889250600291508390839080828437600092019190915250611e6d915050565b610b315760405162461bcd60e51b815260206004820152602a60248201527f5468652070726f7669646564207369676e61747572652064657461696c73206160448201527f726520696e76616c69640000000000000000000000000000000000000000000060648201526084016103c2565b8215610bca576001600160a01b03841660009081526008602052604090819020600301805460ff19166001179055517f37bac6bc273ae63a2ffe6ff8f458e41e3101b281ec4b7c1a52b1ee5dfc0dba2490610bbd9060208082526016908201527f5468652048454920697320726567697374657265642100000000000000000000604082015260600190565b60405180910390a1610c98565b6001600160a01b0384166000908152600860205260408120805473ffffffffffffffffffffffffffffffffffffffff1916815590610c0b6001830182612053565b60006002830181905560038301805460ff19169055610c2e906004840190612053565b50507f37bac6bc273ae63a2ffe6ff8f458e41e3101b281ec4b7c1a52b1ee5dfc0dba24604051610c8f906020808252601a908201527f54686520484549206973206e6f74207265676973746572656421000000000000604082015260600190565b60405180910390a15b336000908152600b60209081526040808320600201548352600a9091528120600c01805491610cc683612a10565b919050555050505050565b336000908152600b60205260408120600201549003610d4b5760405162461bcd60e51b815260206004820152603060248201527f4f7065726174696f6e2064656e6965642c2073686f756c64206265206120726560448201526f6769737465726564206f7261636c652160801b60648201526084016103c2565b600454336000908152600b60209081526040808320600201548352600a90915290206001015461ffff9091161115610dc55760405162461bcd60e51b815260206004820152601360248201527f436c757374657220697320696e76616c6964210000000000000000000000000060448201526064016103c2565b6001600160a01b038116600090815260086020526040902060020154158015610dff5750336000908152600b602052604090206002015482145b8015610e2657506001600160a01b03811660009081526008602052604090206003015460ff165b610e985760405162461bcd60e51b815260206004820152602760248201527f496e76616c69642073757276657920726571756573742c20726576697365207260448201527f657175657374210000000000000000000000000000000000000000000000000060648201526084016103c2565b336000908152600b60209081526040808320600201548352600a9091529020600e01544210610f235760405162461bcd60e51b815260206004820152603160248201527f4861766520746f207265667265736820746865207075626c6963206b6579206260448201527065666f72652070726f63656564696e672160781b60648201526084016103c2565b6001600160a01b03808216600090815260086020908152604080832060029081018790556007549094168352600b90915281206001018054909190610f69908490612a56565b90915550506001600160a01b0381166000908152600860205260409081902090517f3fcabd3ea914f0c2ff2f383498584a0305ea5946c22dff1aef9cc806bcba4c0391610fbb91859160010190612a6e565b60405180910390a15050565b336000908152600b602052604081206002015490036110415760405162461bcd60e51b815260206004820152603060248201527f4f7065726174696f6e2064656e6965642c2073686f756c64206265206120726560448201526f6769737465726564206f7261636c652160801b60648201526084016103c2565b336000908152600b60209081526040808320600201548352600a909152908190208151608081019283905261109a928592600f019060049082845b81548152602001906001019080831161107c57505050505083611e6d565b6110e65760405162461bcd60e51b815260206004820152601c60248201527f496e76616c6964207468726573686f6c64207369676e6174757265210000000060448201526064016103c2565b336000908152600b602090815260408083206002908101546001600160a01b038b1685526008909352922090910154146111625760405162461bcd60e51b815260206004820152601560248201527f496e76616c6964204845492073656c656374656421000000000000000000000060448201526064016103c2565b61116a612090565b6020808201516001600160a01b038916600052600990915284906111906001600a612a29565b600a81106111a0576111a0612a40565b60200201818152505085858080601f016020809104026020016040519081016040528093929190818152602001838380828437600092018290525085516001600160a01b038d1690915260096020529250611201915060019050600a612a29565b600a811061121157611211612a40565b602090810291909101919091526001600160a01b03881660009081526009909152604090208151829190611248908290600a6120bd565b50602082015161125e90600a8084019190612106565b50604091820151601490910155336000908152600b60209081528282206002908101548352600a909152918120600c01805490919061129e908490612a56565b90915550506001600160a01b038716600081815260086020908152604091829020600201548251938452908301527f44df815358eeaa6e5fbb3ac2dd05fd650e171ea29051666a7afdd28c811284f1910160405180910390a150505050505050565b336000908152600b6020526040812060020154900361137a5760405162461bcd60e51b815260206004820152603060248201527f4f7065726174696f6e2064656e6965642c2073686f756c64206265206120726560448201526f6769737465726564206f7261636c652160801b60648201526084016103c2565b6001600160a01b03871660009081526008602052604081206002015490036113e45760405162461bcd60e51b815260206004820152601860248201527f484549206973206e6f74206265696e672072616e6b656421000000000000000060448201526064016103c2565b336000908152600b60209081526040808320600201546001600160a01b038c168452600c90925290912054146114825760405162461bcd60e51b815260206004820152602560248201527f4e6f20737563682064617461206c696e6b656420746f20676976656e20636c7560448201527f737465722100000000000000000000000000000000000000000000000000000060648201526084016103c2565b336000908152600b60209081526040808320600201548352600a9091529020600e0154421061150d5760405162461bcd60e51b815260206004820152603160248201527f4861766520746f207265667265736820746865207075626c6963206b6579206260448201527065666f72652070726f63656564696e672160781b60648201526084016103c2565b6040805180820182526115a391839060029083908390808284376000920182905250338152600b60209081526040808320600201548352600a82529182902082516080810193849052600f8201805482529095509350600492916010909101908501808311610a7f5750506040805180820182529350889250600291508390839080828437600092019190915250611e6d915050565b6115ef5760405162461bcd60e51b815260206004820152601260248201527f496e76616c6964207369676e617475726521000000000000000000000000000060448201526064016103c2565b6001600160a01b03871660009081526009602052604090208590600a908101908890811061161f5761161f612a40565b01556001600160a01b03871660009081526009602052604090208490849088600a811061164e5761164e612a40565b019161165b9190836128fc565b506001600160a01b0388166000908152600b6020526040812060010180549161168383612a10565b9091555050506001600160a01b039096166000908152600c6020526040812055505050505050565b600081518351146116be57506000611710565b816040516020016116cf9190612b01565b60405160208183030381529060405280519060200120836040516020016116f69190612b01565b604051602081830303815290604052805190602001201490505b92915050565b336000908152600b60205260409020600201541561178b5760405162461bcd60e51b815260206004820152602c60248201527f526567697374726174696f6e2064656e6965642c2063616e206f6e6c7920726560448201526b676973746572206f6e63652160a01b60648201526084016103c2565b336000908152600860205260409020546001600160a01b0316156118175760405162461bcd60e51b815260206004820152602d60248201527f526567697374726174696f6e2063616e206f6e6c7920626520646f6e65206f6e60448201527f636520617420612074696d65210000000000000000000000000000000000000060648201526084016103c2565b6040805160a08101825260008183018190526060820181905260208083018781523380855260808501879052835260089091529290208151815473ffffffffffffffffffffffffffffffffffffffff19166001600160a01b03909116178155915190918291600182019061188b9082612b1d565b5060408201516002820155606082015160038201805460ff1916911515919091179055608082015160048201906118c29082612b1d565b509050507f528f90766d7ffd9a9b19173678985fe1321acae03e0d442103e20a8f950cf5b28385604051610623929190612bdd565b336000908152600b602052604081206002015490036119715760405162461bcd60e51b815260206004820152603060248201527f4f7065726174696f6e2064656e6965642c2073686f756c64206265206120726560448201526f6769737465726564206f7261636c652160801b60648201526084016103c2565b336000818152600b60209081526040808320600201548352600a9091529020600d01546001600160a01b031614611a105760405162461bcd60e51b815260206004820152602760248201527f4f6e6c79206f7261636c6520686561642063616e207375626d6974207075626c60448201527f6963206b6579210000000000000000000000000000000000000000000000000060648201526084016103c2565b336000908152600b60205260408120600101805491611a2e83612a10565b9091555050600554611a409042612a56565b336000908152600b6020908152604080832060020180548452600a909252808320600e019390935554815220611a7b90600f01826004612140565b5050565b336000908152600b60205260408120600201549003611af95760405162461bcd60e51b815260206004820152603060248201527f4f7065726174696f6e2064656e6965642c2073686f756c64206265206120726560448201526f6769737465726564206f7261636c652160801b60648201526084016103c2565b336000818152600b602081815260408084206002808201548652600a808552928620600c810154979096529390925290549290910191908110611b3e57611b3e612a40565b015410611b8d5760405162461bcd60e51b815260206004820152601060248201527f496e76616c696420436c7573746572210000000000000000000000000000000060448201526064016103c2565b336000818152600b602081815260408084206002808201548652600a808552928620968652939092529054929390910191908110611bcd57611bcd612a40565b0154336000908152600b60209081526040808320600201548352600a9091529020600c0154611bfc9190612a29565b9050600060015482611c0e919061285a565b604051909150339082156108fc029083906000818181858888f19350505050158015611c3e573d6000803e3d6000fd5b50336000818152600b602081815260408084206002808201548652600a80855292862096909552929091529054859390920191908110611c8057611c80612a40565b016000828254611c909190612a56565b90915550505050565b6001600160a01b0380821660009081526008602052604081208054600190910180546060949192909116908290611ccf90612879565b80601f0160208091040260200160405190810160405280929190818152602001828054611cfb90612879565b8015611d485780601f10611d1d57610100808354040283529160200191611d48565b820191906000526020600020905b815481529060010190602001808311611d2b57829003601f168201915b5050505050915091509150915091565b60038054906000611d6883612a10565b9190505550611d7561216e565b600354808252600160208084018281526000606086018190526001600160a01b0387166080870152938452600a9182905260409384902085518155905192810192909255918301518392611dcd916002840191612106565b506060820151600c8201556080820151600d8201805473ffffffffffffffffffffffffffffffffffffffff19166001600160a01b0390921691909117905560a0820151600e82015560c0820151611e2a90600f83019060046121bf565b50508151604080519182526001600160a01b03851660208301527f3d7234633c69b8b87e519c47164c3d80fb215fb9c6f203e796476d468ff7a125925001610fbb565b60008060405180610180016040528086600060028110611e8f57611e8f612a40565b6020020151815260200186600160028110611eac57611eac612a40565b602002015181526020017f198e9393920d483a7260bfb731fb5d25f1aa493335a9e71297e485b7aef312c281526020017f1800deef121f1e76426a00665e5c4479674322d4f75edadd46debd5cd992f6ed81526020017f275dc4a288d1afb3cbb1ac09187524c7db36395df7be3b99e673b13a075a65ec81526020017f1d9befcd05a5323e6da4d435f3b617cdb3af83285c2df711ef39c01571827f9d815260200184600060028110611f6157611f61612a40565b6020020151815260200184600160028110611f7e57611f7e612a40565b6020020151815260200185600160048110611f9b57611f9b612a40565b6020020151815260200185600060048110611fb857611fb8612a40565b6020020151815260200185600360048110611fd557611fd5612a40565b6020020151815260200185600260048110611ff257611ff2612a40565b6020020151905290506120036121ec565b60006020826101808560086107d05a03fa9050808061201e57fe5b50806120465760405162461bcd60e51b815260206004820152600060248201526044016103c2565b5051151595945050505050565b50805461205f90612879565b6000825580601f1061206f575050565b601f01602090049060005260206000209081019061208d919061220a565b50565b60405180606001604052806120a361221f565b81526020016120b0612247565b8152602001600081525090565b82600a81019282156120f6579160200282015b828111156120f657825182906120e69082612b1d565b50916020019190600101906120d0565b50612102929150612266565b5090565b82600a8101928215612134579160200282015b82811115612134578251825591602001919060010190612119565b5061210292915061220a565b8260048101928215612134579160200282015b82811115612134578235825591602001919060010190612153565b6040518060e00160405280600081526020016000815260200161218f612247565b81526020016000815260200160006001600160a01b03168152602001600081526020016121ba612283565b905290565b82600481019282156121345791602002820182811115612134578251825591602001919060010190612119565b60405180602001604052806001906020820280368337509192915050565b5b80821115612102576000815560010161220b565b604051806101400160405280600a905b606081526020019060019003908161222f5790505090565b604051806101400160405280600a906020820280368337509192915050565b8082111561210257600061227a8282612053565b50600101612266565b60405180608001604052806004906020820280368337509192915050565b60008083601f8401126122b357600080fd5b50813567ffffffffffffffff8111156122cb57600080fd5b6020830191508360208285010111156122e357600080fd5b9250929050565b600080602083850312156122fd57600080fd5b823567ffffffffffffffff81111561231457600080fd5b612320858286016122a1565b90969095509350505050565b80356001600160a01b038116811461234357600080fd5b919050565b6000806000806060858703121561235e57600080fd5b6123678561232c565b9350602085013567ffffffffffffffff81111561238357600080fd5b61238f878288016122a1565b909450925050604085013560ff811681146123a957600080fd5b939692955090935050565b806040810183101561171057600080fd5b60008060008060c085870312156123db57600080fd5b6123e48561232c565b9350602085013592506123fa86604087016123b4565b915061240986608087016123b4565b905092959194509250565b6000806040838503121561242757600080fd5b823591506124376020840161232c565b90509250929050565b634e487b7160e01b600052604160045260246000fd5b600082601f83011261246757600080fd5b6040516040810181811067ffffffffffffffff8211171561248a5761248a612440565b80604052508060408401858111156124a157600080fd5b845b818110156124bb5780358352602092830192016124a3565b509195945050505050565b60008060008060008060e087890312156124df57600080fd5b6124e88761232c565b9550602087013567ffffffffffffffff81111561250457600080fd5b61251089828a016122a1565b9096509450506040870135925061252a8860608901612456565b91506125398860a08901612456565b90509295509295509295565b600080600080600080600080610120898b03121561256257600080fd5b61256b8961232c565b975061257960208a0161232c565b96506040890135955060608901359450608089013567ffffffffffffffff8111156125a357600080fd5b6125af8b828c016122a1565b90955093506125c390508a60a08b016123b4565b91506125d28a60e08b016123b4565b90509295985092959890939650565b600082601f8301126125f257600080fd5b813567ffffffffffffffff8082111561260d5761260d612440565b604051601f8301601f19908116603f0116810190828211818310171561263557612635612440565b8160405283815286602085880101111561264e57600080fd5b836020870160208301376000602085830101528094505050505092915050565b6000806040838503121561268157600080fd5b823567ffffffffffffffff8082111561269957600080fd5b6126a5868387016125e1565b935060208501359150808211156126bb57600080fd5b506126c8858286016125e1565b9150509250929050565b6000806000606084860312156126e757600080fd5b833567ffffffffffffffff808211156126ff57600080fd5b61270b878388016125e1565b9450602086013591508082111561272157600080fd5b61272d878388016125e1565b9350604086013591508082111561274357600080fd5b50612750868287016125e1565b9150509250925092565b60006080828403121561276c57600080fd5b8260808301111561277c57600080fd5b50919050565b60006020828403121561279457600080fd5b5035919050565b6000602082840312156127ad57600080fd5b6127b68261232c565b9392505050565b60005b838110156127d85781810151838201526020016127c0565b838111156127e7576000848401525b50505050565b600081518084526128058160208601602086016127bd565b601f01601f19169290920160200192915050565b60408152600061282c60408301856127ed565b90506001600160a01b03831660208301529392505050565b634e487b7160e01b600052601160045260246000fd5b600081600019048311821515161561287457612874612844565b500290565b600181811c9082168061288d57607f821691505b60208210810361277c57634e487b7160e01b600052602260045260246000fd5b601f8211156128f757600081815260208120601f850160051c810160208610156128d45750805b601f850160051c820191505b818110156128f3578281556001016128e0565b5050505b505050565b67ffffffffffffffff83111561291457612914612440565b612928836129228354612879565b836128ad565b6000601f84116001811461295c57600085156129445750838201355b600019600387901b1c1916600186901b1783556129b6565b600083815260209020601f19861690835b8281101561298d578685013582556020948501946001909201910161296d565b50868210156129aa5760001960f88860031b161c19848701351681555b505060018560011b0183555b5050505050565b6001600160a01b038616815284602082015260806040820152826080820152828460a0830137600060a08483010152600060a0601f19601f860116830101905060ff831660608301529695505050505050565b600060018201612a2257612a22612844565b5060010190565b600082821015612a3b57612a3b612844565b500390565b634e487b7160e01b600052603260045260246000fd5b60008219821115612a6957612a69612844565b500190565b8281526000602060408184015260008454612a8881612879565b8060408701526060600180841660008114612aaa5760018114612ac457612af2565b60ff1985168984015283151560051b890183019550612af2565b896000528660002060005b85811015612aea5781548b8201860152908301908801612acf565b8a0184019650505b50939998505050505050505050565b60008251612b138184602087016127bd565b9190910192915050565b815167ffffffffffffffff811115612b3757612b37612440565b612b4b81612b458454612879565b846128ad565b602080601f831160018114612b805760008415612b685750858301515b600019600386901b1c1916600185901b1785556128f3565b600085815260208120601f198616915b82811015612baf57888601518255948401946001909101908401612b90565b5085821015612bcd5787850151600019600388901b60f8161c191681555b5050505050600190811b01905550565b604081526000612bf060408301856127ed565b8281036020840152612c0281856127ed565b9594505050505056fea2646970667358221220c53c98530dc5bc62b6d9aac4be60081eea373149a091c3ab7129f3004741fefd64736f6c634300080f0033","opcodes":"PUSH1 0x80 PUSH1 0x40 MSTORE PUSH8 0x16345785D8A0000 PUSH1 0x0 SWAP1 DUP2 SSTORE PUSH7 0x2386F26FC10000 PUSH1 0x1 SWAP1 DUP2 SSTORE PUSH1 0x2 SSTORE PUSH1 0x3 SSTORE PUSH1 0x4 DUP1 SLOAD PUSH4 0xFFFFFFFF NOT AND PUSH3 0xA0004 OR SWAP1 SSTORE PUSH3 0x93A80 PUSH1 0x5 SSTORE CALLVALUE DUP1 ISZERO PUSH2 0x4A JUMPI PUSH1 0x0 DUP1 REVERT JUMPDEST POP PUSH2 0x2C41 DUP1 PUSH2 0x5A PUSH1 0x0 CODECOPY PUSH1 0x0 RETURN INVALID PUSH1 0x80 PUSH1 0x40 MSTORE PUSH1 0x4 CALLDATASIZE LT PUSH2 0xF3 JUMPI PUSH1 0x0 CALLDATALOAD PUSH1 0xE0 SHR DUP1 PUSH4 0x88D8DA5F GT PUSH2 0x8A JUMPI DUP1 PUSH4 0xBD711096 GT PUSH2 0x59 JUMPI DUP1 PUSH4 0xBD711096 EQ PUSH2 0x278 JUMPI DUP1 PUSH4 0xBE1DDDDD EQ PUSH2 0x298 JUMPI DUP1 PUSH4 0xC885BC58 EQ PUSH2 0x311 JUMPI DUP1 PUSH4 0xEB39113F EQ PUSH2 0x326 JUMPI PUSH1 0x0 DUP1 REVERT JUMPDEST DUP1 PUSH4 0x88D8DA5F EQ PUSH2 0x1DE JUMPI DUP1 PUSH4 0xB109FD89 EQ PUSH2 0x20E JUMPI DUP1 PUSH4 0xB2C8C652 EQ PUSH2 0x22E JUMPI DUP1 PUSH4 0xBD360BAC EQ PUSH2 0x262 JUMPI PUSH1 0x0 DUP1 REVERT JUMPDEST DUP1 PUSH4 0x5C599E4F GT PUSH2 0xC6 JUMPI DUP1 PUSH4 0x5C599E4F EQ PUSH2 0x155 JUMPI DUP1 PUSH4 0x702F45F3 EQ PUSH2 0x175 JUMPI DUP1 PUSH4 0x766AAD87 EQ PUSH2 0x19E JUMPI DUP1 PUSH4 0x7C93EF88 EQ PUSH2 0x1BE JUMPI PUSH1 0x0 DUP1 REVERT JUMPDEST DUP1 PUSH4 0x314B9B37 EQ PUSH2 0xF8 JUMPI DUP1 PUSH4 0x32E8E463 EQ PUSH2 0x10D JUMPI DUP1 PUSH4 0x339D2590 EQ PUSH2 0x12D JUMPI DUP1 PUSH4 0x342961C0 EQ PUSH2 0x135 JUMPI JUMPDEST PUSH1 0x0 DUP1 REVERT JUMPDEST PUSH2 0x10B PUSH2 0x106 CALLDATASIZE PUSH1 0x4 PUSH2 0x22EA JUMP JUMPDEST PUSH2 0x354 JUMP JUMPDEST STOP JUMPDEST CALLVALUE DUP1 ISZERO PUSH2 0x119 JUMPI PUSH1 0x0 DUP1 REVERT JUMPDEST POP PUSH2 0x10B PUSH2 0x128 CALLDATASIZE PUSH1 0x4 PUSH2 0x2348 JUMP JUMPDEST PUSH2 0x538 JUMP JUMPDEST PUSH2 0x10B PUSH2 0x631 JUMP JUMPDEST CALLVALUE DUP1 ISZERO PUSH2 0x141 JUMPI PUSH1 0x0 DUP1 REVERT JUMPDEST POP PUSH2 0x10B PUSH2 0x150 CALLDATASIZE PUSH1 0x4 PUSH2 0x23C5 JUMP JUMPDEST PUSH2 0x835 JUMP JUMPDEST CALLVALUE DUP1 ISZERO PUSH2 0x161 JUMPI PUSH1 0x0 DUP1 REVERT JUMPDEST POP PUSH2 0x10B PUSH2 0x170 CALLDATASIZE PUSH1 0x4 PUSH2 0x2414 JUMP JUMPDEST PUSH2 0xCD1 JUMP JUMPDEST CALLVALUE DUP1 ISZERO PUSH2 0x181 JUMPI PUSH1 0x0 DUP1 REVERT JUMPDEST POP PUSH2 0x18B PUSH1 0x3 SLOAD DUP2 JUMP JUMPDEST PUSH1 0x40 MLOAD SWAP1 DUP2 MSTORE PUSH1 0x20 ADD JUMPDEST PUSH1 0x40 MLOAD DUP1 SWAP2 SUB SWAP1 RETURN JUMPDEST CALLVALUE DUP1 ISZERO PUSH2 0x1AA JUMPI PUSH1 0x0 DUP1 REVERT JUMPDEST POP PUSH2 0x10B PUSH2 0x1B9 CALLDATASIZE PUSH1 0x4 PUSH2 0x24C6 JUMP JUMPDEST PUSH2 0xFC7 JUMP JUMPDEST CALLVALUE DUP1 ISZERO PUSH2 0x1CA JUMPI PUSH1 0x0 DUP1 REVERT JUMPDEST POP PUSH2 0x10B PUSH2 0x1D9 CALLDATASIZE PUSH1 0x4 PUSH2 0x2545 JUMP JUMPDEST PUSH2 0x1300 JUMP JUMPDEST CALLVALUE DUP1 ISZERO PUSH2 0x1EA JUMPI PUSH1 0x0 DUP1 REVERT JUMPDEST POP PUSH2 0x1FE PUSH2 0x1F9 CALLDATASIZE PUSH1 0x4 PUSH2 0x266E JUMP JUMPDEST PUSH2 0x16AB JUMP JUMPDEST PUSH1 0x40 MLOAD SWAP1 ISZERO ISZERO DUP2 MSTORE PUSH1 0x20 ADD PUSH2 0x195 JUMP JUMPDEST CALLVALUE DUP1 ISZERO PUSH2 0x21A JUMPI PUSH1 0x0 DUP1 REVERT JUMPDEST POP PUSH2 0x10B PUSH2 0x229 CALLDATASIZE PUSH1 0x4 PUSH2 0x26D2 JUMP JUMPDEST PUSH2 0x1716 JUMP JUMPDEST CALLVALUE DUP1 ISZERO PUSH2 0x23A JUMPI PUSH1 0x0 DUP1 REVERT JUMPDEST POP PUSH1 0x4 SLOAD PUSH2 0x24F SWAP1 PUSH3 0x10000 SWAP1 DIV PUSH2 0xFFFF AND DUP2 JUMP JUMPDEST PUSH1 0x40 MLOAD PUSH2 0xFFFF SWAP1 SWAP2 AND DUP2 MSTORE PUSH1 0x20 ADD PUSH2 0x195 JUMP JUMPDEST CALLVALUE DUP1 ISZERO PUSH2 0x26E JUMPI PUSH1 0x0 DUP1 REVERT JUMPDEST POP PUSH2 0x18B PUSH1 0x2 SLOAD DUP2 JUMP JUMPDEST CALLVALUE DUP1 ISZERO PUSH2 0x284 JUMPI PUSH1 0x0 DUP1 REVERT JUMPDEST POP PUSH2 0x10B PUSH2 0x293 CALLDATASIZE PUSH1 0x4 PUSH2 0x275A JUMP JUMPDEST PUSH2 0x18F7 JUMP JUMPDEST CALLVALUE DUP1 ISZERO PUSH2 0x2A4 JUMPI PUSH1 0x0 DUP1 REVERT JUMPDEST POP PUSH2 0x2F1 PUSH2 0x2B3 CALLDATASIZE PUSH1 0x4 PUSH2 0x2782 JUMP JUMPDEST CALLER PUSH1 0x0 SWAP1 DUP2 MSTORE PUSH1 0xB PUSH1 0x20 SWAP1 DUP2 MSTORE PUSH1 0x40 DUP1 DUP4 KECCAK256 PUSH1 0x2 ADD SLOAD DUP4 MSTORE PUSH1 0xA SWAP1 SWAP2 MSTORE DUP1 DUP3 KECCAK256 PUSH1 0xD SWAP1 DUP2 ADD SLOAD SWAP4 DUP4 MSTORE SWAP2 KECCAK256 ADD SLOAD PUSH1 0x1 PUSH1 0x1 PUSH1 0xA0 SHL SUB SWAP2 DUP3 AND SWAP3 SWAP2 AND SWAP1 JUMP JUMPDEST PUSH1 0x40 DUP1 MLOAD PUSH1 0x1 PUSH1 0x1 PUSH1 0xA0 SHL SUB SWAP4 DUP5 AND DUP2 MSTORE SWAP3 SWAP1 SWAP2 AND PUSH1 0x20 DUP4 ADD MSTORE ADD PUSH2 0x195 JUMP JUMPDEST CALLVALUE DUP1 ISZERO PUSH2 0x31D JUMPI PUSH1 0x0 DUP1 REVERT JUMPDEST POP PUSH2 0x10B PUSH2 0x1A7F JUMP JUMPDEST CALLVALUE DUP1 ISZERO PUSH2 0x332 JUMPI PUSH1 0x0 DUP1 REVERT JUMPDEST POP PUSH2 0x346 PUSH2 0x341 CALLDATASIZE PUSH1 0x4 PUSH2 0x279B JUMP JUMPDEST PUSH2 0x1C99 JUMP JUMPDEST PUSH1 0x40 MLOAD PUSH2 0x195 SWAP3 SWAP2 SWAP1 PUSH2 0x2819 JUMP JUMPDEST PUSH1 0x0 SLOAD PUSH1 0x5 SWAP1 PUSH2 0x365 SWAP1 DUP3 SWAP1 PUSH2 0x285A JUMP JUMPDEST CALLVALUE EQ PUSH2 0x3CB JUMPI PUSH1 0x40 MLOAD PUSH3 0x461BCD PUSH1 0xE5 SHL DUP2 MSTORE PUSH1 0x20 PUSH1 0x4 DUP3 ADD MSTORE PUSH1 0x2A PUSH1 0x24 DUP3 ADD MSTORE PUSH32 0x526567697374726174696F6E2064656E6965642C20696E76616C696420737461 PUSH1 0x44 DUP3 ADD MSTORE PUSH10 0x6B6520616D6F756E7421 PUSH1 0xB0 SHL PUSH1 0x64 DUP3 ADD MSTORE PUSH1 0x84 ADD JUMPDEST PUSH1 0x40 MLOAD DUP1 SWAP2 SUB SWAP1 REVERT JUMPDEST CALLER PUSH1 0x0 SWAP1 DUP2 MSTORE PUSH1 0xB PUSH1 0x20 MSTORE PUSH1 0x40 DUP2 KECCAK256 PUSH1 0x2 ADD SLOAD SWAP1 SUB PUSH2 0x445 JUMPI PUSH1 0x40 MLOAD PUSH3 0x461BCD PUSH1 0xE5 SHL DUP2 MSTORE PUSH1 0x20 PUSH1 0x4 DUP3 ADD MSTORE PUSH1 0x30 PUSH1 0x24 DUP3 ADD MSTORE PUSH32 0x4F7065726174696F6E2064656E6965642C2073686F756C642062652061207265 PUSH1 0x44 DUP3 ADD MSTORE PUSH16 0x6769737465726564206F7261636C6521 PUSH1 0x80 SHL PUSH1 0x64 DUP3 ADD MSTORE PUSH1 0x84 ADD PUSH2 0x3C2 JUMP JUMPDEST PUSH1 0x7 SLOAD PUSH1 0x1 PUSH1 0x1 PUSH1 0xA0 SHL SUB AND ISZERO PUSH2 0x49E JUMPI PUSH1 0x40 MLOAD PUSH3 0x461BCD PUSH1 0xE5 SHL DUP2 MSTORE PUSH1 0x20 PUSH1 0x4 DUP3 ADD MSTORE PUSH1 0x1A PUSH1 0x24 DUP3 ADD MSTORE PUSH32 0x4D61696E7461696E657220616C72656164792065786973747321000000000000 PUSH1 0x44 DUP3 ADD MSTORE PUSH1 0x64 ADD PUSH2 0x3C2 JUMP JUMPDEST PUSH1 0x6 PUSH2 0x4AB DUP4 DUP6 DUP4 PUSH2 0x28FC JUMP JUMPDEST POP PUSH1 0x7 DUP1 SLOAD PUSH20 0xFFFFFFFFFFFFFFFFFFFFFFFFFFFFFFFFFFFFFFFF NOT AND CALLER OR SWAP1 SSTORE PUSH1 0x40 MLOAD PUSH32 0x3744D400F450A34D91A709D1C2475B8944904128368BCAD7FD6E9ED6F5F83F9B SWAP1 PUSH2 0x52B SWAP1 PUSH1 0x20 DUP1 DUP3 MSTORE PUSH1 0x1A SWAP1 DUP3 ADD MSTORE PUSH32 0x5368617265207065657249442077697468206F7261636C657321000000000000 PUSH1 0x40 DUP3 ADD MSTORE PUSH1 0x60 ADD SWAP1 JUMP JUMPDEST PUSH1 0x40 MLOAD DUP1 SWAP2 SUB SWAP1 LOG1 POP POP POP JUMP JUMPDEST PUSH1 0x1 PUSH1 0x1 PUSH1 0xA0 SHL SUB DUP5 AND PUSH1 0x0 SWAP1 DUP2 MSTORE PUSH1 0x8 PUSH1 0x20 MSTORE PUSH1 0x40 SWAP1 KECCAK256 PUSH1 0x2 ADD SLOAD ISZERO DUP1 ISZERO SWAP1 PUSH2 0x56F JUMPI POP CALLER PUSH1 0x0 SWAP1 DUP2 MSTORE PUSH1 0xC PUSH1 0x20 MSTORE PUSH1 0x40 SWAP1 KECCAK256 SLOAD ISZERO JUMPDEST PUSH2 0x5BB JUMPI PUSH1 0x40 MLOAD PUSH3 0x461BCD PUSH1 0xE5 SHL DUP2 MSTORE PUSH1 0x20 PUSH1 0x4 DUP3 ADD MSTORE PUSH1 0x10 PUSH1 0x24 DUP3 ADD MSTORE PUSH32 0x496E76616C696420726571756573742100000000000000000000000000000000 PUSH1 0x44 DUP3 ADD MSTORE PUSH1 0x64 ADD PUSH2 0x3C2 JUMP JUMPDEST PUSH1 0x1 PUSH1 0x1 PUSH1 0xA0 SHL SUB DUP5 AND PUSH1 0x0 DUP2 DUP2 MSTORE PUSH1 0x8 PUSH1 0x20 DUP2 DUP2 MSTORE PUSH1 0x40 DUP1 DUP5 KECCAK256 PUSH1 0x2 ADD SLOAD CALLER DUP1 DUP7 MSTORE PUSH1 0xC DUP5 MSTORE DUP3 DUP7 KECCAK256 DUP3 SWAP1 SSTORE SWAP6 SWAP1 SWAP5 MSTORE SWAP2 SWAP1 MSTORE MLOAD PUSH32 0xBEEC8E4230F94B9F3103278CB151ECB9BD0865F57A48E38A79A84A457637A1CA SWAP3 PUSH2 0x623 SWAP3 SWAP1 SWAP2 DUP8 SWAP1 DUP8 SWAP1 DUP8 SWAP1 PUSH2 0x29BD JUMP JUMPDEST PUSH1 0x40 MLOAD DUP1 SWAP2 SUB SWAP1 LOG1 POP POP POP POP JUMP JUMPDEST PUSH1 0x0 SLOAD PUSH1 0x1 SWAP1 PUSH2 0x642 SWAP1 DUP3 SWAP1 PUSH2 0x285A JUMP JUMPDEST CALLVALUE EQ PUSH2 0x6A3 JUMPI PUSH1 0x40 MLOAD PUSH3 0x461BCD PUSH1 0xE5 SHL DUP2 MSTORE PUSH1 0x20 PUSH1 0x4 DUP3 ADD MSTORE PUSH1 0x2A PUSH1 0x24 DUP3 ADD MSTORE PUSH32 0x526567697374726174696F6E2064656E6965642C20696E76616C696420737461 PUSH1 0x44 DUP3 ADD MSTORE PUSH10 0x6B6520616D6F756E7421 PUSH1 0xB0 SHL PUSH1 0x64 DUP3 ADD MSTORE PUSH1 0x84 ADD PUSH2 0x3C2 JUMP JUMPDEST CALLER PUSH1 0x0 SWAP1 DUP2 MSTORE PUSH1 0xB PUSH1 0x20 MSTORE PUSH1 0x40 SWAP1 KECCAK256 PUSH1 0x2 ADD SLOAD ISZERO PUSH2 0x718 JUMPI PUSH1 0x40 MLOAD PUSH3 0x461BCD PUSH1 0xE5 SHL DUP2 MSTORE PUSH1 0x20 PUSH1 0x4 DUP3 ADD MSTORE PUSH1 0x2C PUSH1 0x24 DUP3 ADD MSTORE PUSH32 0x526567697374726174696F6E2064656E6965642C2063616E206F6E6C79207265 PUSH1 0x44 DUP3 ADD MSTORE PUSH12 0x676973746572206F6E636521 PUSH1 0xA0 SHL PUSH1 0x64 DUP3 ADD MSTORE PUSH1 0x84 ADD PUSH2 0x3C2 JUMP JUMPDEST PUSH2 0x73C PUSH1 0x40 MLOAD DUP1 PUSH1 0x60 ADD PUSH1 0x40 MSTORE DUP1 PUSH1 0x0 DUP2 MSTORE PUSH1 0x20 ADD PUSH1 0x0 DUP2 MSTORE PUSH1 0x20 ADD PUSH1 0x0 DUP2 MSTORE POP SWAP1 JUMP JUMPDEST PUSH1 0x0 PUSH1 0x20 DUP3 DUP2 ADD DUP3 SWAP1 MSTORE PUSH1 0x4 SLOAD PUSH1 0x3 SLOAD DUP4 MSTORE PUSH1 0xA SWAP1 SWAP2 MSTORE PUSH1 0x40 SWAP1 SWAP2 KECCAK256 PUSH1 0x1 ADD SLOAD PUSH3 0x10000 SWAP1 SWAP2 DIV PUSH2 0xFFFF AND GT ISZERO DUP1 PUSH2 0x774 JUMPI POP PUSH1 0x3 SLOAD ISZERO JUMPDEST ISZERO PUSH2 0x787 JUMPI PUSH2 0x782 CALLER PUSH2 0x1D58 JUMP JUMPDEST PUSH2 0x7AD JUMP JUMPDEST PUSH1 0x3 SLOAD PUSH1 0x0 SWAP1 DUP2 MSTORE PUSH1 0xA PUSH1 0x20 MSTORE PUSH1 0x40 DUP2 KECCAK256 PUSH1 0x1 ADD DUP1 SLOAD SWAP2 PUSH2 0x7A7 DUP4 PUSH2 0x2A10 JUMP JUMPDEST SWAP2 SWAP1 POP SSTORE POP JUMPDEST PUSH1 0x3 SLOAD PUSH1 0x40 DUP1 DUP4 ADD DUP3 SWAP1 MSTORE PUSH1 0x0 SWAP2 DUP3 MSTORE PUSH1 0xA PUSH1 0x20 MSTORE SWAP1 KECCAK256 PUSH1 0x1 SWAP1 DUP2 ADD SLOAD PUSH2 0x7D4 SWAP2 SWAP1 PUSH2 0x2A29 JUMP JUMPDEST DUP2 MSTORE PUSH1 0x3 SLOAD PUSH1 0x0 SWAP1 DUP2 MSTORE PUSH1 0xA PUSH1 0x20 DUP2 SWAP1 MSTORE PUSH1 0x40 SWAP1 SWAP2 KECCAK256 PUSH1 0xC DUP2 ADD SLOAD DUP4 MLOAD SWAP1 SWAP3 PUSH1 0x2 SWAP1 SWAP3 ADD SWAP2 DUP2 LT PUSH2 0x807 JUMPI PUSH2 0x807 PUSH2 0x2A40 JUMP JUMPDEST ADD SSTORE CALLER PUSH1 0x0 SWAP1 DUP2 MSTORE PUSH1 0xB PUSH1 0x20 SWAP1 DUP2 MSTORE PUSH1 0x40 SWAP2 DUP3 SWAP1 KECCAK256 DUP4 MLOAD DUP2 SSTORE SWAP1 DUP4 ADD MLOAD PUSH1 0x1 DUP3 ADD SSTORE SWAP2 ADD MLOAD PUSH1 0x2 SWAP1 SWAP2 ADD SSTORE POP JUMP JUMPDEST CALLER PUSH1 0x0 SWAP1 DUP2 MSTORE PUSH1 0xB PUSH1 0x20 MSTORE PUSH1 0x40 DUP2 KECCAK256 PUSH1 0x2 ADD SLOAD SWAP1 SUB PUSH2 0x8AF JUMPI PUSH1 0x40 MLOAD PUSH3 0x461BCD PUSH1 0xE5 SHL DUP2 MSTORE PUSH1 0x20 PUSH1 0x4 DUP3 ADD MSTORE PUSH1 0x30 PUSH1 0x24 DUP3 ADD MSTORE PUSH32 0x4F7065726174696F6E2064656E6965642C2073686F756C642062652061207265 PUSH1 0x44 DUP3 ADD MSTORE PUSH16 0x6769737465726564206F7261636C6521 PUSH1 0x80 SHL PUSH1 0x64 DUP3 ADD MSTORE PUSH1 0x84 ADD PUSH2 0x3C2 JUMP JUMPDEST PUSH1 0x1 PUSH1 0x1 PUSH1 0xA0 SHL SUB DUP1 DUP6 AND PUSH1 0x0 DUP2 DUP2 MSTORE PUSH1 0x8 PUSH1 0x20 MSTORE PUSH1 0x40 SWAP1 KECCAK256 SLOAD SWAP1 SWAP2 AND EQ DUP1 ISZERO PUSH2 0x8F5 JUMPI POP PUSH1 0x1 PUSH1 0x1 PUSH1 0xA0 SHL SUB DUP5 AND PUSH1 0x0 SWAP1 DUP2 MSTORE PUSH1 0x8 PUSH1 0x20 MSTORE PUSH1 0x40 SWAP1 KECCAK256 PUSH1 0x3 ADD SLOAD PUSH1 0xFF AND ISZERO JUMPDEST DUP1 ISZERO PUSH2 0x92B JUMPI POP PUSH1 0x4 SLOAD CALLER PUSH1 0x0 SWAP1 DUP2 MSTORE PUSH1 0xB PUSH1 0x20 SWAP1 DUP2 MSTORE PUSH1 0x40 DUP1 DUP4 KECCAK256 PUSH1 0x2 ADD SLOAD DUP4 MSTORE PUSH1 0xA SWAP1 SWAP2 MSTORE SWAP1 KECCAK256 PUSH1 0x1 ADD SLOAD PUSH2 0xFFFF SWAP1 SWAP2 AND GT ISZERO JUMPDEST PUSH2 0x99D JUMPI PUSH1 0x40 MLOAD PUSH3 0x461BCD PUSH1 0xE5 SHL DUP2 MSTORE PUSH1 0x20 PUSH1 0x4 DUP3 ADD MSTORE PUSH1 0x2B PUSH1 0x24 DUP3 ADD MSTORE PUSH32 0x54686520737065636966696564204845492063616E206E6F7420626520617574 PUSH1 0x44 DUP3 ADD MSTORE PUSH32 0x68656E7469636174656421000000000000000000000000000000000000000000 PUSH1 0x64 DUP3 ADD MSTORE PUSH1 0x84 ADD PUSH2 0x3C2 JUMP JUMPDEST CALLER PUSH1 0x0 SWAP1 DUP2 MSTORE PUSH1 0xB PUSH1 0x20 SWAP1 DUP2 MSTORE PUSH1 0x40 DUP1 DUP4 KECCAK256 PUSH1 0x2 ADD SLOAD DUP4 MSTORE PUSH1 0xA SWAP1 SWAP2 MSTORE SWAP1 KECCAK256 PUSH1 0xE ADD SLOAD TIMESTAMP LT PUSH2 0xA28 JUMPI PUSH1 0x40 MLOAD PUSH3 0x461BCD PUSH1 0xE5 SHL DUP2 MSTORE PUSH1 0x20 PUSH1 0x4 DUP3 ADD MSTORE PUSH1 0x31 PUSH1 0x24 DUP3 ADD MSTORE PUSH32 0x4861766520746F207265667265736820746865207075626C6963206B65792062 PUSH1 0x44 DUP3 ADD MSTORE PUSH17 0x65666F72652070726F63656564696E6721 PUSH1 0x78 SHL PUSH1 0x64 DUP3 ADD MSTORE PUSH1 0x84 ADD PUSH2 0x3C2 JUMP JUMPDEST PUSH1 0x40 DUP1 MLOAD DUP1 DUP3 ADD DUP3 MSTORE PUSH2 0xABF SWAP2 DUP4 SWAP1 PUSH1 0x2 SWAP1 DUP4 SWAP1 DUP4 SWAP1 DUP1 DUP3 DUP5 CALLDATACOPY PUSH1 0x0 SWAP3 ADD DUP3 SWAP1 MSTORE POP CALLER DUP2 MSTORE PUSH1 0xB PUSH1 0x20 SWAP1 DUP2 MSTORE PUSH1 0x40 DUP1 DUP4 KECCAK256 PUSH1 0x2 ADD SLOAD DUP4 MSTORE PUSH1 0xA SWAP1 SWAP2 MSTORE SWAP1 DUP2 SWAP1 KECCAK256 DUP2 MLOAD PUSH1 0x80 DUP2 ADD SWAP3 DUP4 SWAP1 MSTORE SWAP4 POP PUSH1 0xF ADD SWAP2 POP PUSH1 0x4 SWAP1 DUP3 DUP5 JUMPDEST DUP2 SLOAD DUP2 MSTORE PUSH1 0x20 ADD SWAP1 PUSH1 0x1 ADD SWAP1 DUP1 DUP4 GT PUSH2 0xA7F JUMPI POP POP PUSH1 0x40 DUP1 MLOAD DUP1 DUP3 ADD DUP3 MSTORE SWAP4 POP DUP9 SWAP3 POP PUSH1 0x2 SWAP2 POP DUP4 SWAP1 DUP4 SWAP1 DUP1 DUP3 DUP5 CALLDATACOPY PUSH1 0x0 SWAP3 ADD SWAP2 SWAP1 SWAP2 MSTORE POP PUSH2 0x1E6D SWAP2 POP POP JUMP JUMPDEST PUSH2 0xB31 JUMPI PUSH1 0x40 MLOAD PUSH3 0x461BCD PUSH1 0xE5 SHL DUP2 MSTORE PUSH1 0x20 PUSH1 0x4 DUP3 ADD MSTORE PUSH1 0x2A PUSH1 0x24 DUP3 ADD MSTORE PUSH32 0x5468652070726F7669646564207369676E61747572652064657461696C732061 PUSH1 0x44 DUP3 ADD MSTORE PUSH32 0x726520696E76616C696400000000000000000000000000000000000000000000 PUSH1 0x64 DUP3 ADD MSTORE PUSH1 0x84 ADD PUSH2 0x3C2 JUMP JUMPDEST DUP3 ISZERO PUSH2 0xBCA JUMPI PUSH1 0x1 PUSH1 0x1 PUSH1 0xA0 SHL SUB DUP5 AND PUSH1 0x0 SWAP1 DUP2 MSTORE PUSH1 0x8 PUSH1 0x20 MSTORE PUSH1 0x40 SWAP1 DUP2 SWAP1 KECCAK256 PUSH1 0x3 ADD DUP1 SLOAD PUSH1 0xFF NOT AND PUSH1 0x1 OR SWAP1 SSTORE MLOAD PUSH32 0x37BAC6BC273AE63A2FFE6FF8F458E41E3101B281EC4B7C1A52B1EE5DFC0DBA24 SWAP1 PUSH2 0xBBD SWAP1 PUSH1 0x20 DUP1 DUP3 MSTORE PUSH1 0x16 SWAP1 DUP3 ADD MSTORE PUSH32 0x5468652048454920697320726567697374657265642100000000000000000000 PUSH1 0x40 DUP3 ADD MSTORE PUSH1 0x60 ADD SWAP1 JUMP JUMPDEST PUSH1 0x40 MLOAD DUP1 SWAP2 SUB SWAP1 LOG1 PUSH2 0xC98 JUMP JUMPDEST PUSH1 0x1 PUSH1 0x1 PUSH1 0xA0 SHL SUB DUP5 AND PUSH1 0x0 SWAP1 DUP2 MSTORE PUSH1 0x8 PUSH1 0x20 MSTORE PUSH1 0x40 DUP2 KECCAK256 DUP1 SLOAD PUSH20 0xFFFFFFFFFFFFFFFFFFFFFFFFFFFFFFFFFFFFFFFF NOT AND DUP2 SSTORE SWAP1 PUSH2 0xC0B PUSH1 0x1 DUP4 ADD DUP3 PUSH2 0x2053 JUMP JUMPDEST PUSH1 0x0 PUSH1 0x2 DUP4 ADD DUP2 SWAP1 SSTORE PUSH1 0x3 DUP4 ADD DUP1 SLOAD PUSH1 0xFF NOT AND SWAP1 SSTORE PUSH2 0xC2E SWAP1 PUSH1 0x4 DUP5 ADD SWAP1 PUSH2 0x2053 JUMP JUMPDEST POP POP PUSH32 0x37BAC6BC273AE63A2FFE6FF8F458E41E3101B281EC4B7C1A52B1EE5DFC0DBA24 PUSH1 0x40 MLOAD PUSH2 0xC8F SWAP1 PUSH1 0x20 DUP1 DUP3 MSTORE PUSH1 0x1A SWAP1 DUP3 ADD MSTORE PUSH32 0x54686520484549206973206E6F74207265676973746572656421000000000000 PUSH1 0x40 DUP3 ADD MSTORE PUSH1 0x60 ADD SWAP1 JUMP JUMPDEST PUSH1 0x40 MLOAD DUP1 SWAP2 SUB SWAP1 LOG1 JUMPDEST CALLER PUSH1 0x0 SWAP1 DUP2 MSTORE PUSH1 0xB PUSH1 0x20 SWAP1 DUP2 MSTORE PUSH1 0x40 DUP1 DUP4 KECCAK256 PUSH1 0x2 ADD SLOAD DUP4 MSTORE PUSH1 0xA SWAP1 SWAP2 MSTORE DUP2 KECCAK256 PUSH1 0xC ADD DUP1 SLOAD SWAP2 PUSH2 0xCC6 DUP4 PUSH2 0x2A10 JUMP JUMPDEST SWAP2 SWAP1 POP SSTORE POP POP POP POP POP JUMP JUMPDEST CALLER PUSH1 0x0 SWAP1 DUP2 MSTORE PUSH1 0xB PUSH1 0x20 MSTORE PUSH1 0x40 DUP2 KECCAK256 PUSH1 0x2 ADD SLOAD SWAP1 SUB PUSH2 0xD4B JUMPI PUSH1 0x40 MLOAD PUSH3 0x461BCD PUSH1 0xE5 SHL DUP2 MSTORE PUSH1 0x20 PUSH1 0x4 DUP3 ADD MSTORE PUSH1 0x30 PUSH1 0x24 DUP3 ADD MSTORE PUSH32 0x4F7065726174696F6E2064656E6965642C2073686F756C642062652061207265 PUSH1 0x44 DUP3 ADD MSTORE PUSH16 0x6769737465726564206F7261636C6521 PUSH1 0x80 SHL PUSH1 0x64 DUP3 ADD MSTORE PUSH1 0x84 ADD PUSH2 0x3C2 JUMP JUMPDEST PUSH1 0x4 SLOAD CALLER PUSH1 0x0 SWAP1 DUP2 MSTORE PUSH1 0xB PUSH1 0x20 SWAP1 DUP2 MSTORE PUSH1 0x40 DUP1 DUP4 KECCAK256 PUSH1 0x2 ADD SLOAD DUP4 MSTORE PUSH1 0xA SWAP1 SWAP2 MSTORE SWAP1 KECCAK256 PUSH1 0x1 ADD SLOAD PUSH2 0xFFFF SWAP1 SWAP2 AND GT ISZERO PUSH2 0xDC5 JUMPI PUSH1 0x40 MLOAD PUSH3 0x461BCD PUSH1 0xE5 SHL DUP2 MSTORE PUSH1 0x20 PUSH1 0x4 DUP3 ADD MSTORE PUSH1 0x13 PUSH1 0x24 DUP3 ADD MSTORE PUSH32 0x436C757374657220697320696E76616C69642100000000000000000000000000 PUSH1 0x44 DUP3 ADD MSTORE PUSH1 0x64 ADD PUSH2 0x3C2 JUMP JUMPDEST PUSH1 0x1 PUSH1 0x1 PUSH1 0xA0 SHL SUB DUP2 AND PUSH1 0x0 SWAP1 DUP2 MSTORE PUSH1 0x8 PUSH1 0x20 MSTORE PUSH1 0x40 SWAP1 KECCAK256 PUSH1 0x2 ADD SLOAD ISZERO DUP1 ISZERO PUSH2 0xDFF JUMPI POP CALLER PUSH1 0x0 SWAP1 DUP2 MSTORE PUSH1 0xB PUSH1 0x20 MSTORE PUSH1 0x40 SWAP1 KECCAK256 PUSH1 0x2 ADD SLOAD DUP3 EQ JUMPDEST DUP1 ISZERO PUSH2 0xE26 JUMPI POP PUSH1 0x1 PUSH1 0x1 PUSH1 0xA0 SHL SUB DUP2 AND PUSH1 0x0 SWAP1 DUP2 MSTORE PUSH1 0x8 PUSH1 0x20 MSTORE PUSH1 0x40 SWAP1 KECCAK256 PUSH1 0x3 ADD SLOAD PUSH1 0xFF AND JUMPDEST PUSH2 0xE98 JUMPI PUSH1 0x40 MLOAD PUSH3 0x461BCD PUSH1 0xE5 SHL DUP2 MSTORE PUSH1 0x20 PUSH1 0x4 DUP3 ADD MSTORE PUSH1 0x27 PUSH1 0x24 DUP3 ADD MSTORE PUSH32 0x496E76616C69642073757276657920726571756573742C207265766973652072 PUSH1 0x44 DUP3 ADD MSTORE PUSH32 0x6571756573742100000000000000000000000000000000000000000000000000 PUSH1 0x64 DUP3 ADD MSTORE PUSH1 0x84 ADD PUSH2 0x3C2 JUMP JUMPDEST CALLER PUSH1 0x0 SWAP1 DUP2 MSTORE PUSH1 0xB PUSH1 0x20 SWAP1 DUP2 MSTORE PUSH1 0x40 DUP1 DUP4 KECCAK256 PUSH1 0x2 ADD SLOAD DUP4 MSTORE PUSH1 0xA SWAP1 SWAP2 MSTORE SWAP1 KECCAK256 PUSH1 0xE ADD SLOAD TIMESTAMP LT PUSH2 0xF23 JUMPI PUSH1 0x40 MLOAD PUSH3 0x461BCD PUSH1 0xE5 SHL DUP2 MSTORE PUSH1 0x20 PUSH1 0x4 DUP3 ADD MSTORE PUSH1 0x31 PUSH1 0x24 DUP3 ADD MSTORE PUSH32 0x4861766520746F207265667265736820746865207075626C6963206B65792062 PUSH1 0x44 DUP3 ADD MSTORE PUSH17 0x65666F72652070726F63656564696E6721 PUSH1 0x78 SHL PUSH1 0x64 DUP3 ADD MSTORE PUSH1 0x84 ADD PUSH2 0x3C2 JUMP JUMPDEST PUSH1 0x1 PUSH1 0x1 PUSH1 0xA0 SHL SUB DUP1 DUP3 AND PUSH1 0x0 SWAP1 DUP2 MSTORE PUSH1 0x8 PUSH1 0x20 SWAP1 DUP2 MSTORE PUSH1 0x40 DUP1 DUP4 KECCAK256 PUSH1 0x2 SWAP1 DUP2 ADD DUP8 SWAP1 SSTORE PUSH1 0x7 SLOAD SWAP1 SWAP5 AND DUP4 MSTORE PUSH1 0xB SWAP1 SWAP2 MSTORE DUP2 KECCAK256 PUSH1 0x1 ADD DUP1 SLOAD SWAP1 SWAP2 SWAP1 PUSH2 0xF69 SWAP1 DUP5 SWAP1 PUSH2 0x2A56 JUMP JUMPDEST SWAP1 SWAP2 SSTORE POP POP PUSH1 0x1 PUSH1 0x1 PUSH1 0xA0 SHL SUB DUP2 AND PUSH1 0x0 SWAP1 DUP2 MSTORE PUSH1 0x8 PUSH1 0x20 MSTORE PUSH1 0x40 SWAP1 DUP2 SWAP1 KECCAK256 SWAP1 MLOAD PUSH32 0x3FCABD3EA914F0C2FF2F383498584A0305EA5946C22DFF1AEF9CC806BCBA4C03 SWAP2 PUSH2 0xFBB SWAP2 DUP6 SWAP2 PUSH1 0x1 ADD SWAP1 PUSH2 0x2A6E JUMP JUMPDEST PUSH1 0x40 MLOAD DUP1 SWAP2 SUB SWAP1 LOG1 POP POP JUMP JUMPDEST CALLER PUSH1 0x0 SWAP1 DUP2 MSTORE PUSH1 0xB PUSH1 0x20 MSTORE PUSH1 0x40 DUP2 KECCAK256 PUSH1 0x2 ADD SLOAD SWAP1 SUB PUSH2 0x1041 JUMPI PUSH1 0x40 MLOAD PUSH3 0x461BCD PUSH1 0xE5 SHL DUP2 MSTORE PUSH1 0x20 PUSH1 0x4 DUP3 ADD MSTORE PUSH1 0x30 PUSH1 0x24 DUP3 ADD MSTORE PUSH32 0x4F7065726174696F6E2064656E6965642C2073686F756C642062652061207265 PUSH1 0x44 DUP3 ADD MSTORE PUSH16 0x6769737465726564206F7261636C6521 PUSH1 0x80 SHL PUSH1 0x64 DUP3 ADD MSTORE PUSH1 0x84 ADD PUSH2 0x3C2 JUMP JUMPDEST CALLER PUSH1 0x0 SWAP1 DUP2 MSTORE PUSH1 0xB PUSH1 0x20 SWAP1 DUP2 MSTORE PUSH1 0x40 DUP1 DUP4 KECCAK256 PUSH1 0x2 ADD SLOAD DUP4 MSTORE PUSH1 0xA SWAP1 SWAP2 MSTORE SWAP1 DUP2 SWAP1 KECCAK256 DUP2 MLOAD PUSH1 0x80 DUP2 ADD SWAP3 DUP4 SWAP1 MSTORE PUSH2 0x109A SWAP3 DUP6 SWAP3 PUSH1 0xF ADD SWAP1 PUSH1 0x4 SWAP1 DUP3 DUP5 JUMPDEST DUP2 SLOAD DUP2 MSTORE PUSH1 0x20 ADD SWAP1 PUSH1 0x1 ADD SWAP1 DUP1 DUP4 GT PUSH2 0x107C JUMPI POP POP POP POP POP DUP4 PUSH2 0x1E6D JUMP JUMPDEST PUSH2 0x10E6 JUMPI PUSH1 0x40 MLOAD PUSH3 0x461BCD PUSH1 0xE5 SHL DUP2 MSTORE PUSH1 0x20 PUSH1 0x4 DUP3 ADD MSTORE PUSH1 0x1C PUSH1 0x24 DUP3 ADD MSTORE PUSH32 0x496E76616C6964207468726573686F6C64207369676E61747572652100000000 PUSH1 0x44 DUP3 ADD MSTORE PUSH1 0x64 ADD PUSH2 0x3C2 JUMP JUMPDEST CALLER PUSH1 0x0 SWAP1 DUP2 MSTORE PUSH1 0xB PUSH1 0x20 SWAP1 DUP2 MSTORE PUSH1 0x40 DUP1 DUP4 KECCAK256 PUSH1 0x2 SWAP1 DUP2 ADD SLOAD PUSH1 0x1 PUSH1 0x1 PUSH1 0xA0 SHL SUB DUP12 AND DUP6 MSTORE PUSH1 0x8 SWAP1 SWAP4 MSTORE SWAP3 KECCAK256 SWAP1 SWAP2 ADD SLOAD EQ PUSH2 0x1162 JUMPI PUSH1 0x40 MLOAD PUSH3 0x461BCD PUSH1 0xE5 SHL DUP2 MSTORE PUSH1 0x20 PUSH1 0x4 DUP3 ADD MSTORE PUSH1 0x15 PUSH1 0x24 DUP3 ADD MSTORE PUSH32 0x496E76616C6964204845492073656C6563746564210000000000000000000000 PUSH1 0x44 DUP3 ADD MSTORE PUSH1 0x64 ADD PUSH2 0x3C2 JUMP JUMPDEST PUSH2 0x116A PUSH2 0x2090 JUMP JUMPDEST PUSH1 0x20 DUP1 DUP3 ADD MLOAD PUSH1 0x1 PUSH1 0x1 PUSH1 0xA0 SHL SUB DUP10 AND PUSH1 0x0 MSTORE PUSH1 0x9 SWAP1 SWAP2 MSTORE DUP5 SWAP1 PUSH2 0x1190 PUSH1 0x1 PUSH1 0xA PUSH2 0x2A29 JUMP JUMPDEST PUSH1 0xA DUP2 LT PUSH2 0x11A0 JUMPI PUSH2 0x11A0 PUSH2 0x2A40 JUMP JUMPDEST PUSH1 0x20 MUL ADD DUP2 DUP2 MSTORE POP POP DUP6 DUP6 DUP1 DUP1 PUSH1 0x1F ADD PUSH1 0x20 DUP1 SWAP2 DIV MUL PUSH1 0x20 ADD PUSH1 0x40 MLOAD SWAP1 DUP2 ADD PUSH1 0x40 MSTORE DUP1 SWAP4 SWAP3 SWAP2 SWAP1 DUP2 DUP2 MSTORE PUSH1 0x20 ADD DUP4 DUP4 DUP1 DUP3 DUP5 CALLDATACOPY PUSH1 0x0 SWAP3 ADD DUP3 SWAP1 MSTORE POP DUP6 MLOAD PUSH1 0x1 PUSH1 0x1 PUSH1 0xA0 SHL SUB DUP14 AND SWAP1 SWAP2 MSTORE PUSH1 0x9 PUSH1 0x20 MSTORE SWAP3 POP PUSH2 0x1201 SWAP2 POP PUSH1 0x1 SWAP1 POP PUSH1 0xA PUSH2 0x2A29 JUMP JUMPDEST PUSH1 0xA DUP2 LT PUSH2 0x1211 JUMPI PUSH2 0x1211 PUSH2 0x2A40 JUMP JUMPDEST PUSH1 0x20 SWAP1 DUP2 MUL SWAP2 SWAP1 SWAP2 ADD SWAP2 SWAP1 SWAP2 MSTORE PUSH1 0x1 PUSH1 0x1 PUSH1 0xA0 SHL SUB DUP9 AND PUSH1 0x0 SWAP1 DUP2 MSTORE PUSH1 0x9 SWAP1 SWAP2 MSTORE PUSH1 0x40 SWAP1 KECCAK256 DUP2 MLOAD DUP3 SWAP2 SWAP1 PUSH2 0x1248 SWAP1 DUP3 SWAP1 PUSH1 0xA PUSH2 0x20BD JUMP JUMPDEST POP PUSH1 0x20 DUP3 ADD MLOAD PUSH2 0x125E SWAP1 PUSH1 0xA DUP1 DUP5 ADD SWAP2 SWAP1 PUSH2 0x2106 JUMP JUMPDEST POP PUSH1 0x40 SWAP2 DUP3 ADD MLOAD PUSH1 0x14 SWAP1 SWAP2 ADD SSTORE CALLER PUSH1 0x0 SWAP1 DUP2 MSTORE PUSH1 0xB PUSH1 0x20 SWAP1 DUP2 MSTORE DUP3 DUP3 KECCAK256 PUSH1 0x2 SWAP1 DUP2 ADD SLOAD DUP4 MSTORE PUSH1 0xA SWAP1 SWAP2 MSTORE SWAP2 DUP2 KECCAK256 PUSH1 0xC ADD DUP1 SLOAD SWAP1 SWAP2 SWAP1 PUSH2 0x129E SWAP1 DUP5 SWAP1 PUSH2 0x2A56 JUMP JUMPDEST SWAP1 SWAP2 SSTORE POP POP PUSH1 0x1 PUSH1 0x1 PUSH1 0xA0 SHL SUB DUP8 AND PUSH1 0x0 DUP2 DUP2 MSTORE PUSH1 0x8 PUSH1 0x20 SWAP1 DUP2 MSTORE PUSH1 0x40 SWAP2 DUP3 SWAP1 KECCAK256 PUSH1 0x2 ADD SLOAD DUP3 MLOAD SWAP4 DUP5 MSTORE SWAP1 DUP4 ADD MSTORE PUSH32 0x44DF815358EEAA6E5FBB3AC2DD05FD650E171EA29051666A7AFDD28C811284F1 SWAP2 ADD PUSH1 0x40 MLOAD DUP1 SWAP2 SUB SWAP1 LOG1 POP POP POP POP POP POP POP JUMP JUMPDEST CALLER PUSH1 0x0 SWAP1 DUP2 MSTORE PUSH1 0xB PUSH1 0x20 MSTORE PUSH1 0x40 DUP2 KECCAK256 PUSH1 0x2 ADD SLOAD SWAP1 SUB PUSH2 0x137A JUMPI PUSH1 0x40 MLOAD PUSH3 0x461BCD PUSH1 0xE5 SHL DUP2 MSTORE PUSH1 0x20 PUSH1 0x4 DUP3 ADD MSTORE PUSH1 0x30 PUSH1 0x24 DUP3 ADD MSTORE PUSH32 0x4F7065726174696F6E2064656E6965642C2073686F756C642062652061207265 PUSH1 0x44 DUP3 ADD MSTORE PUSH16 0x6769737465726564206F7261636C6521 PUSH1 0x80 SHL PUSH1 0x64 DUP3 ADD MSTORE PUSH1 0x84 ADD PUSH2 0x3C2 JUMP JUMPDEST PUSH1 0x1 PUSH1 0x1 PUSH1 0xA0 SHL SUB DUP8 AND PUSH1 0x0 SWAP1 DUP2 MSTORE PUSH1 0x8 PUSH1 0x20 MSTORE PUSH1 0x40 DUP2 KECCAK256 PUSH1 0x2 ADD SLOAD SWAP1 SUB PUSH2 0x13E4 JUMPI PUSH1 0x40 MLOAD PUSH3 0x461BCD PUSH1 0xE5 SHL DUP2 MSTORE PUSH1 0x20 PUSH1 0x4 DUP3 ADD MSTORE PUSH1 0x18 PUSH1 0x24 DUP3 ADD MSTORE PUSH32 0x484549206973206E6F74206265696E672072616E6B6564210000000000000000 PUSH1 0x44 DUP3 ADD MSTORE PUSH1 0x64 ADD PUSH2 0x3C2 JUMP JUMPDEST CALLER PUSH1 0x0 SWAP1 DUP2 MSTORE PUSH1 0xB PUSH1 0x20 SWAP1 DUP2 MSTORE PUSH1 0x40 DUP1 DUP4 KECCAK256 PUSH1 0x2 ADD SLOAD PUSH1 0x1 PUSH1 0x1 PUSH1 0xA0 SHL SUB DUP13 AND DUP5 MSTORE PUSH1 0xC SWAP1 SWAP3 MSTORE SWAP1 SWAP2 KECCAK256 SLOAD EQ PUSH2 0x1482 JUMPI PUSH1 0x40 MLOAD PUSH3 0x461BCD PUSH1 0xE5 SHL DUP2 MSTORE PUSH1 0x20 PUSH1 0x4 DUP3 ADD MSTORE PUSH1 0x25 PUSH1 0x24 DUP3 ADD MSTORE PUSH32 0x4E6F20737563682064617461206C696E6B656420746F20676976656E20636C75 PUSH1 0x44 DUP3 ADD MSTORE PUSH32 0x7374657221000000000000000000000000000000000000000000000000000000 PUSH1 0x64 DUP3 ADD MSTORE PUSH1 0x84 ADD PUSH2 0x3C2 JUMP JUMPDEST CALLER PUSH1 0x0 SWAP1 DUP2 MSTORE PUSH1 0xB PUSH1 0x20 SWAP1 DUP2 MSTORE PUSH1 0x40 DUP1 DUP4 KECCAK256 PUSH1 0x2 ADD SLOAD DUP4 MSTORE PUSH1 0xA SWAP1 SWAP2 MSTORE SWAP1 KECCAK256 PUSH1 0xE ADD SLOAD TIMESTAMP LT PUSH2 0x150D JUMPI PUSH1 0x40 MLOAD PUSH3 0x461BCD PUSH1 0xE5 SHL DUP2 MSTORE PUSH1 0x20 PUSH1 0x4 DUP3 ADD MSTORE PUSH1 0x31 PUSH1 0x24 DUP3 ADD MSTORE PUSH32 0x4861766520746F207265667265736820746865207075626C6963206B65792062 PUSH1 0x44 DUP3 ADD MSTORE PUSH17 0x65666F72652070726F63656564696E6721 PUSH1 0x78 SHL PUSH1 0x64 DUP3 ADD MSTORE PUSH1 0x84 ADD PUSH2 0x3C2 JUMP JUMPDEST PUSH1 0x40 DUP1 MLOAD DUP1 DUP3 ADD DUP3 MSTORE PUSH2 0x15A3 SWAP2 DUP4 SWAP1 PUSH1 0x2 SWAP1 DUP4 SWAP1 DUP4 SWAP1 DUP1 DUP3 DUP5 CALLDATACOPY PUSH1 0x0 SWAP3 ADD DUP3 SWAP1 MSTORE POP CALLER DUP2 MSTORE PUSH1 0xB PUSH1 0x20 SWAP1 DUP2 MSTORE PUSH1 0x40 DUP1 DUP4 KECCAK256 PUSH1 0x2 ADD SLOAD DUP4 MSTORE PUSH1 0xA DUP3 MSTORE SWAP2 DUP3 SWAP1 KECCAK256 DUP3 MLOAD PUSH1 0x80 DUP2 ADD SWAP4 DUP5 SWAP1 MSTORE PUSH1 0xF DUP3 ADD DUP1 SLOAD DUP3 MSTORE SWAP1 SWAP6 POP SWAP4 POP PUSH1 0x4 SWAP3 SWAP2 PUSH1 0x10 SWAP1 SWAP2 ADD SWAP1 DUP6 ADD DUP1 DUP4 GT PUSH2 0xA7F JUMPI POP POP PUSH1 0x40 DUP1 MLOAD DUP1 DUP3 ADD DUP3 MSTORE SWAP4 POP DUP9 SWAP3 POP PUSH1 0x2 SWAP2 POP DUP4 SWAP1 DUP4 SWAP1 DUP1 DUP3 DUP5 CALLDATACOPY PUSH1 0x0 SWAP3 ADD SWAP2 SWAP1 SWAP2 MSTORE POP PUSH2 0x1E6D SWAP2 POP POP JUMP JUMPDEST PUSH2 0x15EF JUMPI PUSH1 0x40 MLOAD PUSH3 0x461BCD PUSH1 0xE5 SHL DUP2 MSTORE PUSH1 0x20 PUSH1 0x4 DUP3 ADD MSTORE PUSH1 0x12 PUSH1 0x24 DUP3 ADD MSTORE PUSH32 0x496E76616C6964207369676E6174757265210000000000000000000000000000 PUSH1 0x44 DUP3 ADD MSTORE PUSH1 0x64 ADD PUSH2 0x3C2 JUMP JUMPDEST PUSH1 0x1 PUSH1 0x1 PUSH1 0xA0 SHL SUB DUP8 AND PUSH1 0x0 SWAP1 DUP2 MSTORE PUSH1 0x9 PUSH1 0x20 MSTORE PUSH1 0x40 SWAP1 KECCAK256 DUP6 SWAP1 PUSH1 0xA SWAP1 DUP2 ADD SWAP1 DUP9 SWAP1 DUP2 LT PUSH2 0x161F JUMPI PUSH2 0x161F PUSH2 0x2A40 JUMP JUMPDEST ADD SSTORE PUSH1 0x1 PUSH1 0x1 PUSH1 0xA0 SHL SUB DUP8 AND PUSH1 0x0 SWAP1 DUP2 MSTORE PUSH1 0x9 PUSH1 0x20 MSTORE PUSH1 0x40 SWAP1 KECCAK256 DUP5 SWAP1 DUP5 SWAP1 DUP9 PUSH1 0xA DUP2 LT PUSH2 0x164E JUMPI PUSH2 0x164E PUSH2 0x2A40 JUMP JUMPDEST ADD SWAP2 PUSH2 0x165B SWAP2 SWAP1 DUP4 PUSH2 0x28FC JUMP JUMPDEST POP PUSH1 0x1 PUSH1 0x1 PUSH1 0xA0 SHL SUB DUP9 AND PUSH1 0x0 SWAP1 DUP2 MSTORE PUSH1 0xB PUSH1 0x20 MSTORE PUSH1 0x40 DUP2 KECCAK256 PUSH1 0x1 ADD DUP1 SLOAD SWAP2 PUSH2 0x1683 DUP4 PUSH2 0x2A10 JUMP JUMPDEST SWAP1 SWAP2 SSTORE POP POP POP PUSH1 0x1 PUSH1 0x1 PUSH1 0xA0 SHL SUB SWAP1 SWAP7 AND PUSH1 0x0 SWAP1 DUP2 MSTORE PUSH1 0xC PUSH1 0x20 MSTORE PUSH1 0x40 DUP2 KECCAK256 SSTORE POP POP POP POP POP POP JUMP JUMPDEST PUSH1 0x0 DUP2 MLOAD DUP4 MLOAD EQ PUSH2 0x16BE JUMPI POP PUSH1 0x0 PUSH2 0x1710 JUMP JUMPDEST DUP2 PUSH1 0x40 MLOAD PUSH1 0x20 ADD PUSH2 0x16CF SWAP2 SWAP1 PUSH2 0x2B01 JUMP JUMPDEST PUSH1 0x40 MLOAD PUSH1 0x20 DUP2 DUP4 SUB SUB DUP2 MSTORE SWAP1 PUSH1 0x40 MSTORE DUP1 MLOAD SWAP1 PUSH1 0x20 ADD KECCAK256 DUP4 PUSH1 0x40 MLOAD PUSH1 0x20 ADD PUSH2 0x16F6 SWAP2 SWAP1 PUSH2 0x2B01 JUMP JUMPDEST PUSH1 0x40 MLOAD PUSH1 0x20 DUP2 DUP4 SUB SUB DUP2 MSTORE SWAP1 PUSH1 0x40 MSTORE DUP1 MLOAD SWAP1 PUSH1 0x20 ADD KECCAK256 EQ SWAP1 POP JUMPDEST SWAP3 SWAP2 POP POP JUMP JUMPDEST CALLER PUSH1 0x0 SWAP1 DUP2 MSTORE PUSH1 0xB PUSH1 0x20 MSTORE PUSH1 0x40 SWAP1 KECCAK256 PUSH1 0x2 ADD SLOAD ISZERO PUSH2 0x178B JUMPI PUSH1 0x40 MLOAD PUSH3 0x461BCD PUSH1 0xE5 SHL DUP2 MSTORE PUSH1 0x20 PUSH1 0x4 DUP3 ADD MSTORE PUSH1 0x2C PUSH1 0x24 DUP3 ADD MSTORE PUSH32 0x526567697374726174696F6E2064656E6965642C2063616E206F6E6C79207265 PUSH1 0x44 DUP3 ADD MSTORE PUSH12 0x676973746572206F6E636521 PUSH1 0xA0 SHL PUSH1 0x64 DUP3 ADD MSTORE PUSH1 0x84 ADD PUSH2 0x3C2 JUMP JUMPDEST CALLER PUSH1 0x0 SWAP1 DUP2 MSTORE PUSH1 0x8 PUSH1 0x20 MSTORE PUSH1 0x40 SWAP1 KECCAK256 SLOAD PUSH1 0x1 PUSH1 0x1 PUSH1 0xA0 SHL SUB AND ISZERO PUSH2 0x1817 JUMPI PUSH1 0x40 MLOAD PUSH3 0x461BCD PUSH1 0xE5 SHL DUP2 MSTORE PUSH1 0x20 PUSH1 0x4 DUP3 ADD MSTORE PUSH1 0x2D PUSH1 0x24 DUP3 ADD MSTORE PUSH32 0x526567697374726174696F6E2063616E206F6E6C7920626520646F6E65206F6E PUSH1 0x44 DUP3 ADD MSTORE PUSH32 0x636520617420612074696D652100000000000000000000000000000000000000 PUSH1 0x64 DUP3 ADD MSTORE PUSH1 0x84 ADD PUSH2 0x3C2 JUMP JUMPDEST PUSH1 0x40 DUP1 MLOAD PUSH1 0xA0 DUP2 ADD DUP3 MSTORE PUSH1 0x0 DUP2 DUP4 ADD DUP2 SWAP1 MSTORE PUSH1 0x60 DUP3 ADD DUP2 SWAP1 MSTORE PUSH1 0x20 DUP1 DUP4 ADD DUP8 DUP2 MSTORE CALLER DUP1 DUP6 MSTORE PUSH1 0x80 DUP6 ADD DUP8 SWAP1 MSTORE DUP4 MSTORE PUSH1 0x8 SWAP1 SWAP2 MSTORE SWAP3 SWAP1 KECCAK256 DUP2 MLOAD DUP2 SLOAD PUSH20 0xFFFFFFFFFFFFFFFFFFFFFFFFFFFFFFFFFFFFFFFF NOT AND PUSH1 0x1 PUSH1 0x1 PUSH1 0xA0 SHL SUB SWAP1 SWAP2 AND OR DUP2 SSTORE SWAP2 MLOAD SWAP1 SWAP2 DUP3 SWAP2 PUSH1 0x1 DUP3 ADD SWAP1 PUSH2 0x188B SWAP1 DUP3 PUSH2 0x2B1D JUMP JUMPDEST POP PUSH1 0x40 DUP3 ADD MLOAD PUSH1 0x2 DUP3 ADD SSTORE PUSH1 0x60 DUP3 ADD MLOAD PUSH1 0x3 DUP3 ADD DUP1 SLOAD PUSH1 0xFF NOT AND SWAP2 ISZERO ISZERO SWAP2 SWAP1 SWAP2 OR SWAP1 SSTORE PUSH1 0x80 DUP3 ADD MLOAD PUSH1 0x4 DUP3 ADD SWAP1 PUSH2 0x18C2 SWAP1 DUP3 PUSH2 0x2B1D JUMP JUMPDEST POP SWAP1 POP POP PUSH32 0x528F90766D7FFD9A9B19173678985FE1321ACAE03E0D442103E20A8F950CF5B2 DUP4 DUP6 PUSH1 0x40 MLOAD PUSH2 0x623 SWAP3 SWAP2 SWAP1 PUSH2 0x2BDD JUMP JUMPDEST CALLER PUSH1 0x0 SWAP1 DUP2 MSTORE PUSH1 0xB PUSH1 0x20 MSTORE PUSH1 0x40 DUP2 KECCAK256 PUSH1 0x2 ADD SLOAD SWAP1 SUB PUSH2 0x1971 JUMPI PUSH1 0x40 MLOAD PUSH3 0x461BCD PUSH1 0xE5 SHL DUP2 MSTORE PUSH1 0x20 PUSH1 0x4 DUP3 ADD MSTORE PUSH1 0x30 PUSH1 0x24 DUP3 ADD MSTORE PUSH32 0x4F7065726174696F6E2064656E6965642C2073686F756C642062652061207265 PUSH1 0x44 DUP3 ADD MSTORE PUSH16 0x6769737465726564206F7261636C6521 PUSH1 0x80 SHL PUSH1 0x64 DUP3 ADD MSTORE PUSH1 0x84 ADD PUSH2 0x3C2 JUMP JUMPDEST CALLER PUSH1 0x0 DUP2 DUP2 MSTORE PUSH1 0xB PUSH1 0x20 SWAP1 DUP2 MSTORE PUSH1 0x40 DUP1 DUP4 KECCAK256 PUSH1 0x2 ADD SLOAD DUP4 MSTORE PUSH1 0xA SWAP1 SWAP2 MSTORE SWAP1 KECCAK256 PUSH1 0xD ADD SLOAD PUSH1 0x1 PUSH1 0x1 PUSH1 0xA0 SHL SUB AND EQ PUSH2 0x1A10 JUMPI PUSH1 0x40 MLOAD PUSH3 0x461BCD PUSH1 0xE5 SHL DUP2 MSTORE PUSH1 0x20 PUSH1 0x4 DUP3 ADD MSTORE PUSH1 0x27 PUSH1 0x24 DUP3 ADD MSTORE PUSH32 0x4F6E6C79206F7261636C6520686561642063616E207375626D6974207075626C PUSH1 0x44 DUP3 ADD MSTORE PUSH32 0x6963206B65792100000000000000000000000000000000000000000000000000 PUSH1 0x64 DUP3 ADD MSTORE PUSH1 0x84 ADD PUSH2 0x3C2 JUMP JUMPDEST CALLER PUSH1 0x0 SWAP1 DUP2 MSTORE PUSH1 0xB PUSH1 0x20 MSTORE PUSH1 0x40 DUP2 KECCAK256 PUSH1 0x1 ADD DUP1 SLOAD SWAP2 PUSH2 0x1A2E DUP4 PUSH2 0x2A10 JUMP JUMPDEST SWAP1 SWAP2 SSTORE POP POP PUSH1 0x5 SLOAD PUSH2 0x1A40 SWAP1 TIMESTAMP PUSH2 0x2A56 JUMP JUMPDEST CALLER PUSH1 0x0 SWAP1 DUP2 MSTORE PUSH1 0xB PUSH1 0x20 SWAP1 DUP2 MSTORE PUSH1 0x40 DUP1 DUP4 KECCAK256 PUSH1 0x2 ADD DUP1 SLOAD DUP5 MSTORE PUSH1 0xA SWAP1 SWAP3 MSTORE DUP1 DUP4 KECCAK256 PUSH1 0xE ADD SWAP4 SWAP1 SWAP4 SSTORE SLOAD DUP2 MSTORE KECCAK256 PUSH2 0x1A7B SWAP1 PUSH1 0xF ADD DUP3 PUSH1 0x4 PUSH2 0x2140 JUMP JUMPDEST POP POP JUMP JUMPDEST CALLER PUSH1 0x0 SWAP1 DUP2 MSTORE PUSH1 0xB PUSH1 0x20 MSTORE PUSH1 0x40 DUP2 KECCAK256 PUSH1 0x2 ADD SLOAD SWAP1 SUB PUSH2 0x1AF9 JUMPI PUSH1 0x40 MLOAD PUSH3 0x461BCD PUSH1 0xE5 SHL DUP2 MSTORE PUSH1 0x20 PUSH1 0x4 DUP3 ADD MSTORE PUSH1 0x30 PUSH1 0x24 DUP3 ADD MSTORE PUSH32 0x4F7065726174696F6E2064656E6965642C2073686F756C642062652061207265 PUSH1 0x44 DUP3 ADD MSTORE PUSH16 0x6769737465726564206F7261636C6521 PUSH1 0x80 SHL PUSH1 0x64 DUP3 ADD MSTORE PUSH1 0x84 ADD PUSH2 0x3C2 JUMP JUMPDEST CALLER PUSH1 0x0 DUP2 DUP2 MSTORE PUSH1 0xB PUSH1 0x20 DUP2 DUP2 MSTORE PUSH1 0x40 DUP1 DUP5 KECCAK256 PUSH1 0x2 DUP1 DUP3 ADD SLOAD DUP7 MSTORE PUSH1 0xA DUP1 DUP6 MSTORE SWAP3 DUP7 KECCAK256 PUSH1 0xC DUP2 ADD SLOAD SWAP8 SWAP1 SWAP7 MSTORE SWAP4 SWAP1 SWAP3 MSTORE SWAP1 SLOAD SWAP3 SWAP1 SWAP2 ADD SWAP2 SWAP1 DUP2 LT PUSH2 0x1B3E JUMPI PUSH2 0x1B3E PUSH2 0x2A40 JUMP JUMPDEST ADD SLOAD LT PUSH2 0x1B8D JUMPI PUSH1 0x40 MLOAD PUSH3 0x461BCD PUSH1 0xE5 SHL DUP2 MSTORE PUSH1 0x20 PUSH1 0x4 DUP3 ADD MSTORE PUSH1 0x10 PUSH1 0x24 DUP3 ADD MSTORE PUSH32 0x496E76616C696420436C75737465722100000000000000000000000000000000 PUSH1 0x44 DUP3 ADD MSTORE PUSH1 0x64 ADD PUSH2 0x3C2 JUMP JUMPDEST CALLER PUSH1 0x0 DUP2 DUP2 MSTORE PUSH1 0xB PUSH1 0x20 DUP2 DUP2 MSTORE PUSH1 0x40 DUP1 DUP5 KECCAK256 PUSH1 0x2 DUP1 DUP3 ADD SLOAD DUP7 MSTORE PUSH1 0xA DUP1 DUP6 MSTORE SWAP3 DUP7 KECCAK256 SWAP7 DUP7 MSTORE SWAP4 SWAP1 SWAP3 MSTORE SWAP1 SLOAD SWAP3 SWAP4 SWAP1 SWAP2 ADD SWAP2 SWAP1 DUP2 LT PUSH2 0x1BCD JUMPI PUSH2 0x1BCD PUSH2 0x2A40 JUMP JUMPDEST ADD SLOAD CALLER PUSH1 0x0 SWAP1 DUP2 MSTORE PUSH1 0xB PUSH1 0x20 SWAP1 DUP2 MSTORE PUSH1 0x40 DUP1 DUP4 KECCAK256 PUSH1 0x2 ADD SLOAD DUP4 MSTORE PUSH1 0xA SWAP1 SWAP2 MSTORE SWAP1 KECCAK256 PUSH1 0xC ADD SLOAD PUSH2 0x1BFC SWAP2 SWAP1 PUSH2 0x2A29 JUMP JUMPDEST SWAP1 POP PUSH1 0x0 PUSH1 0x1 SLOAD DUP3 PUSH2 0x1C0E SWAP2 SWAP1 PUSH2 0x285A JUMP JUMPDEST PUSH1 0x40 MLOAD SWAP1 SWAP2 POP CALLER SWAP1 DUP3 ISZERO PUSH2 0x8FC MUL SWAP1 DUP4 SWAP1 PUSH1 0x0 DUP2 DUP2 DUP2 DUP6 DUP9 DUP9 CALL SWAP4 POP POP POP POP ISZERO DUP1 ISZERO PUSH2 0x1C3E JUMPI RETURNDATASIZE PUSH1 0x0 DUP1 RETURNDATACOPY RETURNDATASIZE PUSH1 0x0 REVERT JUMPDEST POP CALLER PUSH1 0x0 DUP2 DUP2 MSTORE PUSH1 0xB PUSH1 0x20 DUP2 DUP2 MSTORE PUSH1 0x40 DUP1 DUP5 KECCAK256 PUSH1 0x2 DUP1 DUP3 ADD SLOAD DUP7 MSTORE PUSH1 0xA DUP1 DUP6 MSTORE SWAP3 DUP7 KECCAK256 SWAP7 SWAP1 SWAP6 MSTORE SWAP3 SWAP1 SWAP2 MSTORE SWAP1 SLOAD DUP6 SWAP4 SWAP1 SWAP3 ADD SWAP2 SWAP1 DUP2 LT PUSH2 0x1C80 JUMPI PUSH2 0x1C80 PUSH2 0x2A40 JUMP JUMPDEST ADD PUSH1 0x0 DUP3 DUP3 SLOAD PUSH2 0x1C90 SWAP2 SWAP1 PUSH2 0x2A56 JUMP JUMPDEST SWAP1 SWAP2 SSTORE POP POP POP POP JUMP JUMPDEST PUSH1 0x1 PUSH1 0x1 PUSH1 0xA0 SHL SUB DUP1 DUP3 AND PUSH1 0x0 SWAP1 DUP2 MSTORE PUSH1 0x8 PUSH1 0x20 MSTORE PUSH1 0x40 DUP2 KECCAK256 DUP1 SLOAD PUSH1 0x1 SWAP1 SWAP2 ADD DUP1 SLOAD PUSH1 0x60 SWAP5 SWAP2 SWAP3 SWAP1 SWAP2 AND SWAP1 DUP3 SWAP1 PUSH2 0x1CCF SWAP1 PUSH2 0x2879 JUMP JUMPDEST DUP1 PUSH1 0x1F ADD PUSH1 0x20 DUP1 SWAP2 DIV MUL PUSH1 0x20 ADD PUSH1 0x40 MLOAD SWAP1 DUP2 ADD PUSH1 0x40 MSTORE DUP1 SWAP3 SWAP2 SWAP1 DUP2 DUP2 MSTORE PUSH1 0x20 ADD DUP3 DUP1 SLOAD PUSH2 0x1CFB SWAP1 PUSH2 0x2879 JUMP JUMPDEST DUP1 ISZERO PUSH2 0x1D48 JUMPI DUP1 PUSH1 0x1F LT PUSH2 0x1D1D JUMPI PUSH2 0x100 DUP1 DUP4 SLOAD DIV MUL DUP4 MSTORE SWAP2 PUSH1 0x20 ADD SWAP2 PUSH2 0x1D48 JUMP JUMPDEST DUP3 ADD SWAP2 SWAP1 PUSH1 0x0 MSTORE PUSH1 0x20 PUSH1 0x0 KECCAK256 SWAP1 JUMPDEST DUP2 SLOAD DUP2 MSTORE SWAP1 PUSH1 0x1 ADD SWAP1 PUSH1 0x20 ADD DUP1 DUP4 GT PUSH2 0x1D2B JUMPI DUP3 SWAP1 SUB PUSH1 0x1F AND DUP3 ADD SWAP2 JUMPDEST POP POP POP POP POP SWAP2 POP SWAP2 POP SWAP2 POP SWAP2 POP SWAP2 JUMP JUMPDEST PUSH1 0x3 DUP1 SLOAD SWAP1 PUSH1 0x0 PUSH2 0x1D68 DUP4 PUSH2 0x2A10 JUMP JUMPDEST SWAP2 SWAP1 POP SSTORE POP PUSH2 0x1D75 PUSH2 0x216E JUMP JUMPDEST PUSH1 0x3 SLOAD DUP1 DUP3 MSTORE PUSH1 0x1 PUSH1 0x20 DUP1 DUP5 ADD DUP3 DUP2 MSTORE PUSH1 0x0 PUSH1 0x60 DUP7 ADD DUP2 SWAP1 MSTORE PUSH1 0x1 PUSH1 0x1 PUSH1 0xA0 SHL SUB DUP8 AND PUSH1 0x80 DUP8 ADD MSTORE SWAP4 DUP5 MSTORE PUSH1 0xA SWAP2 DUP3 SWAP1 MSTORE PUSH1 0x40 SWAP4 DUP5 SWAP1 KECCAK256 DUP6 MLOAD DUP2 SSTORE SWAP1 MLOAD SWAP3 DUP2 ADD SWAP3 SWAP1 SWAP3 SSTORE SWAP2 DUP4 ADD MLOAD DUP4 SWAP3 PUSH2 0x1DCD SWAP2 PUSH1 0x2 DUP5 ADD SWAP2 PUSH2 0x2106 JUMP JUMPDEST POP PUSH1 0x60 DUP3 ADD MLOAD PUSH1 0xC DUP3 ADD SSTORE PUSH1 0x80 DUP3 ADD MLOAD PUSH1 0xD DUP3 ADD DUP1 SLOAD PUSH20 0xFFFFFFFFFFFFFFFFFFFFFFFFFFFFFFFFFFFFFFFF NOT AND PUSH1 0x1 PUSH1 0x1 PUSH1 0xA0 SHL SUB SWAP1 SWAP3 AND SWAP2 SWAP1 SWAP2 OR SWAP1 SSTORE PUSH1 0xA0 DUP3 ADD MLOAD PUSH1 0xE DUP3 ADD SSTORE PUSH1 0xC0 DUP3 ADD MLOAD PUSH2 0x1E2A SWAP1 PUSH1 0xF DUP4 ADD SWAP1 PUSH1 0x4 PUSH2 0x21BF JUMP JUMPDEST POP POP DUP2 MLOAD PUSH1 0x40 DUP1 MLOAD SWAP2 DUP3 MSTORE PUSH1 0x1 PUSH1 0x1 PUSH1 0xA0 SHL SUB DUP6 AND PUSH1 0x20 DUP4 ADD MSTORE PUSH32 0x3D7234633C69B8B87E519C47164C3D80FB215FB9C6F203E796476D468FF7A125 SWAP3 POP ADD PUSH2 0xFBB JUMP JUMPDEST PUSH1 0x0 DUP1 PUSH1 0x40 MLOAD DUP1 PUSH2 0x180 ADD PUSH1 0x40 MSTORE DUP1 DUP7 PUSH1 0x0 PUSH1 0x2 DUP2 LT PUSH2 0x1E8F JUMPI PUSH2 0x1E8F PUSH2 0x2A40 JUMP JUMPDEST PUSH1 0x20 MUL ADD MLOAD DUP2 MSTORE PUSH1 0x20 ADD DUP7 PUSH1 0x1 PUSH1 0x2 DUP2 LT PUSH2 0x1EAC JUMPI PUSH2 0x1EAC PUSH2 0x2A40 JUMP JUMPDEST PUSH1 0x20 MUL ADD MLOAD DUP2 MSTORE PUSH1 0x20 ADD PUSH32 0x198E9393920D483A7260BFB731FB5D25F1AA493335A9E71297E485B7AEF312C2 DUP2 MSTORE PUSH1 0x20 ADD PUSH32 0x1800DEEF121F1E76426A00665E5C4479674322D4F75EDADD46DEBD5CD992F6ED DUP2 MSTORE PUSH1 0x20 ADD PUSH32 0x275DC4A288D1AFB3CBB1AC09187524C7DB36395DF7BE3B99E673B13A075A65EC DUP2 MSTORE PUSH1 0x20 ADD PUSH32 0x1D9BEFCD05A5323E6DA4D435F3B617CDB3AF83285C2DF711EF39C01571827F9D DUP2 MSTORE PUSH1 0x20 ADD DUP5 PUSH1 0x0 PUSH1 0x2 DUP2 LT PUSH2 0x1F61 JUMPI PUSH2 0x1F61 PUSH2 0x2A40 JUMP JUMPDEST PUSH1 0x20 MUL ADD MLOAD DUP2 MSTORE PUSH1 0x20 ADD DUP5 PUSH1 0x1 PUSH1 0x2 DUP2 LT PUSH2 0x1F7E JUMPI PUSH2 0x1F7E PUSH2 0x2A40 JUMP JUMPDEST PUSH1 0x20 MUL ADD MLOAD DUP2 MSTORE PUSH1 0x20 ADD DUP6 PUSH1 0x1 PUSH1 0x4 DUP2 LT PUSH2 0x1F9B JUMPI PUSH2 0x1F9B PUSH2 0x2A40 JUMP JUMPDEST PUSH1 0x20 MUL ADD MLOAD DUP2 MSTORE PUSH1 0x20 ADD DUP6 PUSH1 0x0 PUSH1 0x4 DUP2 LT PUSH2 0x1FB8 JUMPI PUSH2 0x1FB8 PUSH2 0x2A40 JUMP JUMPDEST PUSH1 0x20 MUL ADD MLOAD DUP2 MSTORE PUSH1 0x20 ADD DUP6 PUSH1 0x3 PUSH1 0x4 DUP2 LT PUSH2 0x1FD5 JUMPI PUSH2 0x1FD5 PUSH2 0x2A40 JUMP JUMPDEST PUSH1 0x20 MUL ADD MLOAD DUP2 MSTORE PUSH1 0x20 ADD DUP6 PUSH1 0x2 PUSH1 0x4 DUP2 LT PUSH2 0x1FF2 JUMPI PUSH2 0x1FF2 PUSH2 0x2A40 JUMP JUMPDEST PUSH1 0x20 MUL ADD MLOAD SWAP1 MSTORE SWAP1 POP PUSH2 0x2003 PUSH2 0x21EC JUMP JUMPDEST PUSH1 0x0 PUSH1 0x20 DUP3 PUSH2 0x180 DUP6 PUSH1 0x8 PUSH2 0x7D0 GAS SUB STATICCALL SWAP1 POP DUP1 DUP1 PUSH2 0x201E JUMPI INVALID JUMPDEST POP DUP1 PUSH2 0x2046 JUMPI PUSH1 0x40 MLOAD PUSH3 0x461BCD PUSH1 0xE5 SHL DUP2 MSTORE PUSH1 0x20 PUSH1 0x4 DUP3 ADD MSTORE PUSH1 0x0 PUSH1 0x24 DUP3 ADD MSTORE PUSH1 0x44 ADD PUSH2 0x3C2 JUMP JUMPDEST POP MLOAD ISZERO ISZERO SWAP6 SWAP5 POP POP POP POP POP JUMP JUMPDEST POP DUP1 SLOAD PUSH2 0x205F SWAP1 PUSH2 0x2879 JUMP JUMPDEST PUSH1 0x0 DUP3 SSTORE DUP1 PUSH1 0x1F LT PUSH2 0x206F JUMPI POP POP JUMP JUMPDEST PUSH1 0x1F ADD PUSH1 0x20 SWAP1 DIV SWAP1 PUSH1 0x0 MSTORE PUSH1 0x20 PUSH1 0x0 KECCAK256 SWAP1 DUP2 ADD SWAP1 PUSH2 0x208D SWAP2 SWAP1 PUSH2 0x220A JUMP JUMPDEST POP JUMP JUMPDEST PUSH1 0x40 MLOAD DUP1 PUSH1 0x60 ADD PUSH1 0x40 MSTORE DUP1 PUSH2 0x20A3 PUSH2 0x221F JUMP JUMPDEST DUP2 MSTORE PUSH1 0x20 ADD PUSH2 0x20B0 PUSH2 0x2247 JUMP JUMPDEST DUP2 MSTORE PUSH1 0x20 ADD PUSH1 0x0 DUP2 MSTORE POP SWAP1 JUMP JUMPDEST DUP3 PUSH1 0xA DUP2 ADD SWAP3 DUP3 ISZERO PUSH2 0x20F6 JUMPI SWAP2 PUSH1 0x20 MUL DUP3 ADD JUMPDEST DUP3 DUP2 GT ISZERO PUSH2 0x20F6 JUMPI DUP3 MLOAD DUP3 SWAP1 PUSH2 0x20E6 SWAP1 DUP3 PUSH2 0x2B1D JUMP JUMPDEST POP SWAP2 PUSH1 0x20 ADD SWAP2 SWAP1 PUSH1 0x1 ADD SWAP1 PUSH2 0x20D0 JUMP JUMPDEST POP PUSH2 0x2102 SWAP3 SWAP2 POP PUSH2 0x2266 JUMP JUMPDEST POP SWAP1 JUMP JUMPDEST DUP3 PUSH1 0xA DUP2 ADD SWAP3 DUP3 ISZERO PUSH2 0x2134 JUMPI SWAP2 PUSH1 0x20 MUL DUP3 ADD JUMPDEST DUP3 DUP2 GT ISZERO PUSH2 0x2134 JUMPI DUP3 MLOAD DUP3 SSTORE SWAP2 PUSH1 0x20 ADD SWAP2 SWAP1 PUSH1 0x1 ADD SWAP1 PUSH2 0x2119 JUMP JUMPDEST POP PUSH2 0x2102 SWAP3 SWAP2 POP PUSH2 0x220A JUMP JUMPDEST DUP3 PUSH1 0x4 DUP2 ADD SWAP3 DUP3 ISZERO PUSH2 0x2134 JUMPI SWAP2 PUSH1 0x20 MUL DUP3 ADD JUMPDEST DUP3 DUP2 GT ISZERO PUSH2 0x2134 JUMPI DUP3 CALLDATALOAD DUP3 SSTORE SWAP2 PUSH1 0x20 ADD SWAP2 SWAP1 PUSH1 0x1 ADD SWAP1 PUSH2 0x2153 JUMP JUMPDEST PUSH1 0x40 MLOAD DUP1 PUSH1 0xE0 ADD PUSH1 0x40 MSTORE DUP1 PUSH1 0x0 DUP2 MSTORE PUSH1 0x20 ADD PUSH1 0x0 DUP2 MSTORE PUSH1 0x20 ADD PUSH2 0x218F PUSH2 0x2247 JUMP JUMPDEST DUP2 MSTORE PUSH1 0x20 ADD PUSH1 0x0 DUP2 MSTORE PUSH1 0x20 ADD PUSH1 0x0 PUSH1 0x1 PUSH1 0x1 PUSH1 0xA0 SHL SUB AND DUP2 MSTORE PUSH1 0x20 ADD PUSH1 0x0 DUP2 MSTORE PUSH1 0x20 ADD PUSH2 0x21BA PUSH2 0x2283 JUMP JUMPDEST SWAP1 MSTORE SWAP1 JUMP JUMPDEST DUP3 PUSH1 0x4 DUP2 ADD SWAP3 DUP3 ISZERO PUSH2 0x2134 JUMPI SWAP2 PUSH1 0x20 MUL DUP3 ADD DUP3 DUP2 GT ISZERO PUSH2 0x2134 JUMPI DUP3 MLOAD DUP3 SSTORE SWAP2 PUSH1 0x20 ADD SWAP2 SWAP1 PUSH1 0x1 ADD SWAP1 PUSH2 0x2119 JUMP JUMPDEST PUSH1 0x40 MLOAD DUP1 PUSH1 0x20 ADD PUSH1 0x40 MSTORE DUP1 PUSH1 0x1 SWAP1 PUSH1 0x20 DUP3 MUL DUP1 CALLDATASIZE DUP4 CALLDATACOPY POP SWAP2 SWAP3 SWAP2 POP POP JUMP JUMPDEST JUMPDEST DUP1 DUP3 GT ISZERO PUSH2 0x2102 JUMPI PUSH1 0x0 DUP2 SSTORE PUSH1 0x1 ADD PUSH2 0x220B JUMP JUMPDEST PUSH1 0x40 MLOAD DUP1 PUSH2 0x140 ADD PUSH1 0x40 MSTORE DUP1 PUSH1 0xA SWAP1 JUMPDEST PUSH1 0x60 DUP2 MSTORE PUSH1 0x20 ADD SWAP1 PUSH1 0x1 SWAP1 SUB SWAP1 DUP2 PUSH2 0x222F JUMPI SWAP1 POP POP SWAP1 JUMP JUMPDEST PUSH1 0x40 MLOAD DUP1 PUSH2 0x140 ADD PUSH1 0x40 MSTORE DUP1 PUSH1 0xA SWAP1 PUSH1 0x20 DUP3 MUL DUP1 CALLDATASIZE DUP4 CALLDATACOPY POP SWAP2 SWAP3 SWAP2 POP POP JUMP JUMPDEST DUP1 DUP3 GT ISZERO PUSH2 0x2102 JUMPI PUSH1 0x0 PUSH2 0x227A DUP3 DUP3 PUSH2 0x2053 JUMP JUMPDEST POP PUSH1 0x1 ADD PUSH2 0x2266 JUMP JUMPDEST PUSH1 0x40 MLOAD DUP1 PUSH1 0x80 ADD PUSH1 0x40 MSTORE DUP1 PUSH1 0x4 SWAP1 PUSH1 0x20 DUP3 MUL DUP1 CALLDATASIZE DUP4 CALLDATACOPY POP SWAP2 SWAP3 SWAP2 POP POP JUMP JUMPDEST PUSH1 0x0 DUP1 DUP4 PUSH1 0x1F DUP5 ADD SLT PUSH2 0x22B3 JUMPI PUSH1 0x0 DUP1 REVERT JUMPDEST POP DUP2 CALLDATALOAD PUSH8 0xFFFFFFFFFFFFFFFF DUP2 GT ISZERO PUSH2 0x22CB JUMPI PUSH1 0x0 DUP1 REVERT JUMPDEST PUSH1 0x20 DUP4 ADD SWAP2 POP DUP4 PUSH1 0x20 DUP3 DUP6 ADD ADD GT ISZERO PUSH2 0x22E3 JUMPI PUSH1 0x0 DUP1 REVERT JUMPDEST SWAP3 POP SWAP3 SWAP1 POP JUMP JUMPDEST PUSH1 0x0 DUP1 PUSH1 0x20 DUP4 DUP6 SUB SLT ISZERO PUSH2 0x22FD JUMPI PUSH1 0x0 DUP1 REVERT JUMPDEST DUP3 CALLDATALOAD PUSH8 0xFFFFFFFFFFFFFFFF DUP2 GT ISZERO PUSH2 0x2314 JUMPI PUSH1 0x0 DUP1 REVERT JUMPDEST PUSH2 0x2320 DUP6 DUP3 DUP7 ADD PUSH2 0x22A1 JUMP JUMPDEST SWAP1 SWAP7 SWAP1 SWAP6 POP SWAP4 POP POP POP POP JUMP JUMPDEST DUP1 CALLDATALOAD PUSH1 0x1 PUSH1 0x1 PUSH1 0xA0 SHL SUB DUP2 AND DUP2 EQ PUSH2 0x2343 JUMPI PUSH1 0x0 DUP1 REVERT JUMPDEST SWAP2 SWAP1 POP JUMP JUMPDEST PUSH1 0x0 DUP1 PUSH1 0x0 DUP1 PUSH1 0x60 DUP6 DUP8 SUB SLT ISZERO PUSH2 0x235E JUMPI PUSH1 0x0 DUP1 REVERT JUMPDEST PUSH2 0x2367 DUP6 PUSH2 0x232C JUMP JUMPDEST SWAP4 POP PUSH1 0x20 DUP6 ADD CALLDATALOAD PUSH8 0xFFFFFFFFFFFFFFFF DUP2 GT ISZERO PUSH2 0x2383 JUMPI PUSH1 0x0 DUP1 REVERT JUMPDEST PUSH2 0x238F DUP8 DUP3 DUP9 ADD PUSH2 0x22A1 JUMP JUMPDEST SWAP1 SWAP5 POP SWAP3 POP POP PUSH1 0x40 DUP6 ADD CALLDATALOAD PUSH1 0xFF DUP2 AND DUP2 EQ PUSH2 0x23A9 JUMPI PUSH1 0x0 DUP1 REVERT JUMPDEST SWAP4 SWAP7 SWAP3 SWAP6 POP SWAP1 SWAP4 POP POP JUMP JUMPDEST DUP1 PUSH1 0x40 DUP2 ADD DUP4 LT ISZERO PUSH2 0x1710 JUMPI PUSH1 0x0 DUP1 REVERT JUMPDEST PUSH1 0x0 DUP1 PUSH1 0x0 DUP1 PUSH1 0xC0 DUP6 DUP8 SUB SLT ISZERO PUSH2 0x23DB JUMPI PUSH1 0x0 DUP1 REVERT JUMPDEST PUSH2 0x23E4 DUP6 PUSH2 0x232C JUMP JUMPDEST SWAP4 POP PUSH1 0x20 DUP6 ADD CALLDATALOAD SWAP3 POP PUSH2 0x23FA DUP7 PUSH1 0x40 DUP8 ADD PUSH2 0x23B4 JUMP JUMPDEST SWAP2 POP PUSH2 0x2409 DUP7 PUSH1 0x80 DUP8 ADD PUSH2 0x23B4 JUMP JUMPDEST SWAP1 POP SWAP3 SWAP6 SWAP2 SWAP5 POP SWAP3 POP JUMP JUMPDEST PUSH1 0x0 DUP1 PUSH1 0x40 DUP4 DUP6 SUB SLT ISZERO PUSH2 0x2427 JUMPI PUSH1 0x0 DUP1 REVERT JUMPDEST DUP3 CALLDATALOAD SWAP2 POP PUSH2 0x2437 PUSH1 0x20 DUP5 ADD PUSH2 0x232C JUMP JUMPDEST SWAP1 POP SWAP3 POP SWAP3 SWAP1 POP JUMP JUMPDEST PUSH4 0x4E487B71 PUSH1 0xE0 SHL PUSH1 0x0 MSTORE PUSH1 0x41 PUSH1 0x4 MSTORE PUSH1 0x24 PUSH1 0x0 REVERT JUMPDEST PUSH1 0x0 DUP3 PUSH1 0x1F DUP4 ADD SLT PUSH2 0x2467 JUMPI PUSH1 0x0 DUP1 REVERT JUMPDEST PUSH1 0x40 MLOAD PUSH1 0x40 DUP2 ADD DUP2 DUP2 LT PUSH8 0xFFFFFFFFFFFFFFFF DUP3 GT OR ISZERO PUSH2 0x248A JUMPI PUSH2 0x248A PUSH2 0x2440 JUMP JUMPDEST DUP1 PUSH1 0x40 MSTORE POP DUP1 PUSH1 0x40 DUP5 ADD DUP6 DUP2 GT ISZERO PUSH2 0x24A1 JUMPI PUSH1 0x0 DUP1 REVERT JUMPDEST DUP5 JUMPDEST DUP2 DUP2 LT ISZERO PUSH2 0x24BB JUMPI DUP1 CALLDATALOAD DUP4 MSTORE PUSH1 0x20 SWAP3 DUP4 ADD SWAP3 ADD PUSH2 0x24A3 JUMP JUMPDEST POP SWAP2 SWAP6 SWAP5 POP POP POP POP POP JUMP JUMPDEST PUSH1 0x0 DUP1 PUSH1 0x0 DUP1 PUSH1 0x0 DUP1 PUSH1 0xE0 DUP8 DUP10 SUB SLT ISZERO PUSH2 0x24DF JUMPI PUSH1 0x0 DUP1 REVERT JUMPDEST PUSH2 0x24E8 DUP8 PUSH2 0x232C JUMP JUMPDEST SWAP6 POP PUSH1 0x20 DUP8 ADD CALLDATALOAD PUSH8 0xFFFFFFFFFFFFFFFF DUP2 GT ISZERO PUSH2 0x2504 JUMPI PUSH1 0x0 DUP1 REVERT JUMPDEST PUSH2 0x2510 DUP10 DUP3 DUP11 ADD PUSH2 0x22A1 JUMP JUMPDEST SWAP1 SWAP7 POP SWAP5 POP POP PUSH1 0x40 DUP8 ADD CALLDATALOAD SWAP3 POP PUSH2 0x252A DUP9 PUSH1 0x60 DUP10 ADD PUSH2 0x2456 JUMP JUMPDEST SWAP2 POP PUSH2 0x2539 DUP9 PUSH1 0xA0 DUP10 ADD PUSH2 0x2456 JUMP JUMPDEST SWAP1 POP SWAP3 SWAP6 POP SWAP3 SWAP6 POP SWAP3 SWAP6 JUMP JUMPDEST PUSH1 0x0 DUP1 PUSH1 0x0 DUP1 PUSH1 0x0 DUP1 PUSH1 0x0 DUP1 PUSH2 0x120 DUP10 DUP12 SUB SLT ISZERO PUSH2 0x2562 JUMPI PUSH1 0x0 DUP1 REVERT JUMPDEST PUSH2 0x256B DUP10 PUSH2 0x232C JUMP JUMPDEST SWAP8 POP PUSH2 0x2579 PUSH1 0x20 DUP11 ADD PUSH2 0x232C JUMP JUMPDEST SWAP7 POP PUSH1 0x40 DUP10 ADD CALLDATALOAD SWAP6 POP PUSH1 0x60 DUP10 ADD CALLDATALOAD SWAP5 POP PUSH1 0x80 DUP10 ADD CALLDATALOAD PUSH8 0xFFFFFFFFFFFFFFFF DUP2 GT ISZERO PUSH2 0x25A3 JUMPI PUSH1 0x0 DUP1 REVERT JUMPDEST PUSH2 0x25AF DUP12 DUP3 DUP13 ADD PUSH2 0x22A1 JUMP JUMPDEST SWAP1 SWAP6 POP SWAP4 POP PUSH2 0x25C3 SWAP1 POP DUP11 PUSH1 0xA0 DUP12 ADD PUSH2 0x23B4 JUMP JUMPDEST SWAP2 POP PUSH2 0x25D2 DUP11 PUSH1 0xE0 DUP12 ADD PUSH2 0x23B4 JUMP JUMPDEST SWAP1 POP SWAP3 SWAP6 SWAP9 POP SWAP3 SWAP6 SWAP9 SWAP1 SWAP4 SWAP7 POP JUMP JUMPDEST PUSH1 0x0 DUP3 PUSH1 0x1F DUP4 ADD SLT PUSH2 0x25F2 JUMPI PUSH1 0x0 DUP1 REVERT JUMPDEST DUP2 CALLDATALOAD PUSH8 0xFFFFFFFFFFFFFFFF DUP1 DUP3 GT ISZERO PUSH2 0x260D JUMPI PUSH2 0x260D PUSH2 0x2440 JUMP JUMPDEST PUSH1 0x40 MLOAD PUSH1 0x1F DUP4 ADD PUSH1 0x1F NOT SWAP1 DUP2 AND PUSH1 0x3F ADD AND DUP2 ADD SWAP1 DUP3 DUP3 GT DUP2 DUP4 LT OR ISZERO PUSH2 0x2635 JUMPI PUSH2 0x2635 PUSH2 0x2440 JUMP JUMPDEST DUP2 PUSH1 0x40 MSTORE DUP4 DUP2 MSTORE DUP7 PUSH1 0x20 DUP6 DUP9 ADD ADD GT ISZERO PUSH2 0x264E JUMPI PUSH1 0x0 DUP1 REVERT JUMPDEST DUP4 PUSH1 0x20 DUP8 ADD PUSH1 0x20 DUP4 ADD CALLDATACOPY PUSH1 0x0 PUSH1 0x20 DUP6 DUP4 ADD ADD MSTORE DUP1 SWAP5 POP POP POP POP POP SWAP3 SWAP2 POP POP JUMP JUMPDEST PUSH1 0x0 DUP1 PUSH1 0x40 DUP4 DUP6 SUB SLT ISZERO PUSH2 0x2681 JUMPI PUSH1 0x0 DUP1 REVERT JUMPDEST DUP3 CALLDATALOAD PUSH8 0xFFFFFFFFFFFFFFFF DUP1 DUP3 GT ISZERO PUSH2 0x2699 JUMPI PUSH1 0x0 DUP1 REVERT JUMPDEST PUSH2 0x26A5 DUP7 DUP4 DUP8 ADD PUSH2 0x25E1 JUMP JUMPDEST SWAP4 POP PUSH1 0x20 DUP6 ADD CALLDATALOAD SWAP2 POP DUP1 DUP3 GT ISZERO PUSH2 0x26BB JUMPI PUSH1 0x0 DUP1 REVERT JUMPDEST POP PUSH2 0x26C8 DUP6 DUP3 DUP7 ADD PUSH2 0x25E1 JUMP JUMPDEST SWAP2 POP POP SWAP3 POP SWAP3 SWAP1 POP JUMP JUMPDEST PUSH1 0x0 DUP1 PUSH1 0x0 PUSH1 0x60 DUP5 DUP7 SUB SLT ISZERO PUSH2 0x26E7 JUMPI PUSH1 0x0 DUP1 REVERT JUMPDEST DUP4 CALLDATALOAD PUSH8 0xFFFFFFFFFFFFFFFF DUP1 DUP3 GT ISZERO PUSH2 0x26FF JUMPI PUSH1 0x0 DUP1 REVERT JUMPDEST PUSH2 0x270B DUP8 DUP4 DUP9 ADD PUSH2 0x25E1 JUMP JUMPDEST SWAP5 POP PUSH1 0x20 DUP7 ADD CALLDATALOAD SWAP2 POP DUP1 DUP3 GT ISZERO PUSH2 0x2721 JUMPI PUSH1 0x0 DUP1 REVERT JUMPDEST PUSH2 0x272D DUP8 DUP4 DUP9 ADD PUSH2 0x25E1 JUMP JUMPDEST SWAP4 POP PUSH1 0x40 DUP7 ADD CALLDATALOAD SWAP2 POP DUP1 DUP3 GT ISZERO PUSH2 0x2743 JUMPI PUSH1 0x0 DUP1 REVERT JUMPDEST POP PUSH2 0x2750 DUP7 DUP3 DUP8 ADD PUSH2 0x25E1 JUMP JUMPDEST SWAP2 POP POP SWAP3 POP SWAP3 POP SWAP3 JUMP JUMPDEST PUSH1 0x0 PUSH1 0x80 DUP3 DUP5 SUB SLT ISZERO PUSH2 0x276C JUMPI PUSH1 0x0 DUP1 REVERT JUMPDEST DUP3 PUSH1 0x80 DUP4 ADD GT ISZERO PUSH2 0x277C JUMPI PUSH1 0x0 DUP1 REVERT JUMPDEST POP SWAP2 SWAP1 POP JUMP JUMPDEST PUSH1 0x0 PUSH1 0x20 DUP3 DUP5 SUB SLT ISZERO PUSH2 0x2794 JUMPI PUSH1 0x0 DUP1 REVERT JUMPDEST POP CALLDATALOAD SWAP2 SWAP1 POP JUMP JUMPDEST PUSH1 0x0 PUSH1 0x20 DUP3 DUP5 SUB SLT ISZERO PUSH2 0x27AD JUMPI PUSH1 0x0 DUP1 REVERT JUMPDEST PUSH2 0x27B6 DUP3 PUSH2 0x232C JUMP JUMPDEST SWAP4 SWAP3 POP POP POP JUMP JUMPDEST PUSH1 0x0 JUMPDEST DUP4 DUP2 LT ISZERO PUSH2 0x27D8 JUMPI DUP2 DUP2 ADD MLOAD DUP4 DUP3 ADD MSTORE PUSH1 0x20 ADD PUSH2 0x27C0 JUMP JUMPDEST DUP4 DUP2 GT ISZERO PUSH2 0x27E7 JUMPI PUSH1 0x0 DUP5 DUP5 ADD MSTORE JUMPDEST POP POP POP POP JUMP JUMPDEST PUSH1 0x0 DUP2 MLOAD DUP1 DUP5 MSTORE PUSH2 0x2805 DUP2 PUSH1 0x20 DUP7 ADD PUSH1 0x20 DUP7 ADD PUSH2 0x27BD JUMP JUMPDEST PUSH1 0x1F ADD PUSH1 0x1F NOT AND SWAP3 SWAP1 SWAP3 ADD PUSH1 0x20 ADD SWAP3 SWAP2 POP POP JUMP JUMPDEST PUSH1 0x40 DUP2 MSTORE PUSH1 0x0 PUSH2 0x282C PUSH1 0x40 DUP4 ADD DUP6 PUSH2 0x27ED JUMP JUMPDEST SWAP1 POP PUSH1 0x1 PUSH1 0x1 PUSH1 0xA0 SHL SUB DUP4 AND PUSH1 0x20 DUP4 ADD MSTORE SWAP4 SWAP3 POP POP POP JUMP JUMPDEST PUSH4 0x4E487B71 PUSH1 0xE0 SHL PUSH1 0x0 MSTORE PUSH1 0x11 PUSH1 0x4 MSTORE PUSH1 0x24 PUSH1 0x0 REVERT JUMPDEST PUSH1 0x0 DUP2 PUSH1 0x0 NOT DIV DUP4 GT DUP3 ISZERO ISZERO AND ISZERO PUSH2 0x2874 JUMPI PUSH2 0x2874 PUSH2 0x2844 JUMP JUMPDEST POP MUL SWAP1 JUMP JUMPDEST PUSH1 0x1 DUP2 DUP2 SHR SWAP1 DUP3 AND DUP1 PUSH2 0x288D JUMPI PUSH1 0x7F DUP3 AND SWAP2 POP JUMPDEST PUSH1 0x20 DUP3 LT DUP2 SUB PUSH2 0x277C JUMPI PUSH4 0x4E487B71 PUSH1 0xE0 SHL PUSH1 0x0 MSTORE PUSH1 0x22 PUSH1 0x4 MSTORE PUSH1 0x24 PUSH1 0x0 REVERT JUMPDEST PUSH1 0x1F DUP3 GT ISZERO PUSH2 0x28F7 JUMPI PUSH1 0x0 DUP2 DUP2 MSTORE PUSH1 0x20 DUP2 KECCAK256 PUSH1 0x1F DUP6 ADD PUSH1 0x5 SHR DUP2 ADD PUSH1 0x20 DUP7 LT ISZERO PUSH2 0x28D4 JUMPI POP DUP1 JUMPDEST PUSH1 0x1F DUP6 ADD PUSH1 0x5 SHR DUP3 ADD SWAP2 POP JUMPDEST DUP2 DUP2 LT ISZERO PUSH2 0x28F3 JUMPI DUP3 DUP2 SSTORE PUSH1 0x1 ADD PUSH2 0x28E0 JUMP JUMPDEST POP POP POP JUMPDEST POP POP POP JUMP JUMPDEST PUSH8 0xFFFFFFFFFFFFFFFF DUP4 GT ISZERO PUSH2 0x2914 JUMPI PUSH2 0x2914 PUSH2 0x2440 JUMP JUMPDEST PUSH2 0x2928 DUP4 PUSH2 0x2922 DUP4 SLOAD PUSH2 0x2879 JUMP JUMPDEST DUP4 PUSH2 0x28AD JUMP JUMPDEST PUSH1 0x0 PUSH1 0x1F DUP5 GT PUSH1 0x1 DUP2 EQ PUSH2 0x295C JUMPI PUSH1 0x0 DUP6 ISZERO PUSH2 0x2944 JUMPI POP DUP4 DUP3 ADD CALLDATALOAD JUMPDEST PUSH1 0x0 NOT PUSH1 0x3 DUP8 SWAP1 SHL SHR NOT AND PUSH1 0x1 DUP7 SWAP1 SHL OR DUP4 SSTORE PUSH2 0x29B6 JUMP JUMPDEST PUSH1 0x0 DUP4 DUP2 MSTORE PUSH1 0x20 SWAP1 KECCAK256 PUSH1 0x1F NOT DUP7 AND SWAP1 DUP4 JUMPDEST DUP3 DUP2 LT ISZERO PUSH2 0x298D JUMPI DUP7 DUP6 ADD CALLDATALOAD DUP3 SSTORE PUSH1 0x20 SWAP5 DUP6 ADD SWAP5 PUSH1 0x1 SWAP1 SWAP3 ADD SWAP2 ADD PUSH2 0x296D JUMP JUMPDEST POP DUP7 DUP3 LT ISZERO PUSH2 0x29AA JUMPI PUSH1 0x0 NOT PUSH1 0xF8 DUP9 PUSH1 0x3 SHL AND SHR NOT DUP5 DUP8 ADD CALLDATALOAD AND DUP2 SSTORE JUMPDEST POP POP PUSH1 0x1 DUP6 PUSH1 0x1 SHL ADD DUP4 SSTORE JUMPDEST POP POP POP POP POP JUMP JUMPDEST PUSH1 0x1 PUSH1 0x1 PUSH1 0xA0 SHL SUB DUP7 AND DUP2 MSTORE DUP5 PUSH1 0x20 DUP3 ADD MSTORE PUSH1 0x80 PUSH1 0x40 DUP3 ADD MSTORE DUP3 PUSH1 0x80 DUP3 ADD MSTORE DUP3 DUP5 PUSH1 0xA0 DUP4 ADD CALLDATACOPY PUSH1 0x0 PUSH1 0xA0 DUP5 DUP4 ADD ADD MSTORE PUSH1 0x0 PUSH1 0xA0 PUSH1 0x1F NOT PUSH1 0x1F DUP7 ADD AND DUP4 ADD ADD SWAP1 POP PUSH1 0xFF DUP4 AND PUSH1 0x60 DUP4 ADD MSTORE SWAP7 SWAP6 POP POP POP POP POP POP JUMP JUMPDEST PUSH1 0x0 PUSH1 0x1 DUP3 ADD PUSH2 0x2A22 JUMPI PUSH2 0x2A22 PUSH2 0x2844 JUMP JUMPDEST POP PUSH1 0x1 ADD SWAP1 JUMP JUMPDEST PUSH1 0x0 DUP3 DUP3 LT ISZERO PUSH2 0x2A3B JUMPI PUSH2 0x2A3B PUSH2 0x2844 JUMP JUMPDEST POP SUB SWAP1 JUMP JUMPDEST PUSH4 0x4E487B71 PUSH1 0xE0 SHL PUSH1 0x0 MSTORE PUSH1 0x32 PUSH1 0x4 MSTORE PUSH1 0x24 PUSH1 0x0 REVERT JUMPDEST PUSH1 0x0 DUP3 NOT DUP3 GT ISZERO PUSH2 0x2A69 JUMPI PUSH2 0x2A69 PUSH2 0x2844 JUMP JUMPDEST POP ADD SWAP1 JUMP JUMPDEST DUP3 DUP2 MSTORE PUSH1 0x0 PUSH1 0x20 PUSH1 0x40 DUP2 DUP5 ADD MSTORE PUSH1 0x0 DUP5 SLOAD PUSH2 0x2A88 DUP2 PUSH2 0x2879 JUMP JUMPDEST DUP1 PUSH1 0x40 DUP8 ADD MSTORE PUSH1 0x60 PUSH1 0x1 DUP1 DUP5 AND PUSH1 0x0 DUP2 EQ PUSH2 0x2AAA JUMPI PUSH1 0x1 DUP2 EQ PUSH2 0x2AC4 JUMPI PUSH2 0x2AF2 JUMP JUMPDEST PUSH1 0xFF NOT DUP6 AND DUP10 DUP5 ADD MSTORE DUP4 ISZERO ISZERO PUSH1 0x5 SHL DUP10 ADD DUP4 ADD SWAP6 POP PUSH2 0x2AF2 JUMP JUMPDEST DUP10 PUSH1 0x0 MSTORE DUP7 PUSH1 0x0 KECCAK256 PUSH1 0x0 JUMPDEST DUP6 DUP2 LT ISZERO PUSH2 0x2AEA JUMPI DUP2 SLOAD DUP12 DUP3 ADD DUP7 ADD MSTORE SWAP1 DUP4 ADD SWAP1 DUP9 ADD PUSH2 0x2ACF JUMP JUMPDEST DUP11 ADD DUP5 ADD SWAP7 POP POP JUMPDEST POP SWAP4 SWAP10 SWAP9 POP POP POP POP POP POP POP POP POP JUMP JUMPDEST PUSH1 0x0 DUP3 MLOAD PUSH2 0x2B13 DUP2 DUP5 PUSH1 0x20 DUP8 ADD PUSH2 0x27BD JUMP JUMPDEST SWAP2 SWAP1 SWAP2 ADD SWAP3 SWAP2 POP POP JUMP JUMPDEST DUP2 MLOAD PUSH8 0xFFFFFFFFFFFFFFFF DUP2 GT ISZERO PUSH2 0x2B37 JUMPI PUSH2 0x2B37 PUSH2 0x2440 JUMP JUMPDEST PUSH2 0x2B4B DUP2 PUSH2 0x2B45 DUP5 SLOAD PUSH2 0x2879 JUMP JUMPDEST DUP5 PUSH2 0x28AD JUMP JUMPDEST PUSH1 0x20 DUP1 PUSH1 0x1F DUP4 GT PUSH1 0x1 DUP2 EQ PUSH2 0x2B80 JUMPI PUSH1 0x0 DUP5 ISZERO PUSH2 0x2B68 JUMPI POP DUP6 DUP4 ADD MLOAD JUMPDEST PUSH1 0x0 NOT PUSH1 0x3 DUP7 SWAP1 SHL SHR NOT AND PUSH1 0x1 DUP6 SWAP1 SHL OR DUP6 SSTORE PUSH2 0x28F3 JUMP JUMPDEST PUSH1 0x0 DUP6 DUP2 MSTORE PUSH1 0x20 DUP2 KECCAK256 PUSH1 0x1F NOT DUP7 AND SWAP2 JUMPDEST DUP3 DUP2 LT ISZERO PUSH2 0x2BAF JUMPI DUP9 DUP7 ADD MLOAD DUP3 SSTORE SWAP5 DUP5 ADD SWAP5 PUSH1 0x1 SWAP1 SWAP2 ADD SWAP1 DUP5 ADD PUSH2 0x2B90 JUMP JUMPDEST POP DUP6 DUP3 LT ISZERO PUSH2 0x2BCD JUMPI DUP8 DUP6 ADD MLOAD PUSH1 0x0 NOT PUSH1 0x3 DUP9 SWAP1 SHL PUSH1 0xF8 AND SHR NOT AND DUP2 SSTORE JUMPDEST POP POP POP POP POP PUSH1 0x1 SWAP1 DUP2 SHL ADD SWAP1 SSTORE POP JUMP JUMPDEST PUSH1 0x40 DUP2 MSTORE PUSH1 0x0 PUSH2 0x2BF0 PUSH1 0x40 DUP4 ADD DUP6 PUSH2 0x27ED JUMP JUMPDEST DUP3 DUP2 SUB PUSH1 0x20 DUP5 ADD MSTORE PUSH2 0x2C02 DUP2 DUP6 PUSH2 0x27ED JUMP JUMPDEST SWAP6 SWAP5 POP POP POP POP POP JUMP INVALID LOG2 PUSH5 0x6970667358 0x22 SLT KECCAK256 0xC5 EXTCODECOPY SWAP9 MSTORE8 0xD 0xC5 0xBC PUSH3 0xB6D9AA 0xC4 0xBE PUSH1 0x8 0x1E 0xEA CALLDATACOPY BALANCE 0x49 LOG0 SWAP2 0xC3 0xAB PUSH18 0x29F3004741FEFD64736F6C634300080F0033 "},"methodIdentifiers":{"authenticateHEI(address,uint256,uint256[2],uint256[2])":"342961c0","clusterCount()":"702f45f3","commitHEIData(address,address,uint256,uint256,string,uint256[2],uint256[2])":"7c93ef88","display(address)":"eb39113f","equals(string,string)":"88d8da5f","getOracleHead(uint256)":"be1ddddd","heiID()":"bd360bac","initiateSurvey(uint256,address)":"5c599e4f","maxClusterSize()":"b2c8c652","newDataSubmission(address,string,uint8)":"32e8e463","registerHEI(string,string,string)":"b109fd89","registerOracle()":"339d2590","setIPNSLink(string)":"314b9b37","submitPubKey(uint256[4])":"bd711096","submitSurveyResult(address,string,uint256,uint256[2],uint256[2])":"766aad87","withdrawReward()":"c885bc58"}}}}}