{
  "_format": "hh-sol-artifact-1",
  "contractName": "GasBLS",
  "sourceName": "contracts/test/GasBLS.sol",
  "abi": [
    {
      "inputs": [
        {
          "internalType": "bytes",
          "name": "domain",
          "type": "bytes"
        },
        {
          "internalType": "bytes",
          "name": "message",
          "type": "bytes"
        }
      ],
      "name": "_hashToFieldGasCost",
      "outputs": [
        {
          "internalType": "uint256",
          "name": "operationGasCost",
          "type": "uint256"
        }
      ],
      "stateMutability": "nonpayable",
      "type": "function"
    },
    {
      "inputs": [
        {
          "internalType": "bytes",
          "name": "domain",
          "type": "bytes"
        },
        {
          "internalType": "bytes",
          "name": "message",
          "type": "bytes"
        }
      ],
      "name": "_hashToPointGasCost",
      "outputs": [
        {
          "internalType": "uint256",
          "name": "operationGasCost",
          "type": "uint256"
        }
      ],
      "stateMutability": "nonpayable",
      "type": "function"
    },
    {
      "inputs": [
        {
          "internalType": "uint256[2]",
          "name": "e",
          "type": "uint256[2]"
        }
      ],
      "name": "_isNonResidueFP2GasCost",
      "outputs": [
        {
          "internalType": "uint256",
          "name": "operationGasCost",
          "type": "uint256"
        }
      ],
      "stateMutability": "nonpayable",
      "type": "function"
    },
    {
      "inputs": [
        {
          "internalType": "uint256",
          "name": "e",
          "type": "uint256"
        }
      ],
      "name": "_isNonResidueFPGasCost",
      "outputs": [
        {
          "internalType": "uint256",
          "name": "operationGasCost",
          "type": "uint256"
        }
      ],
      "stateMutability": "nonpayable",
      "type": "function"
    },
    {
      "inputs": [
        {
          "internalType": "uint256",
          "name": "point",
          "type": "uint256"
        }
      ],
      "name": "_isOnCurveG1CompressedGasCost",
      "outputs": [
        {
          "internalType": "uint256",
          "name": "operationGasCost",
          "type": "uint256"
        }
      ],
      "stateMutability": "nonpayable",
      "type": "function"
    },
    {
      "inputs": [
        {
          "internalType": "uint256[2]",
          "name": "point",
          "type": "uint256[2]"
        }
      ],
      "name": "_isOnCurveG1GasCost",
      "outputs": [
        {
          "internalType": "uint256",
          "name": "operationGasCost",
          "type": "uint256"
        }
      ],
      "stateMutability": "nonpayable",
      "type": "function"
    },
    {
      "inputs": [
        {
          "internalType": "uint256[2]",
          "name": "point",
          "type": "uint256[2]"
        }
      ],
      "name": "_isOnCurveG2CompressedGasCost",
      "outputs": [
        {
          "internalType": "uint256",
          "name": "operationGasCost",
          "type": "uint256"
        }
      ],
      "stateMutability": "nonpayable",
      "type": "function"
    },
    {
      "inputs": [
        {
          "internalType": "uint256[4]",
          "name": "point",
          "type": "uint256[4]"
        }
      ],
      "name": "_isOnCurveG2GasCost",
      "outputs": [
        {
          "internalType": "uint256",
          "name": "operationGasCost",
          "type": "uint256"
        }
      ],
      "stateMutability": "nonpayable",
      "type": "function"
    },
    {
      "inputs": [
        {
          "internalType": "uint256",
          "name": "e",
          "type": "uint256"
        }
      ],
      "name": "_mapToPointFTGasCost",
      "outputs": [
        {
          "internalType": "uint256",
          "name": "operationGasCost",
          "type": "uint256"
        }
      ],
      "stateMutability": "nonpayable",
      "type": "function"
    },
    {
      "inputs": [
        {
          "internalType": "bytes32",
          "name": "e",
          "type": "bytes32"
        }
      ],
      "name": "_mapToPointTIGasCost",
      "outputs": [
        {
          "internalType": "uint256",
          "name": "operationGasCost",
          "type": "uint256"
        }
      ],
      "stateMutability": "nonpayable",
      "type": "function"
    },
    {
      "inputs": [
        {
          "internalType": "uint256",
          "name": "xx",
          "type": "uint256"
        }
      ],
      "name": "_sqrt",
      "outputs": [
        {
          "internalType": "uint256",
          "name": "operationGasCost",
          "type": "uint256"
        }
      ],
      "stateMutability": "view",
      "type": "function"
    },
    {
      "inputs": [
        {
          "internalType": "uint256",
          "name": "xx",
          "type": "uint256"
        }
      ],
      "name": "_sqrtFaster",
      "outputs": [
        {
          "internalType": "uint256",
          "name": "operationGasCost",
          "type": "uint256"
        }
      ],
      "stateMutability": "view",
      "type": "function"
    },
    {
      "inputs": [
        {
          "internalType": "uint256[2]",
          "name": "signature",
          "type": "uint256[2]"
        },
        {
          "internalType": "uint256[4][]",
          "name": "pubkeys",
          "type": "uint256[4][]"
        },
        {
          "internalType": "uint256[2][]",
          "name": "messages",
          "type": "uint256[2][]"
        }
      ],
      "name": "_verifyMultipleGasCost",
      "outputs": [
        {
          "internalType": "uint256",
          "name": "operationGasCost",
          "type": "uint256"
        }
      ],
      "stateMutability": "nonpayable",
      "type": "function"
    },
    {
      "inputs": [
        {
          "internalType": "uint256[2]",
          "name": "signature",
          "type": "uint256[2]"
        },
        {
          "internalType": "uint256[4]",
          "name": "pubkey",
          "type": "uint256[4]"
        },
        {
          "internalType": "uint256[2]",
          "name": "message",
          "type": "uint256[2]"
        }
      ],
      "name": "_verifySingleGasCost",
      "outputs": [
        {
          "internalType": "uint256",
          "name": "operationGasCost",
          "type": "uint256"
        }
      ],
      "stateMutability": "nonpayable",
      "type": "function"
    }
  ],
  "bytecode": "0x608060405234801561001057600080fd5b5061306e806100206000396000f3fe608060405234801561001057600080fd5b50600436106100ea5760003560e01c8063850870e61161008c578063c8c352c211610066578063c8c352c2146101bf578063d13200cc146101d2578063f470857b146101e5578063ffef569c146101f857600080fd5b8063850870e6146101865780638911b0d8146101995780638fb3a983146101ac57600080fd5b80633e563d10116100c85780633e563d101461013a5780634ce25ff01461014d5780634f09448a146101605780636a263f021461017357600080fd5b8063101800c2146100ef57806310bf819a146101145780632226735114610127575b600080fd5b6101026100fd366004612c60565b61020b565b60405190815260200160405180910390f35b610102610122366004612c60565b61024f565b610102610135366004612d1f565b610281565b610102610148366004612d94565b6102a3565b61010261015b366004612ddb565b61038f565b61010261016e366004612c60565b61039d565b610102610181366004612ddb565b6103cf565b610102610194366004612ddb565b6103ea565b6101026101a7366004612d1f565b6103f8565b6101026101ba366004612e40565b610407565b6101026101cd366004612ddb565b61056f565b6101026101e0366004612ef3565b61057d565b6101026101f3366004612ddb565b6105b4565b610102610206366004612ddb565b6105c2565b60005a60408051808201825291925061023d9190849060029083908390808284376000920191909152506105d0915050565b505a6102499082612f25565b92915050565b60005a60408051808201825291925061023d91908490600290839083908082843760009201919091525061074b915050565b60005a90506102908383610868565b505a61029c9082612f25565b9392505050565b60005a60408051808201825291925061031c9190869060029083908390808284376000920191909152505060408051608081810190925291508690600490839083908082843760009201919091525050604080518082018252915086906002908390839080828437600092019190915250610956915050565b61037c5760405162461bcd60e51b815260206004820152602660248201527f424c53546573743a206578706563742073756363657366756c2076657269666960448201526531b0ba34b7b760d11b60648201526084015b60405180910390fd5b5a6103879082612f25565b949350505050565b60005a905061023d82610b3c565b60005a60408051808201825291925061023d919084906002908390839080828437600092019190915250610f3c915050565b60005a90506103dd82610f9b565b50505a6102499082612f25565b60005a905061023d82611071565b60005a90506102908383611121565b60005a6040805180820182529192506104ff9190889060029083908390808284376000920182905250604080516020808c02820181019092528a815293508a92508991829185015b82821015610490576040805160808181019092529080840287019060049083908390808284376000920191909152505050815260019091019060200161044f565b50505050508585808060200260200160405190810160405280939291908181526020016000905b828210156104f557604080518082018252908084028701906002908390839080828437600092019190915250505081526001909101906020016104b7565b50505050506111d1565b61055a5760405162461bcd60e51b815260206004820152602660248201527f424c53546573743a206578706563742073756363657366756c2076657269666960448201526531b0ba34b7b760d11b6064820152608401610373565b5a6105659082612f25565b9695505050505050565b60005a905061023d82611740565b60005a905061023d8260048060200260405190810160405280929190826004602002808284376000920191909152506117ea915050565b60005a905061023d82611951565b60005a90506103dd82611a39565b60008060008301516020840151600080516020613019833981519152828309600080516020613019833981519152828309818283010160008051602061301983398151915282838401086000805160206130198339815191528682600080516020613019833981519152038601099350506000805160206130198339815191528483600080516020613019833981519152038301099150507f2b149d40ceb8aaae81be18991be06ac3b5b4c5e559dbefa33267e6dc24a138e5820193507e9713b03af0fed4cd2cafadeed8fdf4a74fa084e52d1852e4a2bd0685c315d2810192505050600080516020613019833981519152808283096000805160206130198339815191528485090891505060405160208152602080820152602060408201528160608201527f183227397098d014dc2822db40c0ac2ecbc0b548b438e5469e10460b6c3e7ea3608082015260008051602061301983398151915260a082015260208160c08360056107d05a03fa5051600114949350505050565b6020810151600090819060008051602061301983398151915290819080098451600080516020613019833981519152908009089050600060405160208152602080820152602060408201528260608201527f183227397098d014dc2822db40c0ac2ecbc0b548b438e5469e10460b6c3e7ea3608082015260008051602061301983398151915260a082015260208160c08360056107d05a03fa905160011493509050806108605760405162461bcd60e51b815260206004820152602760248201527f424c533a2069734e6f6e52657369647565465032206d6f646578702063616c6c60448201527f206661696c6564000000000000000000000000000000000000000000000000006064820152608401610373565b505015919050565b610870612bf5565b600061087c8484611a62565b90506000806000806018850177ffffffffffffffffffffffffffffffffffffffffffffffff815116935060308601905077ffffffffffffffffffffffffffffffffffffffffffffffff815116945060008051602061301983398151915285600080516020613019833981519152600160c01b8709086048870151606088015177ffffffffffffffffffffffffffffffffffffffffffffffff9081169750169450925060008051602061301983398151915290508481600160c01b860908604080518082019091529283526020830152509695505050505050565b6000806040518061018001604052808660006002811061097857610978612f3c565b602002015181526020018660016002811061099557610995612f3c565b602002015181526020017f198e9393920d483a7260bfb731fb5d25f1aa493335a9e71297e485b7aef312c281526020017f1800deef121f1e76426a00665e5c4479674322d4f75edadd46debd5cd992f6ed81526020017f275dc4a288d1afb3cbb1ac09187524c7db36395df7be3b99e673b13a075a65ec81526020017f1d9befcd05a5323e6da4d435f3b617cdb3af83285c2df711ef39c01571827f9d815260200184600060028110610a4a57610a4a612f3c565b6020020151815260200184600160028110610a6757610a67612f3c565b6020020151815260200185600160048110610a8457610a84612f3c565b6020020151815260200185600060048110610aa157610aa1612f3c565b6020020151815260200185600360048110610abe57610abe612f3c565b6020020151815260200185600260048110610adb57610adb612f3c565b602002015190529050610aec612c13565b60006020826101808560086107d05a03fa90508080610b0757fe5b5080610b2f5760405162461bcd60e51b81526020600482015260006024820152604401610373565b5051151595945050505050565b610b44612bf5565b6000805160206130198339815191528210610bc75760405162461bcd60e51b815260206004820152602360248201527f6d6170546f506f696e7446543a20696e76616c6964206669656c6420656c656d60448201527f656e7400000000000000000000000000000000000000000000000000000000006064820152608401610373565b816000610bd382611951565b905060006000805160206130198339815191528384099050600080516020613019833981519152600482089050600060008051602061301983398151915277b3c4d79d41a91759a9e4c7e359b6b89eaec68e62effffffd8509905060006000805160206130198339815191528383099050610c4d81611d6e565b9050600080516020613019833981519152828309915060008051602061301983398151915281830991506000805160206130198339815191528286099150600080516020613019833981519152610cb283600080516020613019833981519152612f25565b7759e26bcea0d48bacd4f263f1acdb5c4f5763473177fffffe089450600080516020613019833981519152858609915060008051602061301983398151915285830991506000805160206130198339815191526003830891506000610d1683611a39565b90935090508015610d5f578415610d4257610d3f83600080516020613019833981519152612f25565b92505b505060408051808201909152938452602084015250909392505050565b60008051602061301983398151915260018708610d8a90600080516020613019833981519152612f25565b955060008051602061301983398151915286870992506000805160206130198339815191528684099250600080516020613019833981519152600384089250610dd283611a39565b90935090508015610dfb578415610d4257610d3f83600080516020613019833981519152612f25565b600080516020613019833981519152848509955060008051602061301983398151915286870995506000805160206130198339815191528287099550600080516020613019833981519152828709955060008051602061301983398151915260018708955060008051602061301983398151915286870992506000805160206130198339815191528684099250600080516020613019833981519152600384089250610ea683611a39565b909350905080610f1e5760405162461bcd60e51b815260206004820152602260248201527f424c533a20626164206674206d617070696e6720696d706c656d656e7461746960448201527f6f6e0000000000000000000000000000000000000000000000000000000000006064820152608401610373565b8415610d4257610d3f83600080516020613019833981519152612f25565b600081516020830151600080516020613019833981519152828309600080516020613019833981519152838209905060008051602061301983398151915260038208905060008051602061301983398151915282830914949350505050565b600080600060405160208152602080820152602060408201528460608201527f0c19139cb84c680a6e14116da060561765e05aa45a1c72a34f082305b61f3f52608082015260008051602061301983398151915260a082015260208160c08360056107d05a03fa905193509050600080516020613019833981519152838009841491508061106b5760405162461bcd60e51b815260206004820152601c60248201527f424c533a2073717274206d6f646578702063616c6c206661696c6564000000006044820152606401610373565b50915091565b60008082600080516020613019833981519152818209600080516020613019833981519152828209905060008051602061301983398151915260038208905060405191506020825260208083015260206040830152806060830152507f183227397098d014dc2822db40c0ac2ecbc0b548b438e5469e10460b6c3e7ea3608082015260008051602061301983398151915260a082015260208160c08360056107d05a03fa50516001149392505050565b611129612bf5565b60006111358484610868565b9050600061114982825b6020020151610b3c565b9050600061115883600161113f565b9050611162612c31565b825181526020808401518282015282516040808401919091529083015160608301526000908460808460066107d05a03fa9050808061119d57fe5b50806111c55760405162461bcd60e51b81526020600482015260006024820152604401610373565b50919695505050505050565b8151600090806112495760405162461bcd60e51b815260206004820152602160248201527f424c533a206e756d626572206f66207075626c6963206b6579206973207a657260448201527f6f000000000000000000000000000000000000000000000000000000000000006064820152608401610373565b825181146112bf5760405162461bcd60e51b815260206004820152603560248201527f424c533a206e756d626572206f66207075626c6963206b65797320616e64206d60448201527f65737361676573206d75737420626520657175616c00000000000000000000006064820152608401610373565b60006112cc826001612f52565b6112d7906006612f6a565b905060008167ffffffffffffffff8111156112f4576112f4612c7c565b60405190808252806020026020018201604052801561131d578160200160208202803683370190505b50905086600060200201518160008151811061133b5761133b612f3c565b602090810291909101015286600160200201518160018151811061136157611361612f3c565b6020026020010181815250507f198e9393920d483a7260bfb731fb5d25f1aa493335a9e71297e485b7aef312c2816002815181106113a1576113a1612f3c565b6020026020010181815250507f1800deef121f1e76426a00665e5c4479674322d4f75edadd46debd5cd992f6ed816003815181106113e1576113e1612f3c565b6020026020010181815250507f275dc4a288d1afb3cbb1ac09187524c7db36395df7be3b99e673b13a075a65ec8160048151811061142157611421612f3c565b6020026020010181815250507f1d9befcd05a5323e6da4d435f3b617cdb3af83285c2df711ef39c01571827f9d8160058151811061146157611461612f3c565b60200260200101818152505060005b838110156116e15785818151811061148a5761148a612f3c565b60200260200101516000600281106114a4576114a4612f3c565b6020020151826114b5836006612f6a565b6114c0906006612f52565b815181106114d0576114d0612f3c565b6020026020010181815250508581815181106114ee576114ee612f3c565b602002602001015160016002811061150857611508612f3c565b602002015182611519836006612f6a565b611524906007612f52565b8151811061153457611534612f3c565b60200260200101818152505086818151811061155257611552612f3c565b602002602001015160016004811061156c5761156c612f3c565b60200201518261157d836006612f6a565b611588906008612f52565b8151811061159857611598612f3c565b6020026020010181815250508681815181106115b6576115b6612f3c565b60200260200101516000600481106115d0576115d0612f3c565b6020020151826115e1836006612f6a565b6115ec906009612f52565b815181106115fc576115fc612f3c565b60200260200101818152505086818151811061161a5761161a612f3c565b602002602001015160036004811061163457611634612f3c565b602002015182611645836006612f6a565b61165090600a612f52565b8151811061166057611660612f3c565b60200260200101818152505086818151811061167e5761167e612f3c565b602002602001015160026004811061169857611698612f3c565b6020020151826116a9836006612f6a565b6116b490600b612f52565b815181106116c4576116c4612f3c565b6020908102919091010152806116d981612f89565b915050611470565b506116ea612c13565b6000602082602086026020860160086107d05a03fa9050808061170957fe5b50806117315760405162461bcd60e51b81526020600482015260006024820152604401610373565b50511515979650505050505050565b611748612bf5565b600061176260008051602061301983398151915284612fa2565b90506000805b600080516020613019833981519152838409915060008051602061301983398151915283830991506000805160206130198339815191526003830891506117ae82611a39565b909250905080156117c857828452602084018290526117e2565b600080516020613019833981519152600184089250611768565b505050919050565b6000815160208301516000805160206130198339815191528283096000805160206130198339815191528283098182830101600080516020613019833981519152828384010860008051602061301983398151915286826000805160206130198339815191520386010993505060008051602061301983398151915284836000805160206130198339815191520383010991506000805160206130198339815191527f2b149d40ceb8aaae81be18991be06ac3b5b4c5e559dbefa33267e6dc24a138e5840894506000805160206130198339815191527e9713b03af0fed4cd2cafadeed8fdf4a74fa084e52d1852e4a2bd0685c315d28308935060408701519250606087015191506000805160206130198339815191528083600080516020613019833981519152038508600080516020613019833981519152848608099050600080516020613019833981519152828460011b0994149290931491909116949350505050565b60008060405160208152602080820152602060408201528360608201527f183227397098d014dc2822db40c0ac2ecbc0b548b438e5469e10460b6c3e7ea3608082015260008051602061301983398151915260a082015260208160c08360056107d05a03fa90516001149250905080611a325760405162461bcd60e51b815260206004820152602660248201527f424c533a2069734e6f6e526573696475654650206d6f646578702063616c6c2060448201527f6661696c656400000000000000000000000000000000000000000000000000006064820152608401610373565b5015919050565b600080611a4583611d79565b915082600080516020613019833981519152838409149050915091565b81516060906101008110611ab85760405162461bcd60e51b815260206004820152601a60248201527f424c533a20696e76616c696420646f6d61696e206c656e6774680000000000006044820152606401610373565b82516000611ac68284612f52565b611ad1906040612f52565b611adc906004612f52565b67ffffffffffffffff811115611af457611af4612c7c565b6040519080825280601f01601f191660200182016040528015611b1e576020820181803683370190505b5060408051606080825260808201909252919250600091906020820181803683370190505090506060820160005b84811015611b665760208189018101518383015201611b4c565b508301600081536001016060815360010160008153600181019050602088015181528481019050848153506000600283604051611ba39190612fc4565b602060405180830381855afa158015611bc0573d6000803e3d6000fd5b5050506040513d601f19601f82011682018060405250810190611be39190612fff565b90506000611bf2866022612f52565b945084845281602085015260016040850153602089015160418501528560418701850153600284604051611c269190612fc4565b602060405180830381855afa158015611c43573d6000803e3d6000fd5b5050506040513d601f19601f82011682018060405250810190611c669190612fff565b90508060208401528082188060208601525060026040850153602089015160418501528560418701850153600284604051611ca19190612fc4565b602060405180830381855afa158015611cbe573d6000803e3d6000fd5b5050506040513d601f19601f82011682018060405250810190611ce19190612fff565b90508060408401528082188060208601525060036040850153602089015160418501528560418701850153600284604051611d1c9190612fc4565b602060405180830381855afa158015611d39573d6000803e3d6000fd5b5050506040513d601f19601f82011682018060405250810190611d5c9190612fff565b60608401525090979650505050505050565b6000610249826124ae565b60006000805160206130198339815191528083840991508083830981838209828283098385830984848309858484098684850997508684840987858409945087898a09985087898a09985087898a09985087898a09985087898a09985087878a09985087898a09985087898a09985087898a099850878a8a09985087898a09985087898a09985087898a09985087898a099850878a8a09985087898a09985087898a09985087898a09985087898a09985087898a09985087848a09985087898a09985087898a09985087898a09985087898a09985087898a09985087848a09985087898a09985087898a09985087898a099850878a8a09985087898a09985087898a09985087898a09985087898a09985087848a09985087898a09985087898a09985087898a09985087898a09985087898a099850878a8a09985087898a09985087898a09985087898a09985087898a09985087878a09985087898a09985087898a09985087898a09985087898a09985087898a09985087898a09985087898a09985087818a09985087898a09985087898a09985087898a09985087898a09985087898a09985087898a09985087898a09985087898a09985087898a09985087898a09985087868a09985087898a09985087898a09985087898a09985087898a09985087878a09985087898a09985087898a09985087898a09985087898a09985087848a09985087898a09985087898a09985087898a09985087898a09985087898a09985087898a09985087898a09985087868a09985087898a09985087898a09985087898a09985087898a09985087898a09985087898a099850878a8a09985087898a09985087898a09985087898a09985087898a09985087898a09985087898a09985087898a09985087828a09985087898a09985087898a09985087898a09985087898a09985087898a09985087818a09985087898a09985087898a09985087898a09985087868a09985087898a09985087898a09985087898a09985087898a09985087898a09985087898a09985087898a09985087898a09985087878a09985087898a09985087898a09985087898a09985087898a09985087898a09985087898a09985087898a09985087898a09985087898a09985087868a09985087898a09985087898a09985087898a09985087878a09985087898a09985087898a09985087898a09985087898a09985087898a09985087898a09985087898a09985087898a09985087828a09985087898a09985087898a09985087898a09985087898a09985087828a09985087898a09985087898a09985087898a09985087898a09985087898a09985087868a09985087898a09985087898a09985087898a09985087848a09985087898a09985087898a09985087898a09985087898a09985087898a09985087898a09985087898a09985087898a09985087898a09985087898a09985087828a09985087898a09985087898a09985087898a09985087898a09985087868a09985087898a09985087898a09985087898a09985087898a09985087898a09985087838a09985087898a09985087898a09985087898a09985087898a09985087898a09985087898a09985087898a09985087828a09985087898a09985087898a099850878a8a09985087898a09985087898a09985087898a09985087898a09985087898a09985087898a09985087898a09985087848a09985087898a09985087898a09985087898a09985087898a09985087898a09985087898a09985087848a09985087898a09985087898a09985087898a09985087898a09985087898a09985087868a09985087898a09985087898a099850878a8a09985087898a09985087898a09985087898a09985087898a09985087898a09985087898a09985087898a09985087818a09985050868889099750868889099750868889099750868889099750868889099750868889099750868489099750868889099750868889099750868889099750868889099750868889099750868989099750868889099750868889099750868889099750868889099750868889099750868889099750868989099750868889099750868889099750868889099750868889099750868889099750868689099750868889099750868889099750868889099750868889099750868889099750868889099750868889099750868889099750868889099750868189099750508587880996508587880996508587880996508585880996508587880996508587880996508587880996508585880996508587880996508587880996508587880996508587880996508587880996508587880996508587880996508587880996508583880996508587880996508587880996508587880996508587880996508581880996508587880996508587880996508587880996508587880996508583880996508587880996508587880996508587880996508584880996508587880996508587880996508587880996508587880996508587880996508581880996505050505050808283099392505050565b60006000805160206130198339815191528083840991508083830981838209828283098385830984848309858484098684850997508684840987858409945087898a09985087898a09985087898a09985087898a09985087898a09985087878a09985087898a09985087898a09985087898a099850878a8a09985087898a09985087898a09985087898a09985087898a099850878a8a09985087898a09985087898a09985087898a09985087898a09985087898a09985087848a09985087898a09985087898a09985087898a09985087898a09985087898a09985087848a09985087898a09985087898a09985087898a099850878a8a09985087898a09985087898a09985087898a09985087898a09985087848a09985087898a09985087898a09985087898a09985087898a09985087898a099850878a8a09985087898a09985087898a09985087898a09985087898a09985087878a09985087898a09985087898a09985087898a09985087898a09985087898a09985087898a09985087898a09985087818a09985087898a09985087898a09985087898a09985087898a09985087898a09985087898a09985087898a09985087898a09985087898a09985087898a09985087868a09985087898a09985087898a09985087898a09985087898a09985087878a09985087898a09985087898a09985087898a09985087898a09985087848a09985087898a09985087898a09985087898a09985087898a09985087898a09985087898a09985087898a09985087868a09985087898a09985087898a09985087898a09985087898a09985087898a09985087898a099850878a8a09985087898a09985087898a09985087898a09985087898a09985087898a09985087898a09985087898a09985087828a09985087898a09985087898a09985087898a09985087898a09985087898a09985087818a09985087898a09985087898a09985087898a09985087868a09985087898a09985087898a09985087898a09985087898a09985087898a09985087898a09985087898a09985087898a09985087878a09985087898a09985087898a09985087898a09985087898a09985087898a09985087898a09985087898a09985087898a09985087898a09985087868a09985087898a09985087898a09985087898a09985087878a09985087898a09985087898a09985087898a09985087898a09985087898a09985087898a09985087898a09985087898a09985087828a09985087898a09985087898a09985087898a09985087898a09985087828a09985087898a09985087898a09985087898a09985087898a09985087898a09985087868a09985087898a09985087898a09985087898a09985087848a09985087898a09985087898a09985087898a09985087898a09985087898a09985087898a09985087898a09985087898a09985087898a09985087898a09985087828a09985087898a09985087898a09985087898a09985087898a09985087868a09985087898a09985087898a09985087898a09985087898a09985087898a09985087838a09985087898a09985087898a09985087898a09985087898a09985087898a09985087898a09985087898a09985087828a09985087898a09985087898a099850878a8a09985087898a09985087898a09985087898a09985087898a09985087898a09985087898a09985087898a09985087848a09985087898a09985087898a09985087898a09985087898a09985087898a09985087898a09985087848a09985087898a09985087898a09985087898a09985087898a09985087898a09985087868a09985087898a09985087898a099850878a8a09985087898a09985087898a09985087898a09985087898a09985087898a09985087898a09985087898a09985087818a09985050868889099750868889099750868889099750868889099750868889099750868889099750868489099750868889099750868889099750868889099750868889099750868889099750868989099750868889099750868889099750868889099750868889099750868889099750868889099750868989099750868889099750868889099750868889099750868889099750868889099750868689099750868889099750868889099750868889099750868889099750868889099750868889099750868889099750868889099750868889099750868189099750508587880996508587880996508587880996508585880996508587880996508587880996508587880996508585880996508587880996508587880996508587880996508587880996508587880996508587880996508587880996508587880996508583880996508587880996508587880996508587880996508587880996508581880996505050838586099450838586099450838586099450838586099450838186099450508284850993508284850993508284850993508281850993508284850993508284850993508285850993508284850993508284850993508284850993508284850993508284850993508284850993508281850995945050505050565b60405180604001604052806002906020820280368337509192915050565b60405180602001604052806001906020820280368337509192915050565b60405180608001604052806004906020820280368337509192915050565b806040810183101561024957600080fd5b600060408284031215612c7257600080fd5b61029c8383612c4f565b634e487b7160e01b600052604160045260246000fd5b600082601f830112612ca357600080fd5b813567ffffffffffffffff80821115612cbe57612cbe612c7c565b604051601f8301601f19908116603f01168101908282118183101715612ce657612ce6612c7c565b81604052838152866020858801011115612cff57600080fd5b836020870160208301376000602085830101528094505050505092915050565b60008060408385031215612d3257600080fd5b823567ffffffffffffffff80821115612d4a57600080fd5b612d5686838701612c92565b93506020850135915080821115612d6c57600080fd5b50612d7985828601612c92565b9150509250929050565b806080810183101561024957600080fd5b60008060006101008486031215612daa57600080fd5b612db48585612c4f565b9250612dc38560408601612d83565b9150612dd28560c08601612c4f565b90509250925092565b600060208284031215612ded57600080fd5b5035919050565b60008083601f840112612e0657600080fd5b50813567ffffffffffffffff811115612e1e57600080fd5b6020830191508360208260061b8501011115612e3957600080fd5b9250929050565b600080600080600060808688031215612e5857600080fd5b612e628787612c4f565b9450604086013567ffffffffffffffff80821115612e7f57600080fd5b818801915088601f830112612e9357600080fd5b813581811115612ea257600080fd5b8960208260071b8501011115612eb757600080fd5b602083019650809550506060880135915080821115612ed557600080fd5b50612ee288828901612df4565b969995985093965092949392505050565b600060808284031215612f0557600080fd5b61029c8383612d83565b634e487b7160e01b600052601160045260246000fd5b600082821015612f3757612f37612f0f565b500390565b634e487b7160e01b600052603260045260246000fd5b60008219821115612f6557612f65612f0f565b500190565b6000816000190483118215151615612f8457612f84612f0f565b500290565b600060018201612f9b57612f9b612f0f565b5060010190565b600082612fbf57634e487b7160e01b600052601260045260246000fd5b500690565b6000825160005b81811015612fe55760208186018101518583015201612fcb565b81811115612ff4576000828501525b509190910192915050565b60006020828403121561301157600080fd5b505191905056fe30644e72e131a029b85045b68181585d97816a916871ca8d3c208c16d87cfd47a2646970667358221220bb07960a5776b88f27f49b1ff4abe3f0e1fc1c94154fc31b655b0b00b1a19d9e64736f6c634300080f0033",
  "linkReferences": {},
  "deployedLinkReferences": {}
}