{
  "_format": "hh-sol-artifact-1",
  "contractName": "TestBLS",
  "sourceName": "contracts/test/TestBLS.sol",
  "abi": [
    {
      "inputs": [
        {
          "internalType": "bytes",
          "name": "domain",
          "type": "bytes"
        },
        {
          "internalType": "bytes",
          "name": "message",
          "type": "bytes"
        }
      ],
      "name": "_expandMsg",
      "outputs": [
        {
          "internalType": "bytes",
          "name": "",
          "type": "bytes"
        }
      ],
      "stateMutability": "view",
      "type": "function"
    },
    {
      "inputs": [
        {
          "internalType": "bytes",
          "name": "domain",
          "type": "bytes"
        },
        {
          "internalType": "bytes",
          "name": "message",
          "type": "bytes"
        }
      ],
      "name": "_hashToField",
      "outputs": [
        {
          "internalType": "uint256[2]",
          "name": "",
          "type": "uint256[2]"
        }
      ],
      "stateMutability": "view",
      "type": "function"
    },
    {
      "inputs": [
        {
          "internalType": "bytes",
          "name": "domain",
          "type": "bytes"
        },
        {
          "internalType": "bytes",
          "name": "message",
          "type": "bytes"
        }
      ],
      "name": "_hashToPoint",
      "outputs": [
        {
          "internalType": "uint256[2]",
          "name": "",
          "type": "uint256[2]"
        }
      ],
      "stateMutability": "view",
      "type": "function"
    },
    {
      "inputs": [
        {
          "internalType": "uint256",
          "name": "a",
          "type": "uint256"
        }
      ],
      "name": "_inverse",
      "outputs": [
        {
          "internalType": "uint256",
          "name": "",
          "type": "uint256"
        }
      ],
      "stateMutability": "view",
      "type": "function"
    },
    {
      "inputs": [
        {
          "internalType": "uint256",
          "name": "a",
          "type": "uint256"
        }
      ],
      "name": "_inverseFaster",
      "outputs": [
        {
          "internalType": "uint256",
          "name": "",
          "type": "uint256"
        }
      ],
      "stateMutability": "view",
      "type": "function"
    },
    {
      "inputs": [
        {
          "internalType": "uint256",
          "name": "e",
          "type": "uint256"
        }
      ],
      "name": "_isNonResidueFP",
      "outputs": [
        {
          "internalType": "bool",
          "name": "",
          "type": "bool"
        }
      ],
      "stateMutability": "view",
      "type": "function"
    },
    {
      "inputs": [
        {
          "internalType": "uint256[2]",
          "name": "e",
          "type": "uint256[2]"
        }
      ],
      "name": "_isNonResidueFP2",
      "outputs": [
        {
          "internalType": "bool",
          "name": "",
          "type": "bool"
        }
      ],
      "stateMutability": "view",
      "type": "function"
    },
    {
      "inputs": [
        {
          "internalType": "uint256[2]",
          "name": "point",
          "type": "uint256[2]"
        }
      ],
      "name": "_isOnCurveG1",
      "outputs": [
        {
          "internalType": "bool",
          "name": "",
          "type": "bool"
        }
      ],
      "stateMutability": "pure",
      "type": "function"
    },
    {
      "inputs": [
        {
          "internalType": "uint256",
          "name": "point",
          "type": "uint256"
        }
      ],
      "name": "_isOnCurveG1Compressed",
      "outputs": [
        {
          "internalType": "bool",
          "name": "",
          "type": "bool"
        }
      ],
      "stateMutability": "view",
      "type": "function"
    },
    {
      "inputs": [
        {
          "internalType": "uint256[4]",
          "name": "point",
          "type": "uint256[4]"
        }
      ],
      "name": "_isOnCurveG2",
      "outputs": [
        {
          "internalType": "bool",
          "name": "",
          "type": "bool"
        }
      ],
      "stateMutability": "pure",
      "type": "function"
    },
    {
      "inputs": [
        {
          "internalType": "uint256[2]",
          "name": "point",
          "type": "uint256[2]"
        }
      ],
      "name": "_isOnCurveG2Compressed",
      "outputs": [
        {
          "internalType": "bool",
          "name": "",
          "type": "bool"
        }
      ],
      "stateMutability": "view",
      "type": "function"
    },
    {
      "inputs": [
        {
          "internalType": "uint256[2]",
          "name": "compressed",
          "type": "uint256[2]"
        }
      ],
      "name": "_isValidCompressedPublicKey",
      "outputs": [
        {
          "internalType": "bool",
          "name": "",
          "type": "bool"
        }
      ],
      "stateMutability": "view",
      "type": "function"
    },
    {
      "inputs": [
        {
          "internalType": "uint256",
          "name": "compressed",
          "type": "uint256"
        }
      ],
      "name": "_isValidCompressedSignature",
      "outputs": [
        {
          "internalType": "bool",
          "name": "",
          "type": "bool"
        }
      ],
      "stateMutability": "view",
      "type": "function"
    },
    {
      "inputs": [
        {
          "internalType": "uint256",
          "name": "e",
          "type": "uint256"
        }
      ],
      "name": "_mapToPointFT",
      "outputs": [
        {
          "internalType": "uint256[2]",
          "name": "p",
          "type": "uint256[2]"
        }
      ],
      "stateMutability": "view",
      "type": "function"
    },
    {
      "inputs": [
        {
          "internalType": "bytes32",
          "name": "e",
          "type": "bytes32"
        }
      ],
      "name": "_mapToPointTI",
      "outputs": [
        {
          "internalType": "uint256[2]",
          "name": "p",
          "type": "uint256[2]"
        }
      ],
      "stateMutability": "view",
      "type": "function"
    },
    {
      "inputs": [
        {
          "internalType": "uint256[2]",
          "name": "compressed",
          "type": "uint256[2]"
        },
        {
          "internalType": "uint256[2]",
          "name": "y",
          "type": "uint256[2]"
        }
      ],
      "name": "_pubkeyToUncompresed",
      "outputs": [
        {
          "internalType": "uint256[4]",
          "name": "uncompressed",
          "type": "uint256[4]"
        }
      ],
      "stateMutability": "pure",
      "type": "function"
    },
    {
      "inputs": [
        {
          "internalType": "uint256",
          "name": "compressed",
          "type": "uint256"
        },
        {
          "internalType": "uint256",
          "name": "y",
          "type": "uint256"
        }
      ],
      "name": "_signatureToUncompresed",
      "outputs": [
        {
          "internalType": "uint256[2]",
          "name": "uncompressed",
          "type": "uint256[2]"
        }
      ],
      "stateMutability": "pure",
      "type": "function"
    },
    {
      "inputs": [
        {
          "internalType": "uint256",
          "name": "xx",
          "type": "uint256"
        }
      ],
      "name": "_sqrt",
      "outputs": [
        {
          "internalType": "uint256",
          "name": "",
          "type": "uint256"
        },
        {
          "internalType": "bool",
          "name": "",
          "type": "bool"
        }
      ],
      "stateMutability": "view",
      "type": "function"
    },
    {
      "inputs": [
        {
          "internalType": "uint256",
          "name": "xx",
          "type": "uint256"
        }
      ],
      "name": "_sqrtFaster",
      "outputs": [
        {
          "internalType": "uint256",
          "name": "",
          "type": "uint256"
        },
        {
          "internalType": "bool",
          "name": "",
          "type": "bool"
        }
      ],
      "stateMutability": "view",
      "type": "function"
    },
    {
      "inputs": [
        {
          "internalType": "uint256[2]",
          "name": "signature",
          "type": "uint256[2]"
        },
        {
          "internalType": "uint256[4][]",
          "name": "pubkeys",
          "type": "uint256[4][]"
        },
        {
          "internalType": "uint256[2][]",
          "name": "messages",
          "type": "uint256[2][]"
        }
      ],
      "name": "_verifyMultiple",
      "outputs": [
        {
          "internalType": "bool",
          "name": "",
          "type": "bool"
        }
      ],
      "stateMutability": "view",
      "type": "function"
    },
    {
      "inputs": [
        {
          "internalType": "uint256[2]",
          "name": "signature",
          "type": "uint256[2]"
        },
        {
          "internalType": "uint256[4]",
          "name": "pubkey",
          "type": "uint256[4]"
        },
        {
          "internalType": "uint256[2]",
          "name": "message",
          "type": "uint256[2]"
        }
      ],
      "name": "_verifySingle",
      "outputs": [
        {
          "internalType": "bool",
          "name": "",
          "type": "bool"
        }
      ],
      "stateMutability": "view",
      "type": "function"
    }
  ],
  "bytecode": "0x608060405234801561001057600080fd5b50613736806100206000396000f3fe608060405234801561001057600080fd5b50600436106101775760003560e01c806390baab7f116100d8578063e1fcad4a1161008c578063f73caea811610066578063f73caea814610331578063f8c6c05f14610344578063ffef569c1461035757600080fd5b8063e1fcad4a146102f8578063f45dded61461030b578063f66d032f1461031e57600080fd5b8063ac39a635116100bd578063ac39a635146102bf578063b4a5eaca146102d2578063ca608d01146102e557600080fd5b806390baab7f1461029957806391717524146102ac57600080fd5b80636e000f021161012f57806378d8be241161011457806378d8be241461024557806385a2b168146102585780638cecf66e1461027857600080fd5b80636e000f021461021f57806375e066501461023257600080fd5b80634bfc36e4116101605780634bfc36e4146101c457806350c406f7146101e45780636a263f02146101f757600080fd5b80632758ebce1461017c578063384cd5c4146101a4575b600080fd5b61018f61018a366004613119565b61036a565b60405190151581526020015b60405180910390f35b6101b76101b2366004613159565b610384565b60405161019b91906131ea565b6101d76101d2366004613119565b6103c0565b60405161019b919061321b565b61018f6101f2366004613243565b6103d1565b61020a610205366004613119565b610409565b6040805192835290151560208301520161019b565b61018f61022d366004613243565b61041e565b6101d76102403660046132ec565b61044d565b61018f610253366004613361565b61045f565b61026b6102663660046133f1565b6104d5565b60405161019b919061348d565b61028b610286366004613119565b610553565b60405190815260200161019b565b61018f6102a7366004613505565b61055e565b61018f6102ba366004613119565b61065d565b61018f6102cd366004613119565b610668565b6101d76102e0366004613119565b610673565b6101d76102f33660046135b8565b610684565b61018f6103063660046135da565b610696565b61018f610319366004613243565b6106ca565b61018f61032c366004613243565b6106f9565b6101d761033f3660046133f1565b610728565b61028b610352366004613119565b6107a3565b61020a610365366004613119565b6107ae565b600061037e6001600160ff1b0383166107ba565b92915050565b61038c6130bf565b6040805180820182526103b9918590600290839083908082843760009201919091525085915061086a9050565b9392505050565b6103c86130dd565b61037e8261091e565b6040805180820190915281356001600160ff1b031680825260208084013590830181905260009261040190610d1e565b949350505050565b60008061041583610e99565b91509150915091565b60408051808201825260009161037e919084906002908390839080828437600092019190915250610f6f915050565b6104556130dd565b6103b9838361108c565b604080518082018252600091610401919086906002908390839080828437600092019190915250506040805160808181019092529150869060049083908390808284376000920191909152505060408051808201825291508690600290839083908082843760009201919091525061113c915050565b606061054a85858080601f01602080910402602001604051908101604052809392919081815260200183838082843760009201919091525050604080516020601f8901819004810282018101909252878152925087915086908190840183828082843760009201919091525061132292505050565b95945050505050565b600061037e8261162e565b6040805180820182526000916106539190889060029083908390808284376000920182905250604080516020808c02820181019092528a815293508a92508991829185015b828210156105e457604080516080818101909252908084028701906004908390839080828437600092019190915250505081526001909101906020016105a3565b50505050508585808060200260200160405190810160405280939291908181526020016000905b82821015610649576040805180820182529080840287019060029083908390808284376000920191909152505050815260019091019060200161060b565b50505050506116ec565b9695505050505050565b600061037e82611c5b565b600061037e82611c9f565b61067b6130dd565b61037e82611d87565b61068c6130dd565b6103b98383611e31565b600061037e826004806020026040519081016040528092919082600460200280828437600092019190915250611ed5915050565b60408051808201825260009161037e91908490600290839083908082843760009201919091525061203c915050565b60408051808201825260009161037e9190849060029083908390808284376000920191909152506120c2915050565b6107306130dd565b61054a85858080601f01602080910402602001604051908101604052809392919081815260200183838082843760009201919091525050604080516020601f8901819004810282018101909252878152925087915086908190840183828082843760009201919091525061212192505050565b600061037e8261220f565b6000806104158361221a565b600080826000805160206136e18339815191528182096000805160206136e183398151915282820990506000805160206136e183398151915260038208905060405191506020825260208083015260206040830152806060830152507f183227397098d014dc2822db40c0ac2ecbc0b548b438e5469e10460b6c3e7ea360808201526000805160206136e183398151915260a082015260208160c08360056107d05a03fa50516001149392505050565b6108726130bf565b8251600160ff1b9081169081148061088f57508251600190811614155b6108f45760405162461bcd60e51b815260206004820152602b60248201527f424c533a20626164207920636f6f7264696e61746520666f7220756e636f6d7060448201526a72657373696e67206b657960a81b60648201526084015b60405180910390fd5b5082516001600160ff1b031681526020928301518184015281516040820152910151606082015290565b6109266130dd565b6000805160206136e183398151915282106109a95760405162461bcd60e51b815260206004820152602360248201527f6d6170546f506f696e7446543a20696e76616c6964206669656c6420656c656d60448201527f656e74000000000000000000000000000000000000000000000000000000000060648201526084016108eb565b8160006109b582611c9f565b905060006000805160206136e183398151915283840990506000805160206136e183398151915260048208905060006000805160206136e183398151915277b3c4d79d41a91759a9e4c7e359b6b89eaec68e62effffffd8509905060006000805160206136e18339815191528383099050610a2f8161220f565b90506000805160206136e183398151915282830991506000805160206136e183398151915281830991506000805160206136e183398151915282860991506000805160206136e1833981519152610a94836000805160206136e1833981519152613622565b7759e26bcea0d48bacd4f263f1acdb5c4f5763473177fffffe0894506000805160206136e183398151915285860991506000805160206136e183398151915285830991506000805160206136e18339815191526003830891506000610af88361221a565b90935090508015610b41578415610b2457610b21836000805160206136e1833981519152613622565b92505b505060408051808201909152938452602084015250909392505050565b6000805160206136e183398151915260018708610b6c906000805160206136e1833981519152613622565b95506000805160206136e183398151915286870992506000805160206136e183398151915286840992506000805160206136e1833981519152600384089250610bb48361221a565b90935090508015610bdd578415610b2457610b21836000805160206136e1833981519152613622565b6000805160206136e183398151915284850995506000805160206136e183398151915286870995506000805160206136e183398151915282870995506000805160206136e183398151915282870995506000805160206136e18339815191526001870895506000805160206136e183398151915286870992506000805160206136e183398151915286840992506000805160206136e1833981519152600384089250610c888361221a565b909350905080610d005760405162461bcd60e51b815260206004820152602260248201527f424c533a20626164206674206d617070696e6720696d706c656d656e7461746960448201527f6f6e00000000000000000000000000000000000000000000000000000000000060648201526084016108eb565b8415610b2457610b21836000805160206136e1833981519152613622565b600080600083015160208401516000805160206136e18339815191528283096000805160206136e183398151915282830981828301016000805160206136e183398151915282838401086000805160206136e183398151915286826000805160206136e1833981519152038601099350506000805160206136e183398151915284836000805160206136e1833981519152038301099150507f2b149d40ceb8aaae81be18991be06ac3b5b4c5e559dbefa33267e6dc24a138e5820193507e9713b03af0fed4cd2cafadeed8fdf4a74fa084e52d1852e4a2bd0685c315d28101925050506000805160206136e1833981519152808283096000805160206136e18339815191528485090891505060405160208152602080820152602060408201528160608201527f183227397098d014dc2822db40c0ac2ecbc0b548b438e5469e10460b6c3e7ea360808201526000805160206136e183398151915260a082015260208160c08360056107d05a03fa5051600114949350505050565b600080600060405160208152602080820152602060408201528460608201527f0c19139cb84c680a6e14116da060561765e05aa45a1c72a34f082305b61f3f5260808201526000805160206136e183398151915260a082015260208160c08360056107d05a03fa9051935090506000805160206136e18339815191528380098414915080610f695760405162461bcd60e51b815260206004820152601c60248201527f424c533a2073717274206d6f646578702063616c6c206661696c65640000000060448201526064016108eb565b50915091565b602081015160009081906000805160206136e1833981519152908190800984516000805160206136e1833981519152908009089050600060405160208152602080820152602060408201528260608201527f183227397098d014dc2822db40c0ac2ecbc0b548b438e5469e10460b6c3e7ea360808201526000805160206136e183398151915260a082015260208160c08360056107d05a03fa905160011493509050806110845760405162461bcd60e51b815260206004820152602760248201527f424c533a2069734e6f6e52657369647565465032206d6f646578702063616c6c60448201527f206661696c65640000000000000000000000000000000000000000000000000060648201526084016108eb565b505015919050565b6110946130dd565b60006110a08484612121565b905060006110b482825b602002015161091e565b905060006110c38360016110aa565b90506110cd6130bf565b825181526020808401518282015282516040808401919091529083015160608301526000908460808460066107d05a03fa9050808061110857fe5b50806111305760405162461bcd60e51b815260206004820152600060248201526044016108eb565b50919695505050505050565b6000806040518061018001604052808660006002811061115e5761115e6135f6565b602002015181526020018660016002811061117b5761117b6135f6565b602002015181526020017f198e9393920d483a7260bfb731fb5d25f1aa493335a9e71297e485b7aef312c281526020017f1800deef121f1e76426a00665e5c4479674322d4f75edadd46debd5cd992f6ed81526020017f275dc4a288d1afb3cbb1ac09187524c7db36395df7be3b99e673b13a075a65ec81526020017f1d9befcd05a5323e6da4d435f3b617cdb3af83285c2df711ef39c01571827f9d815260200184600060028110611230576112306135f6565b602002015181526020018460016002811061124d5761124d6135f6565b602002015181526020018560016004811061126a5761126a6135f6565b6020020151815260200185600060048110611287576112876135f6565b60200201518152602001856003600481106112a4576112a46135f6565b60200201518152602001856002600481106112c1576112c16135f6565b6020020151905290506112d26130fb565b60006020826101808560086107d05a03fa905080806112ed57fe5b50806113155760405162461bcd60e51b815260206004820152600060248201526044016108eb565b5051151595945050505050565b815160609061010081106113785760405162461bcd60e51b815260206004820152601a60248201527f424c533a20696e76616c696420646f6d61696e206c656e67746800000000000060448201526064016108eb565b825160006113868284613639565b611391906040613639565b61139c906004613639565b67ffffffffffffffff8111156113b4576113b4613143565b6040519080825280601f01601f1916602001820160405280156113de576020820181803683370190505b5060408051606080825260808201909252919250600091906020820181803683370190505090506060820160005b84811015611426576020818901810151838301520161140c565b5083016000815360010160608153600101600081536001810190506020880151815284810190508481535060006002836040516114639190613651565b602060405180830381855afa158015611480573d6000803e3d6000fd5b5050506040513d601f19601f820116820180604052508101906114a3919061366d565b905060006114b2866022613639565b9450848452816020850152600160408501536020890151604185015285604187018501536002846040516114e69190613651565b602060405180830381855afa158015611503573d6000803e3d6000fd5b5050506040513d601f19601f82011682018060405250810190611526919061366d565b905080602084015280821880602086015250600260408501536020890151604185015285604187018501536002846040516115619190613651565b602060405180830381855afa15801561157e573d6000803e3d6000fd5b5050506040513d601f19601f820116820180604052508101906115a1919061366d565b905080604084015280821880602086015250600360408501536020890151604185015285604187018501536002846040516115dc9190613651565b602060405180830381855afa1580156115f9573d6000803e3d6000fd5b5050506040513d601f19601f8201168201806040525081019061161c919061366d565b60608401525090979650505050505050565b60008060405160208152602080820152602060408201528360608201527f30644e72e131a029b85045b68181585d97816a916871ca8d3c208c16d87cfd4560808201526000805160206136e183398151915260a082015260208160c08360056107d05a03fa905192509050806116e65760405162461bcd60e51b815260206004820152601f60248201527f424c533a20696e7665727365206d6f646578702063616c6c206661696c65640060448201526064016108eb565b50919050565b8151600090806117645760405162461bcd60e51b815260206004820152602160248201527f424c533a206e756d626572206f66207075626c6963206b6579206973207a657260448201527f6f0000000000000000000000000000000000000000000000000000000000000060648201526084016108eb565b825181146117da5760405162461bcd60e51b815260206004820152603560248201527f424c533a206e756d626572206f66207075626c6963206b65797320616e64206d60448201527f65737361676573206d75737420626520657175616c000000000000000000000060648201526084016108eb565b60006117e7826001613639565b6117f2906006613686565b905060008167ffffffffffffffff81111561180f5761180f613143565b604051908082528060200260200182016040528015611838578160200160208202803683370190505b509050866000602002015181600081518110611856576118566135f6565b602090810291909101015286600160200201518160018151811061187c5761187c6135f6565b6020026020010181815250507f198e9393920d483a7260bfb731fb5d25f1aa493335a9e71297e485b7aef312c2816002815181106118bc576118bc6135f6565b6020026020010181815250507f1800deef121f1e76426a00665e5c4479674322d4f75edadd46debd5cd992f6ed816003815181106118fc576118fc6135f6565b6020026020010181815250507f275dc4a288d1afb3cbb1ac09187524c7db36395df7be3b99e673b13a075a65ec8160048151811061193c5761193c6135f6565b6020026020010181815250507f1d9befcd05a5323e6da4d435f3b617cdb3af83285c2df711ef39c01571827f9d8160058151811061197c5761197c6135f6565b60200260200101818152505060005b83811015611bfc578581815181106119a5576119a56135f6565b60200260200101516000600281106119bf576119bf6135f6565b6020020151826119d0836006613686565b6119db906006613639565b815181106119eb576119eb6135f6565b602002602001018181525050858181518110611a0957611a096135f6565b6020026020010151600160028110611a2357611a236135f6565b602002015182611a34836006613686565b611a3f906007613639565b81518110611a4f57611a4f6135f6565b602002602001018181525050868181518110611a6d57611a6d6135f6565b6020026020010151600160048110611a8757611a876135f6565b602002015182611a98836006613686565b611aa3906008613639565b81518110611ab357611ab36135f6565b602002602001018181525050868181518110611ad157611ad16135f6565b6020026020010151600060048110611aeb57611aeb6135f6565b602002015182611afc836006613686565b611b07906009613639565b81518110611b1757611b176135f6565b602002602001018181525050868181518110611b3557611b356135f6565b6020026020010151600360048110611b4f57611b4f6135f6565b602002015182611b60836006613686565b611b6b90600a613639565b81518110611b7b57611b7b6135f6565b602002602001018181525050868181518110611b9957611b996135f6565b6020026020010151600260048110611bb357611bb36135f6565b602002015182611bc4836006613686565b611bcf90600b613639565b81518110611bdf57611bdf6135f6565b602090810291909101015280611bf4816136a5565b91505061198b565b50611c056130fb565b6000602082602086026020860160086107d05a03fa90508080611c2457fe5b5080611c4c5760405162461bcd60e51b815260206004820152600060248201526044016108eb565b50511515979650505050505050565b60006001600160ff1b0382166000805160206136e18339815191528110611c855750600092915050565b80600003611c965750600092915050565b6103b9816107ba565b60008060405160208152602080820152602060408201528360608201527f183227397098d014dc2822db40c0ac2ecbc0b548b438e5469e10460b6c3e7ea360808201526000805160206136e183398151915260a082015260208160c08360056107d05a03fa90516001149250905080611d805760405162461bcd60e51b815260206004820152602660248201527f424c533a2069734e6f6e526573696475654650206d6f646578702063616c6c2060448201527f6661696c6564000000000000000000000000000000000000000000000000000060648201526084016108eb565b5015919050565b611d8f6130dd565b6000611da96000805160206136e1833981519152846136be565b90506000805b6000805160206136e183398151915283840991506000805160206136e183398151915283830991506000805160206136e1833981519152600383089150611df58261221a565b90925090508015611e0f5782845260208401829052611e29565b6000805160206136e1833981519152600184089250611daf565b505050919050565b611e396130dd565b600160ff1b83811690811480611e53575082600116600114155b611eb35760405162461bcd60e51b815260206004820152602b60248201527f424c533a20626164207920636f6f7264696e61746520666f7220756e636f6d7060448201526a72657373696e67206b657960a81b60648201526084016108eb565b5050604080518082019091526001600160ff1b03929092168252602082015290565b6000815160208301516000805160206136e18339815191528283096000805160206136e183398151915282830981828301016000805160206136e183398151915282838401086000805160206136e183398151915286826000805160206136e1833981519152038601099350506000805160206136e183398151915284836000805160206136e18339815191520383010991506000805160206136e18339815191527f2b149d40ceb8aaae81be18991be06ac3b5b4c5e559dbefa33267e6dc24a138e5840894506000805160206136e18339815191527e9713b03af0fed4cd2cafadeed8fdf4a74fa084e52d1852e4a2bd0685c315d28308935060408701519250606087015191506000805160206136e183398151915280836000805160206136e18339815191520385086000805160206136e18339815191528486080990506000805160206136e1833981519152828460011b0994149290931491909116949350505050565b805160208201516000916001600160ff1b0316906000805160206136e18339815191528210158061207b57506000805160206136e18339815191528110155b1561208a575060009392505050565b81158015612096575080155b156120a5575060009392505050565b610401604051806040016040528084815260200183815250610d1e565b6000815160208301516000805160206136e18339815191528283096000805160206136e183398151915283820990506000805160206136e18339815191526003820890506000805160206136e183398151915282830914949350505050565b6121296130dd565b60006121358484611322565b90506000806000806018850177ffffffffffffffffffffffffffffffffffffffffffffffff815116935060308601905077ffffffffffffffffffffffffffffffffffffffffffffffff81511694506000805160206136e1833981519152856000805160206136e1833981519152600160c01b8709086048870151606088015177ffffffffffffffffffffffffffffffffffffffffffffffff908116975016945092506000805160206136e183398151915290508481600160c01b860908604080518082019091529283526020830152509695505050505050565b600061037e82612243565b6000806122268361298a565b9150826000805160206136e1833981519152838409149050915091565b60006000805160206136e18339815191528083840991508083830981838209828283098385830984848309858484098684850997508684840987858409945087898a09985087898a09985087898a09985087898a09985087898a09985087878a09985087898a09985087898a09985087898a099850878a8a09985087898a09985087898a09985087898a09985087898a099850878a8a09985087898a09985087898a09985087898a09985087898a09985087898a09985087848a09985087898a09985087898a09985087898a09985087898a09985087898a09985087848a09985087898a09985087898a09985087898a099850878a8a09985087898a09985087898a09985087898a09985087898a09985087848a09985087898a09985087898a09985087898a09985087898a09985087898a099850878a8a09985087898a09985087898a09985087898a09985087898a09985087878a09985087898a09985087898a09985087898a09985087898a09985087898a09985087898a09985087898a09985087818a09985087898a09985087898a09985087898a09985087898a09985087898a09985087898a09985087898a09985087898a09985087898a09985087898a09985087868a09985087898a09985087898a09985087898a09985087898a09985087878a09985087898a09985087898a09985087898a09985087898a09985087848a09985087898a09985087898a09985087898a09985087898a09985087898a09985087898a09985087898a09985087868a09985087898a09985087898a09985087898a09985087898a09985087898a09985087898a099850878a8a09985087898a09985087898a09985087898a09985087898a09985087898a09985087898a09985087898a09985087828a09985087898a09985087898a09985087898a09985087898a09985087898a09985087818a09985087898a09985087898a09985087898a09985087868a09985087898a09985087898a09985087898a09985087898a09985087898a09985087898a09985087898a09985087898a09985087878a09985087898a09985087898a09985087898a09985087898a09985087898a09985087898a09985087898a09985087898a09985087898a09985087868a09985087898a09985087898a09985087898a09985087878a09985087898a09985087898a09985087898a09985087898a09985087898a09985087898a09985087898a09985087898a09985087828a09985087898a09985087898a09985087898a09985087898a09985087828a09985087898a09985087898a09985087898a09985087898a09985087898a09985087868a09985087898a09985087898a09985087898a09985087848a09985087898a09985087898a09985087898a09985087898a09985087898a09985087898a09985087898a09985087898a09985087898a09985087898a09985087828a09985087898a09985087898a09985087898a09985087898a09985087868a09985087898a09985087898a09985087898a09985087898a09985087898a09985087838a09985087898a09985087898a09985087898a09985087898a09985087898a09985087898a09985087898a09985087828a09985087898a09985087898a099850878a8a09985087898a09985087898a09985087898a09985087898a09985087898a09985087898a09985087898a09985087848a09985087898a09985087898a09985087898a09985087898a09985087898a09985087898a09985087848a09985087898a09985087898a09985087898a09985087898a09985087898a09985087868a09985087898a09985087898a099850878a8a09985087898a09985087898a09985087898a09985087898a09985087898a09985087898a09985087898a09985087818a09985050868889099750868889099750868889099750868889099750868889099750868889099750868489099750868889099750868889099750868889099750868889099750868889099750868989099750868889099750868889099750868889099750868889099750868889099750868889099750868989099750868889099750868889099750868889099750868889099750868889099750868689099750868889099750868889099750868889099750868889099750868889099750868889099750868889099750868889099750868889099750868189099750508587880996508587880996508587880996508585880996508587880996508587880996508587880996508585880996508587880996508587880996508587880996508587880996508587880996508587880996508587880996508587880996508583880996508587880996508587880996508587880996508587880996508581880996505050838586099450838586099450838586099450838586099450838186099450508284850993508284850993508284850993508281850993508284850993508284850993508285850993508284850993508284850993508284850993508284850993508284850993508284850993508281850995945050505050565b60006000805160206136e18339815191528083840991508083830981838209828283098385830984848309858484098684850997508684840987858409945087898a09985087898a09985087898a09985087898a09985087898a09985087878a09985087898a09985087898a09985087898a099850878a8a09985087898a09985087898a09985087898a09985087898a099850878a8a09985087898a09985087898a09985087898a09985087898a09985087898a09985087848a09985087898a09985087898a09985087898a09985087898a09985087898a09985087848a09985087898a09985087898a09985087898a099850878a8a09985087898a09985087898a09985087898a09985087898a09985087848a09985087898a09985087898a09985087898a09985087898a09985087898a099850878a8a09985087898a09985087898a09985087898a09985087898a09985087878a09985087898a09985087898a09985087898a09985087898a09985087898a09985087898a09985087898a09985087818a09985087898a09985087898a09985087898a09985087898a09985087898a09985087898a09985087898a09985087898a09985087898a09985087898a09985087868a09985087898a09985087898a09985087898a09985087898a09985087878a09985087898a09985087898a09985087898a09985087898a09985087848a09985087898a09985087898a09985087898a09985087898a09985087898a09985087898a09985087898a09985087868a09985087898a09985087898a09985087898a09985087898a09985087898a09985087898a099850878a8a09985087898a09985087898a09985087898a09985087898a09985087898a09985087898a09985087898a09985087828a09985087898a09985087898a09985087898a09985087898a09985087898a09985087818a09985087898a09985087898a09985087898a09985087868a09985087898a09985087898a09985087898a09985087898a09985087898a09985087898a09985087898a09985087898a09985087878a09985087898a09985087898a09985087898a09985087898a09985087898a09985087898a09985087898a09985087898a09985087898a09985087868a09985087898a09985087898a09985087898a09985087878a09985087898a09985087898a09985087898a09985087898a09985087898a09985087898a09985087898a09985087898a09985087828a09985087898a09985087898a09985087898a09985087898a09985087828a09985087898a09985087898a09985087898a09985087898a09985087898a09985087868a09985087898a09985087898a09985087898a09985087848a09985087898a09985087898a09985087898a09985087898a09985087898a09985087898a09985087898a09985087898a09985087898a09985087898a09985087828a09985087898a09985087898a09985087898a09985087898a09985087868a09985087898a09985087898a09985087898a09985087898a09985087898a09985087838a09985087898a09985087898a09985087898a09985087898a09985087898a09985087898a09985087898a09985087828a09985087898a09985087898a099850878a8a09985087898a09985087898a09985087898a09985087898a09985087898a09985087898a09985087898a09985087848a09985087898a09985087898a09985087898a09985087898a09985087898a09985087898a09985087848a09985087898a09985087898a09985087898a09985087898a09985087898a09985087868a09985087898a09985087898a099850878a8a09985087898a09985087898a09985087898a09985087898a09985087898a09985087898a09985087898a09985087818a09985050868889099750868889099750868889099750868889099750868889099750868889099750868489099750868889099750868889099750868889099750868889099750868889099750868989099750868889099750868889099750868889099750868889099750868889099750868889099750868989099750868889099750868889099750868889099750868889099750868889099750868689099750868889099750868889099750868889099750868889099750868889099750868889099750868889099750868889099750868889099750868189099750508587880996508587880996508587880996508585880996508587880996508587880996508587880996508585880996508587880996508587880996508587880996508587880996508587880996508587880996508587880996508587880996508583880996508587880996508587880996508587880996508587880996508581880996508587880996508587880996508587880996508587880996508583880996508587880996508587880996508587880996508584880996508587880996508587880996508587880996508587880996508587880996508581880996505050505050808283099392505050565b60405180608001604052806004906020820280368337509192915050565b60405180604001604052806002906020820280368337509192915050565b60405180602001604052806001906020820280368337509192915050565b60006020828403121561312b57600080fd5b5035919050565b806040810183101561037e57600080fd5b634e487b7160e01b600052604160045260246000fd5b6000806080838503121561316c57600080fd5b6131768484613132565b915083605f84011261318757600080fd5b6040516040810181811067ffffffffffffffff821117156131aa576131aa613143565b6040528060808501868111156131bf57600080fd5b604086015b818110156131dc5780358352602092830192016131c4565b505050809150509250929050565b60808101818360005b60048110156132125781518352602092830192909101906001016131f3565b50505092915050565b60408101818360005b6002811015613212578151835260209283019290910190600101613224565b60006040828403121561325557600080fd5b6103b98383613132565b600082601f83011261327057600080fd5b813567ffffffffffffffff8082111561328b5761328b613143565b604051601f8301601f19908116603f011681019082821181831017156132b3576132b3613143565b816040528381528660208588010111156132cc57600080fd5b836020870160208301376000602085830101528094505050505092915050565b600080604083850312156132ff57600080fd5b823567ffffffffffffffff8082111561331757600080fd5b6133238683870161325f565b9350602085013591508082111561333957600080fd5b506133468582860161325f565b9150509250929050565b806080810183101561037e57600080fd5b6000806000610100848603121561337757600080fd5b6133818585613132565b92506133908560408601613350565b915061339f8560c08601613132565b90509250925092565b60008083601f8401126133ba57600080fd5b50813567ffffffffffffffff8111156133d257600080fd5b6020830191508360208285010111156133ea57600080fd5b9250929050565b6000806000806040858703121561340757600080fd5b843567ffffffffffffffff8082111561341f57600080fd5b61342b888389016133a8565b9096509450602087013591508082111561344457600080fd5b50613451878288016133a8565b95989497509550505050565b60005b83811015613478578181015183820152602001613460565b83811115613487576000848401525b50505050565b60208152600082518060208401526134ac81604085016020870161345d565b601f01601f19169190910160400192915050565b60008083601f8401126134d257600080fd5b50813567ffffffffffffffff8111156134ea57600080fd5b6020830191508360208260061b85010111156133ea57600080fd5b60008060008060006080868803121561351d57600080fd5b6135278787613132565b9450604086013567ffffffffffffffff8082111561354457600080fd5b818801915088601f83011261355857600080fd5b81358181111561356757600080fd5b8960208260071b850101111561357c57600080fd5b60208301965080955050606088013591508082111561359a57600080fd5b506135a7888289016134c0565b969995985093965092949392505050565b600080604083850312156135cb57600080fd5b50508035926020909101359150565b6000608082840312156135ec57600080fd5b6103b98383613350565b634e487b7160e01b600052603260045260246000fd5b634e487b7160e01b600052601160045260246000fd5b6000828210156136345761363461360c565b500390565b6000821982111561364c5761364c61360c565b500190565b6000825161366381846020870161345d565b9190910192915050565b60006020828403121561367f57600080fd5b5051919050565b60008160001904831182151516156136a0576136a061360c565b500290565b6000600182016136b7576136b761360c565b5060010190565b6000826136db57634e487b7160e01b600052601260045260246000fd5b50069056fe30644e72e131a029b85045b68181585d97816a916871ca8d3c208c16d87cfd47a26469706673582212206ddf841e084677d0d8f784ff29aba26247f88f1af18fb4f6a112b29c66cb8d6964736f6c634300080f0033",
  "linkReferences": {},
  "deployedLinkReferences": {}
}